{
	"contracts/tokens/Token.sol": {
		"ERBToken": {
			"abi": [
				{
					"inputs": [],
					"stateMutability": "nonpayable",
					"type": "constructor"
				},
				{
					"anonymous": false,
					"inputs": [
						{
							"indexed": true,
							"internalType": "address",
							"name": "owner",
							"type": "address"
						},
						{
							"indexed": true,
							"internalType": "address",
							"name": "spender",
							"type": "address"
						},
						{
							"indexed": false,
							"internalType": "uint256",
							"name": "value",
							"type": "uint256"
						}
					],
					"name": "Approval",
					"type": "event"
				},
				{
					"anonymous": false,
					"inputs": [
						{
							"indexed": true,
							"internalType": "address",
							"name": "from",
							"type": "address"
						},
						{
							"indexed": true,
							"internalType": "address",
							"name": "to",
							"type": "address"
						},
						{
							"indexed": false,
							"internalType": "uint256",
							"name": "value",
							"type": "uint256"
						}
					],
					"name": "Transfer",
					"type": "event"
				},
				{
					"inputs": [
						{
							"internalType": "address",
							"name": "owner",
							"type": "address"
						},
						{
							"internalType": "address",
							"name": "spender",
							"type": "address"
						}
					],
					"name": "allowance",
					"outputs": [
						{
							"internalType": "uint256",
							"name": "",
							"type": "uint256"
						}
					],
					"stateMutability": "view",
					"type": "function"
				},
				{
					"inputs": [
						{
							"internalType": "address",
							"name": "spender",
							"type": "address"
						},
						{
							"internalType": "uint256",
							"name": "amount",
							"type": "uint256"
						}
					],
					"name": "approve",
					"outputs": [
						{
							"internalType": "bool",
							"name": "",
							"type": "bool"
						}
					],
					"stateMutability": "nonpayable",
					"type": "function"
				},
				{
					"inputs": [
						{
							"internalType": "address",
							"name": "account",
							"type": "address"
						}
					],
					"name": "balanceOf",
					"outputs": [
						{
							"internalType": "uint256",
							"name": "",
							"type": "uint256"
						}
					],
					"stateMutability": "view",
					"type": "function"
				},
				{
					"inputs": [],
					"name": "decimals",
					"outputs": [
						{
							"internalType": "uint8",
							"name": "",
							"type": "uint8"
						}
					],
					"stateMutability": "view",
					"type": "function"
				},
				{
					"inputs": [
						{
							"internalType": "address",
							"name": "spender",
							"type": "address"
						},
						{
							"internalType": "uint256",
							"name": "subtractedValue",
							"type": "uint256"
						}
					],
					"name": "decreaseAllowance",
					"outputs": [
						{
							"internalType": "bool",
							"name": "",
							"type": "bool"
						}
					],
					"stateMutability": "nonpayable",
					"type": "function"
				},
				{
					"inputs": [
						{
							"internalType": "address",
							"name": "spender",
							"type": "address"
						},
						{
							"internalType": "uint256",
							"name": "addedValue",
							"type": "uint256"
						}
					],
					"name": "increaseAllowance",
					"outputs": [
						{
							"internalType": "bool",
							"name": "",
							"type": "bool"
						}
					],
					"stateMutability": "nonpayable",
					"type": "function"
				},
				{
					"inputs": [
						{
							"internalType": "address",
							"name": "",
							"type": "address"
						}
					],
					"name": "locked",
					"outputs": [
						{
							"internalType": "bool",
							"name": "",
							"type": "bool"
						}
					],
					"stateMutability": "view",
					"type": "function"
				},
				{
					"inputs": [],
					"name": "name",
					"outputs": [
						{
							"internalType": "string",
							"name": "",
							"type": "string"
						}
					],
					"stateMutability": "view",
					"type": "function"
				},
				{
					"inputs": [],
					"name": "symbol",
					"outputs": [
						{
							"internalType": "string",
							"name": "",
							"type": "string"
						}
					],
					"stateMutability": "view",
					"type": "function"
				},
				{
					"inputs": [],
					"name": "totalSupply",
					"outputs": [
						{
							"internalType": "uint256",
							"name": "",
							"type": "uint256"
						}
					],
					"stateMutability": "view",
					"type": "function"
				},
				{
					"inputs": [
						{
							"internalType": "address",
							"name": "recipient",
							"type": "address"
						},
						{
							"internalType": "uint256",
							"name": "amount",
							"type": "uint256"
						}
					],
					"name": "transfer",
					"outputs": [
						{
							"internalType": "bool",
							"name": "",
							"type": "bool"
						}
					],
					"stateMutability": "nonpayable",
					"type": "function"
				},
				{
					"inputs": [
						{
							"internalType": "address",
							"name": "sender",
							"type": "address"
						},
						{
							"internalType": "address",
							"name": "recipient",
							"type": "address"
						},
						{
							"internalType": "uint256",
							"name": "amount",
							"type": "uint256"
						}
					],
					"name": "transferFrom",
					"outputs": [
						{
							"internalType": "bool",
							"name": "",
							"type": "bool"
						}
					],
					"stateMutability": "nonpayable",
					"type": "function"
				}
			],
			"devdoc": {
				"kind": "dev",
				"methods": {
					"allowance(address,address)": {
						"details": "Returns the remaining number of tokens that `spender` will be allowed to spend on behalf of `owner` through {transferFrom}. This is zero by default. This value changes when {approve} or {transferFrom} are called."
					},
					"approve(address,uint256)": {
						"details": "Sets `amount` as the allowance of `spender` over the caller's tokens. Returns a boolean value indicating whether the operation succeeded. IMPORTANT: Beware that changing an allowance with this method brings the risk that someone may use both the old and the new allowance by unfortunate transaction ordering. One possible solution to mitigate this race condition is to first reduce the spender's allowance to 0 and set the desired value afterwards: https://github.com/ethereum/EIPs/issues/20#issuecomment-263524729 Emits an {Approval} event."
					},
					"balanceOf(address)": {
						"details": "Returns the amount of tokens owned by `account`."
					},
					"decimals()": {
						"details": "Returns the decimals places of the token."
					},
					"name()": {
						"details": "Returns the name of the token."
					},
					"symbol()": {
						"details": "Returns the symbol of the token."
					},
					"totalSupply()": {
						"details": "Returns the amount of tokens in existence."
					}
				},
				"version": 1
			},
			"evm": {
				"assembly": "    /* \"contracts/tokens/Token.sol\":252:4909  contract ERBToken is Context, IERC20, IERC20Metadata {\r... */\n  mstore(0x40, 0x80)\n    /* \"contracts/tokens/Token.sol\":586:702  constructor(){\r... */\n  callvalue\n  dup1\n  iszero\n  tag_1\n  jumpi\n  0x00\n  dup1\n  revert\ntag_1:\n  pop\n    /* \"contracts/tokens/Token.sol\":610:629  _name = \"ERB Token\" */\n  mload(0x40)\n  dup1\n  0x40\n  add\n  0x40\n  mstore\n  dup1\n  0x09\n  dup2\n  mstore\n  0x20\n  add\n  0x45524220546f6b656e0000000000000000000000000000000000000000000000\n  dup2\n  mstore\n  pop\n    /* \"contracts/tokens/Token.sol\":610:615  _name */\n  0x03\n    /* \"contracts/tokens/Token.sol\":610:629  _name = \"ERB Token\" */\n  swap1\n  dup1\n  mload\n  swap1\n  0x20\n  add\n  swap1\n  tag_4\n  swap3\n  swap2\n  swap1\n  tag_5\n  jump\t// in\ntag_4:\n  pop\n    /* \"contracts/tokens/Token.sol\":640:655  _symbol = \"ERB\" */\n  mload(0x40)\n  dup1\n  0x40\n  add\n  0x40\n  mstore\n  dup1\n  0x03\n  dup2\n  mstore\n  0x20\n  add\n  0x4552420000000000000000000000000000000000000000000000000000000000\n  dup2\n  mstore\n  pop\n    /* \"contracts/tokens/Token.sol\":640:647  _symbol */\n  0x04\n    /* \"contracts/tokens/Token.sol\":640:655  _symbol = \"ERB\" */\n  swap1\n  dup1\n  mload\n  swap1\n  0x20\n  add\n  swap1\n  tag_6\n  swap3\n  swap2\n  swap1\n  tag_5\n  jump\t// in\ntag_6:\n  pop\n    /* \"contracts/tokens/Token.sol\":666:694  _mint(msg.sender, 25 * 1e25) */\n  tag_7\n    /* \"contracts/tokens/Token.sol\":672:682  msg.sender */\n  caller\n    /* \"contracts/tokens/Token.sol\":684:693  25 * 1e25 */\n  0xcecb8f27f4200f3a000000\n    /* \"contracts/tokens/Token.sol\":666:671  _mint */\n  shl(0x20, tag_8)\n    /* \"contracts/tokens/Token.sol\":666:694  _mint(msg.sender, 25 * 1e25) */\n  0x20\n  shr\n  jump\t// in\ntag_7:\n    /* \"contracts/tokens/Token.sol\":252:4909  contract ERBToken is Context, IERC20, IERC20Metadata {\r... */\n  jump(tag_9)\n    /* \"contracts/tokens/Token.sol\":3854:4253  function _mint(address account, uint256 amount) internal virtual {\r... */\ntag_8:\n    /* \"contracts/tokens/Token.sol\":3957:3958  0 */\n  0x00\n    /* \"contracts/tokens/Token.sol\":3938:3959  account != address(0) */\n  0xffffffffffffffffffffffffffffffffffffffff\n  and\n    /* \"contracts/tokens/Token.sol\":3938:3945  account */\n  dup3\n    /* \"contracts/tokens/Token.sol\":3938:3959  account != address(0) */\n  0xffffffffffffffffffffffffffffffffffffffff\n  and\n  eq\n  iszero\n    /* \"contracts/tokens/Token.sol\":3930:3995  require(account != address(0), \"ERC20: mint to the zero address\") */\n  tag_11\n  jumpi\n  mload(0x40)\n  0x08c379a000000000000000000000000000000000000000000000000000000000\n  dup2\n  mstore\n  0x04\n  add\n  tag_12\n  swap1\n  tag_13\n  jump\t// in\ntag_12:\n  mload(0x40)\n  dup1\n  swap2\n  sub\n  swap1\n  revert\ntag_11:\n    /* \"contracts/tokens/Token.sol\":4008:4057  _beforeTokenTransfer(address(0), account, amount) */\n  tag_14\n    /* \"contracts/tokens/Token.sol\":4037:4038  0 */\n  0x00\n    /* \"contracts/tokens/Token.sol\":4041:4048  account */\n  dup4\n    /* \"contracts/tokens/Token.sol\":4050:4056  amount */\n  dup4\n    /* \"contracts/tokens/Token.sol\":4008:4028  _beforeTokenTransfer */\n  shl(0x20, tag_15)\n    /* \"contracts/tokens/Token.sol\":4008:4057  _beforeTokenTransfer(address(0), account, amount) */\n  0x20\n  shr\n  jump\t// in\ntag_14:\n    /* \"contracts/tokens/Token.sol\":4086:4092  amount */\n  dup1\n    /* \"contracts/tokens/Token.sol\":4070:4082  _totalSupply */\n  0x02\n  0x00\n    /* \"contracts/tokens/Token.sol\":4070:4092  _totalSupply += amount */\n  dup3\n  dup3\n  sload\n  tag_16\n  swap2\n  swap1\n  tag_17\n  jump\t// in\ntag_16:\n  swap3\n  pop\n  pop\n  dup2\n  swap1\n  sstore\n  pop\n    /* \"contracts/tokens/Token.sol\":4125:4131  amount */\n  dup1\n    /* \"contracts/tokens/Token.sol\":4103:4112  _balances */\n  0x00\n    /* \"contracts/tokens/Token.sol\":4103:4121  _balances[account] */\n  dup1\n    /* \"contracts/tokens/Token.sol\":4113:4120  account */\n  dup5\n    /* \"contracts/tokens/Token.sol\":4103:4121  _balances[account] */\n  0xffffffffffffffffffffffffffffffffffffffff\n  and\n  0xffffffffffffffffffffffffffffffffffffffff\n  and\n  dup2\n  mstore\n  0x20\n  add\n  swap1\n  dup2\n  mstore\n  0x20\n  add\n  0x00\n  keccak256\n  0x00\n    /* \"contracts/tokens/Token.sol\":4103:4131  _balances[account] += amount */\n  dup3\n  dup3\n  sload\n  tag_18\n  swap2\n  swap1\n  tag_17\n  jump\t// in\ntag_18:\n  swap3\n  pop\n  pop\n  dup2\n  swap1\n  sstore\n  pop\n    /* \"contracts/tokens/Token.sol\":4168:4175  account */\n  dup2\n    /* \"contracts/tokens/Token.sol\":4147:4184  Transfer(address(0), account, amount) */\n  0xffffffffffffffffffffffffffffffffffffffff\n  and\n    /* \"contracts/tokens/Token.sol\":4164:4165  0 */\n  0x00\n    /* \"contracts/tokens/Token.sol\":4147:4184  Transfer(address(0), account, amount) */\n  0xffffffffffffffffffffffffffffffffffffffff\n  and\n  0xddf252ad1be2c89b69c2b068fc378daa952ba7f163c4a11628f55a4df523b3ef\n    /* \"contracts/tokens/Token.sol\":4177:4183  amount */\n  dup4\n    /* \"contracts/tokens/Token.sol\":4147:4184  Transfer(address(0), account, amount) */\n  mload(0x40)\n  tag_19\n  swap2\n  swap1\n  tag_20\n  jump\t// in\ntag_19:\n  mload(0x40)\n  dup1\n  swap2\n  sub\n  swap1\n  log3\n    /* \"contracts/tokens/Token.sol\":4197:4245  _afterTokenTransfer(address(0), account, amount) */\n  tag_21\n    /* \"contracts/tokens/Token.sol\":4225:4226  0 */\n  0x00\n    /* \"contracts/tokens/Token.sol\":4229:4236  account */\n  dup4\n    /* \"contracts/tokens/Token.sol\":4238:4244  amount */\n  dup4\n    /* \"contracts/tokens/Token.sol\":4197:4216  _afterTokenTransfer */\n  shl(0x20, tag_22)\n    /* \"contracts/tokens/Token.sol\":4197:4245  _afterTokenTransfer(address(0), account, amount) */\n  0x20\n  shr\n  jump\t// in\ntag_21:\n    /* \"contracts/tokens/Token.sol\":3854:4253  function _mint(address account, uint256 amount) internal virtual {\r... */\n  pop\n  pop\n  jump\t// out\n    /* \"contracts/tokens/Token.sol\":4649:4774  function _beforeTokenTransfer(\r... */\ntag_15:\n  pop\n  pop\n  pop\n  jump\t// out\n    /* \"contracts/tokens/Token.sol\":4782:4906  function _afterTokenTransfer(\r... */\ntag_22:\n  pop\n  pop\n  pop\n  jump\t// out\n    /* \"contracts/tokens/Token.sol\":252:4909  contract ERBToken is Context, IERC20, IERC20Metadata {\r... */\ntag_5:\n  dup3\n  dup1\n  sload\n  tag_25\n  swap1\n  tag_26\n  jump\t// in\ntag_25:\n  swap1\n  0x00\n  mstore\n  keccak256(0x00, 0x20)\n  swap1\n  0x1f\n  add\n  0x20\n  swap1\n  div\n  dup2\n  add\n  swap3\n  dup3\n  tag_28\n  jumpi\n  0x00\n  dup6\n  sstore\n  jump(tag_27)\ntag_28:\n  dup3\n  0x1f\n  lt\n  tag_29\n  jumpi\n  dup1\n  mload\n  not(0xff)\n  and\n  dup4\n  dup1\n  add\n  or\n  dup6\n  sstore\n  jump(tag_27)\ntag_29:\n  dup3\n  dup1\n  add\n  0x01\n  add\n  dup6\n  sstore\n  dup3\n  iszero\n  tag_27\n  jumpi\n  swap2\n  dup3\n  add\ntag_30:\n  dup3\n  dup2\n  gt\n  iszero\n  tag_31\n  jumpi\n  dup3\n  mload\n  dup3\n  sstore\n  swap2\n  0x20\n  add\n  swap2\n  swap1\n  0x01\n  add\n  swap1\n  jump(tag_30)\ntag_31:\ntag_27:\n  pop\n  swap1\n  pop\n  tag_32\n  swap2\n  swap1\n  tag_33\n  jump\t// in\ntag_32:\n  pop\n  swap1\n  jump\t// out\ntag_33:\ntag_34:\n  dup1\n  dup3\n  gt\n  iszero\n  tag_35\n  jumpi\n  0x00\n  dup2\n  0x00\n  swap1\n  sstore\n  pop\n  0x01\n  add\n  jump(tag_34)\ntag_35:\n  pop\n  swap1\n  jump\t// out\n    /* \"#utility.yul\":7:373   */\ntag_37:\n    /* \"#utility.yul\":149:152   */\n  0x00\n    /* \"#utility.yul\":170:237   */\n  tag_39\n    /* \"#utility.yul\":234:236   */\n  0x1f\n    /* \"#utility.yul\":229:232   */\n  dup4\n    /* \"#utility.yul\":170:237   */\n  tag_40\n  jump\t// in\ntag_39:\n    /* \"#utility.yul\":163:237   */\n  swap2\n  pop\n    /* \"#utility.yul\":246:339   */\n  tag_41\n    /* \"#utility.yul\":335:338   */\n  dup3\n    /* \"#utility.yul\":246:339   */\n  tag_42\n  jump\t// in\ntag_41:\n    /* \"#utility.yul\":364:366   */\n  0x20\n    /* \"#utility.yul\":359:362   */\n  dup3\n    /* \"#utility.yul\":355:367   */\n  add\n    /* \"#utility.yul\":348:367   */\n  swap1\n  pop\n    /* \"#utility.yul\":7:373   */\n  swap2\n  swap1\n  pop\n  jump\t// out\n    /* \"#utility.yul\":379:497   */\ntag_43:\n    /* \"#utility.yul\":466:490   */\n  tag_45\n    /* \"#utility.yul\":484:489   */\n  dup2\n    /* \"#utility.yul\":466:490   */\n  tag_46\n  jump\t// in\ntag_45:\n    /* \"#utility.yul\":461:464   */\n  dup3\n    /* \"#utility.yul\":454:491   */\n  mstore\n    /* \"#utility.yul\":379:497   */\n  pop\n  pop\n  jump\t// out\n    /* \"#utility.yul\":503:922   */\ntag_13:\n    /* \"#utility.yul\":669:673   */\n  0x00\n    /* \"#utility.yul\":707:709   */\n  0x20\n    /* \"#utility.yul\":696:705   */\n  dup3\n    /* \"#utility.yul\":692:710   */\n  add\n    /* \"#utility.yul\":684:710   */\n  swap1\n  pop\n    /* \"#utility.yul\":756:765   */\n  dup2\n    /* \"#utility.yul\":750:754   */\n  dup2\n    /* \"#utility.yul\":746:766   */\n  sub\n    /* \"#utility.yul\":742:743   */\n  0x00\n    /* \"#utility.yul\":731:740   */\n  dup4\n    /* \"#utility.yul\":727:744   */\n  add\n    /* \"#utility.yul\":720:767   */\n  mstore\n    /* \"#utility.yul\":784:915   */\n  tag_48\n    /* \"#utility.yul\":910:914   */\n  dup2\n    /* \"#utility.yul\":784:915   */\n  tag_37\n  jump\t// in\ntag_48:\n    /* \"#utility.yul\":776:915   */\n  swap1\n  pop\n    /* \"#utility.yul\":503:922   */\n  swap2\n  swap1\n  pop\n  jump\t// out\n    /* \"#utility.yul\":928:1150   */\ntag_20:\n    /* \"#utility.yul\":1021:1025   */\n  0x00\n    /* \"#utility.yul\":1059:1061   */\n  0x20\n    /* \"#utility.yul\":1048:1057   */\n  dup3\n    /* \"#utility.yul\":1044:1062   */\n  add\n    /* \"#utility.yul\":1036:1062   */\n  swap1\n  pop\n    /* \"#utility.yul\":1072:1143   */\n  tag_50\n    /* \"#utility.yul\":1140:1141   */\n  0x00\n    /* \"#utility.yul\":1129:1138   */\n  dup4\n    /* \"#utility.yul\":1125:1142   */\n  add\n    /* \"#utility.yul\":1116:1122   */\n  dup5\n    /* \"#utility.yul\":1072:1143   */\n  tag_43\n  jump\t// in\ntag_50:\n    /* \"#utility.yul\":928:1150   */\n  swap3\n  swap2\n  pop\n  pop\n  jump\t// out\n    /* \"#utility.yul\":1156:1325   */\ntag_40:\n    /* \"#utility.yul\":1240:1251   */\n  0x00\n    /* \"#utility.yul\":1274:1280   */\n  dup3\n    /* \"#utility.yul\":1269:1272   */\n  dup3\n    /* \"#utility.yul\":1262:1281   */\n  mstore\n    /* \"#utility.yul\":1314:1318   */\n  0x20\n    /* \"#utility.yul\":1309:1312   */\n  dup3\n    /* \"#utility.yul\":1305:1319   */\n  add\n    /* \"#utility.yul\":1290:1319   */\n  swap1\n  pop\n    /* \"#utility.yul\":1156:1325   */\n  swap3\n  swap2\n  pop\n  pop\n  jump\t// out\n    /* \"#utility.yul\":1331:1636   */\ntag_17:\n    /* \"#utility.yul\":1371:1374   */\n  0x00\n    /* \"#utility.yul\":1390:1410   */\n  tag_53\n    /* \"#utility.yul\":1408:1409   */\n  dup3\n    /* \"#utility.yul\":1390:1410   */\n  tag_46\n  jump\t// in\ntag_53:\n    /* \"#utility.yul\":1385:1410   */\n  swap2\n  pop\n    /* \"#utility.yul\":1424:1444   */\n  tag_54\n    /* \"#utility.yul\":1442:1443   */\n  dup4\n    /* \"#utility.yul\":1424:1444   */\n  tag_46\n  jump\t// in\ntag_54:\n    /* \"#utility.yul\":1419:1444   */\n  swap3\n  pop\n    /* \"#utility.yul\":1578:1579   */\n  dup3\n    /* \"#utility.yul\":1510:1576   */\n  0xffffffffffffffffffffffffffffffffffffffffffffffffffffffffffffffff\n    /* \"#utility.yul\":1506:1580   */\n  sub\n    /* \"#utility.yul\":1503:1504   */\n  dup3\n    /* \"#utility.yul\":1500:1581   */\n  gt\n    /* \"#utility.yul\":1497:1604   */\n  iszero\n  tag_55\n  jumpi\n    /* \"#utility.yul\":1584:1602   */\n  tag_56\n  tag_57\n  jump\t// in\ntag_56:\n    /* \"#utility.yul\":1497:1604   */\ntag_55:\n    /* \"#utility.yul\":1628:1629   */\n  dup3\n    /* \"#utility.yul\":1625:1626   */\n  dup3\n    /* \"#utility.yul\":1621:1630   */\n  add\n    /* \"#utility.yul\":1614:1630   */\n  swap1\n  pop\n    /* \"#utility.yul\":1331:1636   */\n  swap3\n  swap2\n  pop\n  pop\n  jump\t// out\n    /* \"#utility.yul\":1642:1719   */\ntag_46:\n    /* \"#utility.yul\":1679:1686   */\n  0x00\n    /* \"#utility.yul\":1708:1713   */\n  dup2\n    /* \"#utility.yul\":1697:1713   */\n  swap1\n  pop\n    /* \"#utility.yul\":1642:1719   */\n  swap2\n  swap1\n  pop\n  jump\t// out\n    /* \"#utility.yul\":1725:2045   */\ntag_26:\n    /* \"#utility.yul\":1769:1775   */\n  0x00\n    /* \"#utility.yul\":1806:1807   */\n  0x02\n    /* \"#utility.yul\":1800:1804   */\n  dup3\n    /* \"#utility.yul\":1796:1808   */\n  div\n    /* \"#utility.yul\":1786:1808   */\n  swap1\n  pop\n    /* \"#utility.yul\":1853:1854   */\n  0x01\n    /* \"#utility.yul\":1847:1851   */\n  dup3\n    /* \"#utility.yul\":1843:1855   */\n  and\n    /* \"#utility.yul\":1874:1892   */\n  dup1\n    /* \"#utility.yul\":1864:1945   */\n  tag_60\n  jumpi\n    /* \"#utility.yul\":1930:1934   */\n  0x7f\n    /* \"#utility.yul\":1922:1928   */\n  dup3\n    /* \"#utility.yul\":1918:1935   */\n  and\n    /* \"#utility.yul\":1908:1935   */\n  swap2\n  pop\n    /* \"#utility.yul\":1864:1945   */\ntag_60:\n    /* \"#utility.yul\":1992:1994   */\n  0x20\n    /* \"#utility.yul\":1984:1990   */\n  dup3\n    /* \"#utility.yul\":1981:1995   */\n  lt\n    /* \"#utility.yul\":1961:1979   */\n  dup2\n    /* \"#utility.yul\":1958:1996   */\n  eq\n    /* \"#utility.yul\":1955:2039   */\n  iszero\n  tag_61\n  jumpi\n    /* \"#utility.yul\":2011:2029   */\n  tag_62\n  tag_63\n  jump\t// in\ntag_62:\n    /* \"#utility.yul\":1955:2039   */\ntag_61:\n    /* \"#utility.yul\":1776:2045   */\n  pop\n    /* \"#utility.yul\":1725:2045   */\n  swap2\n  swap1\n  pop\n  jump\t// out\n    /* \"#utility.yul\":2051:2231   */\ntag_57:\n    /* \"#utility.yul\":2099:2176   */\n  0x4e487b7100000000000000000000000000000000000000000000000000000000\n    /* \"#utility.yul\":2096:2097   */\n  0x00\n    /* \"#utility.yul\":2089:2177   */\n  mstore\n    /* \"#utility.yul\":2196:2200   */\n  0x11\n    /* \"#utility.yul\":2193:2194   */\n  0x04\n    /* \"#utility.yul\":2186:2201   */\n  mstore\n    /* \"#utility.yul\":2220:2224   */\n  0x24\n    /* \"#utility.yul\":2217:2218   */\n  0x00\n    /* \"#utility.yul\":2210:2225   */\n  revert\n    /* \"#utility.yul\":2237:2417   */\ntag_63:\n    /* \"#utility.yul\":2285:2362   */\n  0x4e487b7100000000000000000000000000000000000000000000000000000000\n    /* \"#utility.yul\":2282:2283   */\n  0x00\n    /* \"#utility.yul\":2275:2363   */\n  mstore\n    /* \"#utility.yul\":2382:2386   */\n  0x22\n    /* \"#utility.yul\":2379:2380   */\n  0x04\n    /* \"#utility.yul\":2372:2387   */\n  mstore\n    /* \"#utility.yul\":2406:2410   */\n  0x24\n    /* \"#utility.yul\":2403:2404   */\n  0x00\n    /* \"#utility.yul\":2396:2411   */\n  revert\n    /* \"#utility.yul\":2423:2604   */\ntag_42:\n    /* \"#utility.yul\":2563:2596   */\n  0x45524332303a206d696e7420746f20746865207a65726f206164647265737300\n    /* \"#utility.yul\":2559:2560   */\n  0x00\n    /* \"#utility.yul\":2551:2557   */\n  dup3\n    /* \"#utility.yul\":2547:2561   */\n  add\n    /* \"#utility.yul\":2540:2597   */\n  mstore\n    /* \"#utility.yul\":2423:2604   */\n  pop\n  jump\t// out\n    /* \"contracts/tokens/Token.sol\":252:4909  contract ERBToken is Context, IERC20, IERC20Metadata {\r... */\ntag_9:\n  dataSize(sub_0)\n  dup1\n  dataOffset(sub_0)\n  0x00\n  codecopy\n  0x00\n  return\nstop\n\nsub_0: assembly {\n        /* \"contracts/tokens/Token.sol\":252:4909  contract ERBToken is Context, IERC20, IERC20Metadata {\r... */\n      mstore(0x40, 0x80)\n      callvalue\n      dup1\n      iszero\n      tag_1\n      jumpi\n      0x00\n      dup1\n      revert\n    tag_1:\n      pop\n      jumpi(tag_2, lt(calldatasize, 0x04))\n      shr(0xe0, calldataload(0x00))\n      dup1\n      0x70a08231\n      gt\n      tag_15\n      jumpi\n      dup1\n      0x70a08231\n      eq\n      tag_9\n      jumpi\n      dup1\n      0x95d89b41\n      eq\n      tag_10\n      jumpi\n      dup1\n      0xa457c2d7\n      eq\n      tag_11\n      jumpi\n      dup1\n      0xa9059cbb\n      eq\n      tag_12\n      jumpi\n      dup1\n      0xcbf9fe5f\n      eq\n      tag_13\n      jumpi\n      dup1\n      0xdd62ed3e\n      eq\n      tag_14\n      jumpi\n      jump(tag_2)\n    tag_15:\n      dup1\n      0x06fdde03\n      eq\n      tag_3\n      jumpi\n      dup1\n      0x095ea7b3\n      eq\n      tag_4\n      jumpi\n      dup1\n      0x18160ddd\n      eq\n      tag_5\n      jumpi\n      dup1\n      0x23b872dd\n      eq\n      tag_6\n      jumpi\n      dup1\n      0x313ce567\n      eq\n      tag_7\n      jumpi\n      dup1\n      0x39509351\n      eq\n      tag_8\n      jumpi\n    tag_2:\n      0x00\n      dup1\n      revert\n        /* \"contracts/tokens/Token.sol\":710:810  function name() public view virtual override returns (string memory) {\r... */\n    tag_3:\n      tag_16\n      tag_17\n      jump\t// in\n    tag_16:\n      mload(0x40)\n      tag_18\n      swap2\n      swap1\n      tag_19\n      jump\t// in\n    tag_18:\n      mload(0x40)\n      dup1\n      swap2\n      sub\n      swap1\n      return\n        /* \"contracts/tokens/Token.sol\":1675:1895  function approve(address spender, uint256 amount) public virtual override returns (bool) {\r... */\n    tag_4:\n      tag_20\n      0x04\n      dup1\n      calldatasize\n      sub\n      dup2\n      add\n      swap1\n      tag_21\n      swap2\n      swap1\n      tag_22\n      jump\t// in\n    tag_21:\n      tag_23\n      jump\t// in\n    tag_20:\n      mload(0x40)\n      tag_24\n      swap2\n      swap1\n      tag_25\n      jump\t// in\n    tag_24:\n      mload(0x40)\n      dup1\n      swap2\n      sub\n      swap1\n      return\n        /* \"contracts/tokens/Token.sol\":1031:1139  function totalSupply() public view virtual override returns (uint256) {\r... */\n    tag_5:\n      tag_26\n      tag_27\n      jump\t// in\n    tag_26:\n      mload(0x40)\n      tag_28\n      swap2\n      swap1\n      tag_29\n      jump\t// in\n    tag_28:\n      mload(0x40)\n      dup1\n      swap2\n      sub\n      swap1\n      return\n        /* \"contracts/tokens/Token.sol\":1903:2434  function transferFrom(\r... */\n    tag_6:\n      tag_30\n      0x04\n      dup1\n      calldatasize\n      sub\n      dup2\n      add\n      swap1\n      tag_31\n      swap2\n      swap1\n      tag_32\n      jump\t// in\n    tag_31:\n      tag_33\n      jump\t// in\n    tag_30:\n      mload(0x40)\n      tag_34\n      swap2\n      swap1\n      tag_25\n      jump\t// in\n    tag_34:\n      mload(0x40)\n      dup1\n      swap2\n      sub\n      swap1\n      return\n        /* \"contracts/tokens/Token.sol\":930:1023  function decimals() public view virtual override returns (uint8) {\r... */\n    tag_7:\n      tag_35\n      tag_36\n      jump\t// in\n    tag_35:\n      mload(0x40)\n      tag_37\n      swap2\n      swap1\n      tag_38\n      jump\t// in\n    tag_37:\n      mload(0x40)\n      dup1\n      swap2\n      sub\n      swap1\n      return\n        /* \"contracts/tokens/Token.sol\":2442:2708  function increaseAllowance(address spender, uint256 addedValue) public virtual returns (bool) {\r... */\n    tag_8:\n      tag_39\n      0x04\n      dup1\n      calldatasize\n      sub\n      dup2\n      add\n      swap1\n      tag_40\n      swap2\n      swap1\n      tag_22\n      jump\t// in\n    tag_40:\n      tag_41\n      jump\t// in\n    tag_39:\n      mload(0x40)\n      tag_42\n      swap2\n      swap1\n      tag_25\n      jump\t// in\n    tag_42:\n      mload(0x40)\n      dup1\n      swap2\n      sub\n      swap1\n      return\n        /* \"contracts/tokens/Token.sol\":1147:1274  function balanceOf(address account) public view virtual override returns (uint256) {\r... */\n    tag_9:\n      tag_43\n      0x04\n      dup1\n      calldatasize\n      sub\n      dup2\n      add\n      swap1\n      tag_44\n      swap2\n      swap1\n      tag_45\n      jump\t// in\n    tag_44:\n      tag_46\n      jump\t// in\n    tag_43:\n      mload(0x40)\n      tag_47\n      swap2\n      swap1\n      tag_29\n      jump\t// in\n    tag_47:\n      mload(0x40)\n      dup1\n      swap2\n      sub\n      swap1\n      return\n        /* \"contracts/tokens/Token.sol\":818:922  function symbol() public view virtual override returns (string memory) {\r... */\n    tag_10:\n      tag_48\n      tag_49\n      jump\t// in\n    tag_48:\n      mload(0x40)\n      tag_50\n      swap2\n      swap1\n      tag_19\n      jump\t// in\n    tag_50:\n      mload(0x40)\n      dup1\n      swap2\n      sub\n      swap1\n      return\n        /* \"contracts/tokens/Token.sol\":2716:3117  function decreaseAllowance(address spender, uint256 subtractedValue) public virtual returns (bool) {\r... */\n    tag_11:\n      tag_51\n      0x04\n      dup1\n      calldatasize\n      sub\n      dup2\n      add\n      swap1\n      tag_52\n      swap2\n      swap1\n      tag_22\n      jump\t// in\n    tag_52:\n      tag_53\n      jump\t// in\n    tag_51:\n      mload(0x40)\n      tag_54\n      swap2\n      swap1\n      tag_25\n      jump\t// in\n    tag_54:\n      mload(0x40)\n      dup1\n      swap2\n      sub\n      swap1\n      return\n        /* \"contracts/tokens/Token.sol\":1282:1508  function transfer(address recipient, uint256 amount) public virtual override returns (bool) {\r... */\n    tag_12:\n      tag_55\n      0x04\n      dup1\n      calldatasize\n      sub\n      dup2\n      add\n      swap1\n      tag_56\n      swap2\n      swap1\n      tag_22\n      jump\t// in\n    tag_56:\n      tag_57\n      jump\t// in\n    tag_55:\n      mload(0x40)\n      tag_58\n      swap2\n      swap1\n      tag_25\n      jump\t// in\n    tag_58:\n      mload(0x40)\n      dup1\n      swap2\n      sub\n      swap1\n      return\n        /* \"contracts/tokens/Token.sol\":539:577  mapping(address => bool) public locked */\n    tag_13:\n      tag_59\n      0x04\n      dup1\n      calldatasize\n      sub\n      dup2\n      add\n      swap1\n      tag_60\n      swap2\n      swap1\n      tag_45\n      jump\t// in\n    tag_60:\n      tag_61\n      jump\t// in\n    tag_59:\n      mload(0x40)\n      tag_62\n      swap2\n      swap1\n      tag_25\n      jump\t// in\n    tag_62:\n      mload(0x40)\n      dup1\n      swap2\n      sub\n      swap1\n      return\n        /* \"contracts/tokens/Token.sol\":1516:1667  function allowance(address owner, address spender) public view virtual override returns (uint256) {\r... */\n    tag_14:\n      tag_63\n      0x04\n      dup1\n      calldatasize\n      sub\n      dup2\n      add\n      swap1\n      tag_64\n      swap2\n      swap1\n      tag_65\n      jump\t// in\n    tag_64:\n      tag_66\n      jump\t// in\n    tag_63:\n      mload(0x40)\n      tag_67\n      swap2\n      swap1\n      tag_29\n      jump\t// in\n    tag_67:\n      mload(0x40)\n      dup1\n      swap2\n      sub\n      swap1\n      return\n        /* \"contracts/tokens/Token.sol\":710:810  function name() public view virtual override returns (string memory) {\r... */\n    tag_17:\n        /* \"contracts/tokens/Token.sol\":764:777  string memory */\n      0x60\n        /* \"contracts/tokens/Token.sol\":797:802  _name */\n      0x03\n        /* \"contracts/tokens/Token.sol\":790:802  return _name */\n      dup1\n      sload\n      tag_69\n      swap1\n      tag_70\n      jump\t// in\n    tag_69:\n      dup1\n      0x1f\n      add\n      0x20\n      dup1\n      swap2\n      div\n      mul\n      0x20\n      add\n      mload(0x40)\n      swap1\n      dup2\n      add\n      0x40\n      mstore\n      dup1\n      swap3\n      swap2\n      swap1\n      dup2\n      dup2\n      mstore\n      0x20\n      add\n      dup3\n      dup1\n      sload\n      tag_71\n      swap1\n      tag_70\n      jump\t// in\n    tag_71:\n      dup1\n      iszero\n      tag_72\n      jumpi\n      dup1\n      0x1f\n      lt\n      tag_73\n      jumpi\n      0x0100\n      dup1\n      dup4\n      sload\n      div\n      mul\n      dup4\n      mstore\n      swap2\n      0x20\n      add\n      swap2\n      jump(tag_72)\n    tag_73:\n      dup3\n      add\n      swap2\n      swap1\n      0x00\n      mstore\n      keccak256(0x00, 0x20)\n      swap1\n    tag_74:\n      dup2\n      sload\n      dup2\n      mstore\n      swap1\n      0x01\n      add\n      swap1\n      0x20\n      add\n      dup1\n      dup4\n      gt\n      tag_74\n      jumpi\n      dup3\n      swap1\n      sub\n      0x1f\n      and\n      dup3\n      add\n      swap2\n    tag_72:\n      pop\n      pop\n      pop\n      pop\n      pop\n      swap1\n      pop\n        /* \"contracts/tokens/Token.sol\":710:810  function name() public view virtual override returns (string memory) {\r... */\n      swap1\n      jump\t// out\n        /* \"contracts/tokens/Token.sol\":1675:1895  function approve(address spender, uint256 amount) public virtual override returns (bool) {\r... */\n    tag_23:\n        /* \"contracts/tokens/Token.sol\":1758:1762  bool */\n      0x00\n        /* \"contracts/tokens/Token.sol\":1784:1790  locked */\n      0x05\n        /* \"contracts/tokens/Token.sol\":1784:1804  locked[_msgSender()] */\n      0x00\n        /* \"contracts/tokens/Token.sol\":1791:1803  _msgSender() */\n      tag_76\n        /* \"contracts/tokens/Token.sol\":1791:1801  _msgSender */\n      tag_77\n        /* \"contracts/tokens/Token.sol\":1791:1803  _msgSender() */\n      jump\t// in\n    tag_76:\n        /* \"contracts/tokens/Token.sol\":1784:1804  locked[_msgSender()] */\n      0xffffffffffffffffffffffffffffffffffffffff\n      and\n      0xffffffffffffffffffffffffffffffffffffffff\n      and\n      dup2\n      mstore\n      0x20\n      add\n      swap1\n      dup2\n      mstore\n      0x20\n      add\n      0x00\n      keccak256\n      0x00\n      swap1\n      sload\n      swap1\n      0x0100\n      exp\n      swap1\n      div\n      0xff\n      and\n        /* \"contracts/tokens/Token.sol\":1783:1804  !locked[_msgSender()] */\n      iszero\n        /* \"contracts/tokens/Token.sol\":1775:1815  require(!locked[_msgSender()], \"Locked\") */\n      tag_78\n      jumpi\n      mload(0x40)\n      0x08c379a000000000000000000000000000000000000000000000000000000000\n      dup2\n      mstore\n      0x04\n      add\n      tag_79\n      swap1\n      tag_80\n      jump\t// in\n    tag_79:\n      mload(0x40)\n      dup1\n      swap2\n      sub\n      swap1\n      revert\n    tag_78:\n        /* \"contracts/tokens/Token.sol\":1826:1865  _approve(_msgSender(), spender, amount) */\n      tag_81\n        /* \"contracts/tokens/Token.sol\":1835:1847  _msgSender() */\n      tag_82\n        /* \"contracts/tokens/Token.sol\":1835:1845  _msgSender */\n      tag_77\n        /* \"contracts/tokens/Token.sol\":1835:1847  _msgSender() */\n      jump\t// in\n    tag_82:\n        /* \"contracts/tokens/Token.sol\":1849:1856  spender */\n      dup5\n        /* \"contracts/tokens/Token.sol\":1858:1864  amount */\n      dup5\n        /* \"contracts/tokens/Token.sol\":1826:1834  _approve */\n      tag_83\n        /* \"contracts/tokens/Token.sol\":1826:1865  _approve(_msgSender(), spender, amount) */\n      jump\t// in\n    tag_81:\n        /* \"contracts/tokens/Token.sol\":1883:1887  true */\n      0x01\n        /* \"contracts/tokens/Token.sol\":1876:1887  return true */\n      swap1\n      pop\n        /* \"contracts/tokens/Token.sol\":1675:1895  function approve(address spender, uint256 amount) public virtual override returns (bool) {\r... */\n      swap3\n      swap2\n      pop\n      pop\n      jump\t// out\n        /* \"contracts/tokens/Token.sol\":1031:1139  function totalSupply() public view virtual override returns (uint256) {\r... */\n    tag_27:\n        /* \"contracts/tokens/Token.sol\":1092:1099  uint256 */\n      0x00\n        /* \"contracts/tokens/Token.sol\":1119:1131  _totalSupply */\n      sload(0x02)\n        /* \"contracts/tokens/Token.sol\":1112:1131  return _totalSupply */\n      swap1\n      pop\n        /* \"contracts/tokens/Token.sol\":1031:1139  function totalSupply() public view virtual override returns (uint256) {\r... */\n      swap1\n      jump\t// out\n        /* \"contracts/tokens/Token.sol\":1903:2434  function transferFrom(\r... */\n    tag_33:\n        /* \"contracts/tokens/Token.sol\":2043:2047  bool */\n      0x00\n        /* \"contracts/tokens/Token.sol\":2069:2075  locked */\n      0x05\n        /* \"contracts/tokens/Token.sol\":2069:2089  locked[_msgSender()] */\n      0x00\n        /* \"contracts/tokens/Token.sol\":2076:2088  _msgSender() */\n      tag_86\n        /* \"contracts/tokens/Token.sol\":2076:2086  _msgSender */\n      tag_77\n        /* \"contracts/tokens/Token.sol\":2076:2088  _msgSender() */\n      jump\t// in\n    tag_86:\n        /* \"contracts/tokens/Token.sol\":2069:2089  locked[_msgSender()] */\n      0xffffffffffffffffffffffffffffffffffffffff\n      and\n      0xffffffffffffffffffffffffffffffffffffffff\n      and\n      dup2\n      mstore\n      0x20\n      add\n      swap1\n      dup2\n      mstore\n      0x20\n      add\n      0x00\n      keccak256\n      0x00\n      swap1\n      sload\n      swap1\n      0x0100\n      exp\n      swap1\n      div\n      0xff\n      and\n        /* \"contracts/tokens/Token.sol\":2068:2089  !locked[_msgSender()] */\n      iszero\n        /* \"contracts/tokens/Token.sol\":2060:2100  require(!locked[_msgSender()], \"Locked\") */\n      tag_87\n      jumpi\n      mload(0x40)\n      0x08c379a000000000000000000000000000000000000000000000000000000000\n      dup2\n      mstore\n      0x04\n      add\n      tag_88\n      swap1\n      tag_80\n      jump\t// in\n    tag_88:\n      mload(0x40)\n      dup1\n      swap2\n      sub\n      swap1\n      revert\n    tag_87:\n        /* \"contracts/tokens/Token.sol\":2111:2147  _transfer(sender, recipient, amount) */\n      tag_89\n        /* \"contracts/tokens/Token.sol\":2121:2127  sender */\n      dup5\n        /* \"contracts/tokens/Token.sol\":2129:2138  recipient */\n      dup5\n        /* \"contracts/tokens/Token.sol\":2140:2146  amount */\n      dup5\n        /* \"contracts/tokens/Token.sol\":2111:2120  _transfer */\n      tag_90\n        /* \"contracts/tokens/Token.sol\":2111:2147  _transfer(sender, recipient, amount) */\n      jump\t// in\n    tag_89:\n        /* \"contracts/tokens/Token.sol\":2160:2184  uint256 currentAllowance */\n      0x00\n        /* \"contracts/tokens/Token.sol\":2187:2198  _allowances */\n      0x01\n        /* \"contracts/tokens/Token.sol\":2187:2206  _allowances[sender] */\n      0x00\n        /* \"contracts/tokens/Token.sol\":2199:2205  sender */\n      dup7\n        /* \"contracts/tokens/Token.sol\":2187:2206  _allowances[sender] */\n      0xffffffffffffffffffffffffffffffffffffffff\n      and\n      0xffffffffffffffffffffffffffffffffffffffff\n      and\n      dup2\n      mstore\n      0x20\n      add\n      swap1\n      dup2\n      mstore\n      0x20\n      add\n      0x00\n      keccak256\n        /* \"contracts/tokens/Token.sol\":2187:2220  _allowances[sender][_msgSender()] */\n      0x00\n        /* \"contracts/tokens/Token.sol\":2207:2219  _msgSender() */\n      tag_91\n        /* \"contracts/tokens/Token.sol\":2207:2217  _msgSender */\n      tag_77\n        /* \"contracts/tokens/Token.sol\":2207:2219  _msgSender() */\n      jump\t// in\n    tag_91:\n        /* \"contracts/tokens/Token.sol\":2187:2220  _allowances[sender][_msgSender()] */\n      0xffffffffffffffffffffffffffffffffffffffff\n      and\n      0xffffffffffffffffffffffffffffffffffffffff\n      and\n      dup2\n      mstore\n      0x20\n      add\n      swap1\n      dup2\n      mstore\n      0x20\n      add\n      0x00\n      keccak256\n      sload\n        /* \"contracts/tokens/Token.sol\":2160:2220  uint256 currentAllowance = _allowances[sender][_msgSender()] */\n      swap1\n      pop\n        /* \"contracts/tokens/Token.sol\":2259:2265  amount */\n      dup3\n        /* \"contracts/tokens/Token.sol\":2239:2255  currentAllowance */\n      dup2\n        /* \"contracts/tokens/Token.sol\":2239:2265  currentAllowance >= amount */\n      lt\n      iszero\n        /* \"contracts/tokens/Token.sol\":2231:2310  require(currentAllowance >= amount, \"ERC20: transfer amount exceeds allowance\") */\n      tag_92\n      jumpi\n      mload(0x40)\n      0x08c379a000000000000000000000000000000000000000000000000000000000\n      dup2\n      mstore\n      0x04\n      add\n      tag_93\n      swap1\n      tag_94\n      jump\t// in\n    tag_93:\n      mload(0x40)\n      dup1\n      swap2\n      sub\n      swap1\n      revert\n    tag_92:\n        /* \"contracts/tokens/Token.sol\":2338:2395  _approve(sender, _msgSender(), currentAllowance - amount) */\n      tag_95\n        /* \"contracts/tokens/Token.sol\":2347:2353  sender */\n      dup6\n        /* \"contracts/tokens/Token.sol\":2355:2367  _msgSender() */\n      tag_96\n        /* \"contracts/tokens/Token.sol\":2355:2365  _msgSender */\n      tag_77\n        /* \"contracts/tokens/Token.sol\":2355:2367  _msgSender() */\n      jump\t// in\n    tag_96:\n        /* \"contracts/tokens/Token.sol\":2388:2394  amount */\n      dup6\n        /* \"contracts/tokens/Token.sol\":2369:2385  currentAllowance */\n      dup5\n        /* \"contracts/tokens/Token.sol\":2369:2394  currentAllowance - amount */\n      sub\n        /* \"contracts/tokens/Token.sol\":2338:2346  _approve */\n      tag_83\n        /* \"contracts/tokens/Token.sol\":2338:2395  _approve(sender, _msgSender(), currentAllowance - amount) */\n      jump\t// in\n    tag_95:\n        /* \"contracts/tokens/Token.sol\":2422:2426  true */\n      0x01\n        /* \"contracts/tokens/Token.sol\":2415:2426  return true */\n      swap2\n      pop\n      pop\n        /* \"contracts/tokens/Token.sol\":1903:2434  function transferFrom(\r... */\n      swap4\n      swap3\n      pop\n      pop\n      pop\n      jump\t// out\n        /* \"contracts/tokens/Token.sol\":930:1023  function decimals() public view virtual override returns (uint8) {\r... */\n    tag_36:\n        /* \"contracts/tokens/Token.sol\":988:993  uint8 */\n      0x00\n        /* \"contracts/tokens/Token.sol\":1013:1015  18 */\n      0x12\n        /* \"contracts/tokens/Token.sol\":1006:1015  return 18 */\n      swap1\n      pop\n        /* \"contracts/tokens/Token.sol\":930:1023  function decimals() public view virtual override returns (uint8) {\r... */\n      swap1\n      jump\t// out\n        /* \"contracts/tokens/Token.sol\":2442:2708  function increaseAllowance(address spender, uint256 addedValue) public virtual returns (bool) {\r... */\n    tag_41:\n        /* \"contracts/tokens/Token.sol\":2530:2534  bool */\n      0x00\n        /* \"contracts/tokens/Token.sol\":2556:2562  locked */\n      0x05\n        /* \"contracts/tokens/Token.sol\":2556:2576  locked[_msgSender()] */\n      0x00\n        /* \"contracts/tokens/Token.sol\":2563:2575  _msgSender() */\n      tag_99\n        /* \"contracts/tokens/Token.sol\":2563:2573  _msgSender */\n      tag_77\n        /* \"contracts/tokens/Token.sol\":2563:2575  _msgSender() */\n      jump\t// in\n    tag_99:\n        /* \"contracts/tokens/Token.sol\":2556:2576  locked[_msgSender()] */\n      0xffffffffffffffffffffffffffffffffffffffff\n      and\n      0xffffffffffffffffffffffffffffffffffffffff\n      and\n      dup2\n      mstore\n      0x20\n      add\n      swap1\n      dup2\n      mstore\n      0x20\n      add\n      0x00\n      keccak256\n      0x00\n      swap1\n      sload\n      swap1\n      0x0100\n      exp\n      swap1\n      div\n      0xff\n      and\n        /* \"contracts/tokens/Token.sol\":2555:2576  !locked[_msgSender()] */\n      iszero\n        /* \"contracts/tokens/Token.sol\":2547:2587  require(!locked[_msgSender()], \"Locked\") */\n      tag_100\n      jumpi\n      mload(0x40)\n      0x08c379a000000000000000000000000000000000000000000000000000000000\n      dup2\n      mstore\n      0x04\n      add\n      tag_101\n      swap1\n      tag_80\n      jump\t// in\n    tag_101:\n      mload(0x40)\n      dup1\n      swap2\n      sub\n      swap1\n      revert\n    tag_100:\n        /* \"contracts/tokens/Token.sol\":2598:2678  _approve(_msgSender(), spender, _allowances[_msgSender()][spender] + addedValue) */\n      tag_102\n        /* \"contracts/tokens/Token.sol\":2607:2619  _msgSender() */\n      tag_103\n        /* \"contracts/tokens/Token.sol\":2607:2617  _msgSender */\n      tag_77\n        /* \"contracts/tokens/Token.sol\":2607:2619  _msgSender() */\n      jump\t// in\n    tag_103:\n        /* \"contracts/tokens/Token.sol\":2621:2628  spender */\n      dup5\n        /* \"contracts/tokens/Token.sol\":2667:2677  addedValue */\n      dup5\n        /* \"contracts/tokens/Token.sol\":2630:2641  _allowances */\n      0x01\n        /* \"contracts/tokens/Token.sol\":2630:2655  _allowances[_msgSender()] */\n      0x00\n        /* \"contracts/tokens/Token.sol\":2642:2654  _msgSender() */\n      tag_104\n        /* \"contracts/tokens/Token.sol\":2642:2652  _msgSender */\n      tag_77\n        /* \"contracts/tokens/Token.sol\":2642:2654  _msgSender() */\n      jump\t// in\n    tag_104:\n        /* \"contracts/tokens/Token.sol\":2630:2655  _allowances[_msgSender()] */\n      0xffffffffffffffffffffffffffffffffffffffff\n      and\n      0xffffffffffffffffffffffffffffffffffffffff\n      and\n      dup2\n      mstore\n      0x20\n      add\n      swap1\n      dup2\n      mstore\n      0x20\n      add\n      0x00\n      keccak256\n        /* \"contracts/tokens/Token.sol\":2630:2664  _allowances[_msgSender()][spender] */\n      0x00\n        /* \"contracts/tokens/Token.sol\":2656:2663  spender */\n      dup9\n        /* \"contracts/tokens/Token.sol\":2630:2664  _allowances[_msgSender()][spender] */\n      0xffffffffffffffffffffffffffffffffffffffff\n      and\n      0xffffffffffffffffffffffffffffffffffffffff\n      and\n      dup2\n      mstore\n      0x20\n      add\n      swap1\n      dup2\n      mstore\n      0x20\n      add\n      0x00\n      keccak256\n      sload\n        /* \"contracts/tokens/Token.sol\":2630:2677  _allowances[_msgSender()][spender] + addedValue */\n      tag_105\n      swap2\n      swap1\n      tag_106\n      jump\t// in\n    tag_105:\n        /* \"contracts/tokens/Token.sol\":2598:2606  _approve */\n      tag_83\n        /* \"contracts/tokens/Token.sol\":2598:2678  _approve(_msgSender(), spender, _allowances[_msgSender()][spender] + addedValue) */\n      jump\t// in\n    tag_102:\n        /* \"contracts/tokens/Token.sol\":2696:2700  true */\n      0x01\n        /* \"contracts/tokens/Token.sol\":2689:2700  return true */\n      swap1\n      pop\n        /* \"contracts/tokens/Token.sol\":2442:2708  function increaseAllowance(address spender, uint256 addedValue) public virtual returns (bool) {\r... */\n      swap3\n      swap2\n      pop\n      pop\n      jump\t// out\n        /* \"contracts/tokens/Token.sol\":1147:1274  function balanceOf(address account) public view virtual override returns (uint256) {\r... */\n    tag_46:\n        /* \"contracts/tokens/Token.sol\":1221:1228  uint256 */\n      0x00\n        /* \"contracts/tokens/Token.sol\":1248:1257  _balances */\n      dup1\n        /* \"contracts/tokens/Token.sol\":1248:1266  _balances[account] */\n      0x00\n        /* \"contracts/tokens/Token.sol\":1258:1265  account */\n      dup4\n        /* \"contracts/tokens/Token.sol\":1248:1266  _balances[account] */\n      0xffffffffffffffffffffffffffffffffffffffff\n      and\n      0xffffffffffffffffffffffffffffffffffffffff\n      and\n      dup2\n      mstore\n      0x20\n      add\n      swap1\n      dup2\n      mstore\n      0x20\n      add\n      0x00\n      keccak256\n      sload\n        /* \"contracts/tokens/Token.sol\":1241:1266  return _balances[account] */\n      swap1\n      pop\n        /* \"contracts/tokens/Token.sol\":1147:1274  function balanceOf(address account) public view virtual override returns (uint256) {\r... */\n      swap2\n      swap1\n      pop\n      jump\t// out\n        /* \"contracts/tokens/Token.sol\":818:922  function symbol() public view virtual override returns (string memory) {\r... */\n    tag_49:\n        /* \"contracts/tokens/Token.sol\":874:887  string memory */\n      0x60\n        /* \"contracts/tokens/Token.sol\":907:914  _symbol */\n      0x04\n        /* \"contracts/tokens/Token.sol\":900:914  return _symbol */\n      dup1\n      sload\n      tag_109\n      swap1\n      tag_70\n      jump\t// in\n    tag_109:\n      dup1\n      0x1f\n      add\n      0x20\n      dup1\n      swap2\n      div\n      mul\n      0x20\n      add\n      mload(0x40)\n      swap1\n      dup2\n      add\n      0x40\n      mstore\n      dup1\n      swap3\n      swap2\n      swap1\n      dup2\n      dup2\n      mstore\n      0x20\n      add\n      dup3\n      dup1\n      sload\n      tag_110\n      swap1\n      tag_70\n      jump\t// in\n    tag_110:\n      dup1\n      iszero\n      tag_111\n      jumpi\n      dup1\n      0x1f\n      lt\n      tag_112\n      jumpi\n      0x0100\n      dup1\n      dup4\n      sload\n      div\n      mul\n      dup4\n      mstore\n      swap2\n      0x20\n      add\n      swap2\n      jump(tag_111)\n    tag_112:\n      dup3\n      add\n      swap2\n      swap1\n      0x00\n      mstore\n      keccak256(0x00, 0x20)\n      swap1\n    tag_113:\n      dup2\n      sload\n      dup2\n      mstore\n      swap1\n      0x01\n      add\n      swap1\n      0x20\n      add\n      dup1\n      dup4\n      gt\n      tag_113\n      jumpi\n      dup3\n      swap1\n      sub\n      0x1f\n      and\n      dup3\n      add\n      swap2\n    tag_111:\n      pop\n      pop\n      pop\n      pop\n      pop\n      swap1\n      pop\n        /* \"contracts/tokens/Token.sol\":818:922  function symbol() public view virtual override returns (string memory) {\r... */\n      swap1\n      jump\t// out\n        /* \"contracts/tokens/Token.sol\":2716:3117  function decreaseAllowance(address spender, uint256 subtractedValue) public virtual returns (bool) {\r... */\n    tag_53:\n        /* \"contracts/tokens/Token.sol\":2809:2813  bool */\n      0x00\n        /* \"contracts/tokens/Token.sol\":2826:2850  uint256 currentAllowance */\n      dup1\n        /* \"contracts/tokens/Token.sol\":2853:2864  _allowances */\n      0x01\n        /* \"contracts/tokens/Token.sol\":2853:2878  _allowances[_msgSender()] */\n      0x00\n        /* \"contracts/tokens/Token.sol\":2865:2877  _msgSender() */\n      tag_115\n        /* \"contracts/tokens/Token.sol\":2865:2875  _msgSender */\n      tag_77\n        /* \"contracts/tokens/Token.sol\":2865:2877  _msgSender() */\n      jump\t// in\n    tag_115:\n        /* \"contracts/tokens/Token.sol\":2853:2878  _allowances[_msgSender()] */\n      0xffffffffffffffffffffffffffffffffffffffff\n      and\n      0xffffffffffffffffffffffffffffffffffffffff\n      and\n      dup2\n      mstore\n      0x20\n      add\n      swap1\n      dup2\n      mstore\n      0x20\n      add\n      0x00\n      keccak256\n        /* \"contracts/tokens/Token.sol\":2853:2887  _allowances[_msgSender()][spender] */\n      0x00\n        /* \"contracts/tokens/Token.sol\":2879:2886  spender */\n      dup6\n        /* \"contracts/tokens/Token.sol\":2853:2887  _allowances[_msgSender()][spender] */\n      0xffffffffffffffffffffffffffffffffffffffff\n      and\n      0xffffffffffffffffffffffffffffffffffffffff\n      and\n      dup2\n      mstore\n      0x20\n      add\n      swap1\n      dup2\n      mstore\n      0x20\n      add\n      0x00\n      keccak256\n      sload\n        /* \"contracts/tokens/Token.sol\":2826:2887  uint256 currentAllowance = _allowances[_msgSender()][spender] */\n      swap1\n      pop\n        /* \"contracts/tokens/Token.sol\":2926:2941  subtractedValue */\n      dup3\n        /* \"contracts/tokens/Token.sol\":2906:2922  currentAllowance */\n      dup2\n        /* \"contracts/tokens/Token.sol\":2906:2941  currentAllowance >= subtractedValue */\n      lt\n      iszero\n        /* \"contracts/tokens/Token.sol\":2898:2983  require(currentAllowance >= subtractedValue, \"ERC20: decreased allowance below zero\") */\n      tag_116\n      jumpi\n      mload(0x40)\n      0x08c379a000000000000000000000000000000000000000000000000000000000\n      dup2\n      mstore\n      0x04\n      add\n      tag_117\n      swap1\n      tag_118\n      jump\t// in\n    tag_117:\n      mload(0x40)\n      dup1\n      swap2\n      sub\n      swap1\n      revert\n    tag_116:\n        /* \"contracts/tokens/Token.sol\":3011:3078  _approve(_msgSender(), spender, currentAllowance - subtractedValue) */\n      tag_119\n        /* \"contracts/tokens/Token.sol\":3020:3032  _msgSender() */\n      tag_120\n        /* \"contracts/tokens/Token.sol\":3020:3030  _msgSender */\n      tag_77\n        /* \"contracts/tokens/Token.sol\":3020:3032  _msgSender() */\n      jump\t// in\n    tag_120:\n        /* \"contracts/tokens/Token.sol\":3034:3041  spender */\n      dup6\n        /* \"contracts/tokens/Token.sol\":3062:3077  subtractedValue */\n      dup6\n        /* \"contracts/tokens/Token.sol\":3043:3059  currentAllowance */\n      dup5\n        /* \"contracts/tokens/Token.sol\":3043:3077  currentAllowance - subtractedValue */\n      sub\n        /* \"contracts/tokens/Token.sol\":3011:3019  _approve */\n      tag_83\n        /* \"contracts/tokens/Token.sol\":3011:3078  _approve(_msgSender(), spender, currentAllowance - subtractedValue) */\n      jump\t// in\n    tag_119:\n        /* \"contracts/tokens/Token.sol\":3105:3109  true */\n      0x01\n        /* \"contracts/tokens/Token.sol\":3098:3109  return true */\n      swap2\n      pop\n      pop\n        /* \"contracts/tokens/Token.sol\":2716:3117  function decreaseAllowance(address spender, uint256 subtractedValue) public virtual returns (bool) {\r... */\n      swap3\n      swap2\n      pop\n      pop\n      jump\t// out\n        /* \"contracts/tokens/Token.sol\":1282:1508  function transfer(address recipient, uint256 amount) public virtual override returns (bool) {\r... */\n    tag_57:\n        /* \"contracts/tokens/Token.sol\":1368:1372  bool */\n      0x00\n        /* \"contracts/tokens/Token.sol\":1394:1400  locked */\n      0x05\n        /* \"contracts/tokens/Token.sol\":1394:1414  locked[_msgSender()] */\n      0x00\n        /* \"contracts/tokens/Token.sol\":1401:1413  _msgSender() */\n      tag_122\n        /* \"contracts/tokens/Token.sol\":1401:1411  _msgSender */\n      tag_77\n        /* \"contracts/tokens/Token.sol\":1401:1413  _msgSender() */\n      jump\t// in\n    tag_122:\n        /* \"contracts/tokens/Token.sol\":1394:1414  locked[_msgSender()] */\n      0xffffffffffffffffffffffffffffffffffffffff\n      and\n      0xffffffffffffffffffffffffffffffffffffffff\n      and\n      dup2\n      mstore\n      0x20\n      add\n      swap1\n      dup2\n      mstore\n      0x20\n      add\n      0x00\n      keccak256\n      0x00\n      swap1\n      sload\n      swap1\n      0x0100\n      exp\n      swap1\n      div\n      0xff\n      and\n        /* \"contracts/tokens/Token.sol\":1393:1414  !locked[_msgSender()] */\n      iszero\n        /* \"contracts/tokens/Token.sol\":1385:1425  require(!locked[_msgSender()], \"Locked\") */\n      tag_123\n      jumpi\n      mload(0x40)\n      0x08c379a000000000000000000000000000000000000000000000000000000000\n      dup2\n      mstore\n      0x04\n      add\n      tag_124\n      swap1\n      tag_80\n      jump\t// in\n    tag_124:\n      mload(0x40)\n      dup1\n      swap2\n      sub\n      swap1\n      revert\n    tag_123:\n        /* \"contracts/tokens/Token.sol\":1436:1478  _transfer(_msgSender(), recipient, amount) */\n      tag_125\n        /* \"contracts/tokens/Token.sol\":1446:1458  _msgSender() */\n      tag_126\n        /* \"contracts/tokens/Token.sol\":1446:1456  _msgSender */\n      tag_77\n        /* \"contracts/tokens/Token.sol\":1446:1458  _msgSender() */\n      jump\t// in\n    tag_126:\n        /* \"contracts/tokens/Token.sol\":1460:1469  recipient */\n      dup5\n        /* \"contracts/tokens/Token.sol\":1471:1477  amount */\n      dup5\n        /* \"contracts/tokens/Token.sol\":1436:1445  _transfer */\n      tag_90\n        /* \"contracts/tokens/Token.sol\":1436:1478  _transfer(_msgSender(), recipient, amount) */\n      jump\t// in\n    tag_125:\n        /* \"contracts/tokens/Token.sol\":1496:1500  true */\n      0x01\n        /* \"contracts/tokens/Token.sol\":1489:1500  return true */\n      swap1\n      pop\n        /* \"contracts/tokens/Token.sol\":1282:1508  function transfer(address recipient, uint256 amount) public virtual override returns (bool) {\r... */\n      swap3\n      swap2\n      pop\n      pop\n      jump\t// out\n        /* \"contracts/tokens/Token.sol\":539:577  mapping(address => bool) public locked */\n    tag_61:\n      mstore(0x20, 0x05)\n      dup1\n      0x00\n      mstore\n      keccak256(0x00, 0x40)\n      0x00\n      swap2\n      pop\n      sload\n      swap1\n      0x0100\n      exp\n      swap1\n      div\n      0xff\n      and\n      dup2\n      jump\t// out\n        /* \"contracts/tokens/Token.sol\":1516:1667  function allowance(address owner, address spender) public view virtual override returns (uint256) {\r... */\n    tag_66:\n        /* \"contracts/tokens/Token.sol\":1605:1612  uint256 */\n      0x00\n        /* \"contracts/tokens/Token.sol\":1632:1643  _allowances */\n      0x01\n        /* \"contracts/tokens/Token.sol\":1632:1650  _allowances[owner] */\n      0x00\n        /* \"contracts/tokens/Token.sol\":1644:1649  owner */\n      dup5\n        /* \"contracts/tokens/Token.sol\":1632:1650  _allowances[owner] */\n      0xffffffffffffffffffffffffffffffffffffffff\n      and\n      0xffffffffffffffffffffffffffffffffffffffff\n      and\n      dup2\n      mstore\n      0x20\n      add\n      swap1\n      dup2\n      mstore\n      0x20\n      add\n      0x00\n      keccak256\n        /* \"contracts/tokens/Token.sol\":1632:1659  _allowances[owner][spender] */\n      0x00\n        /* \"contracts/tokens/Token.sol\":1651:1658  spender */\n      dup4\n        /* \"contracts/tokens/Token.sol\":1632:1659  _allowances[owner][spender] */\n      0xffffffffffffffffffffffffffffffffffffffff\n      and\n      0xffffffffffffffffffffffffffffffffffffffff\n      and\n      dup2\n      mstore\n      0x20\n      add\n      swap1\n      dup2\n      mstore\n      0x20\n      add\n      0x00\n      keccak256\n      sload\n        /* \"contracts/tokens/Token.sol\":1625:1659  return _allowances[owner][spender] */\n      swap1\n      pop\n        /* \"contracts/tokens/Token.sol\":1516:1667  function allowance(address owner, address spender) public view virtual override returns (uint256) {\r... */\n      swap3\n      swap2\n      pop\n      pop\n      jump\t// out\n        /* \"@openzeppelin/contracts/utils/Context.sol\":640:736  function _msgSender() internal view virtual returns (address) {... */\n    tag_77:\n        /* \"@openzeppelin/contracts/utils/Context.sol\":693:700  address */\n      0x00\n        /* \"@openzeppelin/contracts/utils/Context.sol\":719:729  msg.sender */\n      caller\n        /* \"@openzeppelin/contracts/utils/Context.sol\":712:729  return msg.sender */\n      swap1\n      pop\n        /* \"@openzeppelin/contracts/utils/Context.sol\":640:736  function _msgSender() internal view virtual returns (address) {... */\n      swap1\n      jump\t// out\n        /* \"contracts/tokens/Token.sol\":4261:4641  function _approve(\r... */\n    tag_83:\n        /* \"contracts/tokens/Token.sol\":4414:4415  0 */\n      0x00\n        /* \"contracts/tokens/Token.sol\":4397:4416  owner != address(0) */\n      0xffffffffffffffffffffffffffffffffffffffff\n      and\n        /* \"contracts/tokens/Token.sol\":4397:4402  owner */\n      dup4\n        /* \"contracts/tokens/Token.sol\":4397:4416  owner != address(0) */\n      0xffffffffffffffffffffffffffffffffffffffff\n      and\n      eq\n      iszero\n        /* \"contracts/tokens/Token.sol\":4389:4457  require(owner != address(0), \"ERC20: approve from the zero address\") */\n      tag_130\n      jumpi\n      mload(0x40)\n      0x08c379a000000000000000000000000000000000000000000000000000000000\n      dup2\n      mstore\n      0x04\n      add\n      tag_131\n      swap1\n      tag_132\n      jump\t// in\n    tag_131:\n      mload(0x40)\n      dup1\n      swap2\n      sub\n      swap1\n      revert\n    tag_130:\n        /* \"contracts/tokens/Token.sol\":4495:4496  0 */\n      0x00\n        /* \"contracts/tokens/Token.sol\":4476:4497  spender != address(0) */\n      0xffffffffffffffffffffffffffffffffffffffff\n      and\n        /* \"contracts/tokens/Token.sol\":4476:4483  spender */\n      dup3\n        /* \"contracts/tokens/Token.sol\":4476:4497  spender != address(0) */\n      0xffffffffffffffffffffffffffffffffffffffff\n      and\n      eq\n      iszero\n        /* \"contracts/tokens/Token.sol\":4468:4536  require(spender != address(0), \"ERC20: approve to the zero address\") */\n      tag_133\n      jumpi\n      mload(0x40)\n      0x08c379a000000000000000000000000000000000000000000000000000000000\n      dup2\n      mstore\n      0x04\n      add\n      tag_134\n      swap1\n      tag_135\n      jump\t// in\n    tag_134:\n      mload(0x40)\n      dup1\n      swap2\n      sub\n      swap1\n      revert\n    tag_133:\n        /* \"contracts/tokens/Token.sol\":4579:4585  amount */\n      dup1\n        /* \"contracts/tokens/Token.sol\":4549:4560  _allowances */\n      0x01\n        /* \"contracts/tokens/Token.sol\":4549:4567  _allowances[owner] */\n      0x00\n        /* \"contracts/tokens/Token.sol\":4561:4566  owner */\n      dup6\n        /* \"contracts/tokens/Token.sol\":4549:4567  _allowances[owner] */\n      0xffffffffffffffffffffffffffffffffffffffff\n      and\n      0xffffffffffffffffffffffffffffffffffffffff\n      and\n      dup2\n      mstore\n      0x20\n      add\n      swap1\n      dup2\n      mstore\n      0x20\n      add\n      0x00\n      keccak256\n        /* \"contracts/tokens/Token.sol\":4549:4576  _allowances[owner][spender] */\n      0x00\n        /* \"contracts/tokens/Token.sol\":4568:4575  spender */\n      dup5\n        /* \"contracts/tokens/Token.sol\":4549:4576  _allowances[owner][spender] */\n      0xffffffffffffffffffffffffffffffffffffffff\n      and\n      0xffffffffffffffffffffffffffffffffffffffff\n      and\n      dup2\n      mstore\n      0x20\n      add\n      swap1\n      dup2\n      mstore\n      0x20\n      add\n      0x00\n      keccak256\n        /* \"contracts/tokens/Token.sol\":4549:4585  _allowances[owner][spender] = amount */\n      dup2\n      swap1\n      sstore\n      pop\n        /* \"contracts/tokens/Token.sol\":4617:4624  spender */\n      dup2\n        /* \"contracts/tokens/Token.sol\":4601:4633  Approval(owner, spender, amount) */\n      0xffffffffffffffffffffffffffffffffffffffff\n      and\n        /* \"contracts/tokens/Token.sol\":4610:4615  owner */\n      dup4\n        /* \"contracts/tokens/Token.sol\":4601:4633  Approval(owner, spender, amount) */\n      0xffffffffffffffffffffffffffffffffffffffff\n      and\n      0x8c5be1e5ebec7d5bd14f71427d1e84f3dd0314c0f7b2291e5b200ac8c7c3b925\n        /* \"contracts/tokens/Token.sol\":4626:4632  amount */\n      dup4\n        /* \"contracts/tokens/Token.sol\":4601:4633  Approval(owner, spender, amount) */\n      mload(0x40)\n      tag_136\n      swap2\n      swap1\n      tag_29\n      jump\t// in\n    tag_136:\n      mload(0x40)\n      dup1\n      swap2\n      sub\n      swap1\n      log3\n        /* \"contracts/tokens/Token.sol\":4261:4641  function _approve(\r... */\n      pop\n      pop\n      pop\n      jump\t// out\n        /* \"contracts/tokens/Token.sol\":3125:3846  function _transfer(\r... */\n    tag_90:\n        /* \"contracts/tokens/Token.sol\":3283:3284  0 */\n      0x00\n        /* \"contracts/tokens/Token.sol\":3265:3285  sender != address(0) */\n      0xffffffffffffffffffffffffffffffffffffffff\n      and\n        /* \"contracts/tokens/Token.sol\":3265:3271  sender */\n      dup4\n        /* \"contracts/tokens/Token.sol\":3265:3285  sender != address(0) */\n      0xffffffffffffffffffffffffffffffffffffffff\n      and\n      eq\n      iszero\n        /* \"contracts/tokens/Token.sol\":3257:3327  require(sender != address(0), \"ERC20: transfer from the zero address\") */\n      tag_138\n      jumpi\n      mload(0x40)\n      0x08c379a000000000000000000000000000000000000000000000000000000000\n      dup2\n      mstore\n      0x04\n      add\n      tag_139\n      swap1\n      tag_140\n      jump\t// in\n    tag_139:\n      mload(0x40)\n      dup1\n      swap2\n      sub\n      swap1\n      revert\n    tag_138:\n        /* \"contracts/tokens/Token.sol\":3367:3368  0 */\n      0x00\n        /* \"contracts/tokens/Token.sol\":3346:3369  recipient != address(0) */\n      0xffffffffffffffffffffffffffffffffffffffff\n      and\n        /* \"contracts/tokens/Token.sol\":3346:3355  recipient */\n      dup3\n        /* \"contracts/tokens/Token.sol\":3346:3369  recipient != address(0) */\n      0xffffffffffffffffffffffffffffffffffffffff\n      and\n      eq\n      iszero\n        /* \"contracts/tokens/Token.sol\":3338:3409  require(recipient != address(0), \"ERC20: transfer to the zero address\") */\n      tag_141\n      jumpi\n      mload(0x40)\n      0x08c379a000000000000000000000000000000000000000000000000000000000\n      dup2\n      mstore\n      0x04\n      add\n      tag_142\n      swap1\n      tag_143\n      jump\t// in\n    tag_142:\n      mload(0x40)\n      dup1\n      swap2\n      sub\n      swap1\n      revert\n    tag_141:\n        /* \"contracts/tokens/Token.sol\":3422:3469  _beforeTokenTransfer(sender, recipient, amount) */\n      tag_144\n        /* \"contracts/tokens/Token.sol\":3443:3449  sender */\n      dup4\n        /* \"contracts/tokens/Token.sol\":3451:3460  recipient */\n      dup4\n        /* \"contracts/tokens/Token.sol\":3462:3468  amount */\n      dup4\n        /* \"contracts/tokens/Token.sol\":3422:3442  _beforeTokenTransfer */\n      tag_145\n        /* \"contracts/tokens/Token.sol\":3422:3469  _beforeTokenTransfer(sender, recipient, amount) */\n      jump\t// in\n    tag_144:\n        /* \"contracts/tokens/Token.sol\":3482:3503  uint256 senderBalance */\n      0x00\n        /* \"contracts/tokens/Token.sol\":3506:3515  _balances */\n      dup1\n        /* \"contracts/tokens/Token.sol\":3506:3523  _balances[sender] */\n      0x00\n        /* \"contracts/tokens/Token.sol\":3516:3522  sender */\n      dup6\n        /* \"contracts/tokens/Token.sol\":3506:3523  _balances[sender] */\n      0xffffffffffffffffffffffffffffffffffffffff\n      and\n      0xffffffffffffffffffffffffffffffffffffffff\n      and\n      dup2\n      mstore\n      0x20\n      add\n      swap1\n      dup2\n      mstore\n      0x20\n      add\n      0x00\n      keccak256\n      sload\n        /* \"contracts/tokens/Token.sol\":3482:3523  uint256 senderBalance = _balances[sender] */\n      swap1\n      pop\n        /* \"contracts/tokens/Token.sol\":3559:3565  amount */\n      dup2\n        /* \"contracts/tokens/Token.sol\":3542:3555  senderBalance */\n      dup2\n        /* \"contracts/tokens/Token.sol\":3542:3565  senderBalance >= amount */\n      lt\n      iszero\n        /* \"contracts/tokens/Token.sol\":3534:3608  require(senderBalance >= amount, \"ERC20: transfer amount exceeds balance\") */\n      tag_146\n      jumpi\n      mload(0x40)\n      0x08c379a000000000000000000000000000000000000000000000000000000000\n      dup2\n      mstore\n      0x04\n      add\n      tag_147\n      swap1\n      tag_148\n      jump\t// in\n    tag_147:\n      mload(0x40)\n      dup1\n      swap2\n      sub\n      swap1\n      revert\n    tag_146:\n        /* \"contracts/tokens/Token.sol\":3672:3678  amount */\n      dup2\n        /* \"contracts/tokens/Token.sol\":3656:3669  senderBalance */\n      dup2\n        /* \"contracts/tokens/Token.sol\":3656:3678  senderBalance - amount */\n      sub\n        /* \"contracts/tokens/Token.sol\":3636:3645  _balances */\n      0x00\n        /* \"contracts/tokens/Token.sol\":3636:3653  _balances[sender] */\n      dup1\n        /* \"contracts/tokens/Token.sol\":3646:3652  sender */\n      dup7\n        /* \"contracts/tokens/Token.sol\":3636:3653  _balances[sender] */\n      0xffffffffffffffffffffffffffffffffffffffff\n      and\n      0xffffffffffffffffffffffffffffffffffffffff\n      and\n      dup2\n      mstore\n      0x20\n      add\n      swap1\n      dup2\n      mstore\n      0x20\n      add\n      0x00\n      keccak256\n        /* \"contracts/tokens/Token.sol\":3636:3678  _balances[sender] = senderBalance - amount */\n      dup2\n      swap1\n      sstore\n      pop\n        /* \"contracts/tokens/Token.sol\":3720:3726  amount */\n      dup2\n        /* \"contracts/tokens/Token.sol\":3696:3705  _balances */\n      0x00\n        /* \"contracts/tokens/Token.sol\":3696:3716  _balances[recipient] */\n      dup1\n        /* \"contracts/tokens/Token.sol\":3706:3715  recipient */\n      dup6\n        /* \"contracts/tokens/Token.sol\":3696:3716  _balances[recipient] */\n      0xffffffffffffffffffffffffffffffffffffffff\n      and\n      0xffffffffffffffffffffffffffffffffffffffff\n      and\n      dup2\n      mstore\n      0x20\n      add\n      swap1\n      dup2\n      mstore\n      0x20\n      add\n      0x00\n      keccak256\n      0x00\n        /* \"contracts/tokens/Token.sol\":3696:3726  _balances[recipient] += amount */\n      dup3\n      dup3\n      sload\n      tag_149\n      swap2\n      swap1\n      tag_106\n      jump\t// in\n    tag_149:\n      swap3\n      pop\n      pop\n      dup2\n      swap1\n      sstore\n      pop\n        /* \"contracts/tokens/Token.sol\":3761:3770  recipient */\n      dup3\n        /* \"contracts/tokens/Token.sol\":3744:3779  Transfer(sender, recipient, amount) */\n      0xffffffffffffffffffffffffffffffffffffffff\n      and\n        /* \"contracts/tokens/Token.sol\":3753:3759  sender */\n      dup5\n        /* \"contracts/tokens/Token.sol\":3744:3779  Transfer(sender, recipient, amount) */\n      0xffffffffffffffffffffffffffffffffffffffff\n      and\n      0xddf252ad1be2c89b69c2b068fc378daa952ba7f163c4a11628f55a4df523b3ef\n        /* \"contracts/tokens/Token.sol\":3772:3778  amount */\n      dup5\n        /* \"contracts/tokens/Token.sol\":3744:3779  Transfer(sender, recipient, amount) */\n      mload(0x40)\n      tag_150\n      swap2\n      swap1\n      tag_29\n      jump\t// in\n    tag_150:\n      mload(0x40)\n      dup1\n      swap2\n      sub\n      swap1\n      log3\n        /* \"contracts/tokens/Token.sol\":3792:3838  _afterTokenTransfer(sender, recipient, amount) */\n      tag_151\n        /* \"contracts/tokens/Token.sol\":3812:3818  sender */\n      dup5\n        /* \"contracts/tokens/Token.sol\":3820:3829  recipient */\n      dup5\n        /* \"contracts/tokens/Token.sol\":3831:3837  amount */\n      dup5\n        /* \"contracts/tokens/Token.sol\":3792:3811  _afterTokenTransfer */\n      tag_152\n        /* \"contracts/tokens/Token.sol\":3792:3838  _afterTokenTransfer(sender, recipient, amount) */\n      jump\t// in\n    tag_151:\n        /* \"contracts/tokens/Token.sol\":3246:3846  {\r... */\n      pop\n        /* \"contracts/tokens/Token.sol\":3125:3846  function _transfer(\r... */\n      pop\n      pop\n      pop\n      jump\t// out\n        /* \"contracts/tokens/Token.sol\":4649:4774  function _beforeTokenTransfer(\r... */\n    tag_145:\n      pop\n      pop\n      pop\n      jump\t// out\n        /* \"contracts/tokens/Token.sol\":4782:4906  function _afterTokenTransfer(\r... */\n    tag_152:\n      pop\n      pop\n      pop\n      jump\t// out\n        /* \"#utility.yul\":7:146   */\n    tag_156:\n        /* \"#utility.yul\":53:58   */\n      0x00\n        /* \"#utility.yul\":91:97   */\n      dup2\n        /* \"#utility.yul\":78:98   */\n      calldataload\n        /* \"#utility.yul\":69:98   */\n      swap1\n      pop\n        /* \"#utility.yul\":107:140   */\n      tag_158\n        /* \"#utility.yul\":134:139   */\n      dup2\n        /* \"#utility.yul\":107:140   */\n      tag_159\n      jump\t// in\n    tag_158:\n        /* \"#utility.yul\":7:146   */\n      swap3\n      swap2\n      pop\n      pop\n      jump\t// out\n        /* \"#utility.yul\":152:291   */\n    tag_160:\n        /* \"#utility.yul\":198:203   */\n      0x00\n        /* \"#utility.yul\":236:242   */\n      dup2\n        /* \"#utility.yul\":223:243   */\n      calldataload\n        /* \"#utility.yul\":214:243   */\n      swap1\n      pop\n        /* \"#utility.yul\":252:285   */\n      tag_162\n        /* \"#utility.yul\":279:284   */\n      dup2\n        /* \"#utility.yul\":252:285   */\n      tag_163\n      jump\t// in\n    tag_162:\n        /* \"#utility.yul\":152:291   */\n      swap3\n      swap2\n      pop\n      pop\n      jump\t// out\n        /* \"#utility.yul\":297:626   */\n    tag_45:\n        /* \"#utility.yul\":356:362   */\n      0x00\n        /* \"#utility.yul\":405:407   */\n      0x20\n        /* \"#utility.yul\":393:402   */\n      dup3\n        /* \"#utility.yul\":384:391   */\n      dup5\n        /* \"#utility.yul\":380:403   */\n      sub\n        /* \"#utility.yul\":376:408   */\n      slt\n        /* \"#utility.yul\":373:492   */\n      iszero\n      tag_165\n      jumpi\n        /* \"#utility.yul\":411:490   */\n      tag_166\n      tag_167\n      jump\t// in\n    tag_166:\n        /* \"#utility.yul\":373:492   */\n    tag_165:\n        /* \"#utility.yul\":531:532   */\n      0x00\n        /* \"#utility.yul\":556:609   */\n      tag_168\n        /* \"#utility.yul\":601:608   */\n      dup5\n        /* \"#utility.yul\":592:598   */\n      dup3\n        /* \"#utility.yul\":581:590   */\n      dup6\n        /* \"#utility.yul\":577:599   */\n      add\n        /* \"#utility.yul\":556:609   */\n      tag_156\n      jump\t// in\n    tag_168:\n        /* \"#utility.yul\":546:609   */\n      swap2\n      pop\n        /* \"#utility.yul\":502:619   */\n      pop\n        /* \"#utility.yul\":297:626   */\n      swap3\n      swap2\n      pop\n      pop\n      jump\t// out\n        /* \"#utility.yul\":632:1106   */\n    tag_65:\n        /* \"#utility.yul\":700:706   */\n      0x00\n        /* \"#utility.yul\":708:714   */\n      dup1\n        /* \"#utility.yul\":757:759   */\n      0x40\n        /* \"#utility.yul\":745:754   */\n      dup4\n        /* \"#utility.yul\":736:743   */\n      dup6\n        /* \"#utility.yul\":732:755   */\n      sub\n        /* \"#utility.yul\":728:760   */\n      slt\n        /* \"#utility.yul\":725:844   */\n      iszero\n      tag_170\n      jumpi\n        /* \"#utility.yul\":763:842   */\n      tag_171\n      tag_167\n      jump\t// in\n    tag_171:\n        /* \"#utility.yul\":725:844   */\n    tag_170:\n        /* \"#utility.yul\":883:884   */\n      0x00\n        /* \"#utility.yul\":908:961   */\n      tag_172\n        /* \"#utility.yul\":953:960   */\n      dup6\n        /* \"#utility.yul\":944:950   */\n      dup3\n        /* \"#utility.yul\":933:942   */\n      dup7\n        /* \"#utility.yul\":929:951   */\n      add\n        /* \"#utility.yul\":908:961   */\n      tag_156\n      jump\t// in\n    tag_172:\n        /* \"#utility.yul\":898:961   */\n      swap3\n      pop\n        /* \"#utility.yul\":854:971   */\n      pop\n        /* \"#utility.yul\":1010:1012   */\n      0x20\n        /* \"#utility.yul\":1036:1089   */\n      tag_173\n        /* \"#utility.yul\":1081:1088   */\n      dup6\n        /* \"#utility.yul\":1072:1078   */\n      dup3\n        /* \"#utility.yul\":1061:1070   */\n      dup7\n        /* \"#utility.yul\":1057:1079   */\n      add\n        /* \"#utility.yul\":1036:1089   */\n      tag_156\n      jump\t// in\n    tag_173:\n        /* \"#utility.yul\":1026:1089   */\n      swap2\n      pop\n        /* \"#utility.yul\":981:1099   */\n      pop\n        /* \"#utility.yul\":632:1106   */\n      swap3\n      pop\n      swap3\n      swap1\n      pop\n      jump\t// out\n        /* \"#utility.yul\":1112:1731   */\n    tag_32:\n        /* \"#utility.yul\":1189:1195   */\n      0x00\n        /* \"#utility.yul\":1197:1203   */\n      dup1\n        /* \"#utility.yul\":1205:1211   */\n      0x00\n        /* \"#utility.yul\":1254:1256   */\n      0x60\n        /* \"#utility.yul\":1242:1251   */\n      dup5\n        /* \"#utility.yul\":1233:1240   */\n      dup7\n        /* \"#utility.yul\":1229:1252   */\n      sub\n        /* \"#utility.yul\":1225:1257   */\n      slt\n        /* \"#utility.yul\":1222:1341   */\n      iszero\n      tag_175\n      jumpi\n        /* \"#utility.yul\":1260:1339   */\n      tag_176\n      tag_167\n      jump\t// in\n    tag_176:\n        /* \"#utility.yul\":1222:1341   */\n    tag_175:\n        /* \"#utility.yul\":1380:1381   */\n      0x00\n        /* \"#utility.yul\":1405:1458   */\n      tag_177\n        /* \"#utility.yul\":1450:1457   */\n      dup7\n        /* \"#utility.yul\":1441:1447   */\n      dup3\n        /* \"#utility.yul\":1430:1439   */\n      dup8\n        /* \"#utility.yul\":1426:1448   */\n      add\n        /* \"#utility.yul\":1405:1458   */\n      tag_156\n      jump\t// in\n    tag_177:\n        /* \"#utility.yul\":1395:1458   */\n      swap4\n      pop\n        /* \"#utility.yul\":1351:1468   */\n      pop\n        /* \"#utility.yul\":1507:1509   */\n      0x20\n        /* \"#utility.yul\":1533:1586   */\n      tag_178\n        /* \"#utility.yul\":1578:1585   */\n      dup7\n        /* \"#utility.yul\":1569:1575   */\n      dup3\n        /* \"#utility.yul\":1558:1567   */\n      dup8\n        /* \"#utility.yul\":1554:1576   */\n      add\n        /* \"#utility.yul\":1533:1586   */\n      tag_156\n      jump\t// in\n    tag_178:\n        /* \"#utility.yul\":1523:1586   */\n      swap3\n      pop\n        /* \"#utility.yul\":1478:1596   */\n      pop\n        /* \"#utility.yul\":1635:1637   */\n      0x40\n        /* \"#utility.yul\":1661:1714   */\n      tag_179\n        /* \"#utility.yul\":1706:1713   */\n      dup7\n        /* \"#utility.yul\":1697:1703   */\n      dup3\n        /* \"#utility.yul\":1686:1695   */\n      dup8\n        /* \"#utility.yul\":1682:1704   */\n      add\n        /* \"#utility.yul\":1661:1714   */\n      tag_160\n      jump\t// in\n    tag_179:\n        /* \"#utility.yul\":1651:1714   */\n      swap2\n      pop\n        /* \"#utility.yul\":1606:1724   */\n      pop\n        /* \"#utility.yul\":1112:1731   */\n      swap3\n      pop\n      swap3\n      pop\n      swap3\n      jump\t// out\n        /* \"#utility.yul\":1737:2211   */\n    tag_22:\n        /* \"#utility.yul\":1805:1811   */\n      0x00\n        /* \"#utility.yul\":1813:1819   */\n      dup1\n        /* \"#utility.yul\":1862:1864   */\n      0x40\n        /* \"#utility.yul\":1850:1859   */\n      dup4\n        /* \"#utility.yul\":1841:1848   */\n      dup6\n        /* \"#utility.yul\":1837:1860   */\n      sub\n        /* \"#utility.yul\":1833:1865   */\n      slt\n        /* \"#utility.yul\":1830:1949   */\n      iszero\n      tag_181\n      jumpi\n        /* \"#utility.yul\":1868:1947   */\n      tag_182\n      tag_167\n      jump\t// in\n    tag_182:\n        /* \"#utility.yul\":1830:1949   */\n    tag_181:\n        /* \"#utility.yul\":1988:1989   */\n      0x00\n        /* \"#utility.yul\":2013:2066   */\n      tag_183\n        /* \"#utility.yul\":2058:2065   */\n      dup6\n        /* \"#utility.yul\":2049:2055   */\n      dup3\n        /* \"#utility.yul\":2038:2047   */\n      dup7\n        /* \"#utility.yul\":2034:2056   */\n      add\n        /* \"#utility.yul\":2013:2066   */\n      tag_156\n      jump\t// in\n    tag_183:\n        /* \"#utility.yul\":2003:2066   */\n      swap3\n      pop\n        /* \"#utility.yul\":1959:2076   */\n      pop\n        /* \"#utility.yul\":2115:2117   */\n      0x20\n        /* \"#utility.yul\":2141:2194   */\n      tag_184\n        /* \"#utility.yul\":2186:2193   */\n      dup6\n        /* \"#utility.yul\":2177:2183   */\n      dup3\n        /* \"#utility.yul\":2166:2175   */\n      dup7\n        /* \"#utility.yul\":2162:2184   */\n      add\n        /* \"#utility.yul\":2141:2194   */\n      tag_160\n      jump\t// in\n    tag_184:\n        /* \"#utility.yul\":2131:2194   */\n      swap2\n      pop\n        /* \"#utility.yul\":2086:2204   */\n      pop\n        /* \"#utility.yul\":1737:2211   */\n      swap3\n      pop\n      swap3\n      swap1\n      pop\n      jump\t// out\n        /* \"#utility.yul\":2217:2326   */\n    tag_185:\n        /* \"#utility.yul\":2298:2319   */\n      tag_187\n        /* \"#utility.yul\":2313:2318   */\n      dup2\n        /* \"#utility.yul\":2298:2319   */\n      tag_188\n      jump\t// in\n    tag_187:\n        /* \"#utility.yul\":2293:2296   */\n      dup3\n        /* \"#utility.yul\":2286:2320   */\n      mstore\n        /* \"#utility.yul\":2217:2326   */\n      pop\n      pop\n      jump\t// out\n        /* \"#utility.yul\":2332:2696   */\n    tag_189:\n        /* \"#utility.yul\":2420:2423   */\n      0x00\n        /* \"#utility.yul\":2448:2487   */\n      tag_191\n        /* \"#utility.yul\":2481:2486   */\n      dup3\n        /* \"#utility.yul\":2448:2487   */\n      tag_192\n      jump\t// in\n    tag_191:\n        /* \"#utility.yul\":2503:2574   */\n      tag_193\n        /* \"#utility.yul\":2567:2573   */\n      dup2\n        /* \"#utility.yul\":2562:2565   */\n      dup6\n        /* \"#utility.yul\":2503:2574   */\n      tag_194\n      jump\t// in\n    tag_193:\n        /* \"#utility.yul\":2496:2574   */\n      swap4\n      pop\n        /* \"#utility.yul\":2583:2635   */\n      tag_195\n        /* \"#utility.yul\":2628:2634   */\n      dup2\n        /* \"#utility.yul\":2623:2626   */\n      dup6\n        /* \"#utility.yul\":2616:2620   */\n      0x20\n        /* \"#utility.yul\":2609:2614   */\n      dup7\n        /* \"#utility.yul\":2605:2621   */\n      add\n        /* \"#utility.yul\":2583:2635   */\n      tag_196\n      jump\t// in\n    tag_195:\n        /* \"#utility.yul\":2660:2689   */\n      tag_197\n        /* \"#utility.yul\":2682:2688   */\n      dup2\n        /* \"#utility.yul\":2660:2689   */\n      tag_198\n      jump\t// in\n    tag_197:\n        /* \"#utility.yul\":2655:2658   */\n      dup5\n        /* \"#utility.yul\":2651:2690   */\n      add\n        /* \"#utility.yul\":2644:2690   */\n      swap2\n      pop\n        /* \"#utility.yul\":2424:2696   */\n      pop\n        /* \"#utility.yul\":2332:2696   */\n      swap3\n      swap2\n      pop\n      pop\n      jump\t// out\n        /* \"#utility.yul\":2702:3068   */\n    tag_199:\n        /* \"#utility.yul\":2844:2847   */\n      0x00\n        /* \"#utility.yul\":2865:2932   */\n      tag_201\n        /* \"#utility.yul\":2929:2931   */\n      0x23\n        /* \"#utility.yul\":2924:2927   */\n      dup4\n        /* \"#utility.yul\":2865:2932   */\n      tag_194\n      jump\t// in\n    tag_201:\n        /* \"#utility.yul\":2858:2932   */\n      swap2\n      pop\n        /* \"#utility.yul\":2941:3034   */\n      tag_202\n        /* \"#utility.yul\":3030:3033   */\n      dup3\n        /* \"#utility.yul\":2941:3034   */\n      tag_203\n      jump\t// in\n    tag_202:\n        /* \"#utility.yul\":3059:3061   */\n      0x40\n        /* \"#utility.yul\":3054:3057   */\n      dup3\n        /* \"#utility.yul\":3050:3062   */\n      add\n        /* \"#utility.yul\":3043:3062   */\n      swap1\n      pop\n        /* \"#utility.yul\":2702:3068   */\n      swap2\n      swap1\n      pop\n      jump\t// out\n        /* \"#utility.yul\":3074:3439   */\n    tag_204:\n        /* \"#utility.yul\":3216:3219   */\n      0x00\n        /* \"#utility.yul\":3237:3303   */\n      tag_206\n        /* \"#utility.yul\":3301:3302   */\n      0x06\n        /* \"#utility.yul\":3296:3299   */\n      dup4\n        /* \"#utility.yul\":3237:3303   */\n      tag_194\n      jump\t// in\n    tag_206:\n        /* \"#utility.yul\":3230:3303   */\n      swap2\n      pop\n        /* \"#utility.yul\":3312:3405   */\n      tag_207\n        /* \"#utility.yul\":3401:3404   */\n      dup3\n        /* \"#utility.yul\":3312:3405   */\n      tag_208\n      jump\t// in\n    tag_207:\n        /* \"#utility.yul\":3430:3432   */\n      0x20\n        /* \"#utility.yul\":3425:3428   */\n      dup3\n        /* \"#utility.yul\":3421:3433   */\n      add\n        /* \"#utility.yul\":3414:3433   */\n      swap1\n      pop\n        /* \"#utility.yul\":3074:3439   */\n      swap2\n      swap1\n      pop\n      jump\t// out\n        /* \"#utility.yul\":3445:3811   */\n    tag_209:\n        /* \"#utility.yul\":3587:3590   */\n      0x00\n        /* \"#utility.yul\":3608:3675   */\n      tag_211\n        /* \"#utility.yul\":3672:3674   */\n      0x22\n        /* \"#utility.yul\":3667:3670   */\n      dup4\n        /* \"#utility.yul\":3608:3675   */\n      tag_194\n      jump\t// in\n    tag_211:\n        /* \"#utility.yul\":3601:3675   */\n      swap2\n      pop\n        /* \"#utility.yul\":3684:3777   */\n      tag_212\n        /* \"#utility.yul\":3773:3776   */\n      dup3\n        /* \"#utility.yul\":3684:3777   */\n      tag_213\n      jump\t// in\n    tag_212:\n        /* \"#utility.yul\":3802:3804   */\n      0x40\n        /* \"#utility.yul\":3797:3800   */\n      dup3\n        /* \"#utility.yul\":3793:3805   */\n      add\n        /* \"#utility.yul\":3786:3805   */\n      swap1\n      pop\n        /* \"#utility.yul\":3445:3811   */\n      swap2\n      swap1\n      pop\n      jump\t// out\n        /* \"#utility.yul\":3817:4183   */\n    tag_214:\n        /* \"#utility.yul\":3959:3962   */\n      0x00\n        /* \"#utility.yul\":3980:4047   */\n      tag_216\n        /* \"#utility.yul\":4044:4046   */\n      0x26\n        /* \"#utility.yul\":4039:4042   */\n      dup4\n        /* \"#utility.yul\":3980:4047   */\n      tag_194\n      jump\t// in\n    tag_216:\n        /* \"#utility.yul\":3973:4047   */\n      swap2\n      pop\n        /* \"#utility.yul\":4056:4149   */\n      tag_217\n        /* \"#utility.yul\":4145:4148   */\n      dup3\n        /* \"#utility.yul\":4056:4149   */\n      tag_218\n      jump\t// in\n    tag_217:\n        /* \"#utility.yul\":4174:4176   */\n      0x40\n        /* \"#utility.yul\":4169:4172   */\n      dup3\n        /* \"#utility.yul\":4165:4177   */\n      add\n        /* \"#utility.yul\":4158:4177   */\n      swap1\n      pop\n        /* \"#utility.yul\":3817:4183   */\n      swap2\n      swap1\n      pop\n      jump\t// out\n        /* \"#utility.yul\":4189:4555   */\n    tag_219:\n        /* \"#utility.yul\":4331:4334   */\n      0x00\n        /* \"#utility.yul\":4352:4419   */\n      tag_221\n        /* \"#utility.yul\":4416:4418   */\n      0x28\n        /* \"#utility.yul\":4411:4414   */\n      dup4\n        /* \"#utility.yul\":4352:4419   */\n      tag_194\n      jump\t// in\n    tag_221:\n        /* \"#utility.yul\":4345:4419   */\n      swap2\n      pop\n        /* \"#utility.yul\":4428:4521   */\n      tag_222\n        /* \"#utility.yul\":4517:4520   */\n      dup3\n        /* \"#utility.yul\":4428:4521   */\n      tag_223\n      jump\t// in\n    tag_222:\n        /* \"#utility.yul\":4546:4548   */\n      0x40\n        /* \"#utility.yul\":4541:4544   */\n      dup3\n        /* \"#utility.yul\":4537:4549   */\n      add\n        /* \"#utility.yul\":4530:4549   */\n      swap1\n      pop\n        /* \"#utility.yul\":4189:4555   */\n      swap2\n      swap1\n      pop\n      jump\t// out\n        /* \"#utility.yul\":4561:4927   */\n    tag_224:\n        /* \"#utility.yul\":4703:4706   */\n      0x00\n        /* \"#utility.yul\":4724:4791   */\n      tag_226\n        /* \"#utility.yul\":4788:4790   */\n      0x25\n        /* \"#utility.yul\":4783:4786   */\n      dup4\n        /* \"#utility.yul\":4724:4791   */\n      tag_194\n      jump\t// in\n    tag_226:\n        /* \"#utility.yul\":4717:4791   */\n      swap2\n      pop\n        /* \"#utility.yul\":4800:4893   */\n      tag_227\n        /* \"#utility.yul\":4889:4892   */\n      dup3\n        /* \"#utility.yul\":4800:4893   */\n      tag_228\n      jump\t// in\n    tag_227:\n        /* \"#utility.yul\":4918:4920   */\n      0x40\n        /* \"#utility.yul\":4913:4916   */\n      dup3\n        /* \"#utility.yul\":4909:4921   */\n      add\n        /* \"#utility.yul\":4902:4921   */\n      swap1\n      pop\n        /* \"#utility.yul\":4561:4927   */\n      swap2\n      swap1\n      pop\n      jump\t// out\n        /* \"#utility.yul\":4933:5299   */\n    tag_229:\n        /* \"#utility.yul\":5075:5078   */\n      0x00\n        /* \"#utility.yul\":5096:5163   */\n      tag_231\n        /* \"#utility.yul\":5160:5162   */\n      0x24\n        /* \"#utility.yul\":5155:5158   */\n      dup4\n        /* \"#utility.yul\":5096:5163   */\n      tag_194\n      jump\t// in\n    tag_231:\n        /* \"#utility.yul\":5089:5163   */\n      swap2\n      pop\n        /* \"#utility.yul\":5172:5265   */\n      tag_232\n        /* \"#utility.yul\":5261:5264   */\n      dup3\n        /* \"#utility.yul\":5172:5265   */\n      tag_233\n      jump\t// in\n    tag_232:\n        /* \"#utility.yul\":5290:5292   */\n      0x40\n        /* \"#utility.yul\":5285:5288   */\n      dup3\n        /* \"#utility.yul\":5281:5293   */\n      add\n        /* \"#utility.yul\":5274:5293   */\n      swap1\n      pop\n        /* \"#utility.yul\":4933:5299   */\n      swap2\n      swap1\n      pop\n      jump\t// out\n        /* \"#utility.yul\":5305:5671   */\n    tag_234:\n        /* \"#utility.yul\":5447:5450   */\n      0x00\n        /* \"#utility.yul\":5468:5535   */\n      tag_236\n        /* \"#utility.yul\":5532:5534   */\n      0x25\n        /* \"#utility.yul\":5527:5530   */\n      dup4\n        /* \"#utility.yul\":5468:5535   */\n      tag_194\n      jump\t// in\n    tag_236:\n        /* \"#utility.yul\":5461:5535   */\n      swap2\n      pop\n        /* \"#utility.yul\":5544:5637   */\n      tag_237\n        /* \"#utility.yul\":5633:5636   */\n      dup3\n        /* \"#utility.yul\":5544:5637   */\n      tag_238\n      jump\t// in\n    tag_237:\n        /* \"#utility.yul\":5662:5664   */\n      0x40\n        /* \"#utility.yul\":5657:5660   */\n      dup3\n        /* \"#utility.yul\":5653:5665   */\n      add\n        /* \"#utility.yul\":5646:5665   */\n      swap1\n      pop\n        /* \"#utility.yul\":5305:5671   */\n      swap2\n      swap1\n      pop\n      jump\t// out\n        /* \"#utility.yul\":5677:5795   */\n    tag_239:\n        /* \"#utility.yul\":5764:5788   */\n      tag_241\n        /* \"#utility.yul\":5782:5787   */\n      dup2\n        /* \"#utility.yul\":5764:5788   */\n      tag_242\n      jump\t// in\n    tag_241:\n        /* \"#utility.yul\":5759:5762   */\n      dup3\n        /* \"#utility.yul\":5752:5789   */\n      mstore\n        /* \"#utility.yul\":5677:5795   */\n      pop\n      pop\n      jump\t// out\n        /* \"#utility.yul\":5801:5913   */\n    tag_243:\n        /* \"#utility.yul\":5884:5906   */\n      tag_245\n        /* \"#utility.yul\":5900:5905   */\n      dup2\n        /* \"#utility.yul\":5884:5906   */\n      tag_246\n      jump\t// in\n    tag_245:\n        /* \"#utility.yul\":5879:5882   */\n      dup3\n        /* \"#utility.yul\":5872:5907   */\n      mstore\n        /* \"#utility.yul\":5801:5913   */\n      pop\n      pop\n      jump\t// out\n        /* \"#utility.yul\":5919:6129   */\n    tag_25:\n        /* \"#utility.yul\":6006:6010   */\n      0x00\n        /* \"#utility.yul\":6044:6046   */\n      0x20\n        /* \"#utility.yul\":6033:6042   */\n      dup3\n        /* \"#utility.yul\":6029:6047   */\n      add\n        /* \"#utility.yul\":6021:6047   */\n      swap1\n      pop\n        /* \"#utility.yul\":6057:6122   */\n      tag_248\n        /* \"#utility.yul\":6119:6120   */\n      0x00\n        /* \"#utility.yul\":6108:6117   */\n      dup4\n        /* \"#utility.yul\":6104:6121   */\n      add\n        /* \"#utility.yul\":6095:6101   */\n      dup5\n        /* \"#utility.yul\":6057:6122   */\n      tag_185\n      jump\t// in\n    tag_248:\n        /* \"#utility.yul\":5919:6129   */\n      swap3\n      swap2\n      pop\n      pop\n      jump\t// out\n        /* \"#utility.yul\":6135:6448   */\n    tag_19:\n        /* \"#utility.yul\":6248:6252   */\n      0x00\n        /* \"#utility.yul\":6286:6288   */\n      0x20\n        /* \"#utility.yul\":6275:6284   */\n      dup3\n        /* \"#utility.yul\":6271:6289   */\n      add\n        /* \"#utility.yul\":6263:6289   */\n      swap1\n      pop\n        /* \"#utility.yul\":6335:6344   */\n      dup2\n        /* \"#utility.yul\":6329:6333   */\n      dup2\n        /* \"#utility.yul\":6325:6345   */\n      sub\n        /* \"#utility.yul\":6321:6322   */\n      0x00\n        /* \"#utility.yul\":6310:6319   */\n      dup4\n        /* \"#utility.yul\":6306:6323   */\n      add\n        /* \"#utility.yul\":6299:6346   */\n      mstore\n        /* \"#utility.yul\":6363:6441   */\n      tag_250\n        /* \"#utility.yul\":6436:6440   */\n      dup2\n        /* \"#utility.yul\":6427:6433   */\n      dup5\n        /* \"#utility.yul\":6363:6441   */\n      tag_189\n      jump\t// in\n    tag_250:\n        /* \"#utility.yul\":6355:6441   */\n      swap1\n      pop\n        /* \"#utility.yul\":6135:6448   */\n      swap3\n      swap2\n      pop\n      pop\n      jump\t// out\n        /* \"#utility.yul\":6454:6873   */\n    tag_143:\n        /* \"#utility.yul\":6620:6624   */\n      0x00\n        /* \"#utility.yul\":6658:6660   */\n      0x20\n        /* \"#utility.yul\":6647:6656   */\n      dup3\n        /* \"#utility.yul\":6643:6661   */\n      add\n        /* \"#utility.yul\":6635:6661   */\n      swap1\n      pop\n        /* \"#utility.yul\":6707:6716   */\n      dup2\n        /* \"#utility.yul\":6701:6705   */\n      dup2\n        /* \"#utility.yul\":6697:6717   */\n      sub\n        /* \"#utility.yul\":6693:6694   */\n      0x00\n        /* \"#utility.yul\":6682:6691   */\n      dup4\n        /* \"#utility.yul\":6678:6695   */\n      add\n        /* \"#utility.yul\":6671:6718   */\n      mstore\n        /* \"#utility.yul\":6735:6866   */\n      tag_252\n        /* \"#utility.yul\":6861:6865   */\n      dup2\n        /* \"#utility.yul\":6735:6866   */\n      tag_199\n      jump\t// in\n    tag_252:\n        /* \"#utility.yul\":6727:6866   */\n      swap1\n      pop\n        /* \"#utility.yul\":6454:6873   */\n      swap2\n      swap1\n      pop\n      jump\t// out\n        /* \"#utility.yul\":6879:7298   */\n    tag_80:\n        /* \"#utility.yul\":7045:7049   */\n      0x00\n        /* \"#utility.yul\":7083:7085   */\n      0x20\n        /* \"#utility.yul\":7072:7081   */\n      dup3\n        /* \"#utility.yul\":7068:7086   */\n      add\n        /* \"#utility.yul\":7060:7086   */\n      swap1\n      pop\n        /* \"#utility.yul\":7132:7141   */\n      dup2\n        /* \"#utility.yul\":7126:7130   */\n      dup2\n        /* \"#utility.yul\":7122:7142   */\n      sub\n        /* \"#utility.yul\":7118:7119   */\n      0x00\n        /* \"#utility.yul\":7107:7116   */\n      dup4\n        /* \"#utility.yul\":7103:7120   */\n      add\n        /* \"#utility.yul\":7096:7143   */\n      mstore\n        /* \"#utility.yul\":7160:7291   */\n      tag_254\n        /* \"#utility.yul\":7286:7290   */\n      dup2\n        /* \"#utility.yul\":7160:7291   */\n      tag_204\n      jump\t// in\n    tag_254:\n        /* \"#utility.yul\":7152:7291   */\n      swap1\n      pop\n        /* \"#utility.yul\":6879:7298   */\n      swap2\n      swap1\n      pop\n      jump\t// out\n        /* \"#utility.yul\":7304:7723   */\n    tag_135:\n        /* \"#utility.yul\":7470:7474   */\n      0x00\n        /* \"#utility.yul\":7508:7510   */\n      0x20\n        /* \"#utility.yul\":7497:7506   */\n      dup3\n        /* \"#utility.yul\":7493:7511   */\n      add\n        /* \"#utility.yul\":7485:7511   */\n      swap1\n      pop\n        /* \"#utility.yul\":7557:7566   */\n      dup2\n        /* \"#utility.yul\":7551:7555   */\n      dup2\n        /* \"#utility.yul\":7547:7567   */\n      sub\n        /* \"#utility.yul\":7543:7544   */\n      0x00\n        /* \"#utility.yul\":7532:7541   */\n      dup4\n        /* \"#utility.yul\":7528:7545   */\n      add\n        /* \"#utility.yul\":7521:7568   */\n      mstore\n        /* \"#utility.yul\":7585:7716   */\n      tag_256\n        /* \"#utility.yul\":7711:7715   */\n      dup2\n        /* \"#utility.yul\":7585:7716   */\n      tag_209\n      jump\t// in\n    tag_256:\n        /* \"#utility.yul\":7577:7716   */\n      swap1\n      pop\n        /* \"#utility.yul\":7304:7723   */\n      swap2\n      swap1\n      pop\n      jump\t// out\n        /* \"#utility.yul\":7729:8148   */\n    tag_148:\n        /* \"#utility.yul\":7895:7899   */\n      0x00\n        /* \"#utility.yul\":7933:7935   */\n      0x20\n        /* \"#utility.yul\":7922:7931   */\n      dup3\n        /* \"#utility.yul\":7918:7936   */\n      add\n        /* \"#utility.yul\":7910:7936   */\n      swap1\n      pop\n        /* \"#utility.yul\":7982:7991   */\n      dup2\n        /* \"#utility.yul\":7976:7980   */\n      dup2\n        /* \"#utility.yul\":7972:7992   */\n      sub\n        /* \"#utility.yul\":7968:7969   */\n      0x00\n        /* \"#utility.yul\":7957:7966   */\n      dup4\n        /* \"#utility.yul\":7953:7970   */\n      add\n        /* \"#utility.yul\":7946:7993   */\n      mstore\n        /* \"#utility.yul\":8010:8141   */\n      tag_258\n        /* \"#utility.yul\":8136:8140   */\n      dup2\n        /* \"#utility.yul\":8010:8141   */\n      tag_214\n      jump\t// in\n    tag_258:\n        /* \"#utility.yul\":8002:8141   */\n      swap1\n      pop\n        /* \"#utility.yul\":7729:8148   */\n      swap2\n      swap1\n      pop\n      jump\t// out\n        /* \"#utility.yul\":8154:8573   */\n    tag_94:\n        /* \"#utility.yul\":8320:8324   */\n      0x00\n        /* \"#utility.yul\":8358:8360   */\n      0x20\n        /* \"#utility.yul\":8347:8356   */\n      dup3\n        /* \"#utility.yul\":8343:8361   */\n      add\n        /* \"#utility.yul\":8335:8361   */\n      swap1\n      pop\n        /* \"#utility.yul\":8407:8416   */\n      dup2\n        /* \"#utility.yul\":8401:8405   */\n      dup2\n        /* \"#utility.yul\":8397:8417   */\n      sub\n        /* \"#utility.yul\":8393:8394   */\n      0x00\n        /* \"#utility.yul\":8382:8391   */\n      dup4\n        /* \"#utility.yul\":8378:8395   */\n      add\n        /* \"#utility.yul\":8371:8418   */\n      mstore\n        /* \"#utility.yul\":8435:8566   */\n      tag_260\n        /* \"#utility.yul\":8561:8565   */\n      dup2\n        /* \"#utility.yul\":8435:8566   */\n      tag_219\n      jump\t// in\n    tag_260:\n        /* \"#utility.yul\":8427:8566   */\n      swap1\n      pop\n        /* \"#utility.yul\":8154:8573   */\n      swap2\n      swap1\n      pop\n      jump\t// out\n        /* \"#utility.yul\":8579:8998   */\n    tag_140:\n        /* \"#utility.yul\":8745:8749   */\n      0x00\n        /* \"#utility.yul\":8783:8785   */\n      0x20\n        /* \"#utility.yul\":8772:8781   */\n      dup3\n        /* \"#utility.yul\":8768:8786   */\n      add\n        /* \"#utility.yul\":8760:8786   */\n      swap1\n      pop\n        /* \"#utility.yul\":8832:8841   */\n      dup2\n        /* \"#utility.yul\":8826:8830   */\n      dup2\n        /* \"#utility.yul\":8822:8842   */\n      sub\n        /* \"#utility.yul\":8818:8819   */\n      0x00\n        /* \"#utility.yul\":8807:8816   */\n      dup4\n        /* \"#utility.yul\":8803:8820   */\n      add\n        /* \"#utility.yul\":8796:8843   */\n      mstore\n        /* \"#utility.yul\":8860:8991   */\n      tag_262\n        /* \"#utility.yul\":8986:8990   */\n      dup2\n        /* \"#utility.yul\":8860:8991   */\n      tag_224\n      jump\t// in\n    tag_262:\n        /* \"#utility.yul\":8852:8991   */\n      swap1\n      pop\n        /* \"#utility.yul\":8579:8998   */\n      swap2\n      swap1\n      pop\n      jump\t// out\n        /* \"#utility.yul\":9004:9423   */\n    tag_132:\n        /* \"#utility.yul\":9170:9174   */\n      0x00\n        /* \"#utility.yul\":9208:9210   */\n      0x20\n        /* \"#utility.yul\":9197:9206   */\n      dup3\n        /* \"#utility.yul\":9193:9211   */\n      add\n        /* \"#utility.yul\":9185:9211   */\n      swap1\n      pop\n        /* \"#utility.yul\":9257:9266   */\n      dup2\n        /* \"#utility.yul\":9251:9255   */\n      dup2\n        /* \"#utility.yul\":9247:9267   */\n      sub\n        /* \"#utility.yul\":9243:9244   */\n      0x00\n        /* \"#utility.yul\":9232:9241   */\n      dup4\n        /* \"#utility.yul\":9228:9245   */\n      add\n        /* \"#utility.yul\":9221:9268   */\n      mstore\n        /* \"#utility.yul\":9285:9416   */\n      tag_264\n        /* \"#utility.yul\":9411:9415   */\n      dup2\n        /* \"#utility.yul\":9285:9416   */\n      tag_229\n      jump\t// in\n    tag_264:\n        /* \"#utility.yul\":9277:9416   */\n      swap1\n      pop\n        /* \"#utility.yul\":9004:9423   */\n      swap2\n      swap1\n      pop\n      jump\t// out\n        /* \"#utility.yul\":9429:9848   */\n    tag_118:\n        /* \"#utility.yul\":9595:9599   */\n      0x00\n        /* \"#utility.yul\":9633:9635   */\n      0x20\n        /* \"#utility.yul\":9622:9631   */\n      dup3\n        /* \"#utility.yul\":9618:9636   */\n      add\n        /* \"#utility.yul\":9610:9636   */\n      swap1\n      pop\n        /* \"#utility.yul\":9682:9691   */\n      dup2\n        /* \"#utility.yul\":9676:9680   */\n      dup2\n        /* \"#utility.yul\":9672:9692   */\n      sub\n        /* \"#utility.yul\":9668:9669   */\n      0x00\n        /* \"#utility.yul\":9657:9666   */\n      dup4\n        /* \"#utility.yul\":9653:9670   */\n      add\n        /* \"#utility.yul\":9646:9693   */\n      mstore\n        /* \"#utility.yul\":9710:9841   */\n      tag_266\n        /* \"#utility.yul\":9836:9840   */\n      dup2\n        /* \"#utility.yul\":9710:9841   */\n      tag_234\n      jump\t// in\n    tag_266:\n        /* \"#utility.yul\":9702:9841   */\n      swap1\n      pop\n        /* \"#utility.yul\":9429:9848   */\n      swap2\n      swap1\n      pop\n      jump\t// out\n        /* \"#utility.yul\":9854:10076   */\n    tag_29:\n        /* \"#utility.yul\":9947:9951   */\n      0x00\n        /* \"#utility.yul\":9985:9987   */\n      0x20\n        /* \"#utility.yul\":9974:9983   */\n      dup3\n        /* \"#utility.yul\":9970:9988   */\n      add\n        /* \"#utility.yul\":9962:9988   */\n      swap1\n      pop\n        /* \"#utility.yul\":9998:10069   */\n      tag_268\n        /* \"#utility.yul\":10066:10067   */\n      0x00\n        /* \"#utility.yul\":10055:10064   */\n      dup4\n        /* \"#utility.yul\":10051:10068   */\n      add\n        /* \"#utility.yul\":10042:10048   */\n      dup5\n        /* \"#utility.yul\":9998:10069   */\n      tag_239\n      jump\t// in\n    tag_268:\n        /* \"#utility.yul\":9854:10076   */\n      swap3\n      swap2\n      pop\n      pop\n      jump\t// out\n        /* \"#utility.yul\":10082:10296   */\n    tag_38:\n        /* \"#utility.yul\":10171:10175   */\n      0x00\n        /* \"#utility.yul\":10209:10211   */\n      0x20\n        /* \"#utility.yul\":10198:10207   */\n      dup3\n        /* \"#utility.yul\":10194:10212   */\n      add\n        /* \"#utility.yul\":10186:10212   */\n      swap1\n      pop\n        /* \"#utility.yul\":10222:10289   */\n      tag_270\n        /* \"#utility.yul\":10286:10287   */\n      0x00\n        /* \"#utility.yul\":10275:10284   */\n      dup4\n        /* \"#utility.yul\":10271:10288   */\n      add\n        /* \"#utility.yul\":10262:10268   */\n      dup5\n        /* \"#utility.yul\":10222:10289   */\n      tag_243\n      jump\t// in\n    tag_270:\n        /* \"#utility.yul\":10082:10296   */\n      swap3\n      swap2\n      pop\n      pop\n      jump\t// out\n        /* \"#utility.yul\":10383:10482   */\n    tag_192:\n        /* \"#utility.yul\":10435:10441   */\n      0x00\n        /* \"#utility.yul\":10469:10474   */\n      dup2\n        /* \"#utility.yul\":10463:10475   */\n      mload\n        /* \"#utility.yul\":10453:10475   */\n      swap1\n      pop\n        /* \"#utility.yul\":10383:10482   */\n      swap2\n      swap1\n      pop\n      jump\t// out\n        /* \"#utility.yul\":10488:10657   */\n    tag_194:\n        /* \"#utility.yul\":10572:10583   */\n      0x00\n        /* \"#utility.yul\":10606:10612   */\n      dup3\n        /* \"#utility.yul\":10601:10604   */\n      dup3\n        /* \"#utility.yul\":10594:10613   */\n      mstore\n        /* \"#utility.yul\":10646:10650   */\n      0x20\n        /* \"#utility.yul\":10641:10644   */\n      dup3\n        /* \"#utility.yul\":10637:10651   */\n      add\n        /* \"#utility.yul\":10622:10651   */\n      swap1\n      pop\n        /* \"#utility.yul\":10488:10657   */\n      swap3\n      swap2\n      pop\n      pop\n      jump\t// out\n        /* \"#utility.yul\":10663:10968   */\n    tag_106:\n        /* \"#utility.yul\":10703:10706   */\n      0x00\n        /* \"#utility.yul\":10722:10742   */\n      tag_276\n        /* \"#utility.yul\":10740:10741   */\n      dup3\n        /* \"#utility.yul\":10722:10742   */\n      tag_242\n      jump\t// in\n    tag_276:\n        /* \"#utility.yul\":10717:10742   */\n      swap2\n      pop\n        /* \"#utility.yul\":10756:10776   */\n      tag_277\n        /* \"#utility.yul\":10774:10775   */\n      dup4\n        /* \"#utility.yul\":10756:10776   */\n      tag_242\n      jump\t// in\n    tag_277:\n        /* \"#utility.yul\":10751:10776   */\n      swap3\n      pop\n        /* \"#utility.yul\":10910:10911   */\n      dup3\n        /* \"#utility.yul\":10842:10908   */\n      0xffffffffffffffffffffffffffffffffffffffffffffffffffffffffffffffff\n        /* \"#utility.yul\":10838:10912   */\n      sub\n        /* \"#utility.yul\":10835:10836   */\n      dup3\n        /* \"#utility.yul\":10832:10913   */\n      gt\n        /* \"#utility.yul\":10829:10936   */\n      iszero\n      tag_278\n      jumpi\n        /* \"#utility.yul\":10916:10934   */\n      tag_279\n      tag_280\n      jump\t// in\n    tag_279:\n        /* \"#utility.yul\":10829:10936   */\n    tag_278:\n        /* \"#utility.yul\":10960:10961   */\n      dup3\n        /* \"#utility.yul\":10957:10958   */\n      dup3\n        /* \"#utility.yul\":10953:10962   */\n      add\n        /* \"#utility.yul\":10946:10962   */\n      swap1\n      pop\n        /* \"#utility.yul\":10663:10968   */\n      swap3\n      swap2\n      pop\n      pop\n      jump\t// out\n        /* \"#utility.yul\":10974:11070   */\n    tag_281:\n        /* \"#utility.yul\":11011:11018   */\n      0x00\n        /* \"#utility.yul\":11040:11064   */\n      tag_283\n        /* \"#utility.yul\":11058:11063   */\n      dup3\n        /* \"#utility.yul\":11040:11064   */\n      tag_284\n      jump\t// in\n    tag_283:\n        /* \"#utility.yul\":11029:11064   */\n      swap1\n      pop\n        /* \"#utility.yul\":10974:11070   */\n      swap2\n      swap1\n      pop\n      jump\t// out\n        /* \"#utility.yul\":11076:11166   */\n    tag_188:\n        /* \"#utility.yul\":11110:11117   */\n      0x00\n        /* \"#utility.yul\":11153:11158   */\n      dup2\n        /* \"#utility.yul\":11146:11159   */\n      iszero\n        /* \"#utility.yul\":11139:11160   */\n      iszero\n        /* \"#utility.yul\":11128:11160   */\n      swap1\n      pop\n        /* \"#utility.yul\":11076:11166   */\n      swap2\n      swap1\n      pop\n      jump\t// out\n        /* \"#utility.yul\":11172:11298   */\n    tag_284:\n        /* \"#utility.yul\":11209:11216   */\n      0x00\n        /* \"#utility.yul\":11249:11291   */\n      0xffffffffffffffffffffffffffffffffffffffff\n        /* \"#utility.yul\":11242:11247   */\n      dup3\n        /* \"#utility.yul\":11238:11292   */\n      and\n        /* \"#utility.yul\":11227:11292   */\n      swap1\n      pop\n        /* \"#utility.yul\":11172:11298   */\n      swap2\n      swap1\n      pop\n      jump\t// out\n        /* \"#utility.yul\":11304:11381   */\n    tag_242:\n        /* \"#utility.yul\":11341:11348   */\n      0x00\n        /* \"#utility.yul\":11370:11375   */\n      dup2\n        /* \"#utility.yul\":11359:11375   */\n      swap1\n      pop\n        /* \"#utility.yul\":11304:11381   */\n      swap2\n      swap1\n      pop\n      jump\t// out\n        /* \"#utility.yul\":11387:11473   */\n    tag_246:\n        /* \"#utility.yul\":11422:11429   */\n      0x00\n        /* \"#utility.yul\":11462:11466   */\n      0xff\n        /* \"#utility.yul\":11455:11460   */\n      dup3\n        /* \"#utility.yul\":11451:11467   */\n      and\n        /* \"#utility.yul\":11440:11467   */\n      swap1\n      pop\n        /* \"#utility.yul\":11387:11473   */\n      swap2\n      swap1\n      pop\n      jump\t// out\n        /* \"#utility.yul\":11479:11786   */\n    tag_196:\n        /* \"#utility.yul\":11547:11548   */\n      0x00\n        /* \"#utility.yul\":11557:11670   */\n    tag_290:\n        /* \"#utility.yul\":11571:11577   */\n      dup4\n        /* \"#utility.yul\":11568:11569   */\n      dup2\n        /* \"#utility.yul\":11565:11578   */\n      lt\n        /* \"#utility.yul\":11557:11670   */\n      iszero\n      tag_292\n      jumpi\n        /* \"#utility.yul\":11656:11657   */\n      dup1\n        /* \"#utility.yul\":11651:11654   */\n      dup3\n        /* \"#utility.yul\":11647:11658   */\n      add\n        /* \"#utility.yul\":11641:11659   */\n      mload\n        /* \"#utility.yul\":11637:11638   */\n      dup2\n        /* \"#utility.yul\":11632:11635   */\n      dup5\n        /* \"#utility.yul\":11628:11639   */\n      add\n        /* \"#utility.yul\":11621:11660   */\n      mstore\n        /* \"#utility.yul\":11593:11595   */\n      0x20\n        /* \"#utility.yul\":11590:11591   */\n      dup2\n        /* \"#utility.yul\":11586:11596   */\n      add\n        /* \"#utility.yul\":11581:11596   */\n      swap1\n      pop\n        /* \"#utility.yul\":11557:11670   */\n      jump(tag_290)\n    tag_292:\n        /* \"#utility.yul\":11688:11694   */\n      dup4\n        /* \"#utility.yul\":11685:11686   */\n      dup2\n        /* \"#utility.yul\":11682:11695   */\n      gt\n        /* \"#utility.yul\":11679:11780   */\n      iszero\n      tag_293\n      jumpi\n        /* \"#utility.yul\":11768:11769   */\n      0x00\n        /* \"#utility.yul\":11759:11765   */\n      dup5\n        /* \"#utility.yul\":11754:11757   */\n      dup5\n        /* \"#utility.yul\":11750:11766   */\n      add\n        /* \"#utility.yul\":11743:11770   */\n      mstore\n        /* \"#utility.yul\":11679:11780   */\n    tag_293:\n        /* \"#utility.yul\":11528:11786   */\n      pop\n        /* \"#utility.yul\":11479:11786   */\n      pop\n      pop\n      pop\n      jump\t// out\n        /* \"#utility.yul\":11792:12112   */\n    tag_70:\n        /* \"#utility.yul\":11836:11842   */\n      0x00\n        /* \"#utility.yul\":11873:11874   */\n      0x02\n        /* \"#utility.yul\":11867:11871   */\n      dup3\n        /* \"#utility.yul\":11863:11875   */\n      div\n        /* \"#utility.yul\":11853:11875   */\n      swap1\n      pop\n        /* \"#utility.yul\":11920:11921   */\n      0x01\n        /* \"#utility.yul\":11914:11918   */\n      dup3\n        /* \"#utility.yul\":11910:11922   */\n      and\n        /* \"#utility.yul\":11941:11959   */\n      dup1\n        /* \"#utility.yul\":11931:12012   */\n      tag_295\n      jumpi\n        /* \"#utility.yul\":11997:12001   */\n      0x7f\n        /* \"#utility.yul\":11989:11995   */\n      dup3\n        /* \"#utility.yul\":11985:12002   */\n      and\n        /* \"#utility.yul\":11975:12002   */\n      swap2\n      pop\n        /* \"#utility.yul\":11931:12012   */\n    tag_295:\n        /* \"#utility.yul\":12059:12061   */\n      0x20\n        /* \"#utility.yul\":12051:12057   */\n      dup3\n        /* \"#utility.yul\":12048:12062   */\n      lt\n        /* \"#utility.yul\":12028:12046   */\n      dup2\n        /* \"#utility.yul\":12025:12063   */\n      eq\n        /* \"#utility.yul\":12022:12106   */\n      iszero\n      tag_296\n      jumpi\n        /* \"#utility.yul\":12078:12096   */\n      tag_297\n      tag_298\n      jump\t// in\n    tag_297:\n        /* \"#utility.yul\":12022:12106   */\n    tag_296:\n        /* \"#utility.yul\":11843:12112   */\n      pop\n        /* \"#utility.yul\":11792:12112   */\n      swap2\n      swap1\n      pop\n      jump\t// out\n        /* \"#utility.yul\":12118:12298   */\n    tag_280:\n        /* \"#utility.yul\":12166:12243   */\n      0x4e487b7100000000000000000000000000000000000000000000000000000000\n        /* \"#utility.yul\":12163:12164   */\n      0x00\n        /* \"#utility.yul\":12156:12244   */\n      mstore\n        /* \"#utility.yul\":12263:12267   */\n      0x11\n        /* \"#utility.yul\":12260:12261   */\n      0x04\n        /* \"#utility.yul\":12253:12268   */\n      mstore\n        /* \"#utility.yul\":12287:12291   */\n      0x24\n        /* \"#utility.yul\":12284:12285   */\n      0x00\n        /* \"#utility.yul\":12277:12292   */\n      revert\n        /* \"#utility.yul\":12304:12484   */\n    tag_298:\n        /* \"#utility.yul\":12352:12429   */\n      0x4e487b7100000000000000000000000000000000000000000000000000000000\n        /* \"#utility.yul\":12349:12350   */\n      0x00\n        /* \"#utility.yul\":12342:12430   */\n      mstore\n        /* \"#utility.yul\":12449:12453   */\n      0x22\n        /* \"#utility.yul\":12446:12447   */\n      0x04\n        /* \"#utility.yul\":12439:12454   */\n      mstore\n        /* \"#utility.yul\":12473:12477   */\n      0x24\n        /* \"#utility.yul\":12470:12471   */\n      0x00\n        /* \"#utility.yul\":12463:12478   */\n      revert\n        /* \"#utility.yul\":12613:12730   */\n    tag_167:\n        /* \"#utility.yul\":12722:12723   */\n      0x00\n        /* \"#utility.yul\":12719:12720   */\n      dup1\n        /* \"#utility.yul\":12712:12724   */\n      revert\n        /* \"#utility.yul\":12736:12838   */\n    tag_198:\n        /* \"#utility.yul\":12777:12783   */\n      0x00\n        /* \"#utility.yul\":12828:12830   */\n      0x1f\n        /* \"#utility.yul\":12824:12831   */\n      not\n        /* \"#utility.yul\":12819:12821   */\n      0x1f\n        /* \"#utility.yul\":12812:12817   */\n      dup4\n        /* \"#utility.yul\":12808:12822   */\n      add\n        /* \"#utility.yul\":12804:12832   */\n      and\n        /* \"#utility.yul\":12794:12832   */\n      swap1\n      pop\n        /* \"#utility.yul\":12736:12838   */\n      swap2\n      swap1\n      pop\n      jump\t// out\n        /* \"#utility.yul\":12844:13066   */\n    tag_203:\n        /* \"#utility.yul\":12984:13018   */\n      0x45524332303a207472616e7366657220746f20746865207a65726f2061646472\n        /* \"#utility.yul\":12980:12981   */\n      0x00\n        /* \"#utility.yul\":12972:12978   */\n      dup3\n        /* \"#utility.yul\":12968:12982   */\n      add\n        /* \"#utility.yul\":12961:13019   */\n      mstore\n        /* \"#utility.yul\":13053:13058   */\n      0x6573730000000000000000000000000000000000000000000000000000000000\n        /* \"#utility.yul\":13048:13050   */\n      0x20\n        /* \"#utility.yul\":13040:13046   */\n      dup3\n        /* \"#utility.yul\":13036:13051   */\n      add\n        /* \"#utility.yul\":13029:13059   */\n      mstore\n        /* \"#utility.yul\":12844:13066   */\n      pop\n      jump\t// out\n        /* \"#utility.yul\":13072:13228   */\n    tag_208:\n        /* \"#utility.yul\":13212:13220   */\n      0x4c6f636b65640000000000000000000000000000000000000000000000000000\n        /* \"#utility.yul\":13208:13209   */\n      0x00\n        /* \"#utility.yul\":13200:13206   */\n      dup3\n        /* \"#utility.yul\":13196:13210   */\n      add\n        /* \"#utility.yul\":13189:13221   */\n      mstore\n        /* \"#utility.yul\":13072:13228   */\n      pop\n      jump\t// out\n        /* \"#utility.yul\":13234:13455   */\n    tag_213:\n        /* \"#utility.yul\":13374:13408   */\n      0x45524332303a20617070726f766520746f20746865207a65726f206164647265\n        /* \"#utility.yul\":13370:13371   */\n      0x00\n        /* \"#utility.yul\":13362:13368   */\n      dup3\n        /* \"#utility.yul\":13358:13372   */\n      add\n        /* \"#utility.yul\":13351:13409   */\n      mstore\n        /* \"#utility.yul\":13443:13447   */\n      0x7373000000000000000000000000000000000000000000000000000000000000\n        /* \"#utility.yul\":13438:13440   */\n      0x20\n        /* \"#utility.yul\":13430:13436   */\n      dup3\n        /* \"#utility.yul\":13426:13441   */\n      add\n        /* \"#utility.yul\":13419:13448   */\n      mstore\n        /* \"#utility.yul\":13234:13455   */\n      pop\n      jump\t// out\n        /* \"#utility.yul\":13461:13686   */\n    tag_218:\n        /* \"#utility.yul\":13601:13635   */\n      0x45524332303a207472616e7366657220616d6f756e7420657863656564732062\n        /* \"#utility.yul\":13597:13598   */\n      0x00\n        /* \"#utility.yul\":13589:13595   */\n      dup3\n        /* \"#utility.yul\":13585:13599   */\n      add\n        /* \"#utility.yul\":13578:13636   */\n      mstore\n        /* \"#utility.yul\":13670:13678   */\n      0x616c616e63650000000000000000000000000000000000000000000000000000\n        /* \"#utility.yul\":13665:13667   */\n      0x20\n        /* \"#utility.yul\":13657:13663   */\n      dup3\n        /* \"#utility.yul\":13653:13668   */\n      add\n        /* \"#utility.yul\":13646:13679   */\n      mstore\n        /* \"#utility.yul\":13461:13686   */\n      pop\n      jump\t// out\n        /* \"#utility.yul\":13692:13919   */\n    tag_223:\n        /* \"#utility.yul\":13832:13866   */\n      0x45524332303a207472616e7366657220616d6f756e7420657863656564732061\n        /* \"#utility.yul\":13828:13829   */\n      0x00\n        /* \"#utility.yul\":13820:13826   */\n      dup3\n        /* \"#utility.yul\":13816:13830   */\n      add\n        /* \"#utility.yul\":13809:13867   */\n      mstore\n        /* \"#utility.yul\":13901:13911   */\n      0x6c6c6f77616e6365000000000000000000000000000000000000000000000000\n        /* \"#utility.yul\":13896:13898   */\n      0x20\n        /* \"#utility.yul\":13888:13894   */\n      dup3\n        /* \"#utility.yul\":13884:13899   */\n      add\n        /* \"#utility.yul\":13877:13912   */\n      mstore\n        /* \"#utility.yul\":13692:13919   */\n      pop\n      jump\t// out\n        /* \"#utility.yul\":13925:14149   */\n    tag_228:\n        /* \"#utility.yul\":14065:14099   */\n      0x45524332303a207472616e736665722066726f6d20746865207a65726f206164\n        /* \"#utility.yul\":14061:14062   */\n      0x00\n        /* \"#utility.yul\":14053:14059   */\n      dup3\n        /* \"#utility.yul\":14049:14063   */\n      add\n        /* \"#utility.yul\":14042:14100   */\n      mstore\n        /* \"#utility.yul\":14134:14141   */\n      0x6472657373000000000000000000000000000000000000000000000000000000\n        /* \"#utility.yul\":14129:14131   */\n      0x20\n        /* \"#utility.yul\":14121:14127   */\n      dup3\n        /* \"#utility.yul\":14117:14132   */\n      add\n        /* \"#utility.yul\":14110:14142   */\n      mstore\n        /* \"#utility.yul\":13925:14149   */\n      pop\n      jump\t// out\n        /* \"#utility.yul\":14155:14378   */\n    tag_233:\n        /* \"#utility.yul\":14295:14329   */\n      0x45524332303a20617070726f76652066726f6d20746865207a65726f20616464\n        /* \"#utility.yul\":14291:14292   */\n      0x00\n        /* \"#utility.yul\":14283:14289   */\n      dup3\n        /* \"#utility.yul\":14279:14293   */\n      add\n        /* \"#utility.yul\":14272:14330   */\n      mstore\n        /* \"#utility.yul\":14364:14370   */\n      0x7265737300000000000000000000000000000000000000000000000000000000\n        /* \"#utility.yul\":14359:14361   */\n      0x20\n        /* \"#utility.yul\":14351:14357   */\n      dup3\n        /* \"#utility.yul\":14347:14362   */\n      add\n        /* \"#utility.yul\":14340:14371   */\n      mstore\n        /* \"#utility.yul\":14155:14378   */\n      pop\n      jump\t// out\n        /* \"#utility.yul\":14384:14608   */\n    tag_238:\n        /* \"#utility.yul\":14524:14558   */\n      0x45524332303a2064656372656173656420616c6c6f77616e63652062656c6f77\n        /* \"#utility.yul\":14520:14521   */\n      0x00\n        /* \"#utility.yul\":14512:14518   */\n      dup3\n        /* \"#utility.yul\":14508:14522   */\n      add\n        /* \"#utility.yul\":14501:14559   */\n      mstore\n        /* \"#utility.yul\":14593:14600   */\n      0x207a65726f000000000000000000000000000000000000000000000000000000\n        /* \"#utility.yul\":14588:14590   */\n      0x20\n        /* \"#utility.yul\":14580:14586   */\n      dup3\n        /* \"#utility.yul\":14576:14591   */\n      add\n        /* \"#utility.yul\":14569:14601   */\n      mstore\n        /* \"#utility.yul\":14384:14608   */\n      pop\n      jump\t// out\n        /* \"#utility.yul\":14614:14736   */\n    tag_159:\n        /* \"#utility.yul\":14687:14711   */\n      tag_314\n        /* \"#utility.yul\":14705:14710   */\n      dup2\n        /* \"#utility.yul\":14687:14711   */\n      tag_281\n      jump\t// in\n    tag_314:\n        /* \"#utility.yul\":14680:14685   */\n      dup2\n        /* \"#utility.yul\":14677:14712   */\n      eq\n        /* \"#utility.yul\":14667:14730   */\n      tag_315\n      jumpi\n        /* \"#utility.yul\":14726:14727   */\n      0x00\n        /* \"#utility.yul\":14723:14724   */\n      dup1\n        /* \"#utility.yul\":14716:14728   */\n      revert\n        /* \"#utility.yul\":14667:14730   */\n    tag_315:\n        /* \"#utility.yul\":14614:14736   */\n      pop\n      jump\t// out\n        /* \"#utility.yul\":14742:14864   */\n    tag_163:\n        /* \"#utility.yul\":14815:14839   */\n      tag_317\n        /* \"#utility.yul\":14833:14838   */\n      dup2\n        /* \"#utility.yul\":14815:14839   */\n      tag_242\n      jump\t// in\n    tag_317:\n        /* \"#utility.yul\":14808:14813   */\n      dup2\n        /* \"#utility.yul\":14805:14840   */\n      eq\n        /* \"#utility.yul\":14795:14858   */\n      tag_318\n      jumpi\n        /* \"#utility.yul\":14854:14855   */\n      0x00\n        /* \"#utility.yul\":14851:14852   */\n      dup1\n        /* \"#utility.yul\":14844:14856   */\n      revert\n        /* \"#utility.yul\":14795:14858   */\n    tag_318:\n        /* \"#utility.yul\":14742:14864   */\n      pop\n      jump\t// out\n\n    auxdata: 0xa2646970667358221220ccdaa183d77095c80439a886f845cd453fb0f084ac3713f88f573930d42cbe5d64736f6c63430008070033\n}\n",
				"bytecode": {
					"linkReferences": {},
					"object": "60806040523480156200001157600080fd5b506040518060400160405280600981526020017f45524220546f6b656e0000000000000000000000000000000000000000000000815250600390805190602001906200005f92919062000254565b506040518060400160405280600381526020017f455242000000000000000000000000000000000000000000000000000000000081525060049080519060200190620000ad92919062000254565b50620000cb336acecb8f27f4200f3a000000620000d160201b60201c565b620004b0565b600073ffffffffffffffffffffffffffffffffffffffff168273ffffffffffffffffffffffffffffffffffffffff16141562000144576040517f08c379a00000000000000000000000000000000000000000000000000000000081526004016200013b906200033c565b60405180910390fd5b62000158600083836200024a60201b60201c565b80600260008282546200016c91906200038c565b92505081905550806000808473ffffffffffffffffffffffffffffffffffffffff1673ffffffffffffffffffffffffffffffffffffffff1681526020019081526020016000206000828254620001c391906200038c565b925050819055508173ffffffffffffffffffffffffffffffffffffffff16600073ffffffffffffffffffffffffffffffffffffffff167fddf252ad1be2c89b69c2b068fc378daa952ba7f163c4a11628f55a4df523b3ef836040516200022a91906200035e565b60405180910390a362000246600083836200024f60201b60201c565b5050565b505050565b505050565b8280546200026290620003f3565b90600052602060002090601f016020900481019282620002865760008555620002d2565b82601f10620002a157805160ff1916838001178555620002d2565b82800160010185558215620002d2579182015b82811115620002d1578251825591602001919060010190620002b4565b5b509050620002e19190620002e5565b5090565b5b8082111562000300576000816000905550600101620002e6565b5090565b600062000313601f836200037b565b9150620003208262000487565b602082019050919050565b6200033681620003e9565b82525050565b60006020820190508181036000830152620003578162000304565b9050919050565b60006020820190506200037560008301846200032b565b92915050565b600082825260208201905092915050565b60006200039982620003e9565b9150620003a683620003e9565b9250827fffffffffffffffffffffffffffffffffffffffffffffffffffffffffffffffff03821115620003de57620003dd62000429565b5b828201905092915050565b6000819050919050565b600060028204905060018216806200040c57607f821691505b6020821081141562000423576200042262000458565b5b50919050565b7f4e487b7100000000000000000000000000000000000000000000000000000000600052601160045260246000fd5b7f4e487b7100000000000000000000000000000000000000000000000000000000600052602260045260246000fd5b7f45524332303a206d696e7420746f20746865207a65726f206164647265737300600082015250565b6116c180620004c06000396000f3fe608060405234801561001057600080fd5b50600436106100b45760003560e01c806370a082311161007157806370a08231146101a357806395d89b41146101d3578063a457c2d7146101f1578063a9059cbb14610221578063cbf9fe5f14610251578063dd62ed3e14610281576100b4565b806306fdde03146100b9578063095ea7b3146100d757806318160ddd1461010757806323b872dd14610125578063313ce567146101555780633950935114610173575b600080fd5b6100c16102b1565b6040516100ce9190611113565b60405180910390f35b6100f160048036038101906100ec9190610f3a565b610343565b6040516100fe91906110f8565b60405180910390f35b61010f6103f5565b60405161011c9190611235565b60405180910390f35b61013f600480360381019061013a9190610ee7565b6103ff565b60405161014c91906110f8565b60405180910390f35b61015d61058b565b60405161016a9190611250565b60405180910390f35b61018d60048036038101906101889190610f3a565b610594565b60405161019a91906110f8565b60405180910390f35b6101bd60048036038101906101b89190610e7a565b6106d4565b6040516101ca9190611235565b60405180910390f35b6101db61071c565b6040516101e89190611113565b60405180910390f35b61020b60048036038101906102069190610f3a565b6107ae565b60405161021891906110f8565b60405180910390f35b61023b60048036038101906102369190610f3a565b610899565b60405161024891906110f8565b60405180910390f35b61026b60048036038101906102669190610e7a565b61094b565b60405161027891906110f8565b60405180910390f35b61029b60048036038101906102969190610ea7565b61096b565b6040516102a89190611235565b60405180910390f35b6060600380546102c090611365565b80601f01602080910402602001604051908101604052809291908181526020018280546102ec90611365565b80156103395780601f1061030e57610100808354040283529160200191610339565b820191906000526020600020905b81548152906001019060200180831161031c57829003601f168201915b5050505050905090565b6000600560006103516109f2565b73ffffffffffffffffffffffffffffffffffffffff1673ffffffffffffffffffffffffffffffffffffffff16815260200190815260200160002060009054906101000a900460ff16156103d9576040517f08c379a00000000000000000000000000000000000000000000000000000000081526004016103d090611155565b60405180910390fd5b6103eb6103e46109f2565b84846109fa565b6001905092915050565b6000600254905090565b60006005600061040d6109f2565b73ffffffffffffffffffffffffffffffffffffffff1673ffffffffffffffffffffffffffffffffffffffff16815260200190815260200160002060009054906101000a900460ff1615610495576040517f08c379a000000000000000000000000000000000000000000000000000000000815260040161048c90611155565b60405180910390fd5b6104a0848484610bc5565b6000600160008673ffffffffffffffffffffffffffffffffffffffff1673ffffffffffffffffffffffffffffffffffffffff16815260200190815260200160002060006104eb6109f2565b73ffffffffffffffffffffffffffffffffffffffff1673ffffffffffffffffffffffffffffffffffffffff1681526020019081526020016000205490508281101561056b576040517f08c379a0000000000000000000000000000000000000000000000000000000008152600401610562906111b5565b60405180910390fd5b61057f856105776109f2565b8584036109fa565b60019150509392505050565b60006012905090565b6000600560006105a26109f2565b73ffffffffffffffffffffffffffffffffffffffff1673ffffffffffffffffffffffffffffffffffffffff16815260200190815260200160002060009054906101000a900460ff161561062a576040517f08c379a000000000000000000000000000000000000000000000000000000000815260040161062190611155565b60405180910390fd5b6106ca6106356109f2565b8484600160006106436109f2565b73ffffffffffffffffffffffffffffffffffffffff1673ffffffffffffffffffffffffffffffffffffffff16815260200190815260200160002060008873ffffffffffffffffffffffffffffffffffffffff1673ffffffffffffffffffffffffffffffffffffffff168152602001908152602001600020546106c59190611287565b6109fa565b6001905092915050565b60008060008373ffffffffffffffffffffffffffffffffffffffff1673ffffffffffffffffffffffffffffffffffffffff168152602001908152602001600020549050919050565b60606004805461072b90611365565b80601f016020809104026020016040519081016040528092919081815260200182805461075790611365565b80156107a45780601f10610779576101008083540402835291602001916107a4565b820191906000526020600020905b81548152906001019060200180831161078757829003601f168201915b5050505050905090565b600080600160006107bd6109f2565b73ffffffffffffffffffffffffffffffffffffffff1673ffffffffffffffffffffffffffffffffffffffff16815260200190815260200160002060008573ffffffffffffffffffffffffffffffffffffffff1673ffffffffffffffffffffffffffffffffffffffff1681526020019081526020016000205490508281101561087a576040517f08c379a000000000000000000000000000000000000000000000000000000000815260040161087190611215565b60405180910390fd5b61088e6108856109f2565b858584036109fa565b600191505092915050565b6000600560006108a76109f2565b73ffffffffffffffffffffffffffffffffffffffff1673ffffffffffffffffffffffffffffffffffffffff16815260200190815260200160002060009054906101000a900460ff161561092f576040517f08c379a000000000000000000000000000000000000000000000000000000000815260040161092690611155565b60405180910390fd5b61094161093a6109f2565b8484610bc5565b6001905092915050565b60056020528060005260406000206000915054906101000a900460ff1681565b6000600160008473ffffffffffffffffffffffffffffffffffffffff1673ffffffffffffffffffffffffffffffffffffffff16815260200190815260200160002060008373ffffffffffffffffffffffffffffffffffffffff1673ffffffffffffffffffffffffffffffffffffffff16815260200190815260200160002054905092915050565b600033905090565b600073ffffffffffffffffffffffffffffffffffffffff168373ffffffffffffffffffffffffffffffffffffffff161415610a6a576040517f08c379a0000000000000000000000000000000000000000000000000000000008152600401610a61906111f5565b60405180910390fd5b600073ffffffffffffffffffffffffffffffffffffffff168273ffffffffffffffffffffffffffffffffffffffff161415610ada576040517f08c379a0000000000000000000000000000000000000000000000000000000008152600401610ad190611175565b60405180910390fd5b80600160008573ffffffffffffffffffffffffffffffffffffffff1673ffffffffffffffffffffffffffffffffffffffff16815260200190815260200160002060008473ffffffffffffffffffffffffffffffffffffffff1673ffffffffffffffffffffffffffffffffffffffff168152602001908152602001600020819055508173ffffffffffffffffffffffffffffffffffffffff168373ffffffffffffffffffffffffffffffffffffffff167f8c5be1e5ebec7d5bd14f71427d1e84f3dd0314c0f7b2291e5b200ac8c7c3b92583604051610bb89190611235565b60405180910390a3505050565b600073ffffffffffffffffffffffffffffffffffffffff168373ffffffffffffffffffffffffffffffffffffffff161415610c35576040517f08c379a0000000000000000000000000000000000000000000000000000000008152600401610c2c906111d5565b60405180910390fd5b600073ffffffffffffffffffffffffffffffffffffffff168273ffffffffffffffffffffffffffffffffffffffff161415610ca5576040517f08c379a0000000000000000000000000000000000000000000000000000000008152600401610c9c90611135565b60405180910390fd5b610cb0838383610e46565b60008060008573ffffffffffffffffffffffffffffffffffffffff1673ffffffffffffffffffffffffffffffffffffffff16815260200190815260200160002054905081811015610d36576040517f08c379a0000000000000000000000000000000000000000000000000000000008152600401610d2d90611195565b60405180910390fd5b8181036000808673ffffffffffffffffffffffffffffffffffffffff1673ffffffffffffffffffffffffffffffffffffffff16815260200190815260200160002081905550816000808573ffffffffffffffffffffffffffffffffffffffff1673ffffffffffffffffffffffffffffffffffffffff1681526020019081526020016000206000828254610dc99190611287565b925050819055508273ffffffffffffffffffffffffffffffffffffffff168473ffffffffffffffffffffffffffffffffffffffff167fddf252ad1be2c89b69c2b068fc378daa952ba7f163c4a11628f55a4df523b3ef84604051610e2d9190611235565b60405180910390a3610e40848484610e4b565b50505050565b505050565b505050565b600081359050610e5f8161165d565b92915050565b600081359050610e7481611674565b92915050565b600060208284031215610e9057610e8f6113f5565b5b6000610e9e84828501610e50565b91505092915050565b60008060408385031215610ebe57610ebd6113f5565b5b6000610ecc85828601610e50565b9250506020610edd85828601610e50565b9150509250929050565b600080600060608486031215610f0057610eff6113f5565b5b6000610f0e86828701610e50565b9350506020610f1f86828701610e50565b9250506040610f3086828701610e65565b9150509250925092565b60008060408385031215610f5157610f506113f5565b5b6000610f5f85828601610e50565b9250506020610f7085828601610e65565b9150509250929050565b610f83816112ef565b82525050565b6000610f948261126b565b610f9e8185611276565b9350610fae818560208601611332565b610fb7816113fa565b840191505092915050565b6000610fcf602383611276565b9150610fda8261140b565b604082019050919050565b6000610ff2600683611276565b9150610ffd8261145a565b602082019050919050565b6000611015602283611276565b915061102082611483565b604082019050919050565b6000611038602683611276565b9150611043826114d2565b604082019050919050565b600061105b602883611276565b915061106682611521565b604082019050919050565b600061107e602583611276565b915061108982611570565b604082019050919050565b60006110a1602483611276565b91506110ac826115bf565b604082019050919050565b60006110c4602583611276565b91506110cf8261160e565b604082019050919050565b6110e38161131b565b82525050565b6110f281611325565b82525050565b600060208201905061110d6000830184610f7a565b92915050565b6000602082019050818103600083015261112d8184610f89565b905092915050565b6000602082019050818103600083015261114e81610fc2565b9050919050565b6000602082019050818103600083015261116e81610fe5565b9050919050565b6000602082019050818103600083015261118e81611008565b9050919050565b600060208201905081810360008301526111ae8161102b565b9050919050565b600060208201905081810360008301526111ce8161104e565b9050919050565b600060208201905081810360008301526111ee81611071565b9050919050565b6000602082019050818103600083015261120e81611094565b9050919050565b6000602082019050818103600083015261122e816110b7565b9050919050565b600060208201905061124a60008301846110da565b92915050565b600060208201905061126560008301846110e9565b92915050565b600081519050919050565b600082825260208201905092915050565b60006112928261131b565b915061129d8361131b565b9250827fffffffffffffffffffffffffffffffffffffffffffffffffffffffffffffffff038211156112d2576112d1611397565b5b828201905092915050565b60006112e8826112fb565b9050919050565b60008115159050919050565b600073ffffffffffffffffffffffffffffffffffffffff82169050919050565b6000819050919050565b600060ff82169050919050565b60005b83811015611350578082015181840152602081019050611335565b8381111561135f576000848401525b50505050565b6000600282049050600182168061137d57607f821691505b60208210811415611391576113906113c6565b5b50919050565b7f4e487b7100000000000000000000000000000000000000000000000000000000600052601160045260246000fd5b7f4e487b7100000000000000000000000000000000000000000000000000000000600052602260045260246000fd5b600080fd5b6000601f19601f8301169050919050565b7f45524332303a207472616e7366657220746f20746865207a65726f206164647260008201527f6573730000000000000000000000000000000000000000000000000000000000602082015250565b7f4c6f636b65640000000000000000000000000000000000000000000000000000600082015250565b7f45524332303a20617070726f766520746f20746865207a65726f20616464726560008201527f7373000000000000000000000000000000000000000000000000000000000000602082015250565b7f45524332303a207472616e7366657220616d6f756e742065786365656473206260008201527f616c616e63650000000000000000000000000000000000000000000000000000602082015250565b7f45524332303a207472616e7366657220616d6f756e742065786365656473206160008201527f6c6c6f77616e6365000000000000000000000000000000000000000000000000602082015250565b7f45524332303a207472616e736665722066726f6d20746865207a65726f20616460008201527f6472657373000000000000000000000000000000000000000000000000000000602082015250565b7f45524332303a20617070726f76652066726f6d20746865207a65726f2061646460008201527f7265737300000000000000000000000000000000000000000000000000000000602082015250565b7f45524332303a2064656372656173656420616c6c6f77616e63652062656c6f7760008201527f207a65726f000000000000000000000000000000000000000000000000000000602082015250565b611666816112dd565b811461167157600080fd5b50565b61167d8161131b565b811461168857600080fd5b5056fea2646970667358221220ccdaa183d77095c80439a886f845cd453fb0f084ac3713f88f573930d42cbe5d64736f6c63430008070033",
					"opcodes": "PUSH1 0x80 PUSH1 0x40 MSTORE CALLVALUE DUP1 ISZERO PUSH3 0x11 JUMPI PUSH1 0x0 DUP1 REVERT JUMPDEST POP PUSH1 0x40 MLOAD DUP1 PUSH1 0x40 ADD PUSH1 0x40 MSTORE DUP1 PUSH1 0x9 DUP2 MSTORE PUSH1 0x20 ADD PUSH32 0x45524220546F6B656E0000000000000000000000000000000000000000000000 DUP2 MSTORE POP PUSH1 0x3 SWAP1 DUP1 MLOAD SWAP1 PUSH1 0x20 ADD SWAP1 PUSH3 0x5F SWAP3 SWAP2 SWAP1 PUSH3 0x254 JUMP JUMPDEST POP PUSH1 0x40 MLOAD DUP1 PUSH1 0x40 ADD PUSH1 0x40 MSTORE DUP1 PUSH1 0x3 DUP2 MSTORE PUSH1 0x20 ADD PUSH32 0x4552420000000000000000000000000000000000000000000000000000000000 DUP2 MSTORE POP PUSH1 0x4 SWAP1 DUP1 MLOAD SWAP1 PUSH1 0x20 ADD SWAP1 PUSH3 0xAD SWAP3 SWAP2 SWAP1 PUSH3 0x254 JUMP JUMPDEST POP PUSH3 0xCB CALLER PUSH11 0xCECB8F27F4200F3A000000 PUSH3 0xD1 PUSH1 0x20 SHL PUSH1 0x20 SHR JUMP JUMPDEST PUSH3 0x4B0 JUMP JUMPDEST PUSH1 0x0 PUSH20 0xFFFFFFFFFFFFFFFFFFFFFFFFFFFFFFFFFFFFFFFF AND DUP3 PUSH20 0xFFFFFFFFFFFFFFFFFFFFFFFFFFFFFFFFFFFFFFFF AND EQ ISZERO PUSH3 0x144 JUMPI PUSH1 0x40 MLOAD PUSH32 0x8C379A000000000000000000000000000000000000000000000000000000000 DUP2 MSTORE PUSH1 0x4 ADD PUSH3 0x13B SWAP1 PUSH3 0x33C JUMP JUMPDEST PUSH1 0x40 MLOAD DUP1 SWAP2 SUB SWAP1 REVERT JUMPDEST PUSH3 0x158 PUSH1 0x0 DUP4 DUP4 PUSH3 0x24A PUSH1 0x20 SHL PUSH1 0x20 SHR JUMP JUMPDEST DUP1 PUSH1 0x2 PUSH1 0x0 DUP3 DUP3 SLOAD PUSH3 0x16C SWAP2 SWAP1 PUSH3 0x38C JUMP JUMPDEST SWAP3 POP POP DUP2 SWAP1 SSTORE POP DUP1 PUSH1 0x0 DUP1 DUP5 PUSH20 0xFFFFFFFFFFFFFFFFFFFFFFFFFFFFFFFFFFFFFFFF AND PUSH20 0xFFFFFFFFFFFFFFFFFFFFFFFFFFFFFFFFFFFFFFFF AND DUP2 MSTORE PUSH1 0x20 ADD SWAP1 DUP2 MSTORE PUSH1 0x20 ADD PUSH1 0x0 KECCAK256 PUSH1 0x0 DUP3 DUP3 SLOAD PUSH3 0x1C3 SWAP2 SWAP1 PUSH3 0x38C JUMP JUMPDEST SWAP3 POP POP DUP2 SWAP1 SSTORE POP DUP2 PUSH20 0xFFFFFFFFFFFFFFFFFFFFFFFFFFFFFFFFFFFFFFFF AND PUSH1 0x0 PUSH20 0xFFFFFFFFFFFFFFFFFFFFFFFFFFFFFFFFFFFFFFFF AND PUSH32 0xDDF252AD1BE2C89B69C2B068FC378DAA952BA7F163C4A11628F55A4DF523B3EF DUP4 PUSH1 0x40 MLOAD PUSH3 0x22A SWAP2 SWAP1 PUSH3 0x35E JUMP JUMPDEST PUSH1 0x40 MLOAD DUP1 SWAP2 SUB SWAP1 LOG3 PUSH3 0x246 PUSH1 0x0 DUP4 DUP4 PUSH3 0x24F PUSH1 0x20 SHL PUSH1 0x20 SHR JUMP JUMPDEST POP POP JUMP JUMPDEST POP POP POP JUMP JUMPDEST POP POP POP JUMP JUMPDEST DUP3 DUP1 SLOAD PUSH3 0x262 SWAP1 PUSH3 0x3F3 JUMP JUMPDEST SWAP1 PUSH1 0x0 MSTORE PUSH1 0x20 PUSH1 0x0 KECCAK256 SWAP1 PUSH1 0x1F ADD PUSH1 0x20 SWAP1 DIV DUP2 ADD SWAP3 DUP3 PUSH3 0x286 JUMPI PUSH1 0x0 DUP6 SSTORE PUSH3 0x2D2 JUMP JUMPDEST DUP3 PUSH1 0x1F LT PUSH3 0x2A1 JUMPI DUP1 MLOAD PUSH1 0xFF NOT AND DUP4 DUP1 ADD OR DUP6 SSTORE PUSH3 0x2D2 JUMP JUMPDEST DUP3 DUP1 ADD PUSH1 0x1 ADD DUP6 SSTORE DUP3 ISZERO PUSH3 0x2D2 JUMPI SWAP2 DUP3 ADD JUMPDEST DUP3 DUP2 GT ISZERO PUSH3 0x2D1 JUMPI DUP3 MLOAD DUP3 SSTORE SWAP2 PUSH1 0x20 ADD SWAP2 SWAP1 PUSH1 0x1 ADD SWAP1 PUSH3 0x2B4 JUMP JUMPDEST JUMPDEST POP SWAP1 POP PUSH3 0x2E1 SWAP2 SWAP1 PUSH3 0x2E5 JUMP JUMPDEST POP SWAP1 JUMP JUMPDEST JUMPDEST DUP1 DUP3 GT ISZERO PUSH3 0x300 JUMPI PUSH1 0x0 DUP2 PUSH1 0x0 SWAP1 SSTORE POP PUSH1 0x1 ADD PUSH3 0x2E6 JUMP JUMPDEST POP SWAP1 JUMP JUMPDEST PUSH1 0x0 PUSH3 0x313 PUSH1 0x1F DUP4 PUSH3 0x37B JUMP JUMPDEST SWAP2 POP PUSH3 0x320 DUP3 PUSH3 0x487 JUMP JUMPDEST PUSH1 0x20 DUP3 ADD SWAP1 POP SWAP2 SWAP1 POP JUMP JUMPDEST PUSH3 0x336 DUP2 PUSH3 0x3E9 JUMP JUMPDEST DUP3 MSTORE POP POP JUMP JUMPDEST PUSH1 0x0 PUSH1 0x20 DUP3 ADD SWAP1 POP DUP2 DUP2 SUB PUSH1 0x0 DUP4 ADD MSTORE PUSH3 0x357 DUP2 PUSH3 0x304 JUMP JUMPDEST SWAP1 POP SWAP2 SWAP1 POP JUMP JUMPDEST PUSH1 0x0 PUSH1 0x20 DUP3 ADD SWAP1 POP PUSH3 0x375 PUSH1 0x0 DUP4 ADD DUP5 PUSH3 0x32B JUMP JUMPDEST SWAP3 SWAP2 POP POP JUMP JUMPDEST PUSH1 0x0 DUP3 DUP3 MSTORE PUSH1 0x20 DUP3 ADD SWAP1 POP SWAP3 SWAP2 POP POP JUMP JUMPDEST PUSH1 0x0 PUSH3 0x399 DUP3 PUSH3 0x3E9 JUMP JUMPDEST SWAP2 POP PUSH3 0x3A6 DUP4 PUSH3 0x3E9 JUMP JUMPDEST SWAP3 POP DUP3 PUSH32 0xFFFFFFFFFFFFFFFFFFFFFFFFFFFFFFFFFFFFFFFFFFFFFFFFFFFFFFFFFFFFFFFF SUB DUP3 GT ISZERO PUSH3 0x3DE JUMPI PUSH3 0x3DD PUSH3 0x429 JUMP JUMPDEST JUMPDEST DUP3 DUP3 ADD SWAP1 POP SWAP3 SWAP2 POP POP JUMP JUMPDEST PUSH1 0x0 DUP2 SWAP1 POP SWAP2 SWAP1 POP JUMP JUMPDEST PUSH1 0x0 PUSH1 0x2 DUP3 DIV SWAP1 POP PUSH1 0x1 DUP3 AND DUP1 PUSH3 0x40C JUMPI PUSH1 0x7F DUP3 AND SWAP2 POP JUMPDEST PUSH1 0x20 DUP3 LT DUP2 EQ ISZERO PUSH3 0x423 JUMPI PUSH3 0x422 PUSH3 0x458 JUMP JUMPDEST JUMPDEST POP SWAP2 SWAP1 POP JUMP JUMPDEST PUSH32 0x4E487B7100000000000000000000000000000000000000000000000000000000 PUSH1 0x0 MSTORE PUSH1 0x11 PUSH1 0x4 MSTORE PUSH1 0x24 PUSH1 0x0 REVERT JUMPDEST PUSH32 0x4E487B7100000000000000000000000000000000000000000000000000000000 PUSH1 0x0 MSTORE PUSH1 0x22 PUSH1 0x4 MSTORE PUSH1 0x24 PUSH1 0x0 REVERT JUMPDEST PUSH32 0x45524332303A206D696E7420746F20746865207A65726F206164647265737300 PUSH1 0x0 DUP3 ADD MSTORE POP JUMP JUMPDEST PUSH2 0x16C1 DUP1 PUSH3 0x4C0 PUSH1 0x0 CODECOPY PUSH1 0x0 RETURN INVALID PUSH1 0x80 PUSH1 0x40 MSTORE CALLVALUE DUP1 ISZERO PUSH2 0x10 JUMPI PUSH1 0x0 DUP1 REVERT JUMPDEST POP PUSH1 0x4 CALLDATASIZE LT PUSH2 0xB4 JUMPI PUSH1 0x0 CALLDATALOAD PUSH1 0xE0 SHR DUP1 PUSH4 0x70A08231 GT PUSH2 0x71 JUMPI DUP1 PUSH4 0x70A08231 EQ PUSH2 0x1A3 JUMPI DUP1 PUSH4 0x95D89B41 EQ PUSH2 0x1D3 JUMPI DUP1 PUSH4 0xA457C2D7 EQ PUSH2 0x1F1 JUMPI DUP1 PUSH4 0xA9059CBB EQ PUSH2 0x221 JUMPI DUP1 PUSH4 0xCBF9FE5F EQ PUSH2 0x251 JUMPI DUP1 PUSH4 0xDD62ED3E EQ PUSH2 0x281 JUMPI PUSH2 0xB4 JUMP JUMPDEST DUP1 PUSH4 0x6FDDE03 EQ PUSH2 0xB9 JUMPI DUP1 PUSH4 0x95EA7B3 EQ PUSH2 0xD7 JUMPI DUP1 PUSH4 0x18160DDD EQ PUSH2 0x107 JUMPI DUP1 PUSH4 0x23B872DD EQ PUSH2 0x125 JUMPI DUP1 PUSH4 0x313CE567 EQ PUSH2 0x155 JUMPI DUP1 PUSH4 0x39509351 EQ PUSH2 0x173 JUMPI JUMPDEST PUSH1 0x0 DUP1 REVERT JUMPDEST PUSH2 0xC1 PUSH2 0x2B1 JUMP JUMPDEST PUSH1 0x40 MLOAD PUSH2 0xCE SWAP2 SWAP1 PUSH2 0x1113 JUMP JUMPDEST PUSH1 0x40 MLOAD DUP1 SWAP2 SUB SWAP1 RETURN JUMPDEST PUSH2 0xF1 PUSH1 0x4 DUP1 CALLDATASIZE SUB DUP2 ADD SWAP1 PUSH2 0xEC SWAP2 SWAP1 PUSH2 0xF3A JUMP JUMPDEST PUSH2 0x343 JUMP JUMPDEST PUSH1 0x40 MLOAD PUSH2 0xFE SWAP2 SWAP1 PUSH2 0x10F8 JUMP JUMPDEST PUSH1 0x40 MLOAD DUP1 SWAP2 SUB SWAP1 RETURN JUMPDEST PUSH2 0x10F PUSH2 0x3F5 JUMP JUMPDEST PUSH1 0x40 MLOAD PUSH2 0x11C SWAP2 SWAP1 PUSH2 0x1235 JUMP JUMPDEST PUSH1 0x40 MLOAD DUP1 SWAP2 SUB SWAP1 RETURN JUMPDEST PUSH2 0x13F PUSH1 0x4 DUP1 CALLDATASIZE SUB DUP2 ADD SWAP1 PUSH2 0x13A SWAP2 SWAP1 PUSH2 0xEE7 JUMP JUMPDEST PUSH2 0x3FF JUMP JUMPDEST PUSH1 0x40 MLOAD PUSH2 0x14C SWAP2 SWAP1 PUSH2 0x10F8 JUMP JUMPDEST PUSH1 0x40 MLOAD DUP1 SWAP2 SUB SWAP1 RETURN JUMPDEST PUSH2 0x15D PUSH2 0x58B JUMP JUMPDEST PUSH1 0x40 MLOAD PUSH2 0x16A SWAP2 SWAP1 PUSH2 0x1250 JUMP JUMPDEST PUSH1 0x40 MLOAD DUP1 SWAP2 SUB SWAP1 RETURN JUMPDEST PUSH2 0x18D PUSH1 0x4 DUP1 CALLDATASIZE SUB DUP2 ADD SWAP1 PUSH2 0x188 SWAP2 SWAP1 PUSH2 0xF3A JUMP JUMPDEST PUSH2 0x594 JUMP JUMPDEST PUSH1 0x40 MLOAD PUSH2 0x19A SWAP2 SWAP1 PUSH2 0x10F8 JUMP JUMPDEST PUSH1 0x40 MLOAD DUP1 SWAP2 SUB SWAP1 RETURN JUMPDEST PUSH2 0x1BD PUSH1 0x4 DUP1 CALLDATASIZE SUB DUP2 ADD SWAP1 PUSH2 0x1B8 SWAP2 SWAP1 PUSH2 0xE7A JUMP JUMPDEST PUSH2 0x6D4 JUMP JUMPDEST PUSH1 0x40 MLOAD PUSH2 0x1CA SWAP2 SWAP1 PUSH2 0x1235 JUMP JUMPDEST PUSH1 0x40 MLOAD DUP1 SWAP2 SUB SWAP1 RETURN JUMPDEST PUSH2 0x1DB PUSH2 0x71C JUMP JUMPDEST PUSH1 0x40 MLOAD PUSH2 0x1E8 SWAP2 SWAP1 PUSH2 0x1113 JUMP JUMPDEST PUSH1 0x40 MLOAD DUP1 SWAP2 SUB SWAP1 RETURN JUMPDEST PUSH2 0x20B PUSH1 0x4 DUP1 CALLDATASIZE SUB DUP2 ADD SWAP1 PUSH2 0x206 SWAP2 SWAP1 PUSH2 0xF3A JUMP JUMPDEST PUSH2 0x7AE JUMP JUMPDEST PUSH1 0x40 MLOAD PUSH2 0x218 SWAP2 SWAP1 PUSH2 0x10F8 JUMP JUMPDEST PUSH1 0x40 MLOAD DUP1 SWAP2 SUB SWAP1 RETURN JUMPDEST PUSH2 0x23B PUSH1 0x4 DUP1 CALLDATASIZE SUB DUP2 ADD SWAP1 PUSH2 0x236 SWAP2 SWAP1 PUSH2 0xF3A JUMP JUMPDEST PUSH2 0x899 JUMP JUMPDEST PUSH1 0x40 MLOAD PUSH2 0x248 SWAP2 SWAP1 PUSH2 0x10F8 JUMP JUMPDEST PUSH1 0x40 MLOAD DUP1 SWAP2 SUB SWAP1 RETURN JUMPDEST PUSH2 0x26B PUSH1 0x4 DUP1 CALLDATASIZE SUB DUP2 ADD SWAP1 PUSH2 0x266 SWAP2 SWAP1 PUSH2 0xE7A JUMP JUMPDEST PUSH2 0x94B JUMP JUMPDEST PUSH1 0x40 MLOAD PUSH2 0x278 SWAP2 SWAP1 PUSH2 0x10F8 JUMP JUMPDEST PUSH1 0x40 MLOAD DUP1 SWAP2 SUB SWAP1 RETURN JUMPDEST PUSH2 0x29B PUSH1 0x4 DUP1 CALLDATASIZE SUB DUP2 ADD SWAP1 PUSH2 0x296 SWAP2 SWAP1 PUSH2 0xEA7 JUMP JUMPDEST PUSH2 0x96B JUMP JUMPDEST PUSH1 0x40 MLOAD PUSH2 0x2A8 SWAP2 SWAP1 PUSH2 0x1235 JUMP JUMPDEST PUSH1 0x40 MLOAD DUP1 SWAP2 SUB SWAP1 RETURN JUMPDEST PUSH1 0x60 PUSH1 0x3 DUP1 SLOAD PUSH2 0x2C0 SWAP1 PUSH2 0x1365 JUMP JUMPDEST DUP1 PUSH1 0x1F ADD PUSH1 0x20 DUP1 SWAP2 DIV MUL PUSH1 0x20 ADD PUSH1 0x40 MLOAD SWAP1 DUP2 ADD PUSH1 0x40 MSTORE DUP1 SWAP3 SWAP2 SWAP1 DUP2 DUP2 MSTORE PUSH1 0x20 ADD DUP3 DUP1 SLOAD PUSH2 0x2EC SWAP1 PUSH2 0x1365 JUMP JUMPDEST DUP1 ISZERO PUSH2 0x339 JUMPI DUP1 PUSH1 0x1F LT PUSH2 0x30E JUMPI PUSH2 0x100 DUP1 DUP4 SLOAD DIV MUL DUP4 MSTORE SWAP2 PUSH1 0x20 ADD SWAP2 PUSH2 0x339 JUMP JUMPDEST DUP3 ADD SWAP2 SWAP1 PUSH1 0x0 MSTORE PUSH1 0x20 PUSH1 0x0 KECCAK256 SWAP1 JUMPDEST DUP2 SLOAD DUP2 MSTORE SWAP1 PUSH1 0x1 ADD SWAP1 PUSH1 0x20 ADD DUP1 DUP4 GT PUSH2 0x31C JUMPI DUP3 SWAP1 SUB PUSH1 0x1F AND DUP3 ADD SWAP2 JUMPDEST POP POP POP POP POP SWAP1 POP SWAP1 JUMP JUMPDEST PUSH1 0x0 PUSH1 0x5 PUSH1 0x0 PUSH2 0x351 PUSH2 0x9F2 JUMP JUMPDEST PUSH20 0xFFFFFFFFFFFFFFFFFFFFFFFFFFFFFFFFFFFFFFFF AND PUSH20 0xFFFFFFFFFFFFFFFFFFFFFFFFFFFFFFFFFFFFFFFF AND DUP2 MSTORE PUSH1 0x20 ADD SWAP1 DUP2 MSTORE PUSH1 0x20 ADD PUSH1 0x0 KECCAK256 PUSH1 0x0 SWAP1 SLOAD SWAP1 PUSH2 0x100 EXP SWAP1 DIV PUSH1 0xFF AND ISZERO PUSH2 0x3D9 JUMPI PUSH1 0x40 MLOAD PUSH32 0x8C379A000000000000000000000000000000000000000000000000000000000 DUP2 MSTORE PUSH1 0x4 ADD PUSH2 0x3D0 SWAP1 PUSH2 0x1155 JUMP JUMPDEST PUSH1 0x40 MLOAD DUP1 SWAP2 SUB SWAP1 REVERT JUMPDEST PUSH2 0x3EB PUSH2 0x3E4 PUSH2 0x9F2 JUMP JUMPDEST DUP5 DUP5 PUSH2 0x9FA JUMP JUMPDEST PUSH1 0x1 SWAP1 POP SWAP3 SWAP2 POP POP JUMP JUMPDEST PUSH1 0x0 PUSH1 0x2 SLOAD SWAP1 POP SWAP1 JUMP JUMPDEST PUSH1 0x0 PUSH1 0x5 PUSH1 0x0 PUSH2 0x40D PUSH2 0x9F2 JUMP JUMPDEST PUSH20 0xFFFFFFFFFFFFFFFFFFFFFFFFFFFFFFFFFFFFFFFF AND PUSH20 0xFFFFFFFFFFFFFFFFFFFFFFFFFFFFFFFFFFFFFFFF AND DUP2 MSTORE PUSH1 0x20 ADD SWAP1 DUP2 MSTORE PUSH1 0x20 ADD PUSH1 0x0 KECCAK256 PUSH1 0x0 SWAP1 SLOAD SWAP1 PUSH2 0x100 EXP SWAP1 DIV PUSH1 0xFF AND ISZERO PUSH2 0x495 JUMPI PUSH1 0x40 MLOAD PUSH32 0x8C379A000000000000000000000000000000000000000000000000000000000 DUP2 MSTORE PUSH1 0x4 ADD PUSH2 0x48C SWAP1 PUSH2 0x1155 JUMP JUMPDEST PUSH1 0x40 MLOAD DUP1 SWAP2 SUB SWAP1 REVERT JUMPDEST PUSH2 0x4A0 DUP5 DUP5 DUP5 PUSH2 0xBC5 JUMP JUMPDEST PUSH1 0x0 PUSH1 0x1 PUSH1 0x0 DUP7 PUSH20 0xFFFFFFFFFFFFFFFFFFFFFFFFFFFFFFFFFFFFFFFF AND PUSH20 0xFFFFFFFFFFFFFFFFFFFFFFFFFFFFFFFFFFFFFFFF AND DUP2 MSTORE PUSH1 0x20 ADD SWAP1 DUP2 MSTORE PUSH1 0x20 ADD PUSH1 0x0 KECCAK256 PUSH1 0x0 PUSH2 0x4EB PUSH2 0x9F2 JUMP JUMPDEST PUSH20 0xFFFFFFFFFFFFFFFFFFFFFFFFFFFFFFFFFFFFFFFF AND PUSH20 0xFFFFFFFFFFFFFFFFFFFFFFFFFFFFFFFFFFFFFFFF AND DUP2 MSTORE PUSH1 0x20 ADD SWAP1 DUP2 MSTORE PUSH1 0x20 ADD PUSH1 0x0 KECCAK256 SLOAD SWAP1 POP DUP3 DUP2 LT ISZERO PUSH2 0x56B JUMPI PUSH1 0x40 MLOAD PUSH32 0x8C379A000000000000000000000000000000000000000000000000000000000 DUP2 MSTORE PUSH1 0x4 ADD PUSH2 0x562 SWAP1 PUSH2 0x11B5 JUMP JUMPDEST PUSH1 0x40 MLOAD DUP1 SWAP2 SUB SWAP1 REVERT JUMPDEST PUSH2 0x57F DUP6 PUSH2 0x577 PUSH2 0x9F2 JUMP JUMPDEST DUP6 DUP5 SUB PUSH2 0x9FA JUMP JUMPDEST PUSH1 0x1 SWAP2 POP POP SWAP4 SWAP3 POP POP POP JUMP JUMPDEST PUSH1 0x0 PUSH1 0x12 SWAP1 POP SWAP1 JUMP JUMPDEST PUSH1 0x0 PUSH1 0x5 PUSH1 0x0 PUSH2 0x5A2 PUSH2 0x9F2 JUMP JUMPDEST PUSH20 0xFFFFFFFFFFFFFFFFFFFFFFFFFFFFFFFFFFFFFFFF AND PUSH20 0xFFFFFFFFFFFFFFFFFFFFFFFFFFFFFFFFFFFFFFFF AND DUP2 MSTORE PUSH1 0x20 ADD SWAP1 DUP2 MSTORE PUSH1 0x20 ADD PUSH1 0x0 KECCAK256 PUSH1 0x0 SWAP1 SLOAD SWAP1 PUSH2 0x100 EXP SWAP1 DIV PUSH1 0xFF AND ISZERO PUSH2 0x62A JUMPI PUSH1 0x40 MLOAD PUSH32 0x8C379A000000000000000000000000000000000000000000000000000000000 DUP2 MSTORE PUSH1 0x4 ADD PUSH2 0x621 SWAP1 PUSH2 0x1155 JUMP JUMPDEST PUSH1 0x40 MLOAD DUP1 SWAP2 SUB SWAP1 REVERT JUMPDEST PUSH2 0x6CA PUSH2 0x635 PUSH2 0x9F2 JUMP JUMPDEST DUP5 DUP5 PUSH1 0x1 PUSH1 0x0 PUSH2 0x643 PUSH2 0x9F2 JUMP JUMPDEST PUSH20 0xFFFFFFFFFFFFFFFFFFFFFFFFFFFFFFFFFFFFFFFF AND PUSH20 0xFFFFFFFFFFFFFFFFFFFFFFFFFFFFFFFFFFFFFFFF AND DUP2 MSTORE PUSH1 0x20 ADD SWAP1 DUP2 MSTORE PUSH1 0x20 ADD PUSH1 0x0 KECCAK256 PUSH1 0x0 DUP9 PUSH20 0xFFFFFFFFFFFFFFFFFFFFFFFFFFFFFFFFFFFFFFFF AND PUSH20 0xFFFFFFFFFFFFFFFFFFFFFFFFFFFFFFFFFFFFFFFF AND DUP2 MSTORE PUSH1 0x20 ADD SWAP1 DUP2 MSTORE PUSH1 0x20 ADD PUSH1 0x0 KECCAK256 SLOAD PUSH2 0x6C5 SWAP2 SWAP1 PUSH2 0x1287 JUMP JUMPDEST PUSH2 0x9FA JUMP JUMPDEST PUSH1 0x1 SWAP1 POP SWAP3 SWAP2 POP POP JUMP JUMPDEST PUSH1 0x0 DUP1 PUSH1 0x0 DUP4 PUSH20 0xFFFFFFFFFFFFFFFFFFFFFFFFFFFFFFFFFFFFFFFF AND PUSH20 0xFFFFFFFFFFFFFFFFFFFFFFFFFFFFFFFFFFFFFFFF AND DUP2 MSTORE PUSH1 0x20 ADD SWAP1 DUP2 MSTORE PUSH1 0x20 ADD PUSH1 0x0 KECCAK256 SLOAD SWAP1 POP SWAP2 SWAP1 POP JUMP JUMPDEST PUSH1 0x60 PUSH1 0x4 DUP1 SLOAD PUSH2 0x72B SWAP1 PUSH2 0x1365 JUMP JUMPDEST DUP1 PUSH1 0x1F ADD PUSH1 0x20 DUP1 SWAP2 DIV MUL PUSH1 0x20 ADD PUSH1 0x40 MLOAD SWAP1 DUP2 ADD PUSH1 0x40 MSTORE DUP1 SWAP3 SWAP2 SWAP1 DUP2 DUP2 MSTORE PUSH1 0x20 ADD DUP3 DUP1 SLOAD PUSH2 0x757 SWAP1 PUSH2 0x1365 JUMP JUMPDEST DUP1 ISZERO PUSH2 0x7A4 JUMPI DUP1 PUSH1 0x1F LT PUSH2 0x779 JUMPI PUSH2 0x100 DUP1 DUP4 SLOAD DIV MUL DUP4 MSTORE SWAP2 PUSH1 0x20 ADD SWAP2 PUSH2 0x7A4 JUMP JUMPDEST DUP3 ADD SWAP2 SWAP1 PUSH1 0x0 MSTORE PUSH1 0x20 PUSH1 0x0 KECCAK256 SWAP1 JUMPDEST DUP2 SLOAD DUP2 MSTORE SWAP1 PUSH1 0x1 ADD SWAP1 PUSH1 0x20 ADD DUP1 DUP4 GT PUSH2 0x787 JUMPI DUP3 SWAP1 SUB PUSH1 0x1F AND DUP3 ADD SWAP2 JUMPDEST POP POP POP POP POP SWAP1 POP SWAP1 JUMP JUMPDEST PUSH1 0x0 DUP1 PUSH1 0x1 PUSH1 0x0 PUSH2 0x7BD PUSH2 0x9F2 JUMP JUMPDEST PUSH20 0xFFFFFFFFFFFFFFFFFFFFFFFFFFFFFFFFFFFFFFFF AND PUSH20 0xFFFFFFFFFFFFFFFFFFFFFFFFFFFFFFFFFFFFFFFF AND DUP2 MSTORE PUSH1 0x20 ADD SWAP1 DUP2 MSTORE PUSH1 0x20 ADD PUSH1 0x0 KECCAK256 PUSH1 0x0 DUP6 PUSH20 0xFFFFFFFFFFFFFFFFFFFFFFFFFFFFFFFFFFFFFFFF AND PUSH20 0xFFFFFFFFFFFFFFFFFFFFFFFFFFFFFFFFFFFFFFFF AND DUP2 MSTORE PUSH1 0x20 ADD SWAP1 DUP2 MSTORE PUSH1 0x20 ADD PUSH1 0x0 KECCAK256 SLOAD SWAP1 POP DUP3 DUP2 LT ISZERO PUSH2 0x87A JUMPI PUSH1 0x40 MLOAD PUSH32 0x8C379A000000000000000000000000000000000000000000000000000000000 DUP2 MSTORE PUSH1 0x4 ADD PUSH2 0x871 SWAP1 PUSH2 0x1215 JUMP JUMPDEST PUSH1 0x40 MLOAD DUP1 SWAP2 SUB SWAP1 REVERT JUMPDEST PUSH2 0x88E PUSH2 0x885 PUSH2 0x9F2 JUMP JUMPDEST DUP6 DUP6 DUP5 SUB PUSH2 0x9FA JUMP JUMPDEST PUSH1 0x1 SWAP2 POP POP SWAP3 SWAP2 POP POP JUMP JUMPDEST PUSH1 0x0 PUSH1 0x5 PUSH1 0x0 PUSH2 0x8A7 PUSH2 0x9F2 JUMP JUMPDEST PUSH20 0xFFFFFFFFFFFFFFFFFFFFFFFFFFFFFFFFFFFFFFFF AND PUSH20 0xFFFFFFFFFFFFFFFFFFFFFFFFFFFFFFFFFFFFFFFF AND DUP2 MSTORE PUSH1 0x20 ADD SWAP1 DUP2 MSTORE PUSH1 0x20 ADD PUSH1 0x0 KECCAK256 PUSH1 0x0 SWAP1 SLOAD SWAP1 PUSH2 0x100 EXP SWAP1 DIV PUSH1 0xFF AND ISZERO PUSH2 0x92F JUMPI PUSH1 0x40 MLOAD PUSH32 0x8C379A000000000000000000000000000000000000000000000000000000000 DUP2 MSTORE PUSH1 0x4 ADD PUSH2 0x926 SWAP1 PUSH2 0x1155 JUMP JUMPDEST PUSH1 0x40 MLOAD DUP1 SWAP2 SUB SWAP1 REVERT JUMPDEST PUSH2 0x941 PUSH2 0x93A PUSH2 0x9F2 JUMP JUMPDEST DUP5 DUP5 PUSH2 0xBC5 JUMP JUMPDEST PUSH1 0x1 SWAP1 POP SWAP3 SWAP2 POP POP JUMP JUMPDEST PUSH1 0x5 PUSH1 0x20 MSTORE DUP1 PUSH1 0x0 MSTORE PUSH1 0x40 PUSH1 0x0 KECCAK256 PUSH1 0x0 SWAP2 POP SLOAD SWAP1 PUSH2 0x100 EXP SWAP1 DIV PUSH1 0xFF AND DUP2 JUMP JUMPDEST PUSH1 0x0 PUSH1 0x1 PUSH1 0x0 DUP5 PUSH20 0xFFFFFFFFFFFFFFFFFFFFFFFFFFFFFFFFFFFFFFFF AND PUSH20 0xFFFFFFFFFFFFFFFFFFFFFFFFFFFFFFFFFFFFFFFF AND DUP2 MSTORE PUSH1 0x20 ADD SWAP1 DUP2 MSTORE PUSH1 0x20 ADD PUSH1 0x0 KECCAK256 PUSH1 0x0 DUP4 PUSH20 0xFFFFFFFFFFFFFFFFFFFFFFFFFFFFFFFFFFFFFFFF AND PUSH20 0xFFFFFFFFFFFFFFFFFFFFFFFFFFFFFFFFFFFFFFFF AND DUP2 MSTORE PUSH1 0x20 ADD SWAP1 DUP2 MSTORE PUSH1 0x20 ADD PUSH1 0x0 KECCAK256 SLOAD SWAP1 POP SWAP3 SWAP2 POP POP JUMP JUMPDEST PUSH1 0x0 CALLER SWAP1 POP SWAP1 JUMP JUMPDEST PUSH1 0x0 PUSH20 0xFFFFFFFFFFFFFFFFFFFFFFFFFFFFFFFFFFFFFFFF AND DUP4 PUSH20 0xFFFFFFFFFFFFFFFFFFFFFFFFFFFFFFFFFFFFFFFF AND EQ ISZERO PUSH2 0xA6A JUMPI PUSH1 0x40 MLOAD PUSH32 0x8C379A000000000000000000000000000000000000000000000000000000000 DUP2 MSTORE PUSH1 0x4 ADD PUSH2 0xA61 SWAP1 PUSH2 0x11F5 JUMP JUMPDEST PUSH1 0x40 MLOAD DUP1 SWAP2 SUB SWAP1 REVERT JUMPDEST PUSH1 0x0 PUSH20 0xFFFFFFFFFFFFFFFFFFFFFFFFFFFFFFFFFFFFFFFF AND DUP3 PUSH20 0xFFFFFFFFFFFFFFFFFFFFFFFFFFFFFFFFFFFFFFFF AND EQ ISZERO PUSH2 0xADA JUMPI PUSH1 0x40 MLOAD PUSH32 0x8C379A000000000000000000000000000000000000000000000000000000000 DUP2 MSTORE PUSH1 0x4 ADD PUSH2 0xAD1 SWAP1 PUSH2 0x1175 JUMP JUMPDEST PUSH1 0x40 MLOAD DUP1 SWAP2 SUB SWAP1 REVERT JUMPDEST DUP1 PUSH1 0x1 PUSH1 0x0 DUP6 PUSH20 0xFFFFFFFFFFFFFFFFFFFFFFFFFFFFFFFFFFFFFFFF AND PUSH20 0xFFFFFFFFFFFFFFFFFFFFFFFFFFFFFFFFFFFFFFFF AND DUP2 MSTORE PUSH1 0x20 ADD SWAP1 DUP2 MSTORE PUSH1 0x20 ADD PUSH1 0x0 KECCAK256 PUSH1 0x0 DUP5 PUSH20 0xFFFFFFFFFFFFFFFFFFFFFFFFFFFFFFFFFFFFFFFF AND PUSH20 0xFFFFFFFFFFFFFFFFFFFFFFFFFFFFFFFFFFFFFFFF AND DUP2 MSTORE PUSH1 0x20 ADD SWAP1 DUP2 MSTORE PUSH1 0x20 ADD PUSH1 0x0 KECCAK256 DUP2 SWAP1 SSTORE POP DUP2 PUSH20 0xFFFFFFFFFFFFFFFFFFFFFFFFFFFFFFFFFFFFFFFF AND DUP4 PUSH20 0xFFFFFFFFFFFFFFFFFFFFFFFFFFFFFFFFFFFFFFFF AND PUSH32 0x8C5BE1E5EBEC7D5BD14F71427D1E84F3DD0314C0F7B2291E5B200AC8C7C3B925 DUP4 PUSH1 0x40 MLOAD PUSH2 0xBB8 SWAP2 SWAP1 PUSH2 0x1235 JUMP JUMPDEST PUSH1 0x40 MLOAD DUP1 SWAP2 SUB SWAP1 LOG3 POP POP POP JUMP JUMPDEST PUSH1 0x0 PUSH20 0xFFFFFFFFFFFFFFFFFFFFFFFFFFFFFFFFFFFFFFFF AND DUP4 PUSH20 0xFFFFFFFFFFFFFFFFFFFFFFFFFFFFFFFFFFFFFFFF AND EQ ISZERO PUSH2 0xC35 JUMPI PUSH1 0x40 MLOAD PUSH32 0x8C379A000000000000000000000000000000000000000000000000000000000 DUP2 MSTORE PUSH1 0x4 ADD PUSH2 0xC2C SWAP1 PUSH2 0x11D5 JUMP JUMPDEST PUSH1 0x40 MLOAD DUP1 SWAP2 SUB SWAP1 REVERT JUMPDEST PUSH1 0x0 PUSH20 0xFFFFFFFFFFFFFFFFFFFFFFFFFFFFFFFFFFFFFFFF AND DUP3 PUSH20 0xFFFFFFFFFFFFFFFFFFFFFFFFFFFFFFFFFFFFFFFF AND EQ ISZERO PUSH2 0xCA5 JUMPI PUSH1 0x40 MLOAD PUSH32 0x8C379A000000000000000000000000000000000000000000000000000000000 DUP2 MSTORE PUSH1 0x4 ADD PUSH2 0xC9C SWAP1 PUSH2 0x1135 JUMP JUMPDEST PUSH1 0x40 MLOAD DUP1 SWAP2 SUB SWAP1 REVERT JUMPDEST PUSH2 0xCB0 DUP4 DUP4 DUP4 PUSH2 0xE46 JUMP JUMPDEST PUSH1 0x0 DUP1 PUSH1 0x0 DUP6 PUSH20 0xFFFFFFFFFFFFFFFFFFFFFFFFFFFFFFFFFFFFFFFF AND PUSH20 0xFFFFFFFFFFFFFFFFFFFFFFFFFFFFFFFFFFFFFFFF AND DUP2 MSTORE PUSH1 0x20 ADD SWAP1 DUP2 MSTORE PUSH1 0x20 ADD PUSH1 0x0 KECCAK256 SLOAD SWAP1 POP DUP2 DUP2 LT ISZERO PUSH2 0xD36 JUMPI PUSH1 0x40 MLOAD PUSH32 0x8C379A000000000000000000000000000000000000000000000000000000000 DUP2 MSTORE PUSH1 0x4 ADD PUSH2 0xD2D SWAP1 PUSH2 0x1195 JUMP JUMPDEST PUSH1 0x40 MLOAD DUP1 SWAP2 SUB SWAP1 REVERT JUMPDEST DUP2 DUP2 SUB PUSH1 0x0 DUP1 DUP7 PUSH20 0xFFFFFFFFFFFFFFFFFFFFFFFFFFFFFFFFFFFFFFFF AND PUSH20 0xFFFFFFFFFFFFFFFFFFFFFFFFFFFFFFFFFFFFFFFF AND DUP2 MSTORE PUSH1 0x20 ADD SWAP1 DUP2 MSTORE PUSH1 0x20 ADD PUSH1 0x0 KECCAK256 DUP2 SWAP1 SSTORE POP DUP2 PUSH1 0x0 DUP1 DUP6 PUSH20 0xFFFFFFFFFFFFFFFFFFFFFFFFFFFFFFFFFFFFFFFF AND PUSH20 0xFFFFFFFFFFFFFFFFFFFFFFFFFFFFFFFFFFFFFFFF AND DUP2 MSTORE PUSH1 0x20 ADD SWAP1 DUP2 MSTORE PUSH1 0x20 ADD PUSH1 0x0 KECCAK256 PUSH1 0x0 DUP3 DUP3 SLOAD PUSH2 0xDC9 SWAP2 SWAP1 PUSH2 0x1287 JUMP JUMPDEST SWAP3 POP POP DUP2 SWAP1 SSTORE POP DUP3 PUSH20 0xFFFFFFFFFFFFFFFFFFFFFFFFFFFFFFFFFFFFFFFF AND DUP5 PUSH20 0xFFFFFFFFFFFFFFFFFFFFFFFFFFFFFFFFFFFFFFFF AND PUSH32 0xDDF252AD1BE2C89B69C2B068FC378DAA952BA7F163C4A11628F55A4DF523B3EF DUP5 PUSH1 0x40 MLOAD PUSH2 0xE2D SWAP2 SWAP1 PUSH2 0x1235 JUMP JUMPDEST PUSH1 0x40 MLOAD DUP1 SWAP2 SUB SWAP1 LOG3 PUSH2 0xE40 DUP5 DUP5 DUP5 PUSH2 0xE4B JUMP JUMPDEST POP POP POP POP JUMP JUMPDEST POP POP POP JUMP JUMPDEST POP POP POP JUMP JUMPDEST PUSH1 0x0 DUP2 CALLDATALOAD SWAP1 POP PUSH2 0xE5F DUP2 PUSH2 0x165D JUMP JUMPDEST SWAP3 SWAP2 POP POP JUMP JUMPDEST PUSH1 0x0 DUP2 CALLDATALOAD SWAP1 POP PUSH2 0xE74 DUP2 PUSH2 0x1674 JUMP JUMPDEST SWAP3 SWAP2 POP POP JUMP JUMPDEST PUSH1 0x0 PUSH1 0x20 DUP3 DUP5 SUB SLT ISZERO PUSH2 0xE90 JUMPI PUSH2 0xE8F PUSH2 0x13F5 JUMP JUMPDEST JUMPDEST PUSH1 0x0 PUSH2 0xE9E DUP5 DUP3 DUP6 ADD PUSH2 0xE50 JUMP JUMPDEST SWAP2 POP POP SWAP3 SWAP2 POP POP JUMP JUMPDEST PUSH1 0x0 DUP1 PUSH1 0x40 DUP4 DUP6 SUB SLT ISZERO PUSH2 0xEBE JUMPI PUSH2 0xEBD PUSH2 0x13F5 JUMP JUMPDEST JUMPDEST PUSH1 0x0 PUSH2 0xECC DUP6 DUP3 DUP7 ADD PUSH2 0xE50 JUMP JUMPDEST SWAP3 POP POP PUSH1 0x20 PUSH2 0xEDD DUP6 DUP3 DUP7 ADD PUSH2 0xE50 JUMP JUMPDEST SWAP2 POP POP SWAP3 POP SWAP3 SWAP1 POP JUMP JUMPDEST PUSH1 0x0 DUP1 PUSH1 0x0 PUSH1 0x60 DUP5 DUP7 SUB SLT ISZERO PUSH2 0xF00 JUMPI PUSH2 0xEFF PUSH2 0x13F5 JUMP JUMPDEST JUMPDEST PUSH1 0x0 PUSH2 0xF0E DUP7 DUP3 DUP8 ADD PUSH2 0xE50 JUMP JUMPDEST SWAP4 POP POP PUSH1 0x20 PUSH2 0xF1F DUP7 DUP3 DUP8 ADD PUSH2 0xE50 JUMP JUMPDEST SWAP3 POP POP PUSH1 0x40 PUSH2 0xF30 DUP7 DUP3 DUP8 ADD PUSH2 0xE65 JUMP JUMPDEST SWAP2 POP POP SWAP3 POP SWAP3 POP SWAP3 JUMP JUMPDEST PUSH1 0x0 DUP1 PUSH1 0x40 DUP4 DUP6 SUB SLT ISZERO PUSH2 0xF51 JUMPI PUSH2 0xF50 PUSH2 0x13F5 JUMP JUMPDEST JUMPDEST PUSH1 0x0 PUSH2 0xF5F DUP6 DUP3 DUP7 ADD PUSH2 0xE50 JUMP JUMPDEST SWAP3 POP POP PUSH1 0x20 PUSH2 0xF70 DUP6 DUP3 DUP7 ADD PUSH2 0xE65 JUMP JUMPDEST SWAP2 POP POP SWAP3 POP SWAP3 SWAP1 POP JUMP JUMPDEST PUSH2 0xF83 DUP2 PUSH2 0x12EF JUMP JUMPDEST DUP3 MSTORE POP POP JUMP JUMPDEST PUSH1 0x0 PUSH2 0xF94 DUP3 PUSH2 0x126B JUMP JUMPDEST PUSH2 0xF9E DUP2 DUP6 PUSH2 0x1276 JUMP JUMPDEST SWAP4 POP PUSH2 0xFAE DUP2 DUP6 PUSH1 0x20 DUP7 ADD PUSH2 0x1332 JUMP JUMPDEST PUSH2 0xFB7 DUP2 PUSH2 0x13FA JUMP JUMPDEST DUP5 ADD SWAP2 POP POP SWAP3 SWAP2 POP POP JUMP JUMPDEST PUSH1 0x0 PUSH2 0xFCF PUSH1 0x23 DUP4 PUSH2 0x1276 JUMP JUMPDEST SWAP2 POP PUSH2 0xFDA DUP3 PUSH2 0x140B JUMP JUMPDEST PUSH1 0x40 DUP3 ADD SWAP1 POP SWAP2 SWAP1 POP JUMP JUMPDEST PUSH1 0x0 PUSH2 0xFF2 PUSH1 0x6 DUP4 PUSH2 0x1276 JUMP JUMPDEST SWAP2 POP PUSH2 0xFFD DUP3 PUSH2 0x145A JUMP JUMPDEST PUSH1 0x20 DUP3 ADD SWAP1 POP SWAP2 SWAP1 POP JUMP JUMPDEST PUSH1 0x0 PUSH2 0x1015 PUSH1 0x22 DUP4 PUSH2 0x1276 JUMP JUMPDEST SWAP2 POP PUSH2 0x1020 DUP3 PUSH2 0x1483 JUMP JUMPDEST PUSH1 0x40 DUP3 ADD SWAP1 POP SWAP2 SWAP1 POP JUMP JUMPDEST PUSH1 0x0 PUSH2 0x1038 PUSH1 0x26 DUP4 PUSH2 0x1276 JUMP JUMPDEST SWAP2 POP PUSH2 0x1043 DUP3 PUSH2 0x14D2 JUMP JUMPDEST PUSH1 0x40 DUP3 ADD SWAP1 POP SWAP2 SWAP1 POP JUMP JUMPDEST PUSH1 0x0 PUSH2 0x105B PUSH1 0x28 DUP4 PUSH2 0x1276 JUMP JUMPDEST SWAP2 POP PUSH2 0x1066 DUP3 PUSH2 0x1521 JUMP JUMPDEST PUSH1 0x40 DUP3 ADD SWAP1 POP SWAP2 SWAP1 POP JUMP JUMPDEST PUSH1 0x0 PUSH2 0x107E PUSH1 0x25 DUP4 PUSH2 0x1276 JUMP JUMPDEST SWAP2 POP PUSH2 0x1089 DUP3 PUSH2 0x1570 JUMP JUMPDEST PUSH1 0x40 DUP3 ADD SWAP1 POP SWAP2 SWAP1 POP JUMP JUMPDEST PUSH1 0x0 PUSH2 0x10A1 PUSH1 0x24 DUP4 PUSH2 0x1276 JUMP JUMPDEST SWAP2 POP PUSH2 0x10AC DUP3 PUSH2 0x15BF JUMP JUMPDEST PUSH1 0x40 DUP3 ADD SWAP1 POP SWAP2 SWAP1 POP JUMP JUMPDEST PUSH1 0x0 PUSH2 0x10C4 PUSH1 0x25 DUP4 PUSH2 0x1276 JUMP JUMPDEST SWAP2 POP PUSH2 0x10CF DUP3 PUSH2 0x160E JUMP JUMPDEST PUSH1 0x40 DUP3 ADD SWAP1 POP SWAP2 SWAP1 POP JUMP JUMPDEST PUSH2 0x10E3 DUP2 PUSH2 0x131B JUMP JUMPDEST DUP3 MSTORE POP POP JUMP JUMPDEST PUSH2 0x10F2 DUP2 PUSH2 0x1325 JUMP JUMPDEST DUP3 MSTORE POP POP JUMP JUMPDEST PUSH1 0x0 PUSH1 0x20 DUP3 ADD SWAP1 POP PUSH2 0x110D PUSH1 0x0 DUP4 ADD DUP5 PUSH2 0xF7A JUMP JUMPDEST SWAP3 SWAP2 POP POP JUMP JUMPDEST PUSH1 0x0 PUSH1 0x20 DUP3 ADD SWAP1 POP DUP2 DUP2 SUB PUSH1 0x0 DUP4 ADD MSTORE PUSH2 0x112D DUP2 DUP5 PUSH2 0xF89 JUMP JUMPDEST SWAP1 POP SWAP3 SWAP2 POP POP JUMP JUMPDEST PUSH1 0x0 PUSH1 0x20 DUP3 ADD SWAP1 POP DUP2 DUP2 SUB PUSH1 0x0 DUP4 ADD MSTORE PUSH2 0x114E DUP2 PUSH2 0xFC2 JUMP JUMPDEST SWAP1 POP SWAP2 SWAP1 POP JUMP JUMPDEST PUSH1 0x0 PUSH1 0x20 DUP3 ADD SWAP1 POP DUP2 DUP2 SUB PUSH1 0x0 DUP4 ADD MSTORE PUSH2 0x116E DUP2 PUSH2 0xFE5 JUMP JUMPDEST SWAP1 POP SWAP2 SWAP1 POP JUMP JUMPDEST PUSH1 0x0 PUSH1 0x20 DUP3 ADD SWAP1 POP DUP2 DUP2 SUB PUSH1 0x0 DUP4 ADD MSTORE PUSH2 0x118E DUP2 PUSH2 0x1008 JUMP JUMPDEST SWAP1 POP SWAP2 SWAP1 POP JUMP JUMPDEST PUSH1 0x0 PUSH1 0x20 DUP3 ADD SWAP1 POP DUP2 DUP2 SUB PUSH1 0x0 DUP4 ADD MSTORE PUSH2 0x11AE DUP2 PUSH2 0x102B JUMP JUMPDEST SWAP1 POP SWAP2 SWAP1 POP JUMP JUMPDEST PUSH1 0x0 PUSH1 0x20 DUP3 ADD SWAP1 POP DUP2 DUP2 SUB PUSH1 0x0 DUP4 ADD MSTORE PUSH2 0x11CE DUP2 PUSH2 0x104E JUMP JUMPDEST SWAP1 POP SWAP2 SWAP1 POP JUMP JUMPDEST PUSH1 0x0 PUSH1 0x20 DUP3 ADD SWAP1 POP DUP2 DUP2 SUB PUSH1 0x0 DUP4 ADD MSTORE PUSH2 0x11EE DUP2 PUSH2 0x1071 JUMP JUMPDEST SWAP1 POP SWAP2 SWAP1 POP JUMP JUMPDEST PUSH1 0x0 PUSH1 0x20 DUP3 ADD SWAP1 POP DUP2 DUP2 SUB PUSH1 0x0 DUP4 ADD MSTORE PUSH2 0x120E DUP2 PUSH2 0x1094 JUMP JUMPDEST SWAP1 POP SWAP2 SWAP1 POP JUMP JUMPDEST PUSH1 0x0 PUSH1 0x20 DUP3 ADD SWAP1 POP DUP2 DUP2 SUB PUSH1 0x0 DUP4 ADD MSTORE PUSH2 0x122E DUP2 PUSH2 0x10B7 JUMP JUMPDEST SWAP1 POP SWAP2 SWAP1 POP JUMP JUMPDEST PUSH1 0x0 PUSH1 0x20 DUP3 ADD SWAP1 POP PUSH2 0x124A PUSH1 0x0 DUP4 ADD DUP5 PUSH2 0x10DA JUMP JUMPDEST SWAP3 SWAP2 POP POP JUMP JUMPDEST PUSH1 0x0 PUSH1 0x20 DUP3 ADD SWAP1 POP PUSH2 0x1265 PUSH1 0x0 DUP4 ADD DUP5 PUSH2 0x10E9 JUMP JUMPDEST SWAP3 SWAP2 POP POP JUMP JUMPDEST PUSH1 0x0 DUP2 MLOAD SWAP1 POP SWAP2 SWAP1 POP JUMP JUMPDEST PUSH1 0x0 DUP3 DUP3 MSTORE PUSH1 0x20 DUP3 ADD SWAP1 POP SWAP3 SWAP2 POP POP JUMP JUMPDEST PUSH1 0x0 PUSH2 0x1292 DUP3 PUSH2 0x131B JUMP JUMPDEST SWAP2 POP PUSH2 0x129D DUP4 PUSH2 0x131B JUMP JUMPDEST SWAP3 POP DUP3 PUSH32 0xFFFFFFFFFFFFFFFFFFFFFFFFFFFFFFFFFFFFFFFFFFFFFFFFFFFFFFFFFFFFFFFF SUB DUP3 GT ISZERO PUSH2 0x12D2 JUMPI PUSH2 0x12D1 PUSH2 0x1397 JUMP JUMPDEST JUMPDEST DUP3 DUP3 ADD SWAP1 POP SWAP3 SWAP2 POP POP JUMP JUMPDEST PUSH1 0x0 PUSH2 0x12E8 DUP3 PUSH2 0x12FB JUMP JUMPDEST SWAP1 POP SWAP2 SWAP1 POP JUMP JUMPDEST PUSH1 0x0 DUP2 ISZERO ISZERO SWAP1 POP SWAP2 SWAP1 POP JUMP JUMPDEST PUSH1 0x0 PUSH20 0xFFFFFFFFFFFFFFFFFFFFFFFFFFFFFFFFFFFFFFFF DUP3 AND SWAP1 POP SWAP2 SWAP1 POP JUMP JUMPDEST PUSH1 0x0 DUP2 SWAP1 POP SWAP2 SWAP1 POP JUMP JUMPDEST PUSH1 0x0 PUSH1 0xFF DUP3 AND SWAP1 POP SWAP2 SWAP1 POP JUMP JUMPDEST PUSH1 0x0 JUMPDEST DUP4 DUP2 LT ISZERO PUSH2 0x1350 JUMPI DUP1 DUP3 ADD MLOAD DUP2 DUP5 ADD MSTORE PUSH1 0x20 DUP2 ADD SWAP1 POP PUSH2 0x1335 JUMP JUMPDEST DUP4 DUP2 GT ISZERO PUSH2 0x135F JUMPI PUSH1 0x0 DUP5 DUP5 ADD MSTORE JUMPDEST POP POP POP POP JUMP JUMPDEST PUSH1 0x0 PUSH1 0x2 DUP3 DIV SWAP1 POP PUSH1 0x1 DUP3 AND DUP1 PUSH2 0x137D JUMPI PUSH1 0x7F DUP3 AND SWAP2 POP JUMPDEST PUSH1 0x20 DUP3 LT DUP2 EQ ISZERO PUSH2 0x1391 JUMPI PUSH2 0x1390 PUSH2 0x13C6 JUMP JUMPDEST JUMPDEST POP SWAP2 SWAP1 POP JUMP JUMPDEST PUSH32 0x4E487B7100000000000000000000000000000000000000000000000000000000 PUSH1 0x0 MSTORE PUSH1 0x11 PUSH1 0x4 MSTORE PUSH1 0x24 PUSH1 0x0 REVERT JUMPDEST PUSH32 0x4E487B7100000000000000000000000000000000000000000000000000000000 PUSH1 0x0 MSTORE PUSH1 0x22 PUSH1 0x4 MSTORE PUSH1 0x24 PUSH1 0x0 REVERT JUMPDEST PUSH1 0x0 DUP1 REVERT JUMPDEST PUSH1 0x0 PUSH1 0x1F NOT PUSH1 0x1F DUP4 ADD AND SWAP1 POP SWAP2 SWAP1 POP JUMP JUMPDEST PUSH32 0x45524332303A207472616E7366657220746F20746865207A65726F2061646472 PUSH1 0x0 DUP3 ADD MSTORE PUSH32 0x6573730000000000000000000000000000000000000000000000000000000000 PUSH1 0x20 DUP3 ADD MSTORE POP JUMP JUMPDEST PUSH32 0x4C6F636B65640000000000000000000000000000000000000000000000000000 PUSH1 0x0 DUP3 ADD MSTORE POP JUMP JUMPDEST PUSH32 0x45524332303A20617070726F766520746F20746865207A65726F206164647265 PUSH1 0x0 DUP3 ADD MSTORE PUSH32 0x7373000000000000000000000000000000000000000000000000000000000000 PUSH1 0x20 DUP3 ADD MSTORE POP JUMP JUMPDEST PUSH32 0x45524332303A207472616E7366657220616D6F756E7420657863656564732062 PUSH1 0x0 DUP3 ADD MSTORE PUSH32 0x616C616E63650000000000000000000000000000000000000000000000000000 PUSH1 0x20 DUP3 ADD MSTORE POP JUMP JUMPDEST PUSH32 0x45524332303A207472616E7366657220616D6F756E7420657863656564732061 PUSH1 0x0 DUP3 ADD MSTORE PUSH32 0x6C6C6F77616E6365000000000000000000000000000000000000000000000000 PUSH1 0x20 DUP3 ADD MSTORE POP JUMP JUMPDEST PUSH32 0x45524332303A207472616E736665722066726F6D20746865207A65726F206164 PUSH1 0x0 DUP3 ADD MSTORE PUSH32 0x6472657373000000000000000000000000000000000000000000000000000000 PUSH1 0x20 DUP3 ADD MSTORE POP JUMP JUMPDEST PUSH32 0x45524332303A20617070726F76652066726F6D20746865207A65726F20616464 PUSH1 0x0 DUP3 ADD MSTORE PUSH32 0x7265737300000000000000000000000000000000000000000000000000000000 PUSH1 0x20 DUP3 ADD MSTORE POP JUMP JUMPDEST PUSH32 0x45524332303A2064656372656173656420616C6C6F77616E63652062656C6F77 PUSH1 0x0 DUP3 ADD MSTORE PUSH32 0x207A65726F000000000000000000000000000000000000000000000000000000 PUSH1 0x20 DUP3 ADD MSTORE POP JUMP JUMPDEST PUSH2 0x1666 DUP2 PUSH2 0x12DD JUMP JUMPDEST DUP2 EQ PUSH2 0x1671 JUMPI PUSH1 0x0 DUP1 REVERT JUMPDEST POP JUMP JUMPDEST PUSH2 0x167D DUP2 PUSH2 0x131B JUMP JUMPDEST DUP2 EQ PUSH2 0x1688 JUMPI PUSH1 0x0 DUP1 REVERT JUMPDEST POP JUMP INVALID LOG2 PUSH5 0x6970667358 0x22 SLT KECCAK256 0xCC 0xDA LOG1 DUP4 0xD7 PUSH17 0x95C80439A886F845CD453FB0F084AC3713 0xF8 DUP16 JUMPI CODECOPY ADDRESS 0xD4 0x2C 0xBE 0x5D PUSH5 0x736F6C6343 STOP ADDMOD SMOD STOP CALLER "
				},
				"gasEstimates": {
					"creation": {
						"codeDepositCost": "1165000",
						"executionCost": "infinite",
						"totalCost": "infinite"
					},
					"external": {
						"allowance(address,address)": "infinite",
						"approve(address,uint256)": "infinite",
						"balanceOf(address)": "2841",
						"decimals()": "432",
						"decreaseAllowance(address,uint256)": "infinite",
						"increaseAllowance(address,uint256)": "infinite",
						"locked(address)": "2933",
						"name()": "infinite",
						"symbol()": "infinite",
						"totalSupply()": "2482",
						"transfer(address,uint256)": "infinite",
						"transferFrom(address,address,uint256)": "infinite"
					},
					"internal": {
						"_afterTokenTransfer(address,address,uint256)": "15",
						"_approve(address,address,uint256)": "infinite",
						"_beforeTokenTransfer(address,address,uint256)": "15",
						"_mint(address,uint256)": "infinite",
						"_transfer(address,address,uint256)": "infinite"
					}
				},
				"methodIdentifiers": {
					"allowance(address,address)": "dd62ed3e",
					"approve(address,uint256)": "095ea7b3",
					"balanceOf(address)": "70a08231",
					"decimals()": "313ce567",
					"decreaseAllowance(address,uint256)": "a457c2d7",
					"increaseAllowance(address,uint256)": "39509351",
					"locked(address)": "cbf9fe5f",
					"name()": "06fdde03",
					"symbol()": "95d89b41",
					"totalSupply()": "18160ddd",
					"transfer(address,uint256)": "a9059cbb",
					"transferFrom(address,address,uint256)": "23b872dd"
				}
			},
			"userdoc": {
				"kind": "user",
				"methods": {},
				"version": 1
			}
		}
	}
}