{
	"contracts/tokens/ERBPay.sol": {
		"ERBPay": {
			"abi": [
				{
					"inputs": [],
					"stateMutability": "nonpayable",
					"type": "constructor"
				},
				{
					"anonymous": false,
					"inputs": [
						{
							"indexed": true,
							"internalType": "address",
							"name": "previousOwner",
							"type": "address"
						},
						{
							"indexed": true,
							"internalType": "address",
							"name": "newOwner",
							"type": "address"
						}
					],
					"name": "OwnershipTransferred",
					"type": "event"
				},
				{
					"anonymous": false,
					"inputs": [
						{
							"indexed": true,
							"internalType": "address",
							"name": "sender",
							"type": "address"
						},
						{
							"indexed": false,
							"internalType": "uint256",
							"name": "amount",
							"type": "uint256"
						}
					],
					"name": "PayForOpenExchange",
					"type": "event"
				},
				{
					"anonymous": false,
					"inputs": [
						{
							"indexed": true,
							"internalType": "address",
							"name": "sender",
							"type": "address"
						},
						{
							"indexed": false,
							"internalType": "uint256",
							"name": "amount",
							"type": "uint256"
						}
					],
					"name": "PayForOpenRenew",
					"type": "event"
				},
				{
					"stateMutability": "payable",
					"type": "fallback"
				},
				{
					"inputs": [
						{
							"internalType": "address",
							"name": "addr",
							"type": "address"
						}
					],
					"name": "checkAuth",
					"outputs": [
						{
							"internalType": "uint256",
							"name": "",
							"type": "uint256"
						}
					],
					"stateMutability": "view",
					"type": "function"
				},
				{
					"inputs": [
						{
							"internalType": "address",
							"name": "",
							"type": "address"
						}
					],
					"name": "endTime",
					"outputs": [
						{
							"internalType": "uint256",
							"name": "",
							"type": "uint256"
						}
					],
					"stateMutability": "view",
					"type": "function"
				},
				{
					"inputs": [],
					"name": "otherFeeAddress",
					"outputs": [
						{
							"internalType": "address",
							"name": "",
							"type": "address"
						}
					],
					"stateMutability": "view",
					"type": "function"
				},
				{
					"inputs": [],
					"name": "owner",
					"outputs": [
						{
							"internalType": "address",
							"name": "",
							"type": "address"
						}
					],
					"stateMutability": "view",
					"type": "function"
				},
				{
					"inputs": [],
					"name": "payForRenew",
					"outputs": [],
					"stateMutability": "payable",
					"type": "function"
				},
				{
					"inputs": [],
					"name": "renounceOwnership",
					"outputs": [],
					"stateMutability": "nonpayable",
					"type": "function"
				},
				{
					"inputs": [
						{
							"internalType": "uint256",
							"name": "amount",
							"type": "uint256"
						}
					],
					"name": "setOtherFee",
					"outputs": [],
					"stateMutability": "nonpayable",
					"type": "function"
				},
				{
					"inputs": [
						{
							"internalType": "uint256",
							"name": "amount",
							"type": "uint256"
						}
					],
					"name": "setYearFee",
					"outputs": [],
					"stateMutability": "nonpayable",
					"type": "function"
				},
				{
					"inputs": [
						{
							"internalType": "address",
							"name": "_addr",
							"type": "address"
						}
					],
					"name": "setYearFeeAddress",
					"outputs": [],
					"stateMutability": "nonpayable",
					"type": "function"
				},
				{
					"inputs": [
						{
							"internalType": "address",
							"name": "newOwner",
							"type": "address"
						}
					],
					"name": "transferOwnership",
					"outputs": [],
					"stateMutability": "nonpayable",
					"type": "function"
				},
				{
					"inputs": [],
					"name": "yearFeeAddress",
					"outputs": [
						{
							"internalType": "address",
							"name": "",
							"type": "address"
						}
					],
					"stateMutability": "view",
					"type": "function"
				},
				{
					"stateMutability": "payable",
					"type": "receive"
				}
			],
			"devdoc": {
				"kind": "dev",
				"methods": {
					"owner()": {
						"details": "Returns the address of the current owner."
					},
					"renounceOwnership()": {
						"details": "Leaves the contract without owner. It will not be possible to call `onlyOwner` functions anymore. Can only be called by the current owner. NOTE: Renouncing ownership will leave the contract without an owner, thereby removing any functionality that is only available to the owner."
					},
					"transferOwnership(address)": {
						"details": "Transfers ownership of the contract to a new account (`newOwner`). Can only be called by the current owner."
					}
				},
				"version": 1
			},
			"evm": {
				"assembly": "    /* \"contracts/tokens/ERBPay.sol\":114:1502  contract ERBPay is Ownable{... */\n  mstore(0x40, 0x80)\n    /* \"contracts/tokens/ERBPay.sol\":163:171  200*1e18 */\n  0x0ad78ebc5ac6200000\n    /* \"contracts/tokens/ERBPay.sol\":147:171  uint256 yearFee=200*1e18 */\n  0x01\n  sstore\n    /* \"contracts/tokens/ERBPay.sol\":195:203  100*1e18 */\n  0x056bc75e2d63100000\n    /* \"contracts/tokens/ERBPay.sol\":178:203  uint256 otherFee=100*1e18 */\n  0x02\n  sstore\n    /* \"contracts/tokens/ERBPay.sol\":210:282  address public yearFeeAddress=0x10CEc672c6BB2f6782BEED65987E020902B7bD15 */\n  0x03\n  dup1\n  sload\n  not(sub(shl(0xa0, 0x01), 0x01))\n  swap1\n  dup2\n  and\n    /* \"contracts/tokens/ERBPay.sol\":240:282  0x10CEc672c6BB2f6782BEED65987E020902B7bD15 */\n  0x10cec672c6bb2f6782beed65987e020902b7bd15\n    /* \"contracts/tokens/ERBPay.sol\":210:282  address public yearFeeAddress=0x10CEc672c6BB2f6782BEED65987E020902B7bD15 */\n  or\n  swap1\n  swap2\n  sstore\n    /* \"contracts/tokens/ERBPay.sol\":289:362  address public otherFeeAddress=0xEbE809C70406Fc07e70Bc2c590bC7Dd9Ba9272Ac */\n  0x04\n  dup1\n  sload\n  swap1\n  swap2\n  and\n    /* \"contracts/tokens/ERBPay.sol\":320:362  0xEbE809C70406Fc07e70Bc2c590bC7Dd9Ba9272Ac */\n  0xebe809c70406fc07e70bc2c590bc7dd9ba9272ac\n    /* \"contracts/tokens/ERBPay.sol\":289:362  address public otherFeeAddress=0xEbE809C70406Fc07e70Bc2c590bC7Dd9Ba9272Ac */\n  or\n  swap1\n  sstore\n    /* \"contracts/tokens/ERBPay.sol\":554:577  constructor () {... */\n  callvalue\n  dup1\n  iszero\n  tag_1\n  jumpi\n  0x00\n  dup1\n  revert\ntag_1:\n  pop\n    /* \"@openzeppelin/contracts/access/Ownable.sol\":921:953  _transferOwnership(_msgSender()) */\n  tag_5\n    /* \"@openzeppelin/contracts/utils/Context.sol\":719:729  msg.sender */\n  caller\n    /* \"@openzeppelin/contracts/access/Ownable.sol\":921:939  _transferOwnership */\n  tag_8\n    /* \"@openzeppelin/contracts/access/Ownable.sol\":921:953  _transferOwnership(_msgSender()) */\n  jump\t// in\ntag_5:\n    /* \"contracts/tokens/ERBPay.sol\":114:1502  contract ERBPay is Ownable{... */\n  jump(tag_10)\n    /* \"@openzeppelin/contracts/access/Ownable.sol\":2270:2457  function _transferOwnership(address newOwner) internal virtual {... */\ntag_8:\n    /* \"@openzeppelin/contracts/access/Ownable.sol\":2343:2359  address oldOwner */\n  0x00\n    /* \"@openzeppelin/contracts/access/Ownable.sol\":2362:2368  _owner */\n  dup1\n  sload\n  sub(shl(0xa0, 0x01), 0x01)\n    /* \"@openzeppelin/contracts/access/Ownable.sol\":2378:2395  _owner = newOwner */\n  dup4\n  dup2\n  and\n  not(sub(shl(0xa0, 0x01), 0x01))\n  dup4\n  and\n  dup2\n  or\n  dup5\n  sstore\n    /* \"@openzeppelin/contracts/access/Ownable.sol\":2410:2450  OwnershipTransferred(oldOwner, newOwner) */\n  mload(0x40)\n    /* \"@openzeppelin/contracts/access/Ownable.sol\":2362:2368  _owner */\n  swap2\n  swap1\n  swap3\n  and\n  swap3\n  dup4\n  swap2\n    /* \"@openzeppelin/contracts/access/Ownable.sol\":2410:2450  OwnershipTransferred(oldOwner, newOwner) */\n  0x8be0079c531659141344cd1fd0a4f28419497f9722a3daafe3b4186f6b6457e0\n  swap2\n    /* \"@openzeppelin/contracts/access/Ownable.sol\":2343:2359  address oldOwner */\n  swap1\n    /* \"@openzeppelin/contracts/access/Ownable.sol\":2410:2450  OwnershipTransferred(oldOwner, newOwner) */\n  log3\n    /* \"@openzeppelin/contracts/access/Ownable.sol\":2333:2457  {... */\n  pop\n    /* \"@openzeppelin/contracts/access/Ownable.sol\":2270:2457  function _transferOwnership(address newOwner) internal virtual {... */\n  pop\n  jump\t// out\n    /* \"contracts/tokens/ERBPay.sol\":114:1502  contract ERBPay is Ownable{... */\ntag_10:\n  dataSize(sub_0)\n  dup1\n  dataOffset(sub_0)\n  0x00\n  codecopy\n  0x00\n  return\nstop\n\nsub_0: assembly {\n        /* \"contracts/tokens/ERBPay.sol\":114:1502  contract ERBPay is Ownable{... */\n      mstore(0x40, 0x80)\n      jumpi(tag_1, lt(calldatasize, 0x04))\n      shr(0xe0, calldataload(0x00))\n      dup1\n      0x7ad3c93a\n      gt\n      tag_14\n      jumpi\n      dup1\n      0x7ad3c93a\n      eq\n      tag_8\n      jumpi\n      dup1\n      0x8b68e1fa\n      eq\n      tag_9\n      jumpi\n      dup1\n      0x8da5cb5b\n      eq\n      tag_10\n      jumpi\n      dup1\n      0xaeb0bc79\n      eq\n      tag_11\n      jumpi\n      dup1\n      0xf2c8609e\n      eq\n      tag_12\n      jumpi\n      dup1\n      0xf2fde38b\n      eq\n      tag_13\n      jumpi\n      stop\n    tag_14:\n      dup1\n      0x366a8508\n      eq\n      tag_3\n      jumpi\n      dup1\n      0x4aefdccd\n      eq\n      tag_4\n      jumpi\n      dup1\n      0x4b165090\n      eq\n      tag_5\n      jumpi\n      dup1\n      0x715018a6\n      eq\n      tag_6\n      jumpi\n      dup1\n      0x75a3aae7\n      eq\n      tag_7\n      jumpi\n      stop\n    tag_1:\n      jumpi(tag_2, calldatasize)\n      stop\n    tag_2:\n      stop\n        /* \"contracts/tokens/ERBPay.sol\":289:362  address public otherFeeAddress=0xEbE809C70406Fc07e70Bc2c590bC7Dd9Ba9272Ac */\n    tag_3:\n      callvalue\n      dup1\n      iszero\n      tag_19\n      jumpi\n      0x00\n      dup1\n      revert\n    tag_19:\n      pop\n      sload(0x04)\n      tag_20\n      swap1\n      sub(shl(0xa0, 0x01), 0x01)\n      and\n      dup2\n      jump\n    tag_20:\n      mload(0x40)\n      sub(shl(0xa0, 0x01), 0x01)\n        /* \"#utility.yul\":178:210   */\n      swap1\n      swap2\n      and\n        /* \"#utility.yul\":160:211   */\n      dup2\n      mstore\n        /* \"#utility.yul\":148:150   */\n      0x20\n        /* \"#utility.yul\":133:151   */\n      add\n        /* \"contracts/tokens/ERBPay.sol\":289:362  address public otherFeeAddress=0xEbE809C70406Fc07e70Bc2c590bC7Dd9Ba9272Ac */\n    tag_22:\n      mload(0x40)\n      dup1\n      swap2\n      sub\n      swap1\n      return\n        /* \"contracts/tokens/ERBPay.sol\":369:408  mapping(address=>uint256)public endTime */\n    tag_4:\n      callvalue\n      dup1\n      iszero\n      tag_24\n      jumpi\n      0x00\n      dup1\n      revert\n    tag_24:\n      pop\n      tag_25\n      tag_26\n      calldatasize\n      0x04\n      tag_27\n      jump\t// in\n    tag_26:\n      mstore(0x20, 0x05)\n      0x00\n      swap1\n      dup2\n      mstore\n      0x40\n      swap1\n      keccak256\n      sload\n      dup2\n      jump\n    tag_25:\n      mload(0x40)\n        /* \"#utility.yul\":659:684   */\n      swap1\n      dup2\n      mstore\n        /* \"#utility.yul\":647:649   */\n      0x20\n        /* \"#utility.yul\":632:650   */\n      add\n        /* \"contracts/tokens/ERBPay.sol\":369:408  mapping(address=>uint256)public endTime */\n      tag_22\n        /* \"#utility.yul\":513:690   */\n      jump\n        /* \"contracts/tokens/ERBPay.sol\":1199:1422  function checkAuth(address addr)view public returns(uint256){... */\n    tag_5:\n      callvalue\n      dup1\n      iszero\n      tag_31\n      jumpi\n      0x00\n      dup1\n      revert\n    tag_31:\n      pop\n      tag_25\n      tag_33\n      calldatasize\n      0x04\n      tag_27\n      jump\t// in\n    tag_33:\n      tag_34\n      jump\t// in\n        /* \"@openzeppelin/contracts/access/Ownable.sol\":1668:1769  function renounceOwnership() public virtual onlyOwner {... */\n    tag_6:\n      callvalue\n      dup1\n      iszero\n      tag_36\n      jumpi\n      0x00\n      dup1\n      revert\n    tag_36:\n      pop\n      tag_2\n      tag_38\n      jump\t// in\n        /* \"contracts/tokens/ERBPay.sol\":210:282  address public yearFeeAddress=0x10CEc672c6BB2f6782BEED65987E020902B7bD15 */\n    tag_7:\n      callvalue\n      dup1\n      iszero\n      tag_39\n      jumpi\n      0x00\n      dup1\n      revert\n    tag_39:\n      pop\n      sload(0x03)\n      tag_20\n      swap1\n      sub(shl(0xa0, 0x01), 0x01)\n      and\n      dup2\n      jump\n        /* \"contracts/tokens/ERBPay.sol\":777:876  function setYearFeeAddress(address _addr) external onlyOwner{... */\n    tag_8:\n      callvalue\n      dup1\n      iszero\n      tag_43\n      jumpi\n      0x00\n      dup1\n      revert\n    tag_43:\n      pop\n      tag_2\n      tag_45\n      calldatasize\n      0x04\n      tag_27\n      jump\t// in\n    tag_45:\n      tag_46\n      jump\t// in\n        /* \"contracts/tokens/ERBPay.sol\":884:1151  function payForRenew()external payable{... */\n    tag_9:\n      tag_2\n      tag_48\n      jump\t// in\n        /* \"@openzeppelin/contracts/access/Ownable.sol\":1036:1121  function owner() public view virtual returns (address) {... */\n    tag_10:\n      callvalue\n      dup1\n      iszero\n      tag_49\n      jumpi\n      0x00\n      dup1\n      revert\n    tag_49:\n      pop\n        /* \"@openzeppelin/contracts/access/Ownable.sol\":1082:1089  address */\n      0x00\n        /* \"@openzeppelin/contracts/access/Ownable.sol\":1108:1114  _owner */\n      sload\n      sub(shl(0xa0, 0x01), 0x01)\n      and\n        /* \"@openzeppelin/contracts/access/Ownable.sol\":1036:1121  function owner() public view virtual returns (address) {... */\n      jump(tag_20)\n        /* \"contracts/tokens/ERBPay.sol\":680:769  function setOtherFee(uint256 amount) external onlyOwner{... */\n    tag_11:\n      callvalue\n      dup1\n      iszero\n      tag_53\n      jumpi\n      0x00\n      dup1\n      revert\n    tag_53:\n      pop\n      tag_2\n      tag_55\n      calldatasize\n      0x04\n      tag_56\n      jump\t// in\n    tag_55:\n      tag_57\n      jump\t// in\n        /* \"contracts/tokens/ERBPay.sol\":585:672  function setYearFee(uint256 amount) external onlyOwner{... */\n    tag_12:\n      callvalue\n      dup1\n      iszero\n      tag_58\n      jumpi\n      0x00\n      dup1\n      revert\n    tag_58:\n      pop\n      tag_2\n      tag_60\n      calldatasize\n      0x04\n      tag_56\n      jump\t// in\n    tag_60:\n      tag_61\n      jump\t// in\n        /* \"@openzeppelin/contracts/access/Ownable.sol\":1918:2116  function transferOwnership(address newOwner) public virtual onlyOwner {... */\n    tag_13:\n      callvalue\n      dup1\n      iszero\n      tag_62\n      jumpi\n      0x00\n      dup1\n      revert\n    tag_62:\n      pop\n      tag_2\n      tag_64\n      calldatasize\n      0x04\n      tag_27\n      jump\t// in\n    tag_64:\n      tag_65\n      jump\t// in\n        /* \"contracts/tokens/ERBPay.sol\":1199:1422  function checkAuth(address addr)view public returns(uint256){... */\n    tag_34:\n      sub(shl(0xa0, 0x01), 0x01)\n        /* \"contracts/tokens/ERBPay.sol\":1273:1286  endTime[addr] */\n      dup2\n      and\n        /* \"contracts/tokens/ERBPay.sol\":1251:1258  uint256 */\n      0x00\n        /* \"contracts/tokens/ERBPay.sol\":1273:1286  endTime[addr] */\n      swap1\n      dup2\n      mstore\n        /* \"contracts/tokens/ERBPay.sol\":1273:1280  endTime */\n      0x05\n        /* \"contracts/tokens/ERBPay.sol\":1273:1286  endTime[addr] */\n      0x20\n      mstore\n      0x40\n      dup2\n      keccak256\n      sload\n        /* \"contracts/tokens/ERBPay.sol\":1273:1289  endTime[addr]==0 */\n      dup2\n      sub\n        /* \"contracts/tokens/ERBPay.sol\":1270:1396  if(endTime[addr]==0){... */\n      tag_67\n      jumpi\n      pop\n        /* \"contracts/tokens/ERBPay.sol\":1311:1312  0 */\n      0x00\n      swap2\n        /* \"contracts/tokens/ERBPay.sol\":1199:1422  function checkAuth(address addr)view public returns(uint256){... */\n      swap1\n      pop\n      jump\t// out\n        /* \"contracts/tokens/ERBPay.sol\":1270:1396  if(endTime[addr]==0){... */\n    tag_67:\n      sub(shl(0xa0, 0x01), 0x01)\n        /* \"contracts/tokens/ERBPay.sol\":1332:1345  endTime[addr] */\n      dup3\n      and\n      0x00\n      swap1\n      dup2\n      mstore\n        /* \"contracts/tokens/ERBPay.sol\":1332:1339  endTime */\n      0x05\n        /* \"contracts/tokens/ERBPay.sol\":1332:1345  endTime[addr] */\n      0x20\n      mstore\n      0x40\n      swap1\n      keccak256\n      sload\n        /* \"contracts/tokens/ERBPay.sol\":1346:1361  block.timestamp */\n      timestamp\n      gt\n        /* \"contracts/tokens/ERBPay.sol\":1329:1396  if(endTime[addr]<block.timestamp){... */\n      iszero\n      tag_69\n      jumpi\n      pop\n        /* \"contracts/tokens/ERBPay.sol\":1383:1384  1 */\n      0x01\n      swap2\n        /* \"contracts/tokens/ERBPay.sol\":1199:1422  function checkAuth(address addr)view public returns(uint256){... */\n      swap1\n      pop\n      jump\t// out\n        /* \"contracts/tokens/ERBPay.sol\":1329:1396  if(endTime[addr]<block.timestamp){... */\n    tag_69:\n      pop\n        /* \"contracts/tokens/ERBPay.sol\":1413:1414  2 */\n      0x02\n      swap2\n        /* \"contracts/tokens/ERBPay.sol\":1199:1422  function checkAuth(address addr)view public returns(uint256){... */\n      swap1\n      pop\n      jump\t// out\n        /* \"@openzeppelin/contracts/access/Ownable.sol\":1668:1769  function renounceOwnership() public virtual onlyOwner {... */\n    tag_38:\n        /* \"@openzeppelin/contracts/access/Ownable.sol\":1082:1089  address */\n      0x00\n        /* \"@openzeppelin/contracts/access/Ownable.sol\":1108:1114  _owner */\n      sload\n      sub(shl(0xa0, 0x01), 0x01)\n      and\n        /* \"@openzeppelin/contracts/utils/Context.sol\":719:729  msg.sender */\n      caller\n        /* \"@openzeppelin/contracts/access/Ownable.sol\":1248:1271  owner() == _msgSender() */\n      eq\n        /* \"@openzeppelin/contracts/access/Ownable.sol\":1240:1308  require(owner() == _msgSender(), \"Ownable: caller is not the owner\") */\n      tag_74\n      jumpi\n      mload(0x40)\n      shl(0xe5, 0x461bcd)\n      dup2\n      mstore\n      0x04\n      add\n      tag_75\n      swap1\n      tag_76\n      jump\t// in\n    tag_75:\n      mload(0x40)\n      dup1\n      swap2\n      sub\n      swap1\n      revert\n    tag_74:\n        /* \"@openzeppelin/contracts/access/Ownable.sol\":1732:1762  _transferOwnership(address(0)) */\n      tag_78\n        /* \"@openzeppelin/contracts/access/Ownable.sol\":1759:1760  0 */\n      0x00\n        /* \"@openzeppelin/contracts/access/Ownable.sol\":1732:1750  _transferOwnership */\n      tag_79\n        /* \"@openzeppelin/contracts/access/Ownable.sol\":1732:1762  _transferOwnership(address(0)) */\n      jump\t// in\n    tag_78:\n        /* \"@openzeppelin/contracts/access/Ownable.sol\":1668:1769  function renounceOwnership() public virtual onlyOwner {... */\n      jump\t// out\n        /* \"contracts/tokens/ERBPay.sol\":777:876  function setYearFeeAddress(address _addr) external onlyOwner{... */\n    tag_46:\n        /* \"@openzeppelin/contracts/access/Ownable.sol\":1082:1089  address */\n      0x00\n        /* \"@openzeppelin/contracts/access/Ownable.sol\":1108:1114  _owner */\n      sload\n      sub(shl(0xa0, 0x01), 0x01)\n      and\n        /* \"@openzeppelin/contracts/utils/Context.sol\":719:729  msg.sender */\n      caller\n        /* \"@openzeppelin/contracts/access/Ownable.sol\":1248:1271  owner() == _msgSender() */\n      eq\n        /* \"@openzeppelin/contracts/access/Ownable.sol\":1240:1308  require(owner() == _msgSender(), \"Ownable: caller is not the owner\") */\n      tag_83\n      jumpi\n      mload(0x40)\n      shl(0xe5, 0x461bcd)\n      dup2\n      mstore\n      0x04\n      add\n      tag_75\n      swap1\n      tag_76\n      jump\t// in\n    tag_83:\n        /* \"contracts/tokens/ERBPay.sol\":848:862  yearFeeAddress */\n      0x03\n        /* \"contracts/tokens/ERBPay.sol\":848:868  yearFeeAddress=_addr */\n      dup1\n      sload\n      not(sub(shl(0xa0, 0x01), 0x01))\n      and\n      sub(shl(0xa0, 0x01), 0x01)\n      swap3\n      swap1\n      swap3\n      and\n      swap2\n      swap1\n      swap2\n      or\n      swap1\n      sstore\n        /* \"contracts/tokens/ERBPay.sol\":777:876  function setYearFeeAddress(address _addr) external onlyOwner{... */\n      jump\t// out\n        /* \"contracts/tokens/ERBPay.sol\":884:1151  function payForRenew()external payable{... */\n    tag_48:\n        /* \"contracts/tokens/ERBPay.sol\":953:960  yearFee */\n      sload(0x01)\n        /* \"contracts/tokens/ERBPay.sol\":940:949  msg.value */\n      callvalue\n        /* \"contracts/tokens/ERBPay.sol\":940:960  msg.value == yearFee */\n      eq\n        /* \"contracts/tokens/ERBPay.sol\":932:981  require(msg.value == yearFee,\"msg.value invalid\") */\n      tag_87\n      jumpi\n      mload(0x40)\n      shl(0xe5, 0x461bcd)\n      dup2\n      mstore\n        /* \"#utility.yul\":1443:1445   */\n      0x20\n        /* \"contracts/tokens/ERBPay.sol\":932:981  require(msg.value == yearFee,\"msg.value invalid\") */\n      0x04\n      dup3\n      add\n        /* \"#utility.yul\":1425:1446   */\n      mstore\n        /* \"#utility.yul\":1482:1484   */\n      0x11\n        /* \"#utility.yul\":1462:1480   */\n      0x24\n      dup3\n      add\n        /* \"#utility.yul\":1455:1485   */\n      mstore\n      shl(0x7a, 0x1b5cd9cb9d985b1d59481a5b9d985b1a59)\n        /* \"#utility.yul\":1501:1519   */\n      0x44\n      dup3\n      add\n        /* \"#utility.yul\":1494:1541   */\n      mstore\n        /* \"#utility.yul\":1558:1576   */\n      0x64\n      add\n        /* \"contracts/tokens/ERBPay.sol\":932:981  require(msg.value == yearFee,\"msg.value invalid\") */\n      tag_75\n        /* \"#utility.yul\":1241:1582   */\n      jump\n        /* \"contracts/tokens/ERBPay.sol\":932:981  require(msg.value == yearFee,\"msg.value invalid\") */\n    tag_87:\n        /* \"contracts/tokens/ERBPay.sol\":999:1013  yearFeeAddress */\n      sload(0x03)\n      0x01\n        /* \"contracts/tokens/ERBPay.sol\":1024:1031  yearFee */\n      sload\n        /* \"contracts/tokens/ERBPay.sol\":991:1032  payable(yearFeeAddress).transfer(yearFee) */\n      mload(0x40)\n      sub(shl(0xa0, 0x01), 0x01)\n        /* \"contracts/tokens/ERBPay.sol\":999:1013  yearFeeAddress */\n      swap1\n      swap3\n      and\n      swap2\n        /* \"contracts/tokens/ERBPay.sol\":991:1032  payable(yearFeeAddress).transfer(yearFee) */\n      dup2\n      iszero\n      0x08fc\n      mul\n      swap2\n        /* \"contracts/tokens/ERBPay.sol\":1024:1031  yearFee */\n      swap1\n        /* \"contracts/tokens/ERBPay.sol\":999:1013  yearFeeAddress */\n      0x00\n        /* \"contracts/tokens/ERBPay.sol\":991:1032  payable(yearFeeAddress).transfer(yearFee) */\n      dup2\n        /* \"contracts/tokens/ERBPay.sol\":999:1013  yearFeeAddress */\n      dup2\n        /* \"contracts/tokens/ERBPay.sol\":991:1032  payable(yearFeeAddress).transfer(yearFee) */\n      dup2\n        /* \"contracts/tokens/ERBPay.sol\":1024:1031  yearFee */\n      dup6\n        /* \"contracts/tokens/ERBPay.sol\":999:1013  yearFeeAddress */\n      dup9\n        /* \"contracts/tokens/ERBPay.sol\":991:1032  payable(yearFeeAddress).transfer(yearFee) */\n      dup9\n      call\n      swap4\n      pop\n      pop\n      pop\n      pop\n      iszero\n      dup1\n      iszero\n      tag_91\n      jumpi\n      returndatasize\n      0x00\n      dup1\n      returndatacopy\n      revert(0x00, returndatasize)\n    tag_91:\n      pop\n        /* \"contracts/tokens/ERBPay.sol\":1070:1080  msg.sender */\n      caller\n        /* \"contracts/tokens/ERBPay.sol\":1062:1081  endTime[msg.sender] */\n      0x00\n      swap1\n      dup2\n      mstore\n        /* \"contracts/tokens/ERBPay.sol\":1062:1069  endTime */\n      0x05\n        /* \"contracts/tokens/ERBPay.sol\":1062:1081  endTime[msg.sender] */\n      0x20\n      mstore\n      0x40\n      swap1\n      keccak256\n      sload\n        /* \"contracts/tokens/ERBPay.sol\":1062:1091  endTime[msg.sender]+86400*365 */\n      tag_92\n      swap1\n        /* \"contracts/tokens/ERBPay.sol\":1082:1091  86400*365 */\n      0x01e13380\n        /* \"contracts/tokens/ERBPay.sol\":1062:1091  endTime[msg.sender]+86400*365 */\n      tag_93\n      jump\t// in\n    tag_92:\n        /* \"contracts/tokens/ERBPay.sol\":1050:1060  msg.sender */\n      caller\n        /* \"contracts/tokens/ERBPay.sol\":1042:1061  endTime[msg.sender] */\n      0x00\n      dup2\n      dup2\n      mstore\n        /* \"contracts/tokens/ERBPay.sol\":1042:1049  endTime */\n      0x05\n        /* \"contracts/tokens/ERBPay.sol\":1042:1061  endTime[msg.sender] */\n      0x20\n      mstore\n      0x40\n      swap1\n      dup2\n      swap1\n      keccak256\n        /* \"contracts/tokens/ERBPay.sol\":1042:1091  endTime[msg.sender]=endTime[msg.sender]+86400*365 */\n      swap3\n      swap1\n      swap3\n      sstore\n        /* \"contracts/tokens/ERBPay.sol\":1106:1143  PayForOpenRenew(msg.sender,msg.value) */\n      swap1\n      mload\n      0xe777ae9d65766408c351d743ed88284c7719883019e08000af32400646abcff8\n      swap1\n      tag_94\n      swap1\n        /* \"contracts/tokens/ERBPay.sol\":1133:1142  msg.value */\n      callvalue\n        /* \"#utility.yul\":659:684   */\n      dup2\n      mstore\n        /* \"#utility.yul\":647:649   */\n      0x20\n        /* \"#utility.yul\":632:650   */\n      add\n      swap1\n        /* \"#utility.yul\":513:690   */\n      jump\n        /* \"contracts/tokens/ERBPay.sol\":1106:1143  PayForOpenRenew(msg.sender,msg.value) */\n    tag_94:\n      mload(0x40)\n      dup1\n      swap2\n      sub\n      swap1\n      log2\n        /* \"contracts/tokens/ERBPay.sol\":884:1151  function payForRenew()external payable{... */\n      jump\t// out\n        /* \"contracts/tokens/ERBPay.sol\":680:769  function setOtherFee(uint256 amount) external onlyOwner{... */\n    tag_57:\n        /* \"@openzeppelin/contracts/access/Ownable.sol\":1082:1089  address */\n      0x00\n        /* \"@openzeppelin/contracts/access/Ownable.sol\":1108:1114  _owner */\n      sload\n      sub(shl(0xa0, 0x01), 0x01)\n      and\n        /* \"@openzeppelin/contracts/utils/Context.sol\":719:729  msg.sender */\n      caller\n        /* \"@openzeppelin/contracts/access/Ownable.sol\":1248:1271  owner() == _msgSender() */\n      eq\n        /* \"@openzeppelin/contracts/access/Ownable.sol\":1240:1308  require(owner() == _msgSender(), \"Ownable: caller is not the owner\") */\n      tag_99\n      jumpi\n      mload(0x40)\n      shl(0xe5, 0x461bcd)\n      dup2\n      mstore\n      0x04\n      add\n      tag_75\n      swap1\n      tag_76\n      jump\t// in\n    tag_99:\n        /* \"contracts/tokens/ERBPay.sol\":746:754  otherFee */\n      0x02\n        /* \"contracts/tokens/ERBPay.sol\":746:761  otherFee=amount */\n      sstore\n        /* \"contracts/tokens/ERBPay.sol\":680:769  function setOtherFee(uint256 amount) external onlyOwner{... */\n      jump\t// out\n        /* \"contracts/tokens/ERBPay.sol\":585:672  function setYearFee(uint256 amount) external onlyOwner{... */\n    tag_61:\n        /* \"@openzeppelin/contracts/access/Ownable.sol\":1082:1089  address */\n      0x00\n        /* \"@openzeppelin/contracts/access/Ownable.sol\":1108:1114  _owner */\n      sload\n      sub(shl(0xa0, 0x01), 0x01)\n      and\n        /* \"@openzeppelin/contracts/utils/Context.sol\":719:729  msg.sender */\n      caller\n        /* \"@openzeppelin/contracts/access/Ownable.sol\":1248:1271  owner() == _msgSender() */\n      eq\n        /* \"@openzeppelin/contracts/access/Ownable.sol\":1240:1308  require(owner() == _msgSender(), \"Ownable: caller is not the owner\") */\n      tag_105\n      jumpi\n      mload(0x40)\n      shl(0xe5, 0x461bcd)\n      dup2\n      mstore\n      0x04\n      add\n      tag_75\n      swap1\n      tag_76\n      jump\t// in\n    tag_105:\n        /* \"contracts/tokens/ERBPay.sol\":650:657  yearFee */\n      0x01\n        /* \"contracts/tokens/ERBPay.sol\":650:664  yearFee=amount */\n      sstore\n        /* \"contracts/tokens/ERBPay.sol\":585:672  function setYearFee(uint256 amount) external onlyOwner{... */\n      jump\t// out\n        /* \"@openzeppelin/contracts/access/Ownable.sol\":1918:2116  function transferOwnership(address newOwner) public virtual onlyOwner {... */\n    tag_65:\n        /* \"@openzeppelin/contracts/access/Ownable.sol\":1082:1089  address */\n      0x00\n        /* \"@openzeppelin/contracts/access/Ownable.sol\":1108:1114  _owner */\n      sload\n      sub(shl(0xa0, 0x01), 0x01)\n      and\n        /* \"@openzeppelin/contracts/utils/Context.sol\":719:729  msg.sender */\n      caller\n        /* \"@openzeppelin/contracts/access/Ownable.sol\":1248:1271  owner() == _msgSender() */\n      eq\n        /* \"@openzeppelin/contracts/access/Ownable.sol\":1240:1308  require(owner() == _msgSender(), \"Ownable: caller is not the owner\") */\n      tag_111\n      jumpi\n      mload(0x40)\n      shl(0xe5, 0x461bcd)\n      dup2\n      mstore\n      0x04\n      add\n      tag_75\n      swap1\n      tag_76\n      jump\t// in\n    tag_111:\n      sub(shl(0xa0, 0x01), 0x01)\n        /* \"@openzeppelin/contracts/access/Ownable.sol\":2006:2028  newOwner != address(0) */\n      dup2\n      and\n        /* \"@openzeppelin/contracts/access/Ownable.sol\":1998:2071  require(newOwner != address(0), \"Ownable: new owner is the zero address\") */\n      tag_114\n      jumpi\n      mload(0x40)\n      shl(0xe5, 0x461bcd)\n      dup2\n      mstore\n        /* \"#utility.yul\":2019:2021   */\n      0x20\n        /* \"@openzeppelin/contracts/access/Ownable.sol\":1998:2071  require(newOwner != address(0), \"Ownable: new owner is the zero address\") */\n      0x04\n      dup3\n      add\n        /* \"#utility.yul\":2001:2022   */\n      mstore\n        /* \"#utility.yul\":2058:2060   */\n      0x26\n        /* \"#utility.yul\":2038:2056   */\n      0x24\n      dup3\n      add\n        /* \"#utility.yul\":2031:2061   */\n      mstore\n        /* \"#utility.yul\":2097:2131   */\n      0x4f776e61626c653a206e6577206f776e657220697320746865207a65726f2061\n        /* \"#utility.yul\":2077:2095   */\n      0x44\n      dup3\n      add\n        /* \"#utility.yul\":2070:2132   */\n      mstore\n      shl(0xd0, 0x646472657373)\n        /* \"#utility.yul\":2148:2166   */\n      0x64\n      dup3\n      add\n        /* \"#utility.yul\":2141:2177   */\n      mstore\n        /* \"#utility.yul\":2194:2213   */\n      0x84\n      add\n        /* \"@openzeppelin/contracts/access/Ownable.sol\":1998:2071  require(newOwner != address(0), \"Ownable: new owner is the zero address\") */\n      tag_75\n        /* \"#utility.yul\":1817:2219   */\n      jump\n        /* \"@openzeppelin/contracts/access/Ownable.sol\":1998:2071  require(newOwner != address(0), \"Ownable: new owner is the zero address\") */\n    tag_114:\n        /* \"@openzeppelin/contracts/access/Ownable.sol\":2081:2109  _transferOwnership(newOwner) */\n      tag_117\n        /* \"@openzeppelin/contracts/access/Ownable.sol\":2100:2108  newOwner */\n      dup2\n        /* \"@openzeppelin/contracts/access/Ownable.sol\":2081:2099  _transferOwnership */\n      tag_79\n        /* \"@openzeppelin/contracts/access/Ownable.sol\":2081:2109  _transferOwnership(newOwner) */\n      jump\t// in\n    tag_117:\n        /* \"@openzeppelin/contracts/access/Ownable.sol\":1918:2116  function transferOwnership(address newOwner) public virtual onlyOwner {... */\n      pop\n      jump\t// out\n        /* \"@openzeppelin/contracts/access/Ownable.sol\":2270:2457  function _transferOwnership(address newOwner) internal virtual {... */\n    tag_79:\n        /* \"@openzeppelin/contracts/access/Ownable.sol\":2343:2359  address oldOwner */\n      0x00\n        /* \"@openzeppelin/contracts/access/Ownable.sol\":2362:2368  _owner */\n      dup1\n      sload\n      sub(shl(0xa0, 0x01), 0x01)\n        /* \"@openzeppelin/contracts/access/Ownable.sol\":2378:2395  _owner = newOwner */\n      dup4\n      dup2\n      and\n      not(sub(shl(0xa0, 0x01), 0x01))\n      dup4\n      and\n      dup2\n      or\n      dup5\n      sstore\n        /* \"@openzeppelin/contracts/access/Ownable.sol\":2410:2450  OwnershipTransferred(oldOwner, newOwner) */\n      mload(0x40)\n        /* \"@openzeppelin/contracts/access/Ownable.sol\":2362:2368  _owner */\n      swap2\n      swap1\n      swap3\n      and\n      swap3\n      dup4\n      swap2\n        /* \"@openzeppelin/contracts/access/Ownable.sol\":2410:2450  OwnershipTransferred(oldOwner, newOwner) */\n      0x8be0079c531659141344cd1fd0a4f28419497f9722a3daafe3b4186f6b6457e0\n      swap2\n        /* \"@openzeppelin/contracts/access/Ownable.sol\":2343:2359  address oldOwner */\n      swap1\n        /* \"@openzeppelin/contracts/access/Ownable.sol\":2410:2450  OwnershipTransferred(oldOwner, newOwner) */\n      log3\n        /* \"@openzeppelin/contracts/access/Ownable.sol\":2333:2457  {... */\n      pop\n        /* \"@openzeppelin/contracts/access/Ownable.sol\":2270:2457  function _transferOwnership(address newOwner) internal virtual {... */\n      pop\n      jump\t// out\n        /* \"#utility.yul\":222:508   */\n    tag_27:\n        /* \"#utility.yul\":281:287   */\n      0x00\n        /* \"#utility.yul\":334:336   */\n      0x20\n        /* \"#utility.yul\":322:331   */\n      dup3\n        /* \"#utility.yul\":313:320   */\n      dup5\n        /* \"#utility.yul\":309:332   */\n      sub\n        /* \"#utility.yul\":305:337   */\n      slt\n        /* \"#utility.yul\":302:354   */\n      iszero\n      tag_123\n      jumpi\n        /* \"#utility.yul\":350:351   */\n      0x00\n        /* \"#utility.yul\":347:348   */\n      dup1\n        /* \"#utility.yul\":340:352   */\n      revert\n        /* \"#utility.yul\":302:354   */\n    tag_123:\n        /* \"#utility.yul\":376:399   */\n      dup2\n      calldataload\n      sub(shl(0xa0, 0x01), 0x01)\n        /* \"#utility.yul\":428:459   */\n      dup2\n      and\n        /* \"#utility.yul\":418:460   */\n      dup2\n      eq\n        /* \"#utility.yul\":408:478   */\n      tag_124\n      jumpi\n        /* \"#utility.yul\":474:475   */\n      0x00\n        /* \"#utility.yul\":471:472   */\n      dup1\n        /* \"#utility.yul\":464:476   */\n      revert\n        /* \"#utility.yul\":408:478   */\n    tag_124:\n        /* \"#utility.yul\":497:502   */\n      swap4\n        /* \"#utility.yul\":222:508   */\n      swap3\n      pop\n      pop\n      pop\n      jump\t// out\n        /* \"#utility.yul\":695:875   */\n    tag_56:\n        /* \"#utility.yul\":754:760   */\n      0x00\n        /* \"#utility.yul\":807:809   */\n      0x20\n        /* \"#utility.yul\":795:804   */\n      dup3\n        /* \"#utility.yul\":786:793   */\n      dup5\n        /* \"#utility.yul\":782:805   */\n      sub\n        /* \"#utility.yul\":778:810   */\n      slt\n        /* \"#utility.yul\":775:827   */\n      iszero\n      tag_127\n      jumpi\n        /* \"#utility.yul\":823:824   */\n      0x00\n        /* \"#utility.yul\":820:821   */\n      dup1\n        /* \"#utility.yul\":813:825   */\n      revert\n        /* \"#utility.yul\":775:827   */\n    tag_127:\n      pop\n        /* \"#utility.yul\":846:869   */\n      calldataload\n      swap2\n        /* \"#utility.yul\":695:875   */\n      swap1\n      pop\n      jump\t// out\n        /* \"#utility.yul\":880:1236   */\n    tag_76:\n        /* \"#utility.yul\":1082:1084   */\n      0x20\n        /* \"#utility.yul\":1064:1085   */\n      dup1\n      dup3\n      mstore\n        /* \"#utility.yul\":1101:1119   */\n      dup2\n      dup2\n      add\n        /* \"#utility.yul\":1094:1124   */\n      mstore\n        /* \"#utility.yul\":1160:1194   */\n      0x4f776e61626c653a2063616c6c6572206973206e6f7420746865206f776e6572\n        /* \"#utility.yul\":1155:1157   */\n      0x40\n        /* \"#utility.yul\":1140:1158   */\n      dup3\n      add\n        /* \"#utility.yul\":1133:1195   */\n      mstore\n        /* \"#utility.yul\":1227:1229   */\n      0x60\n        /* \"#utility.yul\":1212:1230   */\n      add\n      swap1\n        /* \"#utility.yul\":880:1236   */\n      jump\t// out\n        /* \"#utility.yul\":1587:1812   */\n    tag_93:\n        /* \"#utility.yul\":1627:1630   */\n      0x00\n        /* \"#utility.yul\":1658:1659   */\n      dup3\n        /* \"#utility.yul\":1654:1660   */\n      not\n        /* \"#utility.yul\":1651:1652   */\n      dup3\n        /* \"#utility.yul\":1648:1661   */\n      gt\n        /* \"#utility.yul\":1645:1781   */\n      iszero\n      tag_131\n      jumpi\n        /* \"#utility.yul\":1703:1713   */\n      0x4e487b71\n        /* \"#utility.yul\":1698:1701   */\n      0xe0\n        /* \"#utility.yul\":1694:1714   */\n      shl\n        /* \"#utility.yul\":1691:1692   */\n      0x00\n        /* \"#utility.yul\":1684:1715   */\n      mstore\n        /* \"#utility.yul\":1738:1742   */\n      0x11\n        /* \"#utility.yul\":1735:1736   */\n      0x04\n        /* \"#utility.yul\":1728:1743   */\n      mstore\n        /* \"#utility.yul\":1766:1770   */\n      0x24\n        /* \"#utility.yul\":1763:1764   */\n      0x00\n        /* \"#utility.yul\":1756:1771   */\n      revert\n        /* \"#utility.yul\":1645:1781   */\n    tag_131:\n      pop\n        /* \"#utility.yul\":1797:1806   */\n      add\n      swap1\n        /* \"#utility.yul\":1587:1812   */\n      jump\t// out\n\n    auxdata: 0xa2646970667358221220eb5afb386f74d9790e20cbab83fd8a72c792e299e4f4e560d9780d933a0cfecb64736f6c634300080d0033\n}\n",
				"bytecode": {
					"linkReferences": {},
					"object": "6080604052680ad78ebc5ac620000060015568056bc75e2d63100000600255600380546001600160a01b03199081167310cec672c6bb2f6782beed65987e020902b7bd15179091556004805490911673ebe809c70406fc07e70bc2c590bc7dd9ba9272ac17905534801561007257600080fd5b5061007c33610081565b6100d1565b600080546001600160a01b038381166001600160a01b0319831681178455604051919092169283917f8be0079c531659141344cd1fd0a4f28419497f9722a3daafe3b4186f6b6457e09190a35050565b61060b806100e06000396000f3fe60806040526004361061009a5760003560e01c80637ad3c93a116100615780637ad3c93a146101705780638b68e1fa146101905780638da5cb5b14610198578063aeb0bc79146101b6578063f2c8609e146101d6578063f2fde38b146101f657005b8063366a8508146100a35780634aefdccd146100e05780634b1650901461011b578063715018a61461013b57806375a3aae71461015057005b366100a157005b005b3480156100af57600080fd5b506004546100c3906001600160a01b031681565b6040516001600160a01b0390911681526020015b60405180910390f35b3480156100ec57600080fd5b5061010d6100fb366004610531565b60056020526000908152604090205481565b6040519081526020016100d7565b34801561012757600080fd5b5061010d610136366004610531565b610216565b34801561014757600080fd5b506100a161026d565b34801561015c57600080fd5b506003546100c3906001600160a01b031681565b34801561017c57600080fd5b506100a161018b366004610531565b6102ac565b6100a16102f8565b3480156101a457600080fd5b506000546001600160a01b03166100c3565b3480156101c257600080fd5b506100a16101d1366004610561565b6103e8565b3480156101e257600080fd5b506100a16101f1366004610561565b610417565b34801561020257600080fd5b506100a1610211366004610531565b610446565b6001600160a01b038116600090815260056020526040812054810361023d57506000919050565b6001600160a01b03821660009081526005602052604090205442111561026557506001919050565b506002919050565b6000546001600160a01b031633146102a05760405162461bcd60e51b81526004016102979061057a565b60405180910390fd5b6102aa60006104e1565b565b6000546001600160a01b031633146102d65760405162461bcd60e51b81526004016102979061057a565b600380546001600160a01b0319166001600160a01b0392909216919091179055565b600154341461033d5760405162461bcd60e51b81526020600482015260116024820152701b5cd9cb9d985b1d59481a5b9d985b1a59607a1b6044820152606401610297565b6003546001546040516001600160a01b039092169181156108fc0291906000818181858888f19350505050158015610379573d6000803e3d6000fd5b5033600090815260056020526040902054610398906301e133806105af565b33600081815260056020526040908190209290925590517fe777ae9d65766408c351d743ed88284c7719883019e08000af32400646abcff8906103de9034815260200190565b60405180910390a2565b6000546001600160a01b031633146104125760405162461bcd60e51b81526004016102979061057a565b600255565b6000546001600160a01b031633146104415760405162461bcd60e51b81526004016102979061057a565b600155565b6000546001600160a01b031633146104705760405162461bcd60e51b81526004016102979061057a565b6001600160a01b0381166104d55760405162461bcd60e51b815260206004820152602660248201527f4f776e61626c653a206e6577206f776e657220697320746865207a65726f206160448201526564647265737360d01b6064820152608401610297565b6104de816104e1565b50565b600080546001600160a01b038381166001600160a01b0319831681178455604051919092169283917f8be0079c531659141344cd1fd0a4f28419497f9722a3daafe3b4186f6b6457e09190a35050565b60006020828403121561054357600080fd5b81356001600160a01b038116811461055a57600080fd5b9392505050565b60006020828403121561057357600080fd5b5035919050565b6020808252818101527f4f776e61626c653a2063616c6c6572206973206e6f7420746865206f776e6572604082015260600190565b600082198211156105d057634e487b7160e01b600052601160045260246000fd5b50019056fea2646970667358221220eb5afb386f74d9790e20cbab83fd8a72c792e299e4f4e560d9780d933a0cfecb64736f6c634300080d0033",
					"opcodes": "PUSH1 0x80 PUSH1 0x40 MSTORE PUSH9 0xAD78EBC5AC6200000 PUSH1 0x1 SSTORE PUSH9 0x56BC75E2D63100000 PUSH1 0x2 SSTORE PUSH1 0x3 DUP1 SLOAD PUSH1 0x1 PUSH1 0x1 PUSH1 0xA0 SHL SUB NOT SWAP1 DUP2 AND PUSH20 0x10CEC672C6BB2F6782BEED65987E020902B7BD15 OR SWAP1 SWAP2 SSTORE PUSH1 0x4 DUP1 SLOAD SWAP1 SWAP2 AND PUSH20 0xEBE809C70406FC07E70BC2C590BC7DD9BA9272AC OR SWAP1 SSTORE CALLVALUE DUP1 ISZERO PUSH2 0x72 JUMPI PUSH1 0x0 DUP1 REVERT JUMPDEST POP PUSH2 0x7C CALLER PUSH2 0x81 JUMP JUMPDEST PUSH2 0xD1 JUMP JUMPDEST PUSH1 0x0 DUP1 SLOAD PUSH1 0x1 PUSH1 0x1 PUSH1 0xA0 SHL SUB DUP4 DUP2 AND PUSH1 0x1 PUSH1 0x1 PUSH1 0xA0 SHL SUB NOT DUP4 AND DUP2 OR DUP5 SSTORE PUSH1 0x40 MLOAD SWAP2 SWAP1 SWAP3 AND SWAP3 DUP4 SWAP2 PUSH32 0x8BE0079C531659141344CD1FD0A4F28419497F9722A3DAAFE3B4186F6B6457E0 SWAP2 SWAP1 LOG3 POP POP JUMP JUMPDEST PUSH2 0x60B DUP1 PUSH2 0xE0 PUSH1 0x0 CODECOPY PUSH1 0x0 RETURN INVALID PUSH1 0x80 PUSH1 0x40 MSTORE PUSH1 0x4 CALLDATASIZE LT PUSH2 0x9A JUMPI PUSH1 0x0 CALLDATALOAD PUSH1 0xE0 SHR DUP1 PUSH4 0x7AD3C93A GT PUSH2 0x61 JUMPI DUP1 PUSH4 0x7AD3C93A EQ PUSH2 0x170 JUMPI DUP1 PUSH4 0x8B68E1FA EQ PUSH2 0x190 JUMPI DUP1 PUSH4 0x8DA5CB5B EQ PUSH2 0x198 JUMPI DUP1 PUSH4 0xAEB0BC79 EQ PUSH2 0x1B6 JUMPI DUP1 PUSH4 0xF2C8609E EQ PUSH2 0x1D6 JUMPI DUP1 PUSH4 0xF2FDE38B EQ PUSH2 0x1F6 JUMPI STOP JUMPDEST DUP1 PUSH4 0x366A8508 EQ PUSH2 0xA3 JUMPI DUP1 PUSH4 0x4AEFDCCD EQ PUSH2 0xE0 JUMPI DUP1 PUSH4 0x4B165090 EQ PUSH2 0x11B JUMPI DUP1 PUSH4 0x715018A6 EQ PUSH2 0x13B JUMPI DUP1 PUSH4 0x75A3AAE7 EQ PUSH2 0x150 JUMPI STOP JUMPDEST CALLDATASIZE PUSH2 0xA1 JUMPI STOP JUMPDEST STOP JUMPDEST CALLVALUE DUP1 ISZERO PUSH2 0xAF JUMPI PUSH1 0x0 DUP1 REVERT JUMPDEST POP PUSH1 0x4 SLOAD PUSH2 0xC3 SWAP1 PUSH1 0x1 PUSH1 0x1 PUSH1 0xA0 SHL SUB AND DUP2 JUMP JUMPDEST PUSH1 0x40 MLOAD PUSH1 0x1 PUSH1 0x1 PUSH1 0xA0 SHL SUB SWAP1 SWAP2 AND DUP2 MSTORE PUSH1 0x20 ADD JUMPDEST PUSH1 0x40 MLOAD DUP1 SWAP2 SUB SWAP1 RETURN JUMPDEST CALLVALUE DUP1 ISZERO PUSH2 0xEC JUMPI PUSH1 0x0 DUP1 REVERT JUMPDEST POP PUSH2 0x10D PUSH2 0xFB CALLDATASIZE PUSH1 0x4 PUSH2 0x531 JUMP JUMPDEST PUSH1 0x5 PUSH1 0x20 MSTORE PUSH1 0x0 SWAP1 DUP2 MSTORE PUSH1 0x40 SWAP1 KECCAK256 SLOAD DUP2 JUMP JUMPDEST PUSH1 0x40 MLOAD SWAP1 DUP2 MSTORE PUSH1 0x20 ADD PUSH2 0xD7 JUMP JUMPDEST CALLVALUE DUP1 ISZERO PUSH2 0x127 JUMPI PUSH1 0x0 DUP1 REVERT JUMPDEST POP PUSH2 0x10D PUSH2 0x136 CALLDATASIZE PUSH1 0x4 PUSH2 0x531 JUMP JUMPDEST PUSH2 0x216 JUMP JUMPDEST CALLVALUE DUP1 ISZERO PUSH2 0x147 JUMPI PUSH1 0x0 DUP1 REVERT JUMPDEST POP PUSH2 0xA1 PUSH2 0x26D JUMP JUMPDEST CALLVALUE DUP1 ISZERO PUSH2 0x15C JUMPI PUSH1 0x0 DUP1 REVERT JUMPDEST POP PUSH1 0x3 SLOAD PUSH2 0xC3 SWAP1 PUSH1 0x1 PUSH1 0x1 PUSH1 0xA0 SHL SUB AND DUP2 JUMP JUMPDEST CALLVALUE DUP1 ISZERO PUSH2 0x17C JUMPI PUSH1 0x0 DUP1 REVERT JUMPDEST POP PUSH2 0xA1 PUSH2 0x18B CALLDATASIZE PUSH1 0x4 PUSH2 0x531 JUMP JUMPDEST PUSH2 0x2AC JUMP JUMPDEST PUSH2 0xA1 PUSH2 0x2F8 JUMP JUMPDEST CALLVALUE DUP1 ISZERO PUSH2 0x1A4 JUMPI PUSH1 0x0 DUP1 REVERT JUMPDEST POP PUSH1 0x0 SLOAD PUSH1 0x1 PUSH1 0x1 PUSH1 0xA0 SHL SUB AND PUSH2 0xC3 JUMP JUMPDEST CALLVALUE DUP1 ISZERO PUSH2 0x1C2 JUMPI PUSH1 0x0 DUP1 REVERT JUMPDEST POP PUSH2 0xA1 PUSH2 0x1D1 CALLDATASIZE PUSH1 0x4 PUSH2 0x561 JUMP JUMPDEST PUSH2 0x3E8 JUMP JUMPDEST CALLVALUE DUP1 ISZERO PUSH2 0x1E2 JUMPI PUSH1 0x0 DUP1 REVERT JUMPDEST POP PUSH2 0xA1 PUSH2 0x1F1 CALLDATASIZE PUSH1 0x4 PUSH2 0x561 JUMP JUMPDEST PUSH2 0x417 JUMP JUMPDEST CALLVALUE DUP1 ISZERO PUSH2 0x202 JUMPI PUSH1 0x0 DUP1 REVERT JUMPDEST POP PUSH2 0xA1 PUSH2 0x211 CALLDATASIZE PUSH1 0x4 PUSH2 0x531 JUMP JUMPDEST PUSH2 0x446 JUMP JUMPDEST PUSH1 0x1 PUSH1 0x1 PUSH1 0xA0 SHL SUB DUP2 AND PUSH1 0x0 SWAP1 DUP2 MSTORE PUSH1 0x5 PUSH1 0x20 MSTORE PUSH1 0x40 DUP2 KECCAK256 SLOAD DUP2 SUB PUSH2 0x23D JUMPI POP PUSH1 0x0 SWAP2 SWAP1 POP JUMP JUMPDEST PUSH1 0x1 PUSH1 0x1 PUSH1 0xA0 SHL SUB DUP3 AND PUSH1 0x0 SWAP1 DUP2 MSTORE PUSH1 0x5 PUSH1 0x20 MSTORE PUSH1 0x40 SWAP1 KECCAK256 SLOAD TIMESTAMP GT ISZERO PUSH2 0x265 JUMPI POP PUSH1 0x1 SWAP2 SWAP1 POP JUMP JUMPDEST POP PUSH1 0x2 SWAP2 SWAP1 POP JUMP JUMPDEST PUSH1 0x0 SLOAD PUSH1 0x1 PUSH1 0x1 PUSH1 0xA0 SHL SUB AND CALLER EQ PUSH2 0x2A0 JUMPI PUSH1 0x40 MLOAD PUSH3 0x461BCD PUSH1 0xE5 SHL DUP2 MSTORE PUSH1 0x4 ADD PUSH2 0x297 SWAP1 PUSH2 0x57A JUMP JUMPDEST PUSH1 0x40 MLOAD DUP1 SWAP2 SUB SWAP1 REVERT JUMPDEST PUSH2 0x2AA PUSH1 0x0 PUSH2 0x4E1 JUMP JUMPDEST JUMP JUMPDEST PUSH1 0x0 SLOAD PUSH1 0x1 PUSH1 0x1 PUSH1 0xA0 SHL SUB AND CALLER EQ PUSH2 0x2D6 JUMPI PUSH1 0x40 MLOAD PUSH3 0x461BCD PUSH1 0xE5 SHL DUP2 MSTORE PUSH1 0x4 ADD PUSH2 0x297 SWAP1 PUSH2 0x57A JUMP JUMPDEST PUSH1 0x3 DUP1 SLOAD PUSH1 0x1 PUSH1 0x1 PUSH1 0xA0 SHL SUB NOT AND PUSH1 0x1 PUSH1 0x1 PUSH1 0xA0 SHL SUB SWAP3 SWAP1 SWAP3 AND SWAP2 SWAP1 SWAP2 OR SWAP1 SSTORE JUMP JUMPDEST PUSH1 0x1 SLOAD CALLVALUE EQ PUSH2 0x33D JUMPI PUSH1 0x40 MLOAD PUSH3 0x461BCD PUSH1 0xE5 SHL DUP2 MSTORE PUSH1 0x20 PUSH1 0x4 DUP3 ADD MSTORE PUSH1 0x11 PUSH1 0x24 DUP3 ADD MSTORE PUSH17 0x1B5CD9CB9D985B1D59481A5B9D985B1A59 PUSH1 0x7A SHL PUSH1 0x44 DUP3 ADD MSTORE PUSH1 0x64 ADD PUSH2 0x297 JUMP JUMPDEST PUSH1 0x3 SLOAD PUSH1 0x1 SLOAD PUSH1 0x40 MLOAD PUSH1 0x1 PUSH1 0x1 PUSH1 0xA0 SHL SUB SWAP1 SWAP3 AND SWAP2 DUP2 ISZERO PUSH2 0x8FC MUL SWAP2 SWAP1 PUSH1 0x0 DUP2 DUP2 DUP2 DUP6 DUP9 DUP9 CALL SWAP4 POP POP POP POP ISZERO DUP1 ISZERO PUSH2 0x379 JUMPI RETURNDATASIZE PUSH1 0x0 DUP1 RETURNDATACOPY RETURNDATASIZE PUSH1 0x0 REVERT JUMPDEST POP CALLER PUSH1 0x0 SWAP1 DUP2 MSTORE PUSH1 0x5 PUSH1 0x20 MSTORE PUSH1 0x40 SWAP1 KECCAK256 SLOAD PUSH2 0x398 SWAP1 PUSH4 0x1E13380 PUSH2 0x5AF JUMP JUMPDEST CALLER PUSH1 0x0 DUP2 DUP2 MSTORE PUSH1 0x5 PUSH1 0x20 MSTORE PUSH1 0x40 SWAP1 DUP2 SWAP1 KECCAK256 SWAP3 SWAP1 SWAP3 SSTORE SWAP1 MLOAD PUSH32 0xE777AE9D65766408C351D743ED88284C7719883019E08000AF32400646ABCFF8 SWAP1 PUSH2 0x3DE SWAP1 CALLVALUE DUP2 MSTORE PUSH1 0x20 ADD SWAP1 JUMP JUMPDEST PUSH1 0x40 MLOAD DUP1 SWAP2 SUB SWAP1 LOG2 JUMP JUMPDEST PUSH1 0x0 SLOAD PUSH1 0x1 PUSH1 0x1 PUSH1 0xA0 SHL SUB AND CALLER EQ PUSH2 0x412 JUMPI PUSH1 0x40 MLOAD PUSH3 0x461BCD PUSH1 0xE5 SHL DUP2 MSTORE PUSH1 0x4 ADD PUSH2 0x297 SWAP1 PUSH2 0x57A JUMP JUMPDEST PUSH1 0x2 SSTORE JUMP JUMPDEST PUSH1 0x0 SLOAD PUSH1 0x1 PUSH1 0x1 PUSH1 0xA0 SHL SUB AND CALLER EQ PUSH2 0x441 JUMPI PUSH1 0x40 MLOAD PUSH3 0x461BCD PUSH1 0xE5 SHL DUP2 MSTORE PUSH1 0x4 ADD PUSH2 0x297 SWAP1 PUSH2 0x57A JUMP JUMPDEST PUSH1 0x1 SSTORE JUMP JUMPDEST PUSH1 0x0 SLOAD PUSH1 0x1 PUSH1 0x1 PUSH1 0xA0 SHL SUB AND CALLER EQ PUSH2 0x470 JUMPI PUSH1 0x40 MLOAD PUSH3 0x461BCD PUSH1 0xE5 SHL DUP2 MSTORE PUSH1 0x4 ADD PUSH2 0x297 SWAP1 PUSH2 0x57A JUMP JUMPDEST PUSH1 0x1 PUSH1 0x1 PUSH1 0xA0 SHL SUB DUP2 AND PUSH2 0x4D5 JUMPI PUSH1 0x40 MLOAD PUSH3 0x461BCD PUSH1 0xE5 SHL DUP2 MSTORE PUSH1 0x20 PUSH1 0x4 DUP3 ADD MSTORE PUSH1 0x26 PUSH1 0x24 DUP3 ADD MSTORE PUSH32 0x4F776E61626C653A206E6577206F776E657220697320746865207A65726F2061 PUSH1 0x44 DUP3 ADD MSTORE PUSH6 0x646472657373 PUSH1 0xD0 SHL PUSH1 0x64 DUP3 ADD MSTORE PUSH1 0x84 ADD PUSH2 0x297 JUMP JUMPDEST PUSH2 0x4DE DUP2 PUSH2 0x4E1 JUMP JUMPDEST POP JUMP JUMPDEST PUSH1 0x0 DUP1 SLOAD PUSH1 0x1 PUSH1 0x1 PUSH1 0xA0 SHL SUB DUP4 DUP2 AND PUSH1 0x1 PUSH1 0x1 PUSH1 0xA0 SHL SUB NOT DUP4 AND DUP2 OR DUP5 SSTORE PUSH1 0x40 MLOAD SWAP2 SWAP1 SWAP3 AND SWAP3 DUP4 SWAP2 PUSH32 0x8BE0079C531659141344CD1FD0A4F28419497F9722A3DAAFE3B4186F6B6457E0 SWAP2 SWAP1 LOG3 POP POP JUMP JUMPDEST PUSH1 0x0 PUSH1 0x20 DUP3 DUP5 SUB SLT ISZERO PUSH2 0x543 JUMPI PUSH1 0x0 DUP1 REVERT JUMPDEST DUP2 CALLDATALOAD PUSH1 0x1 PUSH1 0x1 PUSH1 0xA0 SHL SUB DUP2 AND DUP2 EQ PUSH2 0x55A JUMPI PUSH1 0x0 DUP1 REVERT JUMPDEST SWAP4 SWAP3 POP POP POP JUMP JUMPDEST PUSH1 0x0 PUSH1 0x20 DUP3 DUP5 SUB SLT ISZERO PUSH2 0x573 JUMPI PUSH1 0x0 DUP1 REVERT JUMPDEST POP CALLDATALOAD SWAP2 SWAP1 POP JUMP JUMPDEST PUSH1 0x20 DUP1 DUP3 MSTORE DUP2 DUP2 ADD MSTORE PUSH32 0x4F776E61626C653A2063616C6C6572206973206E6F7420746865206F776E6572 PUSH1 0x40 DUP3 ADD MSTORE PUSH1 0x60 ADD SWAP1 JUMP JUMPDEST PUSH1 0x0 DUP3 NOT DUP3 GT ISZERO PUSH2 0x5D0 JUMPI PUSH4 0x4E487B71 PUSH1 0xE0 SHL PUSH1 0x0 MSTORE PUSH1 0x11 PUSH1 0x4 MSTORE PUSH1 0x24 PUSH1 0x0 REVERT JUMPDEST POP ADD SWAP1 JUMP INVALID LOG2 PUSH5 0x6970667358 0x22 SLT KECCAK256 0xEB GAS 0xFB CODESIZE PUSH16 0x74D9790E20CBAB83FD8A72C792E299E4 DELEGATECALL 0xE5 PUSH1 0xD9 PUSH25 0xD933A0CFECB64736F6C634300080D00330000000000000000 "
				},
				"gasEstimates": {
					"creation": {
						"codeDepositCost": "309400",
						"executionCost": "118871",
						"totalCost": "428271"
					},
					"external": {
						"": "184",
						"checkAuth(address)": "4804",
						"endTime(address)": "2507",
						"otherFeeAddress()": "2327",
						"owner()": "2364",
						"payForRenew()": "infinite",
						"renounceOwnership()": "28181",
						"setOtherFee(uint256)": "24530",
						"setYearFee(uint256)": "24552",
						"setYearFeeAddress(address)": "26676",
						"transferOwnership(address)": "28384",
						"yearFeeAddress()": "2415"
					}
				},
				"methodIdentifiers": {
					"checkAuth(address)": "4b165090",
					"endTime(address)": "4aefdccd",
					"otherFeeAddress()": "366a8508",
					"owner()": "8da5cb5b",
					"payForRenew()": "8b68e1fa",
					"renounceOwnership()": "715018a6",
					"setOtherFee(uint256)": "aeb0bc79",
					"setYearFee(uint256)": "f2c8609e",
					"setYearFeeAddress(address)": "7ad3c93a",
					"transferOwnership(address)": "f2fde38b",
					"yearFeeAddress()": "75a3aae7"
				}
			},
			"userdoc": {
				"kind": "user",
				"methods": {},
				"version": 1
			}
		}
	}
}