{
	"contracts/tokens/ERBPay.sol": {
		"ERBPay": {
			"abi": [
				{
					"inputs": [],
					"stateMutability": "nonpayable",
					"type": "constructor"
				},
				{
					"anonymous": false,
					"inputs": [
						{
							"indexed": true,
							"internalType": "address",
							"name": "previousOwner",
							"type": "address"
						},
						{
							"indexed": true,
							"internalType": "address",
							"name": "newOwner",
							"type": "address"
						}
					],
					"name": "OwnershipTransferred",
					"type": "event"
				},
				{
					"anonymous": false,
					"inputs": [
						{
							"indexed": true,
							"internalType": "address",
							"name": "sender",
							"type": "address"
						},
						{
							"indexed": false,
							"internalType": "uint256",
							"name": "amount",
							"type": "uint256"
						}
					],
					"name": "PayForOpenRenew",
					"type": "event"
				},
				{
					"stateMutability": "payable",
					"type": "fallback"
				},
				{
					"inputs": [
						{
							"internalType": "address",
							"name": "addr",
							"type": "address"
						}
					],
					"name": "checkAuth",
					"outputs": [
						{
							"internalType": "uint256",
							"name": "",
							"type": "uint256"
						}
					],
					"stateMutability": "view",
					"type": "function"
				},
				{
					"inputs": [
						{
							"internalType": "address",
							"name": "",
							"type": "address"
						}
					],
					"name": "endTime",
					"outputs": [
						{
							"internalType": "uint256",
							"name": "",
							"type": "uint256"
						}
					],
					"stateMutability": "view",
					"type": "function"
				},
				{
					"inputs": [],
					"name": "owner",
					"outputs": [
						{
							"internalType": "address",
							"name": "",
							"type": "address"
						}
					],
					"stateMutability": "view",
					"type": "function"
				},
				{
					"inputs": [],
					"name": "payForRenew",
					"outputs": [],
					"stateMutability": "payable",
					"type": "function"
				},
				{
					"inputs": [],
					"name": "renounceOwnership",
					"outputs": [],
					"stateMutability": "nonpayable",
					"type": "function"
				},
				{
					"inputs": [
						{
							"internalType": "uint256",
							"name": "amount",
							"type": "uint256"
						}
					],
					"name": "setYearFee",
					"outputs": [],
					"stateMutability": "nonpayable",
					"type": "function"
				},
				{
					"inputs": [
						{
							"internalType": "address",
							"name": "_addr",
							"type": "address"
						}
					],
					"name": "setYearFeeAddress",
					"outputs": [],
					"stateMutability": "nonpayable",
					"type": "function"
				},
				{
					"inputs": [
						{
							"internalType": "address",
							"name": "newOwner",
							"type": "address"
						}
					],
					"name": "transferOwnership",
					"outputs": [],
					"stateMutability": "nonpayable",
					"type": "function"
				},
				{
					"inputs": [],
					"name": "yearFeeAddress",
					"outputs": [
						{
							"internalType": "address",
							"name": "",
							"type": "address"
						}
					],
					"stateMutability": "view",
					"type": "function"
				},
				{
					"stateMutability": "payable",
					"type": "receive"
				}
			],
			"devdoc": {
				"kind": "dev",
				"methods": {
					"owner()": {
						"details": "Returns the address of the current owner."
					},
					"renounceOwnership()": {
						"details": "Leaves the contract without owner. It will not be possible to call `onlyOwner` functions anymore. Can only be called by the current owner. NOTE: Renouncing ownership will leave the contract without an owner, thereby removing any functionality that is only available to the owner."
					},
					"transferOwnership(address)": {
						"details": "Transfers ownership of the contract to a new account (`newOwner`). Can only be called by the current owner."
					}
				},
				"version": 1
			},
			"evm": {
				"assembly": "    /* \"contracts/tokens/ERBPay.sol\":114:1222  contract ERBPay is Ownable{... */\n  mstore(0x40, 0x80)\n    /* \"contracts/tokens/ERBPay.sol\":163:171  200*1e18 */\n  0x0ad78ebc5ac6200000\n    /* \"contracts/tokens/ERBPay.sol\":147:171  uint256 yearFee=200*1e18 */\n  0x01\n  sstore\n    /* \"contracts/tokens/ERBPay.sol\":178:250  address public yearFeeAddress=0x10CEc672c6BB2f6782BEED65987E020902B7bD15 */\n  0x02\n  dup1\n  sload\n  not(sub(shl(0xa0, 0x01), 0x01))\n  and\n    /* \"contracts/tokens/ERBPay.sol\":208:250  0x10CEc672c6BB2f6782BEED65987E020902B7bD15 */\n  0x10cec672c6bb2f6782beed65987e020902b7bd15\n    /* \"contracts/tokens/ERBPay.sol\":178:250  address public yearFeeAddress=0x10CEc672c6BB2f6782BEED65987E020902B7bD15 */\n  or\n  swap1\n  sstore\n    /* \"contracts/tokens/ERBPay.sol\":371:394  constructor () {... */\n  callvalue\n  dup1\n  iszero\n  tag_1\n  jumpi\n  0x00\n  dup1\n  revert\ntag_1:\n  pop\n    /* \"@openzeppelin/contracts/access/Ownable.sol\":921:953  _transferOwnership(_msgSender()) */\n  tag_5\n    /* \"@openzeppelin/contracts/utils/Context.sol\":719:729  msg.sender */\n  caller\n    /* \"@openzeppelin/contracts/access/Ownable.sol\":921:939  _transferOwnership */\n  tag_8\n    /* \"@openzeppelin/contracts/access/Ownable.sol\":921:953  _transferOwnership(_msgSender()) */\n  jump\t// in\ntag_5:\n    /* \"contracts/tokens/ERBPay.sol\":114:1222  contract ERBPay is Ownable{... */\n  jump(tag_10)\n    /* \"@openzeppelin/contracts/access/Ownable.sol\":2270:2457  function _transferOwnership(address newOwner) internal virtual {... */\ntag_8:\n    /* \"@openzeppelin/contracts/access/Ownable.sol\":2343:2359  address oldOwner */\n  0x00\n    /* \"@openzeppelin/contracts/access/Ownable.sol\":2362:2368  _owner */\n  dup1\n  sload\n  sub(shl(0xa0, 0x01), 0x01)\n    /* \"@openzeppelin/contracts/access/Ownable.sol\":2378:2395  _owner = newOwner */\n  dup4\n  dup2\n  and\n  not(sub(shl(0xa0, 0x01), 0x01))\n  dup4\n  and\n  dup2\n  or\n  dup5\n  sstore\n    /* \"@openzeppelin/contracts/access/Ownable.sol\":2410:2450  OwnershipTransferred(oldOwner, newOwner) */\n  mload(0x40)\n    /* \"@openzeppelin/contracts/access/Ownable.sol\":2362:2368  _owner */\n  swap2\n  swap1\n  swap3\n  and\n  swap3\n  dup4\n  swap2\n    /* \"@openzeppelin/contracts/access/Ownable.sol\":2410:2450  OwnershipTransferred(oldOwner, newOwner) */\n  0x8be0079c531659141344cd1fd0a4f28419497f9722a3daafe3b4186f6b6457e0\n  swap2\n    /* \"@openzeppelin/contracts/access/Ownable.sol\":2343:2359  address oldOwner */\n  swap1\n    /* \"@openzeppelin/contracts/access/Ownable.sol\":2410:2450  OwnershipTransferred(oldOwner, newOwner) */\n  log3\n    /* \"@openzeppelin/contracts/access/Ownable.sol\":2333:2457  {... */\n  pop\n    /* \"@openzeppelin/contracts/access/Ownable.sol\":2270:2457  function _transferOwnership(address newOwner) internal virtual {... */\n  pop\n  jump\t// out\n    /* \"contracts/tokens/ERBPay.sol\":114:1222  contract ERBPay is Ownable{... */\ntag_10:\n  dataSize(sub_0)\n  dup1\n  dataOffset(sub_0)\n  0x00\n  codecopy\n  0x00\n  return\nstop\n\nsub_0: assembly {\n        /* \"contracts/tokens/ERBPay.sol\":114:1222  contract ERBPay is Ownable{... */\n      mstore(0x40, 0x80)\n      jumpi(tag_1, lt(calldatasize, 0x04))\n      shr(0xe0, calldataload(0x00))\n      dup1\n      0x7ad3c93a\n      gt\n      tag_12\n      jumpi\n      dup1\n      0x7ad3c93a\n      eq\n      tag_7\n      jumpi\n      dup1\n      0x8b68e1fa\n      eq\n      tag_8\n      jumpi\n      dup1\n      0x8da5cb5b\n      eq\n      tag_9\n      jumpi\n      dup1\n      0xf2c8609e\n      eq\n      tag_10\n      jumpi\n      dup1\n      0xf2fde38b\n      eq\n      tag_11\n      jumpi\n      stop\n    tag_12:\n      dup1\n      0x4aefdccd\n      eq\n      tag_3\n      jumpi\n      dup1\n      0x4b165090\n      eq\n      tag_4\n      jumpi\n      dup1\n      0x715018a6\n      eq\n      tag_5\n      jumpi\n      dup1\n      0x75a3aae7\n      eq\n      tag_6\n      jumpi\n      stop\n    tag_1:\n      jumpi(tag_2, calldatasize)\n      stop\n    tag_2:\n      stop\n        /* \"contracts/tokens/ERBPay.sol\":257:296  mapping(address=>uint256)public endTime */\n    tag_3:\n      callvalue\n      dup1\n      iszero\n      tag_17\n      jumpi\n      0x00\n      dup1\n      revert\n    tag_17:\n      pop\n      tag_18\n      tag_19\n      calldatasize\n      0x04\n      tag_20\n      jump\t// in\n    tag_19:\n      mstore(0x20, 0x03)\n      0x00\n      swap1\n      dup2\n      mstore\n      0x40\n      swap1\n      keccak256\n      sload\n      dup2\n      jump\n    tag_18:\n      mload(0x40)\n        /* \"#utility.yul\":451:476   */\n      swap1\n      dup2\n      mstore\n        /* \"#utility.yul\":439:441   */\n      0x20\n        /* \"#utility.yul\":424:442   */\n      add\n        /* \"contracts/tokens/ERBPay.sol\":257:296  mapping(address=>uint256)public endTime */\n    tag_22:\n      mload(0x40)\n      dup1\n      swap2\n      sub\n      swap1\n      return\n        /* \"contracts/tokens/ERBPay.sol\":919:1142  function checkAuth(address addr)view public returns(uint256){... */\n    tag_4:\n      callvalue\n      dup1\n      iszero\n      tag_24\n      jumpi\n      0x00\n      dup1\n      revert\n    tag_24:\n      pop\n      tag_18\n      tag_26\n      calldatasize\n      0x04\n      tag_20\n      jump\t// in\n    tag_26:\n      tag_27\n      jump\t// in\n        /* \"@openzeppelin/contracts/access/Ownable.sol\":1668:1769  function renounceOwnership() public virtual onlyOwner {... */\n    tag_5:\n      callvalue\n      dup1\n      iszero\n      tag_29\n      jumpi\n      0x00\n      dup1\n      revert\n    tag_29:\n      pop\n      tag_2\n      tag_31\n      jump\t// in\n        /* \"contracts/tokens/ERBPay.sol\":178:250  address public yearFeeAddress=0x10CEc672c6BB2f6782BEED65987E020902B7bD15 */\n    tag_6:\n      callvalue\n      dup1\n      iszero\n      tag_32\n      jumpi\n      0x00\n      dup1\n      revert\n    tag_32:\n      pop\n      sload(0x02)\n      tag_33\n      swap1\n      sub(shl(0xa0, 0x01), 0x01)\n      and\n      dup2\n      jump\n    tag_33:\n      mload(0x40)\n      sub(shl(0xa0, 0x01), 0x01)\n        /* \"#utility.yul\":651:683   */\n      swap1\n      swap2\n      and\n        /* \"#utility.yul\":633:684   */\n      dup2\n      mstore\n        /* \"#utility.yul\":621:623   */\n      0x20\n        /* \"#utility.yul\":606:624   */\n      add\n        /* \"contracts/tokens/ERBPay.sol\":178:250  address public yearFeeAddress=0x10CEc672c6BB2f6782BEED65987E020902B7bD15 */\n      tag_22\n        /* \"#utility.yul\":487:690   */\n      jump\n        /* \"contracts/tokens/ERBPay.sol\":497:596  function setYearFeeAddress(address _addr) external onlyOwner{... */\n    tag_7:\n      callvalue\n      dup1\n      iszero\n      tag_37\n      jumpi\n      0x00\n      dup1\n      revert\n    tag_37:\n      pop\n      tag_2\n      tag_39\n      calldatasize\n      0x04\n      tag_20\n      jump\t// in\n    tag_39:\n      tag_40\n      jump\t// in\n        /* \"contracts/tokens/ERBPay.sol\":604:871  function payForRenew()external payable{... */\n    tag_8:\n      tag_2\n      tag_42\n      jump\t// in\n        /* \"@openzeppelin/contracts/access/Ownable.sol\":1036:1121  function owner() public view virtual returns (address) {... */\n    tag_9:\n      callvalue\n      dup1\n      iszero\n      tag_43\n      jumpi\n      0x00\n      dup1\n      revert\n    tag_43:\n      pop\n        /* \"@openzeppelin/contracts/access/Ownable.sol\":1082:1089  address */\n      0x00\n        /* \"@openzeppelin/contracts/access/Ownable.sol\":1108:1114  _owner */\n      sload\n      sub(shl(0xa0, 0x01), 0x01)\n      and\n        /* \"@openzeppelin/contracts/access/Ownable.sol\":1036:1121  function owner() public view virtual returns (address) {... */\n      jump(tag_33)\n        /* \"contracts/tokens/ERBPay.sol\":402:489  function setYearFee(uint256 amount) external onlyOwner{... */\n    tag_10:\n      callvalue\n      dup1\n      iszero\n      tag_47\n      jumpi\n      0x00\n      dup1\n      revert\n    tag_47:\n      pop\n      tag_2\n      tag_49\n      calldatasize\n      0x04\n      tag_50\n      jump\t// in\n    tag_49:\n      tag_51\n      jump\t// in\n        /* \"@openzeppelin/contracts/access/Ownable.sol\":1918:2116  function transferOwnership(address newOwner) public virtual onlyOwner {... */\n    tag_11:\n      callvalue\n      dup1\n      iszero\n      tag_52\n      jumpi\n      0x00\n      dup1\n      revert\n    tag_52:\n      pop\n      tag_2\n      tag_54\n      calldatasize\n      0x04\n      tag_20\n      jump\t// in\n    tag_54:\n      tag_55\n      jump\t// in\n        /* \"contracts/tokens/ERBPay.sol\":919:1142  function checkAuth(address addr)view public returns(uint256){... */\n    tag_27:\n      sub(shl(0xa0, 0x01), 0x01)\n        /* \"contracts/tokens/ERBPay.sol\":993:1006  endTime[addr] */\n      dup2\n      and\n        /* \"contracts/tokens/ERBPay.sol\":971:978  uint256 */\n      0x00\n        /* \"contracts/tokens/ERBPay.sol\":993:1006  endTime[addr] */\n      swap1\n      dup2\n      mstore\n        /* \"contracts/tokens/ERBPay.sol\":993:1000  endTime */\n      0x03\n        /* \"contracts/tokens/ERBPay.sol\":993:1006  endTime[addr] */\n      0x20\n      mstore\n      0x40\n      dup2\n      keccak256\n      sload\n        /* \"contracts/tokens/ERBPay.sol\":993:1009  endTime[addr]==0 */\n      dup2\n      sub\n        /* \"contracts/tokens/ERBPay.sol\":990:1116  if(endTime[addr]==0){... */\n      tag_57\n      jumpi\n      pop\n        /* \"contracts/tokens/ERBPay.sol\":1031:1032  0 */\n      0x00\n      swap2\n        /* \"contracts/tokens/ERBPay.sol\":919:1142  function checkAuth(address addr)view public returns(uint256){... */\n      swap1\n      pop\n      jump\t// out\n        /* \"contracts/tokens/ERBPay.sol\":990:1116  if(endTime[addr]==0){... */\n    tag_57:\n      sub(shl(0xa0, 0x01), 0x01)\n        /* \"contracts/tokens/ERBPay.sol\":1052:1065  endTime[addr] */\n      dup3\n      and\n      0x00\n      swap1\n      dup2\n      mstore\n        /* \"contracts/tokens/ERBPay.sol\":1052:1059  endTime */\n      0x03\n        /* \"contracts/tokens/ERBPay.sol\":1052:1065  endTime[addr] */\n      0x20\n      mstore\n      0x40\n      swap1\n      keccak256\n      sload\n        /* \"contracts/tokens/ERBPay.sol\":1066:1081  block.timestamp */\n      timestamp\n      gt\n        /* \"contracts/tokens/ERBPay.sol\":1049:1116  if(endTime[addr]<block.timestamp){... */\n      iszero\n      tag_59\n      jumpi\n      pop\n        /* \"contracts/tokens/ERBPay.sol\":1103:1104  1 */\n      0x01\n      swap2\n        /* \"contracts/tokens/ERBPay.sol\":919:1142  function checkAuth(address addr)view public returns(uint256){... */\n      swap1\n      pop\n      jump\t// out\n        /* \"contracts/tokens/ERBPay.sol\":1049:1116  if(endTime[addr]<block.timestamp){... */\n    tag_59:\n      pop\n        /* \"contracts/tokens/ERBPay.sol\":1133:1134  2 */\n      0x02\n      swap2\n        /* \"contracts/tokens/ERBPay.sol\":919:1142  function checkAuth(address addr)view public returns(uint256){... */\n      swap1\n      pop\n      jump\t// out\n        /* \"@openzeppelin/contracts/access/Ownable.sol\":1668:1769  function renounceOwnership() public virtual onlyOwner {... */\n    tag_31:\n        /* \"@openzeppelin/contracts/access/Ownable.sol\":1082:1089  address */\n      0x00\n        /* \"@openzeppelin/contracts/access/Ownable.sol\":1108:1114  _owner */\n      sload\n      sub(shl(0xa0, 0x01), 0x01)\n      and\n        /* \"@openzeppelin/contracts/utils/Context.sol\":719:729  msg.sender */\n      caller\n        /* \"@openzeppelin/contracts/access/Ownable.sol\":1248:1271  owner() == _msgSender() */\n      eq\n        /* \"@openzeppelin/contracts/access/Ownable.sol\":1240:1308  require(owner() == _msgSender(), \"Ownable: caller is not the owner\") */\n      tag_64\n      jumpi\n      mload(0x40)\n      shl(0xe5, 0x461bcd)\n      dup2\n      mstore\n      0x04\n      add\n      tag_65\n      swap1\n      tag_66\n      jump\t// in\n    tag_65:\n      mload(0x40)\n      dup1\n      swap2\n      sub\n      swap1\n      revert\n    tag_64:\n        /* \"@openzeppelin/contracts/access/Ownable.sol\":1732:1762  _transferOwnership(address(0)) */\n      tag_68\n        /* \"@openzeppelin/contracts/access/Ownable.sol\":1759:1760  0 */\n      0x00\n        /* \"@openzeppelin/contracts/access/Ownable.sol\":1732:1750  _transferOwnership */\n      tag_69\n        /* \"@openzeppelin/contracts/access/Ownable.sol\":1732:1762  _transferOwnership(address(0)) */\n      jump\t// in\n    tag_68:\n        /* \"@openzeppelin/contracts/access/Ownable.sol\":1668:1769  function renounceOwnership() public virtual onlyOwner {... */\n      jump\t// out\n        /* \"contracts/tokens/ERBPay.sol\":497:596  function setYearFeeAddress(address _addr) external onlyOwner{... */\n    tag_40:\n        /* \"@openzeppelin/contracts/access/Ownable.sol\":1082:1089  address */\n      0x00\n        /* \"@openzeppelin/contracts/access/Ownable.sol\":1108:1114  _owner */\n      sload\n      sub(shl(0xa0, 0x01), 0x01)\n      and\n        /* \"@openzeppelin/contracts/utils/Context.sol\":719:729  msg.sender */\n      caller\n        /* \"@openzeppelin/contracts/access/Ownable.sol\":1248:1271  owner() == _msgSender() */\n      eq\n        /* \"@openzeppelin/contracts/access/Ownable.sol\":1240:1308  require(owner() == _msgSender(), \"Ownable: caller is not the owner\") */\n      tag_73\n      jumpi\n      mload(0x40)\n      shl(0xe5, 0x461bcd)\n      dup2\n      mstore\n      0x04\n      add\n      tag_65\n      swap1\n      tag_66\n      jump\t// in\n    tag_73:\n        /* \"contracts/tokens/ERBPay.sol\":568:582  yearFeeAddress */\n      0x02\n        /* \"contracts/tokens/ERBPay.sol\":568:588  yearFeeAddress=_addr */\n      dup1\n      sload\n      not(sub(shl(0xa0, 0x01), 0x01))\n      and\n      sub(shl(0xa0, 0x01), 0x01)\n      swap3\n      swap1\n      swap3\n      and\n      swap2\n      swap1\n      swap2\n      or\n      swap1\n      sstore\n        /* \"contracts/tokens/ERBPay.sol\":497:596  function setYearFeeAddress(address _addr) external onlyOwner{... */\n      jump\t// out\n        /* \"contracts/tokens/ERBPay.sol\":604:871  function payForRenew()external payable{... */\n    tag_42:\n        /* \"contracts/tokens/ERBPay.sol\":673:680  yearFee */\n      sload(0x01)\n        /* \"contracts/tokens/ERBPay.sol\":660:669  msg.value */\n      callvalue\n        /* \"contracts/tokens/ERBPay.sol\":660:680  msg.value == yearFee */\n      eq\n        /* \"contracts/tokens/ERBPay.sol\":652:701  require(msg.value == yearFee,\"msg.value invalid\") */\n      tag_77\n      jumpi\n      mload(0x40)\n      shl(0xe5, 0x461bcd)\n      dup2\n      mstore\n        /* \"#utility.yul\":1443:1445   */\n      0x20\n        /* \"contracts/tokens/ERBPay.sol\":652:701  require(msg.value == yearFee,\"msg.value invalid\") */\n      0x04\n      dup3\n      add\n        /* \"#utility.yul\":1425:1446   */\n      mstore\n        /* \"#utility.yul\":1482:1484   */\n      0x11\n        /* \"#utility.yul\":1462:1480   */\n      0x24\n      dup3\n      add\n        /* \"#utility.yul\":1455:1485   */\n      mstore\n      shl(0x7a, 0x1b5cd9cb9d985b1d59481a5b9d985b1a59)\n        /* \"#utility.yul\":1501:1519   */\n      0x44\n      dup3\n      add\n        /* \"#utility.yul\":1494:1541   */\n      mstore\n        /* \"#utility.yul\":1558:1576   */\n      0x64\n      add\n        /* \"contracts/tokens/ERBPay.sol\":652:701  require(msg.value == yearFee,\"msg.value invalid\") */\n      tag_65\n        /* \"#utility.yul\":1241:1582   */\n      jump\n        /* \"contracts/tokens/ERBPay.sol\":652:701  require(msg.value == yearFee,\"msg.value invalid\") */\n    tag_77:\n        /* \"contracts/tokens/ERBPay.sol\":719:733  yearFeeAddress */\n      sload(0x02)\n      0x01\n        /* \"contracts/tokens/ERBPay.sol\":744:751  yearFee */\n      sload\n        /* \"contracts/tokens/ERBPay.sol\":711:752  payable(yearFeeAddress).transfer(yearFee) */\n      mload(0x40)\n      sub(shl(0xa0, 0x01), 0x01)\n        /* \"contracts/tokens/ERBPay.sol\":719:733  yearFeeAddress */\n      swap1\n      swap3\n      and\n      swap2\n        /* \"contracts/tokens/ERBPay.sol\":711:752  payable(yearFeeAddress).transfer(yearFee) */\n      dup2\n      iszero\n      0x08fc\n      mul\n      swap2\n        /* \"contracts/tokens/ERBPay.sol\":744:751  yearFee */\n      swap1\n        /* \"contracts/tokens/ERBPay.sol\":719:733  yearFeeAddress */\n      0x00\n        /* \"contracts/tokens/ERBPay.sol\":711:752  payable(yearFeeAddress).transfer(yearFee) */\n      dup2\n        /* \"contracts/tokens/ERBPay.sol\":719:733  yearFeeAddress */\n      dup2\n        /* \"contracts/tokens/ERBPay.sol\":711:752  payable(yearFeeAddress).transfer(yearFee) */\n      dup2\n        /* \"contracts/tokens/ERBPay.sol\":744:751  yearFee */\n      dup6\n        /* \"contracts/tokens/ERBPay.sol\":719:733  yearFeeAddress */\n      dup9\n        /* \"contracts/tokens/ERBPay.sol\":711:752  payable(yearFeeAddress).transfer(yearFee) */\n      dup9\n      call\n      swap4\n      pop\n      pop\n      pop\n      pop\n      iszero\n      dup1\n      iszero\n      tag_81\n      jumpi\n      returndatasize\n      0x00\n      dup1\n      returndatacopy\n      revert(0x00, returndatasize)\n    tag_81:\n      pop\n        /* \"contracts/tokens/ERBPay.sol\":790:800  msg.sender */\n      caller\n        /* \"contracts/tokens/ERBPay.sol\":782:801  endTime[msg.sender] */\n      0x00\n      swap1\n      dup2\n      mstore\n        /* \"contracts/tokens/ERBPay.sol\":782:789  endTime */\n      0x03\n        /* \"contracts/tokens/ERBPay.sol\":782:801  endTime[msg.sender] */\n      0x20\n      mstore\n      0x40\n      swap1\n      keccak256\n      sload\n        /* \"contracts/tokens/ERBPay.sol\":782:811  endTime[msg.sender]+86400*365 */\n      tag_82\n      swap1\n        /* \"contracts/tokens/ERBPay.sol\":802:811  86400*365 */\n      0x01e13380\n        /* \"contracts/tokens/ERBPay.sol\":782:811  endTime[msg.sender]+86400*365 */\n      tag_83\n      jump\t// in\n    tag_82:\n        /* \"contracts/tokens/ERBPay.sol\":770:780  msg.sender */\n      caller\n        /* \"contracts/tokens/ERBPay.sol\":762:781  endTime[msg.sender] */\n      0x00\n      dup2\n      dup2\n      mstore\n        /* \"contracts/tokens/ERBPay.sol\":762:769  endTime */\n      0x03\n        /* \"contracts/tokens/ERBPay.sol\":762:781  endTime[msg.sender] */\n      0x20\n      mstore\n      0x40\n      swap1\n      dup2\n      swap1\n      keccak256\n        /* \"contracts/tokens/ERBPay.sol\":762:811  endTime[msg.sender]=endTime[msg.sender]+86400*365 */\n      swap3\n      swap1\n      swap3\n      sstore\n        /* \"contracts/tokens/ERBPay.sol\":826:863  PayForOpenRenew(msg.sender,msg.value) */\n      swap1\n      mload\n      0xe777ae9d65766408c351d743ed88284c7719883019e08000af32400646abcff8\n      swap1\n      tag_84\n      swap1\n        /* \"contracts/tokens/ERBPay.sol\":853:862  msg.value */\n      callvalue\n        /* \"#utility.yul\":451:476   */\n      dup2\n      mstore\n        /* \"#utility.yul\":439:441   */\n      0x20\n        /* \"#utility.yul\":424:442   */\n      add\n      swap1\n        /* \"#utility.yul\":305:482   */\n      jump\n        /* \"contracts/tokens/ERBPay.sol\":826:863  PayForOpenRenew(msg.sender,msg.value) */\n    tag_84:\n      mload(0x40)\n      dup1\n      swap2\n      sub\n      swap1\n      log2\n        /* \"contracts/tokens/ERBPay.sol\":604:871  function payForRenew()external payable{... */\n      jump\t// out\n        /* \"contracts/tokens/ERBPay.sol\":402:489  function setYearFee(uint256 amount) external onlyOwner{... */\n    tag_51:\n        /* \"@openzeppelin/contracts/access/Ownable.sol\":1082:1089  address */\n      0x00\n        /* \"@openzeppelin/contracts/access/Ownable.sol\":1108:1114  _owner */\n      sload\n      sub(shl(0xa0, 0x01), 0x01)\n      and\n        /* \"@openzeppelin/contracts/utils/Context.sol\":719:729  msg.sender */\n      caller\n        /* \"@openzeppelin/contracts/access/Ownable.sol\":1248:1271  owner() == _msgSender() */\n      eq\n        /* \"@openzeppelin/contracts/access/Ownable.sol\":1240:1308  require(owner() == _msgSender(), \"Ownable: caller is not the owner\") */\n      tag_89\n      jumpi\n      mload(0x40)\n      shl(0xe5, 0x461bcd)\n      dup2\n      mstore\n      0x04\n      add\n      tag_65\n      swap1\n      tag_66\n      jump\t// in\n    tag_89:\n        /* \"contracts/tokens/ERBPay.sol\":467:474  yearFee */\n      0x01\n        /* \"contracts/tokens/ERBPay.sol\":467:481  yearFee=amount */\n      sstore\n        /* \"contracts/tokens/ERBPay.sol\":402:489  function setYearFee(uint256 amount) external onlyOwner{... */\n      jump\t// out\n        /* \"@openzeppelin/contracts/access/Ownable.sol\":1918:2116  function transferOwnership(address newOwner) public virtual onlyOwner {... */\n    tag_55:\n        /* \"@openzeppelin/contracts/access/Ownable.sol\":1082:1089  address */\n      0x00\n        /* \"@openzeppelin/contracts/access/Ownable.sol\":1108:1114  _owner */\n      sload\n      sub(shl(0xa0, 0x01), 0x01)\n      and\n        /* \"@openzeppelin/contracts/utils/Context.sol\":719:729  msg.sender */\n      caller\n        /* \"@openzeppelin/contracts/access/Ownable.sol\":1248:1271  owner() == _msgSender() */\n      eq\n        /* \"@openzeppelin/contracts/access/Ownable.sol\":1240:1308  require(owner() == _msgSender(), \"Ownable: caller is not the owner\") */\n      tag_95\n      jumpi\n      mload(0x40)\n      shl(0xe5, 0x461bcd)\n      dup2\n      mstore\n      0x04\n      add\n      tag_65\n      swap1\n      tag_66\n      jump\t// in\n    tag_95:\n      sub(shl(0xa0, 0x01), 0x01)\n        /* \"@openzeppelin/contracts/access/Ownable.sol\":2006:2028  newOwner != address(0) */\n      dup2\n      and\n        /* \"@openzeppelin/contracts/access/Ownable.sol\":1998:2071  require(newOwner != address(0), \"Ownable: new owner is the zero address\") */\n      tag_98\n      jumpi\n      mload(0x40)\n      shl(0xe5, 0x461bcd)\n      dup2\n      mstore\n        /* \"#utility.yul\":2019:2021   */\n      0x20\n        /* \"@openzeppelin/contracts/access/Ownable.sol\":1998:2071  require(newOwner != address(0), \"Ownable: new owner is the zero address\") */\n      0x04\n      dup3\n      add\n        /* \"#utility.yul\":2001:2022   */\n      mstore\n        /* \"#utility.yul\":2058:2060   */\n      0x26\n        /* \"#utility.yul\":2038:2056   */\n      0x24\n      dup3\n      add\n        /* \"#utility.yul\":2031:2061   */\n      mstore\n        /* \"#utility.yul\":2097:2131   */\n      0x4f776e61626c653a206e6577206f776e657220697320746865207a65726f2061\n        /* \"#utility.yul\":2077:2095   */\n      0x44\n      dup3\n      add\n        /* \"#utility.yul\":2070:2132   */\n      mstore\n      shl(0xd0, 0x646472657373)\n        /* \"#utility.yul\":2148:2166   */\n      0x64\n      dup3\n      add\n        /* \"#utility.yul\":2141:2177   */\n      mstore\n        /* \"#utility.yul\":2194:2213   */\n      0x84\n      add\n        /* \"@openzeppelin/contracts/access/Ownable.sol\":1998:2071  require(newOwner != address(0), \"Ownable: new owner is the zero address\") */\n      tag_65\n        /* \"#utility.yul\":1817:2219   */\n      jump\n        /* \"@openzeppelin/contracts/access/Ownable.sol\":1998:2071  require(newOwner != address(0), \"Ownable: new owner is the zero address\") */\n    tag_98:\n        /* \"@openzeppelin/contracts/access/Ownable.sol\":2081:2109  _transferOwnership(newOwner) */\n      tag_101\n        /* \"@openzeppelin/contracts/access/Ownable.sol\":2100:2108  newOwner */\n      dup2\n        /* \"@openzeppelin/contracts/access/Ownable.sol\":2081:2099  _transferOwnership */\n      tag_69\n        /* \"@openzeppelin/contracts/access/Ownable.sol\":2081:2109  _transferOwnership(newOwner) */\n      jump\t// in\n    tag_101:\n        /* \"@openzeppelin/contracts/access/Ownable.sol\":1918:2116  function transferOwnership(address newOwner) public virtual onlyOwner {... */\n      pop\n      jump\t// out\n        /* \"@openzeppelin/contracts/access/Ownable.sol\":2270:2457  function _transferOwnership(address newOwner) internal virtual {... */\n    tag_69:\n        /* \"@openzeppelin/contracts/access/Ownable.sol\":2343:2359  address oldOwner */\n      0x00\n        /* \"@openzeppelin/contracts/access/Ownable.sol\":2362:2368  _owner */\n      dup1\n      sload\n      sub(shl(0xa0, 0x01), 0x01)\n        /* \"@openzeppelin/contracts/access/Ownable.sol\":2378:2395  _owner = newOwner */\n      dup4\n      dup2\n      and\n      not(sub(shl(0xa0, 0x01), 0x01))\n      dup4\n      and\n      dup2\n      or\n      dup5\n      sstore\n        /* \"@openzeppelin/contracts/access/Ownable.sol\":2410:2450  OwnershipTransferred(oldOwner, newOwner) */\n      mload(0x40)\n        /* \"@openzeppelin/contracts/access/Ownable.sol\":2362:2368  _owner */\n      swap2\n      swap1\n      swap3\n      and\n      swap3\n      dup4\n      swap2\n        /* \"@openzeppelin/contracts/access/Ownable.sol\":2410:2450  OwnershipTransferred(oldOwner, newOwner) */\n      0x8be0079c531659141344cd1fd0a4f28419497f9722a3daafe3b4186f6b6457e0\n      swap2\n        /* \"@openzeppelin/contracts/access/Ownable.sol\":2343:2359  address oldOwner */\n      swap1\n        /* \"@openzeppelin/contracts/access/Ownable.sol\":2410:2450  OwnershipTransferred(oldOwner, newOwner) */\n      log3\n        /* \"@openzeppelin/contracts/access/Ownable.sol\":2333:2457  {... */\n      pop\n        /* \"@openzeppelin/contracts/access/Ownable.sol\":2270:2457  function _transferOwnership(address newOwner) internal virtual {... */\n      pop\n      jump\t// out\n        /* \"#utility.yul\":14:300   */\n    tag_20:\n        /* \"#utility.yul\":73:79   */\n      0x00\n        /* \"#utility.yul\":126:128   */\n      0x20\n        /* \"#utility.yul\":114:123   */\n      dup3\n        /* \"#utility.yul\":105:112   */\n      dup5\n        /* \"#utility.yul\":101:124   */\n      sub\n        /* \"#utility.yul\":97:129   */\n      slt\n        /* \"#utility.yul\":94:146   */\n      iszero\n      tag_106\n      jumpi\n        /* \"#utility.yul\":142:143   */\n      0x00\n        /* \"#utility.yul\":139:140   */\n      dup1\n        /* \"#utility.yul\":132:144   */\n      revert\n        /* \"#utility.yul\":94:146   */\n    tag_106:\n        /* \"#utility.yul\":168:191   */\n      dup2\n      calldataload\n      sub(shl(0xa0, 0x01), 0x01)\n        /* \"#utility.yul\":220:251   */\n      dup2\n      and\n        /* \"#utility.yul\":210:252   */\n      dup2\n      eq\n        /* \"#utility.yul\":200:270   */\n      tag_107\n      jumpi\n        /* \"#utility.yul\":266:267   */\n      0x00\n        /* \"#utility.yul\":263:264   */\n      dup1\n        /* \"#utility.yul\":256:268   */\n      revert\n        /* \"#utility.yul\":200:270   */\n    tag_107:\n        /* \"#utility.yul\":289:294   */\n      swap4\n        /* \"#utility.yul\":14:300   */\n      swap3\n      pop\n      pop\n      pop\n      jump\t// out\n        /* \"#utility.yul\":695:875   */\n    tag_50:\n        /* \"#utility.yul\":754:760   */\n      0x00\n        /* \"#utility.yul\":807:809   */\n      0x20\n        /* \"#utility.yul\":795:804   */\n      dup3\n        /* \"#utility.yul\":786:793   */\n      dup5\n        /* \"#utility.yul\":782:805   */\n      sub\n        /* \"#utility.yul\":778:810   */\n      slt\n        /* \"#utility.yul\":775:827   */\n      iszero\n      tag_111\n      jumpi\n        /* \"#utility.yul\":823:824   */\n      0x00\n        /* \"#utility.yul\":820:821   */\n      dup1\n        /* \"#utility.yul\":813:825   */\n      revert\n        /* \"#utility.yul\":775:827   */\n    tag_111:\n      pop\n        /* \"#utility.yul\":846:869   */\n      calldataload\n      swap2\n        /* \"#utility.yul\":695:875   */\n      swap1\n      pop\n      jump\t// out\n        /* \"#utility.yul\":880:1236   */\n    tag_66:\n        /* \"#utility.yul\":1082:1084   */\n      0x20\n        /* \"#utility.yul\":1064:1085   */\n      dup1\n      dup3\n      mstore\n        /* \"#utility.yul\":1101:1119   */\n      dup2\n      dup2\n      add\n        /* \"#utility.yul\":1094:1124   */\n      mstore\n        /* \"#utility.yul\":1160:1194   */\n      0x4f776e61626c653a2063616c6c6572206973206e6f7420746865206f776e6572\n        /* \"#utility.yul\":1155:1157   */\n      0x40\n        /* \"#utility.yul\":1140:1158   */\n      dup3\n      add\n        /* \"#utility.yul\":1133:1195   */\n      mstore\n        /* \"#utility.yul\":1227:1229   */\n      0x60\n        /* \"#utility.yul\":1212:1230   */\n      add\n      swap1\n        /* \"#utility.yul\":880:1236   */\n      jump\t// out\n        /* \"#utility.yul\":1587:1812   */\n    tag_83:\n        /* \"#utility.yul\":1627:1630   */\n      0x00\n        /* \"#utility.yul\":1658:1659   */\n      dup3\n        /* \"#utility.yul\":1654:1660   */\n      not\n        /* \"#utility.yul\":1651:1652   */\n      dup3\n        /* \"#utility.yul\":1648:1661   */\n      gt\n        /* \"#utility.yul\":1645:1781   */\n      iszero\n      tag_115\n      jumpi\n        /* \"#utility.yul\":1703:1713   */\n      0x4e487b71\n        /* \"#utility.yul\":1698:1701   */\n      0xe0\n        /* \"#utility.yul\":1694:1714   */\n      shl\n        /* \"#utility.yul\":1691:1692   */\n      0x00\n        /* \"#utility.yul\":1684:1715   */\n      mstore\n        /* \"#utility.yul\":1738:1742   */\n      0x11\n        /* \"#utility.yul\":1735:1736   */\n      0x04\n        /* \"#utility.yul\":1728:1743   */\n      mstore\n        /* \"#utility.yul\":1766:1770   */\n      0x24\n        /* \"#utility.yul\":1763:1764   */\n      0x00\n        /* \"#utility.yul\":1756:1771   */\n      revert\n        /* \"#utility.yul\":1645:1781   */\n    tag_115:\n      pop\n        /* \"#utility.yul\":1797:1806   */\n      add\n      swap1\n        /* \"#utility.yul\":1587:1812   */\n      jump\t// out\n\n    auxdata: 0xa26469706673582212209b137a0853858a0c1c1f3025d625eb15e31543fee7696e6df40b8449ff1b186c64736f6c634300080d0033\n}\n",
				"bytecode": {
					"linkReferences": {},
					"object": "6080604052680ad78ebc5ac6200000600155600280546001600160a01b0319167310cec672c6bb2f6782beed65987e020902b7bd1517905534801561004357600080fd5b5061004d33610052565b6100a2565b600080546001600160a01b038381166001600160a01b0319831681178455604051919092169283917f8be0079c531659141344cd1fd0a4f28419497f9722a3daafe3b4186f6b6457e09190a35050565b610586806100b16000396000f3fe6080604052600436106100845760003560e01c80637ad3c93a116100565780637ad3c93a1461013a5780638b68e1fa1461015a5780638da5cb5b14610162578063f2c8609e14610180578063f2fde38b146101a057005b80634aefdccd1461008d5780634b165090146100cd578063715018a6146100ed57806375a3aae71461010257005b3661008b57005b005b34801561009957600080fd5b506100ba6100a83660046104ac565b60036020526000908152604090205481565b6040519081526020015b60405180910390f35b3480156100d957600080fd5b506100ba6100e83660046104ac565b6101c0565b3480156100f957600080fd5b5061008b610217565b34801561010e57600080fd5b50600254610122906001600160a01b031681565b6040516001600160a01b0390911681526020016100c4565b34801561014657600080fd5b5061008b6101553660046104ac565b610256565b61008b6102a2565b34801561016e57600080fd5b506000546001600160a01b0316610122565b34801561018c57600080fd5b5061008b61019b3660046104dc565b610392565b3480156101ac57600080fd5b5061008b6101bb3660046104ac565b6103c1565b6001600160a01b03811660009081526003602052604081205481036101e757506000919050565b6001600160a01b03821660009081526003602052604090205442111561020f57506001919050565b506002919050565b6000546001600160a01b0316331461024a5760405162461bcd60e51b8152600401610241906104f5565b60405180910390fd5b610254600061045c565b565b6000546001600160a01b031633146102805760405162461bcd60e51b8152600401610241906104f5565b600280546001600160a01b0319166001600160a01b0392909216919091179055565b60015434146102e75760405162461bcd60e51b81526020600482015260116024820152701b5cd9cb9d985b1d59481a5b9d985b1a59607a1b6044820152606401610241565b6002546001546040516001600160a01b039092169181156108fc0291906000818181858888f19350505050158015610323573d6000803e3d6000fd5b5033600090815260036020526040902054610342906301e1338061052a565b33600081815260036020526040908190209290925590517fe777ae9d65766408c351d743ed88284c7719883019e08000af32400646abcff8906103889034815260200190565b60405180910390a2565b6000546001600160a01b031633146103bc5760405162461bcd60e51b8152600401610241906104f5565b600155565b6000546001600160a01b031633146103eb5760405162461bcd60e51b8152600401610241906104f5565b6001600160a01b0381166104505760405162461bcd60e51b815260206004820152602660248201527f4f776e61626c653a206e6577206f776e657220697320746865207a65726f206160448201526564647265737360d01b6064820152608401610241565b6104598161045c565b50565b600080546001600160a01b038381166001600160a01b0319831681178455604051919092169283917f8be0079c531659141344cd1fd0a4f28419497f9722a3daafe3b4186f6b6457e09190a35050565b6000602082840312156104be57600080fd5b81356001600160a01b03811681146104d557600080fd5b9392505050565b6000602082840312156104ee57600080fd5b5035919050565b6020808252818101527f4f776e61626c653a2063616c6c6572206973206e6f7420746865206f776e6572604082015260600190565b6000821982111561054b57634e487b7160e01b600052601160045260246000fd5b50019056fea26469706673582212209b137a0853858a0c1c1f3025d625eb15e31543fee7696e6df40b8449ff1b186c64736f6c634300080d0033",
					"opcodes": "PUSH1 0x80 PUSH1 0x40 MSTORE PUSH9 0xAD78EBC5AC6200000 PUSH1 0x1 SSTORE PUSH1 0x2 DUP1 SLOAD PUSH1 0x1 PUSH1 0x1 PUSH1 0xA0 SHL SUB NOT AND PUSH20 0x10CEC672C6BB2F6782BEED65987E020902B7BD15 OR SWAP1 SSTORE CALLVALUE DUP1 ISZERO PUSH2 0x43 JUMPI PUSH1 0x0 DUP1 REVERT JUMPDEST POP PUSH2 0x4D CALLER PUSH2 0x52 JUMP JUMPDEST PUSH2 0xA2 JUMP JUMPDEST PUSH1 0x0 DUP1 SLOAD PUSH1 0x1 PUSH1 0x1 PUSH1 0xA0 SHL SUB DUP4 DUP2 AND PUSH1 0x1 PUSH1 0x1 PUSH1 0xA0 SHL SUB NOT DUP4 AND DUP2 OR DUP5 SSTORE PUSH1 0x40 MLOAD SWAP2 SWAP1 SWAP3 AND SWAP3 DUP4 SWAP2 PUSH32 0x8BE0079C531659141344CD1FD0A4F28419497F9722A3DAAFE3B4186F6B6457E0 SWAP2 SWAP1 LOG3 POP POP JUMP JUMPDEST PUSH2 0x586 DUP1 PUSH2 0xB1 PUSH1 0x0 CODECOPY PUSH1 0x0 RETURN INVALID PUSH1 0x80 PUSH1 0x40 MSTORE PUSH1 0x4 CALLDATASIZE LT PUSH2 0x84 JUMPI PUSH1 0x0 CALLDATALOAD PUSH1 0xE0 SHR DUP1 PUSH4 0x7AD3C93A GT PUSH2 0x56 JUMPI DUP1 PUSH4 0x7AD3C93A EQ PUSH2 0x13A JUMPI DUP1 PUSH4 0x8B68E1FA EQ PUSH2 0x15A JUMPI DUP1 PUSH4 0x8DA5CB5B EQ PUSH2 0x162 JUMPI DUP1 PUSH4 0xF2C8609E EQ PUSH2 0x180 JUMPI DUP1 PUSH4 0xF2FDE38B EQ PUSH2 0x1A0 JUMPI STOP JUMPDEST DUP1 PUSH4 0x4AEFDCCD EQ PUSH2 0x8D JUMPI DUP1 PUSH4 0x4B165090 EQ PUSH2 0xCD JUMPI DUP1 PUSH4 0x715018A6 EQ PUSH2 0xED JUMPI DUP1 PUSH4 0x75A3AAE7 EQ PUSH2 0x102 JUMPI STOP JUMPDEST CALLDATASIZE PUSH2 0x8B JUMPI STOP JUMPDEST STOP JUMPDEST CALLVALUE DUP1 ISZERO PUSH2 0x99 JUMPI PUSH1 0x0 DUP1 REVERT JUMPDEST POP PUSH2 0xBA PUSH2 0xA8 CALLDATASIZE PUSH1 0x4 PUSH2 0x4AC JUMP JUMPDEST PUSH1 0x3 PUSH1 0x20 MSTORE PUSH1 0x0 SWAP1 DUP2 MSTORE PUSH1 0x40 SWAP1 KECCAK256 SLOAD DUP2 JUMP JUMPDEST PUSH1 0x40 MLOAD SWAP1 DUP2 MSTORE PUSH1 0x20 ADD JUMPDEST PUSH1 0x40 MLOAD DUP1 SWAP2 SUB SWAP1 RETURN JUMPDEST CALLVALUE DUP1 ISZERO PUSH2 0xD9 JUMPI PUSH1 0x0 DUP1 REVERT JUMPDEST POP PUSH2 0xBA PUSH2 0xE8 CALLDATASIZE PUSH1 0x4 PUSH2 0x4AC JUMP JUMPDEST PUSH2 0x1C0 JUMP JUMPDEST CALLVALUE DUP1 ISZERO PUSH2 0xF9 JUMPI PUSH1 0x0 DUP1 REVERT JUMPDEST POP PUSH2 0x8B PUSH2 0x217 JUMP JUMPDEST CALLVALUE DUP1 ISZERO PUSH2 0x10E JUMPI PUSH1 0x0 DUP1 REVERT JUMPDEST POP PUSH1 0x2 SLOAD PUSH2 0x122 SWAP1 PUSH1 0x1 PUSH1 0x1 PUSH1 0xA0 SHL SUB AND DUP2 JUMP JUMPDEST PUSH1 0x40 MLOAD PUSH1 0x1 PUSH1 0x1 PUSH1 0xA0 SHL SUB SWAP1 SWAP2 AND DUP2 MSTORE PUSH1 0x20 ADD PUSH2 0xC4 JUMP JUMPDEST CALLVALUE DUP1 ISZERO PUSH2 0x146 JUMPI PUSH1 0x0 DUP1 REVERT JUMPDEST POP PUSH2 0x8B PUSH2 0x155 CALLDATASIZE PUSH1 0x4 PUSH2 0x4AC JUMP JUMPDEST PUSH2 0x256 JUMP JUMPDEST PUSH2 0x8B PUSH2 0x2A2 JUMP JUMPDEST CALLVALUE DUP1 ISZERO PUSH2 0x16E JUMPI PUSH1 0x0 DUP1 REVERT JUMPDEST POP PUSH1 0x0 SLOAD PUSH1 0x1 PUSH1 0x1 PUSH1 0xA0 SHL SUB AND PUSH2 0x122 JUMP JUMPDEST CALLVALUE DUP1 ISZERO PUSH2 0x18C JUMPI PUSH1 0x0 DUP1 REVERT JUMPDEST POP PUSH2 0x8B PUSH2 0x19B CALLDATASIZE PUSH1 0x4 PUSH2 0x4DC JUMP JUMPDEST PUSH2 0x392 JUMP JUMPDEST CALLVALUE DUP1 ISZERO PUSH2 0x1AC JUMPI PUSH1 0x0 DUP1 REVERT JUMPDEST POP PUSH2 0x8B PUSH2 0x1BB CALLDATASIZE PUSH1 0x4 PUSH2 0x4AC JUMP JUMPDEST PUSH2 0x3C1 JUMP JUMPDEST PUSH1 0x1 PUSH1 0x1 PUSH1 0xA0 SHL SUB DUP2 AND PUSH1 0x0 SWAP1 DUP2 MSTORE PUSH1 0x3 PUSH1 0x20 MSTORE PUSH1 0x40 DUP2 KECCAK256 SLOAD DUP2 SUB PUSH2 0x1E7 JUMPI POP PUSH1 0x0 SWAP2 SWAP1 POP JUMP JUMPDEST PUSH1 0x1 PUSH1 0x1 PUSH1 0xA0 SHL SUB DUP3 AND PUSH1 0x0 SWAP1 DUP2 MSTORE PUSH1 0x3 PUSH1 0x20 MSTORE PUSH1 0x40 SWAP1 KECCAK256 SLOAD TIMESTAMP GT ISZERO PUSH2 0x20F JUMPI POP PUSH1 0x1 SWAP2 SWAP1 POP JUMP JUMPDEST POP PUSH1 0x2 SWAP2 SWAP1 POP JUMP JUMPDEST PUSH1 0x0 SLOAD PUSH1 0x1 PUSH1 0x1 PUSH1 0xA0 SHL SUB AND CALLER EQ PUSH2 0x24A JUMPI PUSH1 0x40 MLOAD PUSH3 0x461BCD PUSH1 0xE5 SHL DUP2 MSTORE PUSH1 0x4 ADD PUSH2 0x241 SWAP1 PUSH2 0x4F5 JUMP JUMPDEST PUSH1 0x40 MLOAD DUP1 SWAP2 SUB SWAP1 REVERT JUMPDEST PUSH2 0x254 PUSH1 0x0 PUSH2 0x45C JUMP JUMPDEST JUMP JUMPDEST PUSH1 0x0 SLOAD PUSH1 0x1 PUSH1 0x1 PUSH1 0xA0 SHL SUB AND CALLER EQ PUSH2 0x280 JUMPI PUSH1 0x40 MLOAD PUSH3 0x461BCD PUSH1 0xE5 SHL DUP2 MSTORE PUSH1 0x4 ADD PUSH2 0x241 SWAP1 PUSH2 0x4F5 JUMP JUMPDEST PUSH1 0x2 DUP1 SLOAD PUSH1 0x1 PUSH1 0x1 PUSH1 0xA0 SHL SUB NOT AND PUSH1 0x1 PUSH1 0x1 PUSH1 0xA0 SHL SUB SWAP3 SWAP1 SWAP3 AND SWAP2 SWAP1 SWAP2 OR SWAP1 SSTORE JUMP JUMPDEST PUSH1 0x1 SLOAD CALLVALUE EQ PUSH2 0x2E7 JUMPI PUSH1 0x40 MLOAD PUSH3 0x461BCD PUSH1 0xE5 SHL DUP2 MSTORE PUSH1 0x20 PUSH1 0x4 DUP3 ADD MSTORE PUSH1 0x11 PUSH1 0x24 DUP3 ADD MSTORE PUSH17 0x1B5CD9CB9D985B1D59481A5B9D985B1A59 PUSH1 0x7A SHL PUSH1 0x44 DUP3 ADD MSTORE PUSH1 0x64 ADD PUSH2 0x241 JUMP JUMPDEST PUSH1 0x2 SLOAD PUSH1 0x1 SLOAD PUSH1 0x40 MLOAD PUSH1 0x1 PUSH1 0x1 PUSH1 0xA0 SHL SUB SWAP1 SWAP3 AND SWAP2 DUP2 ISZERO PUSH2 0x8FC MUL SWAP2 SWAP1 PUSH1 0x0 DUP2 DUP2 DUP2 DUP6 DUP9 DUP9 CALL SWAP4 POP POP POP POP ISZERO DUP1 ISZERO PUSH2 0x323 JUMPI RETURNDATASIZE PUSH1 0x0 DUP1 RETURNDATACOPY RETURNDATASIZE PUSH1 0x0 REVERT JUMPDEST POP CALLER PUSH1 0x0 SWAP1 DUP2 MSTORE PUSH1 0x3 PUSH1 0x20 MSTORE PUSH1 0x40 SWAP1 KECCAK256 SLOAD PUSH2 0x342 SWAP1 PUSH4 0x1E13380 PUSH2 0x52A JUMP JUMPDEST CALLER PUSH1 0x0 DUP2 DUP2 MSTORE PUSH1 0x3 PUSH1 0x20 MSTORE PUSH1 0x40 SWAP1 DUP2 SWAP1 KECCAK256 SWAP3 SWAP1 SWAP3 SSTORE SWAP1 MLOAD PUSH32 0xE777AE9D65766408C351D743ED88284C7719883019E08000AF32400646ABCFF8 SWAP1 PUSH2 0x388 SWAP1 CALLVALUE DUP2 MSTORE PUSH1 0x20 ADD SWAP1 JUMP JUMPDEST PUSH1 0x40 MLOAD DUP1 SWAP2 SUB SWAP1 LOG2 JUMP JUMPDEST PUSH1 0x0 SLOAD PUSH1 0x1 PUSH1 0x1 PUSH1 0xA0 SHL SUB AND CALLER EQ PUSH2 0x3BC JUMPI PUSH1 0x40 MLOAD PUSH3 0x461BCD PUSH1 0xE5 SHL DUP2 MSTORE PUSH1 0x4 ADD PUSH2 0x241 SWAP1 PUSH2 0x4F5 JUMP JUMPDEST PUSH1 0x1 SSTORE JUMP JUMPDEST PUSH1 0x0 SLOAD PUSH1 0x1 PUSH1 0x1 PUSH1 0xA0 SHL SUB AND CALLER EQ PUSH2 0x3EB JUMPI PUSH1 0x40 MLOAD PUSH3 0x461BCD PUSH1 0xE5 SHL DUP2 MSTORE PUSH1 0x4 ADD PUSH2 0x241 SWAP1 PUSH2 0x4F5 JUMP JUMPDEST PUSH1 0x1 PUSH1 0x1 PUSH1 0xA0 SHL SUB DUP2 AND PUSH2 0x450 JUMPI PUSH1 0x40 MLOAD PUSH3 0x461BCD PUSH1 0xE5 SHL DUP2 MSTORE PUSH1 0x20 PUSH1 0x4 DUP3 ADD MSTORE PUSH1 0x26 PUSH1 0x24 DUP3 ADD MSTORE PUSH32 0x4F776E61626C653A206E6577206F776E657220697320746865207A65726F2061 PUSH1 0x44 DUP3 ADD MSTORE PUSH6 0x646472657373 PUSH1 0xD0 SHL PUSH1 0x64 DUP3 ADD MSTORE PUSH1 0x84 ADD PUSH2 0x241 JUMP JUMPDEST PUSH2 0x459 DUP2 PUSH2 0x45C JUMP JUMPDEST POP JUMP JUMPDEST PUSH1 0x0 DUP1 SLOAD PUSH1 0x1 PUSH1 0x1 PUSH1 0xA0 SHL SUB DUP4 DUP2 AND PUSH1 0x1 PUSH1 0x1 PUSH1 0xA0 SHL SUB NOT DUP4 AND DUP2 OR DUP5 SSTORE PUSH1 0x40 MLOAD SWAP2 SWAP1 SWAP3 AND SWAP3 DUP4 SWAP2 PUSH32 0x8BE0079C531659141344CD1FD0A4F28419497F9722A3DAAFE3B4186F6B6457E0 SWAP2 SWAP1 LOG3 POP POP JUMP JUMPDEST PUSH1 0x0 PUSH1 0x20 DUP3 DUP5 SUB SLT ISZERO PUSH2 0x4BE JUMPI PUSH1 0x0 DUP1 REVERT JUMPDEST DUP2 CALLDATALOAD PUSH1 0x1 PUSH1 0x1 PUSH1 0xA0 SHL SUB DUP2 AND DUP2 EQ PUSH2 0x4D5 JUMPI PUSH1 0x0 DUP1 REVERT JUMPDEST SWAP4 SWAP3 POP POP POP JUMP JUMPDEST PUSH1 0x0 PUSH1 0x20 DUP3 DUP5 SUB SLT ISZERO PUSH2 0x4EE JUMPI PUSH1 0x0 DUP1 REVERT JUMPDEST POP CALLDATALOAD SWAP2 SWAP1 POP JUMP JUMPDEST PUSH1 0x20 DUP1 DUP3 MSTORE DUP2 DUP2 ADD MSTORE PUSH32 0x4F776E61626C653A2063616C6C6572206973206E6F7420746865206F776E6572 PUSH1 0x40 DUP3 ADD MSTORE PUSH1 0x60 ADD SWAP1 JUMP JUMPDEST PUSH1 0x0 DUP3 NOT DUP3 GT ISZERO PUSH2 0x54B JUMPI PUSH4 0x4E487B71 PUSH1 0xE0 SHL PUSH1 0x0 MSTORE PUSH1 0x11 PUSH1 0x4 MSTORE PUSH1 0x24 PUSH1 0x0 REVERT JUMPDEST POP ADD SWAP1 JUMP INVALID LOG2 PUSH5 0x6970667358 0x22 SLT KECCAK256 SWAP12 SGT PUSH27 0x853858A0C1C1F3025D625EB15E31543FEE7696E6DF40B8449FF1B XOR PUSH13 0x64736F6C634300080D00330000 "
				},
				"gasEstimates": {
					"creation": {
						"codeDepositCost": "282800",
						"executionCost": "72507",
						"totalCost": "355307"
					},
					"external": {
						"": "162",
						"checkAuth(address)": "4771",
						"endTime(address)": "2474",
						"owner()": "2375",
						"payForRenew()": "infinite",
						"renounceOwnership()": "28159",
						"setYearFee(uint256)": "24530",
						"setYearFeeAddress(address)": "26676",
						"transferOwnership(address)": "28362",
						"yearFeeAddress()": "2404"
					}
				},
				"methodIdentifiers": {
					"checkAuth(address)": "4b165090",
					"endTime(address)": "4aefdccd",
					"owner()": "8da5cb5b",
					"payForRenew()": "8b68e1fa",
					"renounceOwnership()": "715018a6",
					"setYearFee(uint256)": "f2c8609e",
					"setYearFeeAddress(address)": "7ad3c93a",
					"transferOwnership(address)": "f2fde38b",
					"yearFeeAddress()": "75a3aae7"
				}
			},
			"userdoc": {
				"kind": "user",
				"methods": {},
				"version": 1
			}
		}
	}
}