{
	"contracts/tokens/ERBPay.sol": {
		"ERBPay": {
			"abi": [
				{
					"inputs": [],
					"stateMutability": "nonpayable",
					"type": "constructor"
				},
				{
					"anonymous": false,
					"inputs": [
						{
							"indexed": true,
							"internalType": "address",
							"name": "previousOwner",
							"type": "address"
						},
						{
							"indexed": true,
							"internalType": "address",
							"name": "newOwner",
							"type": "address"
						}
					],
					"name": "OwnershipTransferred",
					"type": "event"
				},
				{
					"anonymous": false,
					"inputs": [
						{
							"indexed": true,
							"internalType": "address",
							"name": "sender",
							"type": "address"
						},
						{
							"indexed": false,
							"internalType": "uint256",
							"name": "amount",
							"type": "uint256"
						}
					],
					"name": "PayForOpenExchange",
					"type": "event"
				},
				{
					"anonymous": false,
					"inputs": [
						{
							"indexed": true,
							"internalType": "address",
							"name": "sender",
							"type": "address"
						},
						{
							"indexed": false,
							"internalType": "uint256",
							"name": "amount",
							"type": "uint256"
						}
					],
					"name": "PayForOpenRenew",
					"type": "event"
				},
				{
					"stateMutability": "payable",
					"type": "fallback"
				},
				{
					"inputs": [
						{
							"internalType": "address",
							"name": "addr",
							"type": "address"
						}
					],
					"name": "checkAuth",
					"outputs": [
						{
							"internalType": "uint256",
							"name": "",
							"type": "uint256"
						}
					],
					"stateMutability": "view",
					"type": "function"
				},
				{
					"inputs": [
						{
							"internalType": "address",
							"name": "",
							"type": "address"
						}
					],
					"name": "endTime",
					"outputs": [
						{
							"internalType": "uint256",
							"name": "",
							"type": "uint256"
						}
					],
					"stateMutability": "view",
					"type": "function"
				},
				{
					"inputs": [],
					"name": "otherFeeAddress",
					"outputs": [
						{
							"internalType": "address",
							"name": "",
							"type": "address"
						}
					],
					"stateMutability": "view",
					"type": "function"
				},
				{
					"inputs": [],
					"name": "owner",
					"outputs": [
						{
							"internalType": "address",
							"name": "",
							"type": "address"
						}
					],
					"stateMutability": "view",
					"type": "function"
				},
				{
					"inputs": [],
					"name": "payForOpenExchange",
					"outputs": [],
					"stateMutability": "payable",
					"type": "function"
				},
				{
					"inputs": [],
					"name": "payForRenew",
					"outputs": [],
					"stateMutability": "payable",
					"type": "function"
				},
				{
					"inputs": [],
					"name": "renounceOwnership",
					"outputs": [],
					"stateMutability": "nonpayable",
					"type": "function"
				},
				{
					"inputs": [
						{
							"internalType": "uint256",
							"name": "amount",
							"type": "uint256"
						}
					],
					"name": "setOtherFee",
					"outputs": [],
					"stateMutability": "nonpayable",
					"type": "function"
				},
				{
					"inputs": [
						{
							"internalType": "address",
							"name": "_addr",
							"type": "address"
						}
					],
					"name": "setOtherFeeAddress",
					"outputs": [],
					"stateMutability": "nonpayable",
					"type": "function"
				},
				{
					"inputs": [
						{
							"internalType": "uint256",
							"name": "amount",
							"type": "uint256"
						}
					],
					"name": "setYearFee",
					"outputs": [],
					"stateMutability": "nonpayable",
					"type": "function"
				},
				{
					"inputs": [
						{
							"internalType": "address",
							"name": "_addr",
							"type": "address"
						}
					],
					"name": "setYearFeeAddress",
					"outputs": [],
					"stateMutability": "nonpayable",
					"type": "function"
				},
				{
					"inputs": [
						{
							"internalType": "address",
							"name": "newOwner",
							"type": "address"
						}
					],
					"name": "transferOwnership",
					"outputs": [],
					"stateMutability": "nonpayable",
					"type": "function"
				},
				{
					"inputs": [],
					"name": "yearFeeAddress",
					"outputs": [
						{
							"internalType": "address",
							"name": "",
							"type": "address"
						}
					],
					"stateMutability": "view",
					"type": "function"
				},
				{
					"stateMutability": "payable",
					"type": "receive"
				}
			],
			"devdoc": {
				"kind": "dev",
				"methods": {
					"owner()": {
						"details": "Returns the address of the current owner."
					},
					"renounceOwnership()": {
						"details": "Leaves the contract without owner. It will not be possible to call `onlyOwner` functions anymore. Can only be called by the current owner. NOTE: Renouncing ownership will leave the contract without an owner, thereby removing any functionality that is only available to the owner."
					},
					"transferOwnership(address)": {
						"details": "Transfers ownership of the contract to a new account (`newOwner`). Can only be called by the current owner."
					}
				},
				"version": 1
			},
			"evm": {
				"assembly": "    /* \"contracts/tokens/ERBPay.sol\":114:2077  contract ERBPay is Ownable{\r... */\n  mstore(0x40, 0x80)\n    /* \"contracts/tokens/ERBPay.sol\":163:171  200*1e18 */\n  0x0ad78ebc5ac6200000\n    /* \"contracts/tokens/ERBPay.sol\":147:171  uint256 yearFee=200*1e18 */\n  0x01\n  sstore\n    /* \"contracts/tokens/ERBPay.sol\":195:203  100*1e18 */\n  0x056bc75e2d63100000\n    /* \"contracts/tokens/ERBPay.sol\":178:203  uint256 otherFee=100*1e18 */\n  0x02\n  sstore\n    /* \"contracts/tokens/ERBPay.sol\":240:282  0x10CEc672c6BB2f6782BEED65987E020902B7bD15 */\n  0x10cec672c6bb2f6782beed65987e020902b7bd15\n    /* \"contracts/tokens/ERBPay.sol\":210:282  address public yearFeeAddress=0x10CEc672c6BB2f6782BEED65987E020902B7bD15 */\n  0x03\n  exp(0x0100, 0x00)\n  dup2\n  sload\n  dup2\n  0xffffffffffffffffffffffffffffffffffffffff\n  mul\n  not\n  and\n  swap1\n  dup4\n  0xffffffffffffffffffffffffffffffffffffffff\n  and\n  mul\n  or\n  swap1\n  sstore\n  pop\n    /* \"contracts/tokens/ERBPay.sol\":320:362  0xEbE809C70406Fc07e70Bc2c590bC7Dd9Ba9272Ac */\n  0xebe809c70406fc07e70bc2c590bc7dd9ba9272ac\n    /* \"contracts/tokens/ERBPay.sol\":289:362  address public otherFeeAddress=0xEbE809C70406Fc07e70Bc2c590bC7Dd9Ba9272Ac */\n  0x04\n  exp(0x0100, 0x00)\n  dup2\n  sload\n  dup2\n  0xffffffffffffffffffffffffffffffffffffffff\n  mul\n  not\n  and\n  swap1\n  dup4\n  0xffffffffffffffffffffffffffffffffffffffff\n  and\n  mul\n  or\n  swap1\n  sstore\n  pop\n    /* \"contracts/tokens/ERBPay.sol\":554:577  constructor () {\r... */\n  callvalue\n  dup1\n  iszero\n  tag_1\n  jumpi\n  0x00\n  dup1\n  revert\ntag_1:\n  pop\n    /* \"@openzeppelin/contracts/access/Ownable.sol\":921:953  _transferOwnership(_msgSender()) */\n  tag_5\n    /* \"@openzeppelin/contracts/access/Ownable.sol\":940:952  _msgSender() */\n  tag_6\n    /* \"@openzeppelin/contracts/access/Ownable.sol\":940:950  _msgSender */\n  shl(0x20, tag_7)\n    /* \"@openzeppelin/contracts/access/Ownable.sol\":940:952  _msgSender() */\n  0x20\n  shr\n  jump\t// in\ntag_6:\n    /* \"@openzeppelin/contracts/access/Ownable.sol\":921:939  _transferOwnership */\n  shl(0x20, tag_8)\n    /* \"@openzeppelin/contracts/access/Ownable.sol\":921:953  _transferOwnership(_msgSender()) */\n  0x20\n  shr\n  jump\t// in\ntag_5:\n    /* \"contracts/tokens/ERBPay.sol\":114:2077  contract ERBPay is Ownable{\r... */\n  jump(tag_10)\n    /* \"@openzeppelin/contracts/utils/Context.sol\":640:736  function _msgSender() internal view virtual returns (address) {... */\ntag_7:\n    /* \"@openzeppelin/contracts/utils/Context.sol\":693:700  address */\n  0x00\n    /* \"@openzeppelin/contracts/utils/Context.sol\":719:729  msg.sender */\n  caller\n    /* \"@openzeppelin/contracts/utils/Context.sol\":712:729  return msg.sender */\n  swap1\n  pop\n    /* \"@openzeppelin/contracts/utils/Context.sol\":640:736  function _msgSender() internal view virtual returns (address) {... */\n  swap1\n  jump\t// out\n    /* \"@openzeppelin/contracts/access/Ownable.sol\":2270:2457  function _transferOwnership(address newOwner) internal virtual {... */\ntag_8:\n    /* \"@openzeppelin/contracts/access/Ownable.sol\":2343:2359  address oldOwner */\n  0x00\n    /* \"@openzeppelin/contracts/access/Ownable.sol\":2362:2368  _owner */\n  dup1\n  0x00\n  swap1\n  sload\n  swap1\n  0x0100\n  exp\n  swap1\n  div\n  0xffffffffffffffffffffffffffffffffffffffff\n  and\n    /* \"@openzeppelin/contracts/access/Ownable.sol\":2343:2368  address oldOwner = _owner */\n  swap1\n  pop\n    /* \"@openzeppelin/contracts/access/Ownable.sol\":2387:2395  newOwner */\n  dup2\n    /* \"@openzeppelin/contracts/access/Ownable.sol\":2378:2384  _owner */\n  0x00\n  dup1\n    /* \"@openzeppelin/contracts/access/Ownable.sol\":2378:2395  _owner = newOwner */\n  0x0100\n  exp\n  dup2\n  sload\n  dup2\n  0xffffffffffffffffffffffffffffffffffffffff\n  mul\n  not\n  and\n  swap1\n  dup4\n  0xffffffffffffffffffffffffffffffffffffffff\n  and\n  mul\n  or\n  swap1\n  sstore\n  pop\n    /* \"@openzeppelin/contracts/access/Ownable.sol\":2441:2449  newOwner */\n  dup2\n    /* \"@openzeppelin/contracts/access/Ownable.sol\":2410:2450  OwnershipTransferred(oldOwner, newOwner) */\n  0xffffffffffffffffffffffffffffffffffffffff\n  and\n    /* \"@openzeppelin/contracts/access/Ownable.sol\":2431:2439  oldOwner */\n  dup2\n    /* \"@openzeppelin/contracts/access/Ownable.sol\":2410:2450  OwnershipTransferred(oldOwner, newOwner) */\n  0xffffffffffffffffffffffffffffffffffffffff\n  and\n  0x8be0079c531659141344cd1fd0a4f28419497f9722a3daafe3b4186f6b6457e0\n  mload(0x40)\n  mload(0x40)\n  dup1\n  swap2\n  sub\n  swap1\n  log3\n    /* \"@openzeppelin/contracts/access/Ownable.sol\":2333:2457  {... */\n  pop\n    /* \"@openzeppelin/contracts/access/Ownable.sol\":2270:2457  function _transferOwnership(address newOwner) internal virtual {... */\n  pop\n  jump\t// out\n    /* \"contracts/tokens/ERBPay.sol\":114:2077  contract ERBPay is Ownable{\r... */\ntag_10:\n  dataSize(sub_0)\n  dup1\n  dataOffset(sub_0)\n  0x00\n  codecopy\n  0x00\n  return\nstop\n\nsub_0: assembly {\n        /* \"contracts/tokens/ERBPay.sol\":114:2077  contract ERBPay is Ownable{\r... */\n      mstore(0x40, 0x80)\n      jumpi(tag_1, lt(calldatasize, 0x04))\n      shr(0xe0, calldataload(0x00))\n      dup1\n      0x8310f06d\n      gt\n      tag_16\n      jumpi\n      dup1\n      0xaeb0bc79\n      gt\n      tag_17\n      jumpi\n      dup1\n      0xaeb0bc79\n      eq\n      tag_12\n      jumpi\n      dup1\n      0xe0c350b5\n      eq\n      tag_13\n      jumpi\n      dup1\n      0xf2c8609e\n      eq\n      tag_14\n      jumpi\n      dup1\n      0xf2fde38b\n      eq\n      tag_15\n      jumpi\n      jump(tag_2)\n    tag_17:\n      dup1\n      0x8310f06d\n      eq\n      tag_9\n      jumpi\n      dup1\n      0x8b68e1fa\n      eq\n      tag_10\n      jumpi\n      dup1\n      0x8da5cb5b\n      eq\n      tag_11\n      jumpi\n      jump(tag_2)\n    tag_16:\n      dup1\n      0x366a8508\n      eq\n      tag_3\n      jumpi\n      dup1\n      0x4aefdccd\n      eq\n      tag_4\n      jumpi\n      dup1\n      0x4b165090\n      eq\n      tag_5\n      jumpi\n      dup1\n      0x715018a6\n      eq\n      tag_6\n      jumpi\n      dup1\n      0x75a3aae7\n      eq\n      tag_7\n      jumpi\n      dup1\n      0x7ad3c93a\n      eq\n      tag_8\n      jumpi\n      jump(tag_2)\n    tag_1:\n      jumpi(tag_2, calldatasize)\n      stop\n    tag_2:\n      stop\n        /* \"contracts/tokens/ERBPay.sol\":289:362  address public otherFeeAddress=0xEbE809C70406Fc07e70Bc2c590bC7Dd9Ba9272Ac */\n    tag_3:\n      callvalue\n      dup1\n      iszero\n      tag_22\n      jumpi\n      0x00\n      dup1\n      revert\n    tag_22:\n      pop\n      tag_23\n      tag_24\n      jump\t// in\n    tag_23:\n      mload(0x40)\n      tag_25\n      swap2\n      swap1\n      tag_26\n      jump\t// in\n    tag_25:\n      mload(0x40)\n      dup1\n      swap2\n      sub\n      swap1\n      return\n        /* \"contracts/tokens/ERBPay.sol\":369:408  mapping(address=>uint256)public endTime */\n    tag_4:\n      callvalue\n      dup1\n      iszero\n      tag_27\n      jumpi\n      0x00\n      dup1\n      revert\n    tag_27:\n      pop\n      tag_28\n      0x04\n      dup1\n      calldatasize\n      sub\n      dup2\n      add\n      swap1\n      tag_29\n      swap2\n      swap1\n      tag_30\n      jump\t// in\n    tag_29:\n      tag_31\n      jump\t// in\n    tag_28:\n      mload(0x40)\n      tag_32\n      swap2\n      swap1\n      tag_33\n      jump\t// in\n    tag_32:\n      mload(0x40)\n      dup1\n      swap2\n      sub\n      swap1\n      return\n        /* \"contracts/tokens/ERBPay.sol\":1774:1997  function checkAuth(address addr)view public returns(uint256){\r... */\n    tag_5:\n      callvalue\n      dup1\n      iszero\n      tag_34\n      jumpi\n      0x00\n      dup1\n      revert\n    tag_34:\n      pop\n      tag_35\n      0x04\n      dup1\n      calldatasize\n      sub\n      dup2\n      add\n      swap1\n      tag_36\n      swap2\n      swap1\n      tag_30\n      jump\t// in\n    tag_36:\n      tag_37\n      jump\t// in\n    tag_35:\n      mload(0x40)\n      tag_38\n      swap2\n      swap1\n      tag_33\n      jump\t// in\n    tag_38:\n      mload(0x40)\n      dup1\n      swap2\n      sub\n      swap1\n      return\n        /* \"@openzeppelin/contracts/access/Ownable.sol\":1668:1769  function renounceOwnership() public virtual onlyOwner {... */\n    tag_6:\n      callvalue\n      dup1\n      iszero\n      tag_39\n      jumpi\n      0x00\n      dup1\n      revert\n    tag_39:\n      pop\n      tag_40\n      tag_41\n      jump\t// in\n    tag_40:\n      stop\n        /* \"contracts/tokens/ERBPay.sol\":210:282  address public yearFeeAddress=0x10CEc672c6BB2f6782BEED65987E020902B7bD15 */\n    tag_7:\n      callvalue\n      dup1\n      iszero\n      tag_42\n      jumpi\n      0x00\n      dup1\n      revert\n    tag_42:\n      pop\n      tag_43\n      tag_44\n      jump\t// in\n    tag_43:\n      mload(0x40)\n      tag_45\n      swap2\n      swap1\n      tag_26\n      jump\t// in\n    tag_45:\n      mload(0x40)\n      dup1\n      swap2\n      sub\n      swap1\n      return\n        /* \"contracts/tokens/ERBPay.sol\":777:876  function setYearFeeAddress(address _addr) external onlyOwner{\r... */\n    tag_8:\n      callvalue\n      dup1\n      iszero\n      tag_46\n      jumpi\n      0x00\n      dup1\n      revert\n    tag_46:\n      pop\n      tag_47\n      0x04\n      dup1\n      calldatasize\n      sub\n      dup2\n      add\n      swap1\n      tag_48\n      swap2\n      swap1\n      tag_30\n      jump\t// in\n    tag_48:\n      tag_49\n      jump\t// in\n    tag_47:\n      stop\n        /* \"contracts/tokens/ERBPay.sol\":993:1388  function payForOpenExchange()external payable{\r... */\n    tag_9:\n      tag_50\n      tag_51\n      jump\t// in\n    tag_50:\n      stop\n        /* \"contracts/tokens/ERBPay.sol\":1396:1726  function payForRenew()external payable{\r... */\n    tag_10:\n      tag_52\n      tag_53\n      jump\t// in\n    tag_52:\n      stop\n        /* \"@openzeppelin/contracts/access/Ownable.sol\":1036:1121  function owner() public view virtual returns (address) {... */\n    tag_11:\n      callvalue\n      dup1\n      iszero\n      tag_54\n      jumpi\n      0x00\n      dup1\n      revert\n    tag_54:\n      pop\n      tag_55\n      tag_56\n      jump\t// in\n    tag_55:\n      mload(0x40)\n      tag_57\n      swap2\n      swap1\n      tag_26\n      jump\t// in\n    tag_57:\n      mload(0x40)\n      dup1\n      swap2\n      sub\n      swap1\n      return\n        /* \"contracts/tokens/ERBPay.sol\":680:769  function setOtherFee(uint256 amount) external onlyOwner{\r... */\n    tag_12:\n      callvalue\n      dup1\n      iszero\n      tag_58\n      jumpi\n      0x00\n      dup1\n      revert\n    tag_58:\n      pop\n      tag_59\n      0x04\n      dup1\n      calldatasize\n      sub\n      dup2\n      add\n      swap1\n      tag_60\n      swap2\n      swap1\n      tag_61\n      jump\t// in\n    tag_60:\n      tag_62\n      jump\t// in\n    tag_59:\n      stop\n        /* \"contracts/tokens/ERBPay.sol\":884:985  function setOtherFeeAddress(address _addr) external onlyOwner{\r... */\n    tag_13:\n      callvalue\n      dup1\n      iszero\n      tag_63\n      jumpi\n      0x00\n      dup1\n      revert\n    tag_63:\n      pop\n      tag_64\n      0x04\n      dup1\n      calldatasize\n      sub\n      dup2\n      add\n      swap1\n      tag_65\n      swap2\n      swap1\n      tag_30\n      jump\t// in\n    tag_65:\n      tag_66\n      jump\t// in\n    tag_64:\n      stop\n        /* \"contracts/tokens/ERBPay.sol\":585:672  function setYearFee(uint256 amount) external onlyOwner{\r... */\n    tag_14:\n      callvalue\n      dup1\n      iszero\n      tag_67\n      jumpi\n      0x00\n      dup1\n      revert\n    tag_67:\n      pop\n      tag_68\n      0x04\n      dup1\n      calldatasize\n      sub\n      dup2\n      add\n      swap1\n      tag_69\n      swap2\n      swap1\n      tag_61\n      jump\t// in\n    tag_69:\n      tag_70\n      jump\t// in\n    tag_68:\n      stop\n        /* \"@openzeppelin/contracts/access/Ownable.sol\":1918:2116  function transferOwnership(address newOwner) public virtual onlyOwner {... */\n    tag_15:\n      callvalue\n      dup1\n      iszero\n      tag_71\n      jumpi\n      0x00\n      dup1\n      revert\n    tag_71:\n      pop\n      tag_72\n      0x04\n      dup1\n      calldatasize\n      sub\n      dup2\n      add\n      swap1\n      tag_73\n      swap2\n      swap1\n      tag_30\n      jump\t// in\n    tag_73:\n      tag_74\n      jump\t// in\n    tag_72:\n      stop\n        /* \"contracts/tokens/ERBPay.sol\":289:362  address public otherFeeAddress=0xEbE809C70406Fc07e70Bc2c590bC7Dd9Ba9272Ac */\n    tag_24:\n      0x04\n      0x00\n      swap1\n      sload\n      swap1\n      0x0100\n      exp\n      swap1\n      div\n      0xffffffffffffffffffffffffffffffffffffffff\n      and\n      dup2\n      jump\t// out\n        /* \"contracts/tokens/ERBPay.sol\":369:408  mapping(address=>uint256)public endTime */\n    tag_31:\n      mstore(0x20, 0x05)\n      dup1\n      0x00\n      mstore\n      keccak256(0x00, 0x40)\n      0x00\n      swap2\n      pop\n      swap1\n      pop\n      sload\n      dup2\n      jump\t// out\n        /* \"contracts/tokens/ERBPay.sol\":1774:1997  function checkAuth(address addr)view public returns(uint256){\r... */\n    tag_37:\n        /* \"contracts/tokens/ERBPay.sol\":1826:1833  uint256 */\n      0x00\n        /* \"contracts/tokens/ERBPay.sol\":1863:1864  0 */\n      dup1\n        /* \"contracts/tokens/ERBPay.sol\":1848:1855  endTime */\n      0x05\n        /* \"contracts/tokens/ERBPay.sol\":1848:1861  endTime[addr] */\n      0x00\n        /* \"contracts/tokens/ERBPay.sol\":1856:1860  addr */\n      dup5\n        /* \"contracts/tokens/ERBPay.sol\":1848:1861  endTime[addr] */\n      0xffffffffffffffffffffffffffffffffffffffff\n      and\n      0xffffffffffffffffffffffffffffffffffffffff\n      and\n      dup2\n      mstore\n      0x20\n      add\n      swap1\n      dup2\n      mstore\n      0x20\n      add\n      0x00\n      keccak256\n      sload\n        /* \"contracts/tokens/ERBPay.sol\":1848:1864  endTime[addr]==0 */\n      eq\n        /* \"contracts/tokens/ERBPay.sol\":1845:1971  if(endTime[addr]==0){\r... */\n      iszero\n      tag_76\n      jumpi\n        /* \"contracts/tokens/ERBPay.sol\":1886:1887  0 */\n      0x00\n        /* \"contracts/tokens/ERBPay.sol\":1879:1887  return 0 */\n      swap1\n      pop\n      jump(tag_75)\n        /* \"contracts/tokens/ERBPay.sol\":1845:1971  if(endTime[addr]==0){\r... */\n    tag_76:\n        /* \"contracts/tokens/ERBPay.sol\":1921:1936  block.timestamp */\n      timestamp\n        /* \"contracts/tokens/ERBPay.sol\":1907:1914  endTime */\n      0x05\n        /* \"contracts/tokens/ERBPay.sol\":1907:1920  endTime[addr] */\n      0x00\n        /* \"contracts/tokens/ERBPay.sol\":1915:1919  addr */\n      dup5\n        /* \"contracts/tokens/ERBPay.sol\":1907:1920  endTime[addr] */\n      0xffffffffffffffffffffffffffffffffffffffff\n      and\n      0xffffffffffffffffffffffffffffffffffffffff\n      and\n      dup2\n      mstore\n      0x20\n      add\n      swap1\n      dup2\n      mstore\n      0x20\n      add\n      0x00\n      keccak256\n      sload\n        /* \"contracts/tokens/ERBPay.sol\":1907:1936  endTime[addr]<block.timestamp */\n      lt\n        /* \"contracts/tokens/ERBPay.sol\":1904:1971  if(endTime[addr]<block.timestamp){\r... */\n      iszero\n      tag_78\n      jumpi\n        /* \"contracts/tokens/ERBPay.sol\":1958:1959  1 */\n      0x01\n        /* \"contracts/tokens/ERBPay.sol\":1951:1959  return 1 */\n      swap1\n      pop\n      jump(tag_75)\n        /* \"contracts/tokens/ERBPay.sol\":1904:1971  if(endTime[addr]<block.timestamp){\r... */\n    tag_78:\n        /* \"contracts/tokens/ERBPay.sol\":1988:1989  2 */\n      0x02\n        /* \"contracts/tokens/ERBPay.sol\":1981:1989  return 2 */\n      swap1\n      pop\n        /* \"contracts/tokens/ERBPay.sol\":1774:1997  function checkAuth(address addr)view public returns(uint256){\r... */\n    tag_75:\n      swap2\n      swap1\n      pop\n      jump\t// out\n        /* \"@openzeppelin/contracts/access/Ownable.sol\":1668:1769  function renounceOwnership() public virtual onlyOwner {... */\n    tag_41:\n        /* \"@openzeppelin/contracts/access/Ownable.sol\":1259:1271  _msgSender() */\n      tag_80\n        /* \"@openzeppelin/contracts/access/Ownable.sol\":1259:1269  _msgSender */\n      tag_81\n        /* \"@openzeppelin/contracts/access/Ownable.sol\":1259:1271  _msgSender() */\n      jump\t// in\n    tag_80:\n        /* \"@openzeppelin/contracts/access/Ownable.sol\":1248:1271  owner() == _msgSender() */\n      0xffffffffffffffffffffffffffffffffffffffff\n      and\n        /* \"@openzeppelin/contracts/access/Ownable.sol\":1248:1255  owner() */\n      tag_82\n        /* \"@openzeppelin/contracts/access/Ownable.sol\":1248:1253  owner */\n      tag_56\n        /* \"@openzeppelin/contracts/access/Ownable.sol\":1248:1255  owner() */\n      jump\t// in\n    tag_82:\n        /* \"@openzeppelin/contracts/access/Ownable.sol\":1248:1271  owner() == _msgSender() */\n      0xffffffffffffffffffffffffffffffffffffffff\n      and\n      eq\n        /* \"@openzeppelin/contracts/access/Ownable.sol\":1240:1308  require(owner() == _msgSender(), \"Ownable: caller is not the owner\") */\n      tag_83\n      jumpi\n      mload(0x40)\n      0x08c379a000000000000000000000000000000000000000000000000000000000\n      dup2\n      mstore\n      0x04\n      add\n      tag_84\n      swap1\n      tag_85\n      jump\t// in\n    tag_84:\n      mload(0x40)\n      dup1\n      swap2\n      sub\n      swap1\n      revert\n    tag_83:\n        /* \"@openzeppelin/contracts/access/Ownable.sol\":1732:1762  _transferOwnership(address(0)) */\n      tag_87\n        /* \"@openzeppelin/contracts/access/Ownable.sol\":1759:1760  0 */\n      0x00\n        /* \"@openzeppelin/contracts/access/Ownable.sol\":1732:1750  _transferOwnership */\n      tag_88\n        /* \"@openzeppelin/contracts/access/Ownable.sol\":1732:1762  _transferOwnership(address(0)) */\n      jump\t// in\n    tag_87:\n        /* \"@openzeppelin/contracts/access/Ownable.sol\":1668:1769  function renounceOwnership() public virtual onlyOwner {... */\n      jump\t// out\n        /* \"contracts/tokens/ERBPay.sol\":210:282  address public yearFeeAddress=0x10CEc672c6BB2f6782BEED65987E020902B7bD15 */\n    tag_44:\n      0x03\n      0x00\n      swap1\n      sload\n      swap1\n      0x0100\n      exp\n      swap1\n      div\n      0xffffffffffffffffffffffffffffffffffffffff\n      and\n      dup2\n      jump\t// out\n        /* \"contracts/tokens/ERBPay.sol\":777:876  function setYearFeeAddress(address _addr) external onlyOwner{\r... */\n    tag_49:\n        /* \"@openzeppelin/contracts/access/Ownable.sol\":1259:1271  _msgSender() */\n      tag_90\n        /* \"@openzeppelin/contracts/access/Ownable.sol\":1259:1269  _msgSender */\n      tag_81\n        /* \"@openzeppelin/contracts/access/Ownable.sol\":1259:1271  _msgSender() */\n      jump\t// in\n    tag_90:\n        /* \"@openzeppelin/contracts/access/Ownable.sol\":1248:1271  owner() == _msgSender() */\n      0xffffffffffffffffffffffffffffffffffffffff\n      and\n        /* \"@openzeppelin/contracts/access/Ownable.sol\":1248:1255  owner() */\n      tag_91\n        /* \"@openzeppelin/contracts/access/Ownable.sol\":1248:1253  owner */\n      tag_56\n        /* \"@openzeppelin/contracts/access/Ownable.sol\":1248:1255  owner() */\n      jump\t// in\n    tag_91:\n        /* \"@openzeppelin/contracts/access/Ownable.sol\":1248:1271  owner() == _msgSender() */\n      0xffffffffffffffffffffffffffffffffffffffff\n      and\n      eq\n        /* \"@openzeppelin/contracts/access/Ownable.sol\":1240:1308  require(owner() == _msgSender(), \"Ownable: caller is not the owner\") */\n      tag_92\n      jumpi\n      mload(0x40)\n      0x08c379a000000000000000000000000000000000000000000000000000000000\n      dup2\n      mstore\n      0x04\n      add\n      tag_93\n      swap1\n      tag_85\n      jump\t// in\n    tag_93:\n      mload(0x40)\n      dup1\n      swap2\n      sub\n      swap1\n      revert\n    tag_92:\n        /* \"contracts/tokens/ERBPay.sol\":863:868  _addr */\n      dup1\n        /* \"contracts/tokens/ERBPay.sol\":848:862  yearFeeAddress */\n      0x03\n      0x00\n        /* \"contracts/tokens/ERBPay.sol\":848:868  yearFeeAddress=_addr */\n      0x0100\n      exp\n      dup2\n      sload\n      dup2\n      0xffffffffffffffffffffffffffffffffffffffff\n      mul\n      not\n      and\n      swap1\n      dup4\n      0xffffffffffffffffffffffffffffffffffffffff\n      and\n      mul\n      or\n      swap1\n      sstore\n      pop\n        /* \"contracts/tokens/ERBPay.sol\":777:876  function setYearFeeAddress(address _addr) external onlyOwner{\r... */\n      pop\n      jump\t// out\n        /* \"contracts/tokens/ERBPay.sol\":993:1388  function payForOpenExchange()external payable{\r... */\n    tag_51:\n        /* \"contracts/tokens/ERBPay.sol\":1077:1085  otherFee */\n      sload(0x02)\n        /* \"contracts/tokens/ERBPay.sol\":1069:1076  yearFee */\n      sload(0x01)\n        /* \"contracts/tokens/ERBPay.sol\":1069:1085  yearFee+otherFee */\n      tag_96\n      swap2\n      swap1\n      tag_97\n      jump\t// in\n    tag_96:\n        /* \"contracts/tokens/ERBPay.sol\":1056:1065  msg.value */\n      callvalue\n        /* \"contracts/tokens/ERBPay.sol\":1056:1085  msg.value == yearFee+otherFee */\n      eq\n        /* \"contracts/tokens/ERBPay.sol\":1048:1107  require(msg.value == yearFee+otherFee ,\"msg.value invalid\") */\n      tag_98\n      jumpi\n      mload(0x40)\n      0x08c379a000000000000000000000000000000000000000000000000000000000\n      dup2\n      mstore\n      0x04\n      add\n      tag_99\n      swap1\n      tag_100\n      jump\t// in\n    tag_99:\n      mload(0x40)\n      dup1\n      swap2\n      sub\n      swap1\n      revert\n    tag_98:\n        /* \"contracts/tokens/ERBPay.sol\":1146:1147  0 */\n      0x00\n        /* \"contracts/tokens/ERBPay.sol\":1125:1132  endTime */\n      0x05\n        /* \"contracts/tokens/ERBPay.sol\":1125:1144  endTime[msg.sender] */\n      0x00\n        /* \"contracts/tokens/ERBPay.sol\":1133:1143  msg.sender */\n      caller\n        /* \"contracts/tokens/ERBPay.sol\":1125:1144  endTime[msg.sender] */\n      0xffffffffffffffffffffffffffffffffffffffff\n      and\n      0xffffffffffffffffffffffffffffffffffffffff\n      and\n      dup2\n      mstore\n      0x20\n      add\n      swap1\n      dup2\n      mstore\n      0x20\n      add\n      0x00\n      keccak256\n      sload\n        /* \"contracts/tokens/ERBPay.sol\":1125:1147  endTime[msg.sender]==0 */\n      eq\n        /* \"contracts/tokens/ERBPay.sol\":1117:1166  require(endTime[msg.sender]==0 ,\"already opened\") */\n      tag_101\n      jumpi\n      mload(0x40)\n      0x08c379a000000000000000000000000000000000000000000000000000000000\n      dup2\n      mstore\n      0x04\n      add\n      tag_102\n      swap1\n      tag_103\n      jump\t// in\n    tag_102:\n      mload(0x40)\n      dup1\n      swap2\n      sub\n      swap1\n      revert\n    tag_101:\n        /* \"contracts/tokens/ERBPay.sol\":1184:1199  otherFeeAddress */\n      0x04\n      0x00\n      swap1\n      sload\n      swap1\n      0x0100\n      exp\n      swap1\n      div\n      0xffffffffffffffffffffffffffffffffffffffff\n      and\n        /* \"contracts/tokens/ERBPay.sol\":1176:1209  payable(otherFeeAddress).transfer */\n      0xffffffffffffffffffffffffffffffffffffffff\n      and\n        /* \"contracts/tokens/ERBPay.sol\":1176:1219  payable(otherFeeAddress).transfer(otherFee) */\n      0x08fc\n        /* \"contracts/tokens/ERBPay.sol\":1210:1218  otherFee */\n      sload(0x02)\n        /* \"contracts/tokens/ERBPay.sol\":1176:1219  payable(otherFeeAddress).transfer(otherFee) */\n      swap1\n      dup2\n      iszero\n      mul\n      swap1\n      mload(0x40)\n      0x00\n      mload(0x40)\n      dup1\n      dup4\n      sub\n      dup2\n      dup6\n      dup9\n      dup9\n      call\n      swap4\n      pop\n      pop\n      pop\n      pop\n      iszero\n      dup1\n      iszero\n      tag_105\n      jumpi\n      returndatasize\n      0x00\n      dup1\n      returndatacopy\n      revert(0x00, returndatasize)\n    tag_105:\n      pop\n        /* \"contracts/tokens/ERBPay.sol\":1237:1251  yearFeeAddress */\n      0x03\n      0x00\n      swap1\n      sload\n      swap1\n      0x0100\n      exp\n      swap1\n      div\n      0xffffffffffffffffffffffffffffffffffffffff\n      and\n        /* \"contracts/tokens/ERBPay.sol\":1229:1261  payable(yearFeeAddress).transfer */\n      0xffffffffffffffffffffffffffffffffffffffff\n      and\n        /* \"contracts/tokens/ERBPay.sol\":1229:1270  payable(yearFeeAddress).transfer(yearFee) */\n      0x08fc\n        /* \"contracts/tokens/ERBPay.sol\":1262:1269  yearFee */\n      sload(0x01)\n        /* \"contracts/tokens/ERBPay.sol\":1229:1270  payable(yearFeeAddress).transfer(yearFee) */\n      swap1\n      dup2\n      iszero\n      mul\n      swap1\n      mload(0x40)\n      0x00\n      mload(0x40)\n      dup1\n      dup4\n      sub\n      dup2\n      dup6\n      dup9\n      dup9\n      call\n      swap4\n      pop\n      pop\n      pop\n      pop\n      iszero\n      dup1\n      iszero\n      tag_107\n      jumpi\n      returndatasize\n      0x00\n      dup1\n      returndatacopy\n      revert(0x00, returndatasize)\n    tag_107:\n      pop\n        /* \"contracts/tokens/ERBPay.sol\":1316:1325  86400*365 */\n      0x01e13380\n        /* \"contracts/tokens/ERBPay.sol\":1300:1315  block.timestamp */\n      timestamp\n        /* \"contracts/tokens/ERBPay.sol\":1300:1325  block.timestamp+86400*365 */\n      tag_108\n      swap2\n      swap1\n      tag_97\n      jump\t// in\n    tag_108:\n        /* \"contracts/tokens/ERBPay.sol\":1280:1287  endTime */\n      0x05\n        /* \"contracts/tokens/ERBPay.sol\":1280:1299  endTime[msg.sender] */\n      0x00\n        /* \"contracts/tokens/ERBPay.sol\":1288:1298  msg.sender */\n      caller\n        /* \"contracts/tokens/ERBPay.sol\":1280:1299  endTime[msg.sender] */\n      0xffffffffffffffffffffffffffffffffffffffff\n      and\n      0xffffffffffffffffffffffffffffffffffffffff\n      and\n      dup2\n      mstore\n      0x20\n      add\n      swap1\n      dup2\n      mstore\n      0x20\n      add\n      0x00\n      keccak256\n        /* \"contracts/tokens/ERBPay.sol\":1280:1325  endTime[msg.sender]=block.timestamp+86400*365 */\n      dup2\n      swap1\n      sstore\n      pop\n        /* \"contracts/tokens/ERBPay.sol\":1359:1369  msg.sender */\n      caller\n        /* \"contracts/tokens/ERBPay.sol\":1340:1380  PayForOpenExchange(msg.sender,msg.value) */\n      0xffffffffffffffffffffffffffffffffffffffff\n      and\n      0x728aa0ba54574e206497a83a73cea62ca17f538ca83666c089018a2ce41700f4\n        /* \"contracts/tokens/ERBPay.sol\":1370:1379  msg.value */\n      callvalue\n        /* \"contracts/tokens/ERBPay.sol\":1340:1380  PayForOpenExchange(msg.sender,msg.value) */\n      mload(0x40)\n      tag_109\n      swap2\n      swap1\n      tag_33\n      jump\t// in\n    tag_109:\n      mload(0x40)\n      dup1\n      swap2\n      sub\n      swap1\n      log2\n        /* \"contracts/tokens/ERBPay.sol\":993:1388  function payForOpenExchange()external payable{\r... */\n      jump\t// out\n        /* \"contracts/tokens/ERBPay.sol\":1396:1726  function payForRenew()external payable{\r... */\n    tag_53:\n        /* \"contracts/tokens/ERBPay.sol\":1465:1472  yearFee */\n      sload(0x01)\n        /* \"contracts/tokens/ERBPay.sol\":1452:1461  msg.value */\n      callvalue\n        /* \"contracts/tokens/ERBPay.sol\":1452:1472  msg.value == yearFee */\n      eq\n        /* \"contracts/tokens/ERBPay.sol\":1444:1493  require(msg.value == yearFee,\"msg.value invalid\") */\n      tag_111\n      jumpi\n      mload(0x40)\n      0x08c379a000000000000000000000000000000000000000000000000000000000\n      dup2\n      mstore\n      0x04\n      add\n      tag_112\n      swap1\n      tag_100\n      jump\t// in\n    tag_112:\n      mload(0x40)\n      dup1\n      swap2\n      sub\n      swap1\n      revert\n    tag_111:\n        /* \"contracts/tokens/ERBPay.sol\":1533:1534  0 */\n      0x00\n        /* \"contracts/tokens/ERBPay.sol\":1511:1518  endTime */\n      0x05\n        /* \"contracts/tokens/ERBPay.sol\":1511:1530  endTime[msg.sender] */\n      0x00\n        /* \"contracts/tokens/ERBPay.sol\":1519:1529  msg.sender */\n      caller\n        /* \"contracts/tokens/ERBPay.sol\":1511:1530  endTime[msg.sender] */\n      0xffffffffffffffffffffffffffffffffffffffff\n      and\n      0xffffffffffffffffffffffffffffffffffffffff\n      and\n      dup2\n      mstore\n      0x20\n      add\n      swap1\n      dup2\n      mstore\n      0x20\n      add\n      0x00\n      keccak256\n      sload\n        /* \"contracts/tokens/ERBPay.sol\":1511:1534  endTime[msg.sender] !=0 */\n      eq\n      iszero\n        /* \"contracts/tokens/ERBPay.sol\":1503:1556  require(endTime[msg.sender] !=0 ,\"no exchange exist\") */\n      tag_113\n      jumpi\n      mload(0x40)\n      0x08c379a000000000000000000000000000000000000000000000000000000000\n      dup2\n      mstore\n      0x04\n      add\n      tag_114\n      swap1\n      tag_115\n      jump\t// in\n    tag_114:\n      mload(0x40)\n      dup1\n      swap2\n      sub\n      swap1\n      revert\n    tag_113:\n        /* \"contracts/tokens/ERBPay.sol\":1574:1588  yearFeeAddress */\n      0x03\n      0x00\n      swap1\n      sload\n      swap1\n      0x0100\n      exp\n      swap1\n      div\n      0xffffffffffffffffffffffffffffffffffffffff\n      and\n        /* \"contracts/tokens/ERBPay.sol\":1566:1598  payable(yearFeeAddress).transfer */\n      0xffffffffffffffffffffffffffffffffffffffff\n      and\n        /* \"contracts/tokens/ERBPay.sol\":1566:1607  payable(yearFeeAddress).transfer(yearFee) */\n      0x08fc\n        /* \"contracts/tokens/ERBPay.sol\":1599:1606  yearFee */\n      sload(0x01)\n        /* \"contracts/tokens/ERBPay.sol\":1566:1607  payable(yearFeeAddress).transfer(yearFee) */\n      swap1\n      dup2\n      iszero\n      mul\n      swap1\n      mload(0x40)\n      0x00\n      mload(0x40)\n      dup1\n      dup4\n      sub\n      dup2\n      dup6\n      dup9\n      dup9\n      call\n      swap4\n      pop\n      pop\n      pop\n      pop\n      iszero\n      dup1\n      iszero\n      tag_117\n      jumpi\n      returndatasize\n      0x00\n      dup1\n      returndatacopy\n      revert(0x00, returndatasize)\n    tag_117:\n      pop\n        /* \"contracts/tokens/ERBPay.sol\":1657:1666  86400*365 */\n      0x01e13380\n        /* \"contracts/tokens/ERBPay.sol\":1637:1644  endTime */\n      0x05\n        /* \"contracts/tokens/ERBPay.sol\":1637:1656  endTime[msg.sender] */\n      0x00\n        /* \"contracts/tokens/ERBPay.sol\":1645:1655  msg.sender */\n      caller\n        /* \"contracts/tokens/ERBPay.sol\":1637:1656  endTime[msg.sender] */\n      0xffffffffffffffffffffffffffffffffffffffff\n      and\n      0xffffffffffffffffffffffffffffffffffffffff\n      and\n      dup2\n      mstore\n      0x20\n      add\n      swap1\n      dup2\n      mstore\n      0x20\n      add\n      0x00\n      keccak256\n      sload\n        /* \"contracts/tokens/ERBPay.sol\":1637:1666  endTime[msg.sender]+86400*365 */\n      tag_118\n      swap2\n      swap1\n      tag_97\n      jump\t// in\n    tag_118:\n        /* \"contracts/tokens/ERBPay.sol\":1617:1624  endTime */\n      0x05\n        /* \"contracts/tokens/ERBPay.sol\":1617:1636  endTime[msg.sender] */\n      0x00\n        /* \"contracts/tokens/ERBPay.sol\":1625:1635  msg.sender */\n      caller\n        /* \"contracts/tokens/ERBPay.sol\":1617:1636  endTime[msg.sender] */\n      0xffffffffffffffffffffffffffffffffffffffff\n      and\n      0xffffffffffffffffffffffffffffffffffffffff\n      and\n      dup2\n      mstore\n      0x20\n      add\n      swap1\n      dup2\n      mstore\n      0x20\n      add\n      0x00\n      keccak256\n        /* \"contracts/tokens/ERBPay.sol\":1617:1666  endTime[msg.sender]=endTime[msg.sender]+86400*365 */\n      dup2\n      swap1\n      sstore\n      pop\n        /* \"contracts/tokens/ERBPay.sol\":1697:1707  msg.sender */\n      caller\n        /* \"contracts/tokens/ERBPay.sol\":1681:1718  PayForOpenRenew(msg.sender,msg.value) */\n      0xffffffffffffffffffffffffffffffffffffffff\n      and\n      0xe777ae9d65766408c351d743ed88284c7719883019e08000af32400646abcff8\n        /* \"contracts/tokens/ERBPay.sol\":1708:1717  msg.value */\n      callvalue\n        /* \"contracts/tokens/ERBPay.sol\":1681:1718  PayForOpenRenew(msg.sender,msg.value) */\n      mload(0x40)\n      tag_119\n      swap2\n      swap1\n      tag_33\n      jump\t// in\n    tag_119:\n      mload(0x40)\n      dup1\n      swap2\n      sub\n      swap1\n      log2\n        /* \"contracts/tokens/ERBPay.sol\":1396:1726  function payForRenew()external payable{\r... */\n      jump\t// out\n        /* \"@openzeppelin/contracts/access/Ownable.sol\":1036:1121  function owner() public view virtual returns (address) {... */\n    tag_56:\n        /* \"@openzeppelin/contracts/access/Ownable.sol\":1082:1089  address */\n      0x00\n        /* \"@openzeppelin/contracts/access/Ownable.sol\":1108:1114  _owner */\n      dup1\n      0x00\n      swap1\n      sload\n      swap1\n      0x0100\n      exp\n      swap1\n      div\n      0xffffffffffffffffffffffffffffffffffffffff\n      and\n        /* \"@openzeppelin/contracts/access/Ownable.sol\":1101:1114  return _owner */\n      swap1\n      pop\n        /* \"@openzeppelin/contracts/access/Ownable.sol\":1036:1121  function owner() public view virtual returns (address) {... */\n      swap1\n      jump\t// out\n        /* \"contracts/tokens/ERBPay.sol\":680:769  function setOtherFee(uint256 amount) external onlyOwner{\r... */\n    tag_62:\n        /* \"@openzeppelin/contracts/access/Ownable.sol\":1259:1271  _msgSender() */\n      tag_122\n        /* \"@openzeppelin/contracts/access/Ownable.sol\":1259:1269  _msgSender */\n      tag_81\n        /* \"@openzeppelin/contracts/access/Ownable.sol\":1259:1271  _msgSender() */\n      jump\t// in\n    tag_122:\n        /* \"@openzeppelin/contracts/access/Ownable.sol\":1248:1271  owner() == _msgSender() */\n      0xffffffffffffffffffffffffffffffffffffffff\n      and\n        /* \"@openzeppelin/contracts/access/Ownable.sol\":1248:1255  owner() */\n      tag_123\n        /* \"@openzeppelin/contracts/access/Ownable.sol\":1248:1253  owner */\n      tag_56\n        /* \"@openzeppelin/contracts/access/Ownable.sol\":1248:1255  owner() */\n      jump\t// in\n    tag_123:\n        /* \"@openzeppelin/contracts/access/Ownable.sol\":1248:1271  owner() == _msgSender() */\n      0xffffffffffffffffffffffffffffffffffffffff\n      and\n      eq\n        /* \"@openzeppelin/contracts/access/Ownable.sol\":1240:1308  require(owner() == _msgSender(), \"Ownable: caller is not the owner\") */\n      tag_124\n      jumpi\n      mload(0x40)\n      0x08c379a000000000000000000000000000000000000000000000000000000000\n      dup2\n      mstore\n      0x04\n      add\n      tag_125\n      swap1\n      tag_85\n      jump\t// in\n    tag_125:\n      mload(0x40)\n      dup1\n      swap2\n      sub\n      swap1\n      revert\n    tag_124:\n        /* \"contracts/tokens/ERBPay.sol\":755:761  amount */\n      dup1\n        /* \"contracts/tokens/ERBPay.sol\":746:754  otherFee */\n      0x02\n        /* \"contracts/tokens/ERBPay.sol\":746:761  otherFee=amount */\n      dup2\n      swap1\n      sstore\n      pop\n        /* \"contracts/tokens/ERBPay.sol\":680:769  function setOtherFee(uint256 amount) external onlyOwner{\r... */\n      pop\n      jump\t// out\n        /* \"contracts/tokens/ERBPay.sol\":884:985  function setOtherFeeAddress(address _addr) external onlyOwner{\r... */\n    tag_66:\n        /* \"@openzeppelin/contracts/access/Ownable.sol\":1259:1271  _msgSender() */\n      tag_128\n        /* \"@openzeppelin/contracts/access/Ownable.sol\":1259:1269  _msgSender */\n      tag_81\n        /* \"@openzeppelin/contracts/access/Ownable.sol\":1259:1271  _msgSender() */\n      jump\t// in\n    tag_128:\n        /* \"@openzeppelin/contracts/access/Ownable.sol\":1248:1271  owner() == _msgSender() */\n      0xffffffffffffffffffffffffffffffffffffffff\n      and\n        /* \"@openzeppelin/contracts/access/Ownable.sol\":1248:1255  owner() */\n      tag_129\n        /* \"@openzeppelin/contracts/access/Ownable.sol\":1248:1253  owner */\n      tag_56\n        /* \"@openzeppelin/contracts/access/Ownable.sol\":1248:1255  owner() */\n      jump\t// in\n    tag_129:\n        /* \"@openzeppelin/contracts/access/Ownable.sol\":1248:1271  owner() == _msgSender() */\n      0xffffffffffffffffffffffffffffffffffffffff\n      and\n      eq\n        /* \"@openzeppelin/contracts/access/Ownable.sol\":1240:1308  require(owner() == _msgSender(), \"Ownable: caller is not the owner\") */\n      tag_130\n      jumpi\n      mload(0x40)\n      0x08c379a000000000000000000000000000000000000000000000000000000000\n      dup2\n      mstore\n      0x04\n      add\n      tag_131\n      swap1\n      tag_85\n      jump\t// in\n    tag_131:\n      mload(0x40)\n      dup1\n      swap2\n      sub\n      swap1\n      revert\n    tag_130:\n        /* \"contracts/tokens/ERBPay.sol\":972:977  _addr */\n      dup1\n        /* \"contracts/tokens/ERBPay.sol\":956:971  otherFeeAddress */\n      0x04\n      0x00\n        /* \"contracts/tokens/ERBPay.sol\":956:977  otherFeeAddress=_addr */\n      0x0100\n      exp\n      dup2\n      sload\n      dup2\n      0xffffffffffffffffffffffffffffffffffffffff\n      mul\n      not\n      and\n      swap1\n      dup4\n      0xffffffffffffffffffffffffffffffffffffffff\n      and\n      mul\n      or\n      swap1\n      sstore\n      pop\n        /* \"contracts/tokens/ERBPay.sol\":884:985  function setOtherFeeAddress(address _addr) external onlyOwner{\r... */\n      pop\n      jump\t// out\n        /* \"contracts/tokens/ERBPay.sol\":585:672  function setYearFee(uint256 amount) external onlyOwner{\r... */\n    tag_70:\n        /* \"@openzeppelin/contracts/access/Ownable.sol\":1259:1271  _msgSender() */\n      tag_134\n        /* \"@openzeppelin/contracts/access/Ownable.sol\":1259:1269  _msgSender */\n      tag_81\n        /* \"@openzeppelin/contracts/access/Ownable.sol\":1259:1271  _msgSender() */\n      jump\t// in\n    tag_134:\n        /* \"@openzeppelin/contracts/access/Ownable.sol\":1248:1271  owner() == _msgSender() */\n      0xffffffffffffffffffffffffffffffffffffffff\n      and\n        /* \"@openzeppelin/contracts/access/Ownable.sol\":1248:1255  owner() */\n      tag_135\n        /* \"@openzeppelin/contracts/access/Ownable.sol\":1248:1253  owner */\n      tag_56\n        /* \"@openzeppelin/contracts/access/Ownable.sol\":1248:1255  owner() */\n      jump\t// in\n    tag_135:\n        /* \"@openzeppelin/contracts/access/Ownable.sol\":1248:1271  owner() == _msgSender() */\n      0xffffffffffffffffffffffffffffffffffffffff\n      and\n      eq\n        /* \"@openzeppelin/contracts/access/Ownable.sol\":1240:1308  require(owner() == _msgSender(), \"Ownable: caller is not the owner\") */\n      tag_136\n      jumpi\n      mload(0x40)\n      0x08c379a000000000000000000000000000000000000000000000000000000000\n      dup2\n      mstore\n      0x04\n      add\n      tag_137\n      swap1\n      tag_85\n      jump\t// in\n    tag_137:\n      mload(0x40)\n      dup1\n      swap2\n      sub\n      swap1\n      revert\n    tag_136:\n        /* \"contracts/tokens/ERBPay.sol\":658:664  amount */\n      dup1\n        /* \"contracts/tokens/ERBPay.sol\":650:657  yearFee */\n      0x01\n        /* \"contracts/tokens/ERBPay.sol\":650:664  yearFee=amount */\n      dup2\n      swap1\n      sstore\n      pop\n        /* \"contracts/tokens/ERBPay.sol\":585:672  function setYearFee(uint256 amount) external onlyOwner{\r... */\n      pop\n      jump\t// out\n        /* \"@openzeppelin/contracts/access/Ownable.sol\":1918:2116  function transferOwnership(address newOwner) public virtual onlyOwner {... */\n    tag_74:\n        /* \"@openzeppelin/contracts/access/Ownable.sol\":1259:1271  _msgSender() */\n      tag_140\n        /* \"@openzeppelin/contracts/access/Ownable.sol\":1259:1269  _msgSender */\n      tag_81\n        /* \"@openzeppelin/contracts/access/Ownable.sol\":1259:1271  _msgSender() */\n      jump\t// in\n    tag_140:\n        /* \"@openzeppelin/contracts/access/Ownable.sol\":1248:1271  owner() == _msgSender() */\n      0xffffffffffffffffffffffffffffffffffffffff\n      and\n        /* \"@openzeppelin/contracts/access/Ownable.sol\":1248:1255  owner() */\n      tag_141\n        /* \"@openzeppelin/contracts/access/Ownable.sol\":1248:1253  owner */\n      tag_56\n        /* \"@openzeppelin/contracts/access/Ownable.sol\":1248:1255  owner() */\n      jump\t// in\n    tag_141:\n        /* \"@openzeppelin/contracts/access/Ownable.sol\":1248:1271  owner() == _msgSender() */\n      0xffffffffffffffffffffffffffffffffffffffff\n      and\n      eq\n        /* \"@openzeppelin/contracts/access/Ownable.sol\":1240:1308  require(owner() == _msgSender(), \"Ownable: caller is not the owner\") */\n      tag_142\n      jumpi\n      mload(0x40)\n      0x08c379a000000000000000000000000000000000000000000000000000000000\n      dup2\n      mstore\n      0x04\n      add\n      tag_143\n      swap1\n      tag_85\n      jump\t// in\n    tag_143:\n      mload(0x40)\n      dup1\n      swap2\n      sub\n      swap1\n      revert\n    tag_142:\n        /* \"@openzeppelin/contracts/access/Ownable.sol\":2026:2027  0 */\n      0x00\n        /* \"@openzeppelin/contracts/access/Ownable.sol\":2006:2028  newOwner != address(0) */\n      0xffffffffffffffffffffffffffffffffffffffff\n      and\n        /* \"@openzeppelin/contracts/access/Ownable.sol\":2006:2014  newOwner */\n      dup2\n        /* \"@openzeppelin/contracts/access/Ownable.sol\":2006:2028  newOwner != address(0) */\n      0xffffffffffffffffffffffffffffffffffffffff\n      and\n      eq\n      iszero\n        /* \"@openzeppelin/contracts/access/Ownable.sol\":1998:2071  require(newOwner != address(0), \"Ownable: new owner is the zero address\") */\n      tag_145\n      jumpi\n      mload(0x40)\n      0x08c379a000000000000000000000000000000000000000000000000000000000\n      dup2\n      mstore\n      0x04\n      add\n      tag_146\n      swap1\n      tag_147\n      jump\t// in\n    tag_146:\n      mload(0x40)\n      dup1\n      swap2\n      sub\n      swap1\n      revert\n    tag_145:\n        /* \"@openzeppelin/contracts/access/Ownable.sol\":2081:2109  _transferOwnership(newOwner) */\n      tag_148\n        /* \"@openzeppelin/contracts/access/Ownable.sol\":2100:2108  newOwner */\n      dup2\n        /* \"@openzeppelin/contracts/access/Ownable.sol\":2081:2099  _transferOwnership */\n      tag_88\n        /* \"@openzeppelin/contracts/access/Ownable.sol\":2081:2109  _transferOwnership(newOwner) */\n      jump\t// in\n    tag_148:\n        /* \"@openzeppelin/contracts/access/Ownable.sol\":1918:2116  function transferOwnership(address newOwner) public virtual onlyOwner {... */\n      pop\n      jump\t// out\n        /* \"@openzeppelin/contracts/utils/Context.sol\":640:736  function _msgSender() internal view virtual returns (address) {... */\n    tag_81:\n        /* \"@openzeppelin/contracts/utils/Context.sol\":693:700  address */\n      0x00\n        /* \"@openzeppelin/contracts/utils/Context.sol\":719:729  msg.sender */\n      caller\n        /* \"@openzeppelin/contracts/utils/Context.sol\":712:729  return msg.sender */\n      swap1\n      pop\n        /* \"@openzeppelin/contracts/utils/Context.sol\":640:736  function _msgSender() internal view virtual returns (address) {... */\n      swap1\n      jump\t// out\n        /* \"@openzeppelin/contracts/access/Ownable.sol\":2270:2457  function _transferOwnership(address newOwner) internal virtual {... */\n    tag_88:\n        /* \"@openzeppelin/contracts/access/Ownable.sol\":2343:2359  address oldOwner */\n      0x00\n        /* \"@openzeppelin/contracts/access/Ownable.sol\":2362:2368  _owner */\n      dup1\n      0x00\n      swap1\n      sload\n      swap1\n      0x0100\n      exp\n      swap1\n      div\n      0xffffffffffffffffffffffffffffffffffffffff\n      and\n        /* \"@openzeppelin/contracts/access/Ownable.sol\":2343:2368  address oldOwner = _owner */\n      swap1\n      pop\n        /* \"@openzeppelin/contracts/access/Ownable.sol\":2387:2395  newOwner */\n      dup2\n        /* \"@openzeppelin/contracts/access/Ownable.sol\":2378:2384  _owner */\n      0x00\n      dup1\n        /* \"@openzeppelin/contracts/access/Ownable.sol\":2378:2395  _owner = newOwner */\n      0x0100\n      exp\n      dup2\n      sload\n      dup2\n      0xffffffffffffffffffffffffffffffffffffffff\n      mul\n      not\n      and\n      swap1\n      dup4\n      0xffffffffffffffffffffffffffffffffffffffff\n      and\n      mul\n      or\n      swap1\n      sstore\n      pop\n        /* \"@openzeppelin/contracts/access/Ownable.sol\":2441:2449  newOwner */\n      dup2\n        /* \"@openzeppelin/contracts/access/Ownable.sol\":2410:2450  OwnershipTransferred(oldOwner, newOwner) */\n      0xffffffffffffffffffffffffffffffffffffffff\n      and\n        /* \"@openzeppelin/contracts/access/Ownable.sol\":2431:2439  oldOwner */\n      dup2\n        /* \"@openzeppelin/contracts/access/Ownable.sol\":2410:2450  OwnershipTransferred(oldOwner, newOwner) */\n      0xffffffffffffffffffffffffffffffffffffffff\n      and\n      0x8be0079c531659141344cd1fd0a4f28419497f9722a3daafe3b4186f6b6457e0\n      mload(0x40)\n      mload(0x40)\n      dup1\n      swap2\n      sub\n      swap1\n      log3\n        /* \"@openzeppelin/contracts/access/Ownable.sol\":2333:2457  {... */\n      pop\n        /* \"@openzeppelin/contracts/access/Ownable.sol\":2270:2457  function _transferOwnership(address newOwner) internal virtual {... */\n      pop\n      jump\t// out\n        /* \"#utility.yul\":7:146   */\n    tag_152:\n        /* \"#utility.yul\":53:58   */\n      0x00\n        /* \"#utility.yul\":91:97   */\n      dup2\n        /* \"#utility.yul\":78:98   */\n      calldataload\n        /* \"#utility.yul\":69:98   */\n      swap1\n      pop\n        /* \"#utility.yul\":107:140   */\n      tag_154\n        /* \"#utility.yul\":134:139   */\n      dup2\n        /* \"#utility.yul\":107:140   */\n      tag_155\n      jump\t// in\n    tag_154:\n        /* \"#utility.yul\":7:146   */\n      swap3\n      swap2\n      pop\n      pop\n      jump\t// out\n        /* \"#utility.yul\":152:291   */\n    tag_156:\n        /* \"#utility.yul\":198:203   */\n      0x00\n        /* \"#utility.yul\":236:242   */\n      dup2\n        /* \"#utility.yul\":223:243   */\n      calldataload\n        /* \"#utility.yul\":214:243   */\n      swap1\n      pop\n        /* \"#utility.yul\":252:285   */\n      tag_158\n        /* \"#utility.yul\":279:284   */\n      dup2\n        /* \"#utility.yul\":252:285   */\n      tag_159\n      jump\t// in\n    tag_158:\n        /* \"#utility.yul\":152:291   */\n      swap3\n      swap2\n      pop\n      pop\n      jump\t// out\n        /* \"#utility.yul\":297:626   */\n    tag_30:\n        /* \"#utility.yul\":356:362   */\n      0x00\n        /* \"#utility.yul\":405:407   */\n      0x20\n        /* \"#utility.yul\":393:402   */\n      dup3\n        /* \"#utility.yul\":384:391   */\n      dup5\n        /* \"#utility.yul\":380:403   */\n      sub\n        /* \"#utility.yul\":376:408   */\n      slt\n        /* \"#utility.yul\":373:492   */\n      iszero\n      tag_161\n      jumpi\n        /* \"#utility.yul\":411:490   */\n      tag_162\n      tag_163\n      jump\t// in\n    tag_162:\n        /* \"#utility.yul\":373:492   */\n    tag_161:\n        /* \"#utility.yul\":531:532   */\n      0x00\n        /* \"#utility.yul\":556:609   */\n      tag_164\n        /* \"#utility.yul\":601:608   */\n      dup5\n        /* \"#utility.yul\":592:598   */\n      dup3\n        /* \"#utility.yul\":581:590   */\n      dup6\n        /* \"#utility.yul\":577:599   */\n      add\n        /* \"#utility.yul\":556:609   */\n      tag_152\n      jump\t// in\n    tag_164:\n        /* \"#utility.yul\":546:609   */\n      swap2\n      pop\n        /* \"#utility.yul\":502:619   */\n      pop\n        /* \"#utility.yul\":297:626   */\n      swap3\n      swap2\n      pop\n      pop\n      jump\t// out\n        /* \"#utility.yul\":632:961   */\n    tag_61:\n        /* \"#utility.yul\":691:697   */\n      0x00\n        /* \"#utility.yul\":740:742   */\n      0x20\n        /* \"#utility.yul\":728:737   */\n      dup3\n        /* \"#utility.yul\":719:726   */\n      dup5\n        /* \"#utility.yul\":715:738   */\n      sub\n        /* \"#utility.yul\":711:743   */\n      slt\n        /* \"#utility.yul\":708:827   */\n      iszero\n      tag_166\n      jumpi\n        /* \"#utility.yul\":746:825   */\n      tag_167\n      tag_163\n      jump\t// in\n    tag_167:\n        /* \"#utility.yul\":708:827   */\n    tag_166:\n        /* \"#utility.yul\":866:867   */\n      0x00\n        /* \"#utility.yul\":891:944   */\n      tag_168\n        /* \"#utility.yul\":936:943   */\n      dup5\n        /* \"#utility.yul\":927:933   */\n      dup3\n        /* \"#utility.yul\":916:925   */\n      dup6\n        /* \"#utility.yul\":912:934   */\n      add\n        /* \"#utility.yul\":891:944   */\n      tag_156\n      jump\t// in\n    tag_168:\n        /* \"#utility.yul\":881:944   */\n      swap2\n      pop\n        /* \"#utility.yul\":837:954   */\n      pop\n        /* \"#utility.yul\":632:961   */\n      swap3\n      swap2\n      pop\n      pop\n      jump\t// out\n        /* \"#utility.yul\":967:1085   */\n    tag_169:\n        /* \"#utility.yul\":1054:1078   */\n      tag_171\n        /* \"#utility.yul\":1072:1077   */\n      dup2\n        /* \"#utility.yul\":1054:1078   */\n      tag_172\n      jump\t// in\n    tag_171:\n        /* \"#utility.yul\":1049:1052   */\n      dup3\n        /* \"#utility.yul\":1042:1079   */\n      mstore\n        /* \"#utility.yul\":967:1085   */\n      pop\n      pop\n      jump\t// out\n        /* \"#utility.yul\":1091:1457   */\n    tag_173:\n        /* \"#utility.yul\":1233:1236   */\n      0x00\n        /* \"#utility.yul\":1254:1321   */\n      tag_175\n        /* \"#utility.yul\":1318:1320   */\n      0x11\n        /* \"#utility.yul\":1313:1316   */\n      dup4\n        /* \"#utility.yul\":1254:1321   */\n      tag_176\n      jump\t// in\n    tag_175:\n        /* \"#utility.yul\":1247:1321   */\n      swap2\n      pop\n        /* \"#utility.yul\":1330:1423   */\n      tag_177\n        /* \"#utility.yul\":1419:1422   */\n      dup3\n        /* \"#utility.yul\":1330:1423   */\n      tag_178\n      jump\t// in\n    tag_177:\n        /* \"#utility.yul\":1448:1450   */\n      0x20\n        /* \"#utility.yul\":1443:1446   */\n      dup3\n        /* \"#utility.yul\":1439:1451   */\n      add\n        /* \"#utility.yul\":1432:1451   */\n      swap1\n      pop\n        /* \"#utility.yul\":1091:1457   */\n      swap2\n      swap1\n      pop\n      jump\t// out\n        /* \"#utility.yul\":1463:1829   */\n    tag_179:\n        /* \"#utility.yul\":1605:1608   */\n      0x00\n        /* \"#utility.yul\":1626:1693   */\n      tag_181\n        /* \"#utility.yul\":1690:1692   */\n      0x26\n        /* \"#utility.yul\":1685:1688   */\n      dup4\n        /* \"#utility.yul\":1626:1693   */\n      tag_176\n      jump\t// in\n    tag_181:\n        /* \"#utility.yul\":1619:1693   */\n      swap2\n      pop\n        /* \"#utility.yul\":1702:1795   */\n      tag_182\n        /* \"#utility.yul\":1791:1794   */\n      dup3\n        /* \"#utility.yul\":1702:1795   */\n      tag_183\n      jump\t// in\n    tag_182:\n        /* \"#utility.yul\":1820:1822   */\n      0x40\n        /* \"#utility.yul\":1815:1818   */\n      dup3\n        /* \"#utility.yul\":1811:1823   */\n      add\n        /* \"#utility.yul\":1804:1823   */\n      swap1\n      pop\n        /* \"#utility.yul\":1463:1829   */\n      swap2\n      swap1\n      pop\n      jump\t// out\n        /* \"#utility.yul\":1835:2201   */\n    tag_184:\n        /* \"#utility.yul\":1977:1980   */\n      0x00\n        /* \"#utility.yul\":1998:2065   */\n      tag_186\n        /* \"#utility.yul\":2062:2064   */\n      0x20\n        /* \"#utility.yul\":2057:2060   */\n      dup4\n        /* \"#utility.yul\":1998:2065   */\n      tag_176\n      jump\t// in\n    tag_186:\n        /* \"#utility.yul\":1991:2065   */\n      swap2\n      pop\n        /* \"#utility.yul\":2074:2167   */\n      tag_187\n        /* \"#utility.yul\":2163:2166   */\n      dup3\n        /* \"#utility.yul\":2074:2167   */\n      tag_188\n      jump\t// in\n    tag_187:\n        /* \"#utility.yul\":2192:2194   */\n      0x20\n        /* \"#utility.yul\":2187:2190   */\n      dup3\n        /* \"#utility.yul\":2183:2195   */\n      add\n        /* \"#utility.yul\":2176:2195   */\n      swap1\n      pop\n        /* \"#utility.yul\":1835:2201   */\n      swap2\n      swap1\n      pop\n      jump\t// out\n        /* \"#utility.yul\":2207:2573   */\n    tag_189:\n        /* \"#utility.yul\":2349:2352   */\n      0x00\n        /* \"#utility.yul\":2370:2437   */\n      tag_191\n        /* \"#utility.yul\":2434:2436   */\n      0x0e\n        /* \"#utility.yul\":2429:2432   */\n      dup4\n        /* \"#utility.yul\":2370:2437   */\n      tag_176\n      jump\t// in\n    tag_191:\n        /* \"#utility.yul\":2363:2437   */\n      swap2\n      pop\n        /* \"#utility.yul\":2446:2539   */\n      tag_192\n        /* \"#utility.yul\":2535:2538   */\n      dup3\n        /* \"#utility.yul\":2446:2539   */\n      tag_193\n      jump\t// in\n    tag_192:\n        /* \"#utility.yul\":2564:2566   */\n      0x20\n        /* \"#utility.yul\":2559:2562   */\n      dup3\n        /* \"#utility.yul\":2555:2567   */\n      add\n        /* \"#utility.yul\":2548:2567   */\n      swap1\n      pop\n        /* \"#utility.yul\":2207:2573   */\n      swap2\n      swap1\n      pop\n      jump\t// out\n        /* \"#utility.yul\":2579:2945   */\n    tag_194:\n        /* \"#utility.yul\":2721:2724   */\n      0x00\n        /* \"#utility.yul\":2742:2809   */\n      tag_196\n        /* \"#utility.yul\":2806:2808   */\n      0x11\n        /* \"#utility.yul\":2801:2804   */\n      dup4\n        /* \"#utility.yul\":2742:2809   */\n      tag_176\n      jump\t// in\n    tag_196:\n        /* \"#utility.yul\":2735:2809   */\n      swap2\n      pop\n        /* \"#utility.yul\":2818:2911   */\n      tag_197\n        /* \"#utility.yul\":2907:2910   */\n      dup3\n        /* \"#utility.yul\":2818:2911   */\n      tag_198\n      jump\t// in\n    tag_197:\n        /* \"#utility.yul\":2936:2938   */\n      0x20\n        /* \"#utility.yul\":2931:2934   */\n      dup3\n        /* \"#utility.yul\":2927:2939   */\n      add\n        /* \"#utility.yul\":2920:2939   */\n      swap1\n      pop\n        /* \"#utility.yul\":2579:2945   */\n      swap2\n      swap1\n      pop\n      jump\t// out\n        /* \"#utility.yul\":2951:3069   */\n    tag_199:\n        /* \"#utility.yul\":3038:3062   */\n      tag_201\n        /* \"#utility.yul\":3056:3061   */\n      dup2\n        /* \"#utility.yul\":3038:3062   */\n      tag_202\n      jump\t// in\n    tag_201:\n        /* \"#utility.yul\":3033:3036   */\n      dup3\n        /* \"#utility.yul\":3026:3063   */\n      mstore\n        /* \"#utility.yul\":2951:3069   */\n      pop\n      pop\n      jump\t// out\n        /* \"#utility.yul\":3075:3297   */\n    tag_26:\n        /* \"#utility.yul\":3168:3172   */\n      0x00\n        /* \"#utility.yul\":3206:3208   */\n      0x20\n        /* \"#utility.yul\":3195:3204   */\n      dup3\n        /* \"#utility.yul\":3191:3209   */\n      add\n        /* \"#utility.yul\":3183:3209   */\n      swap1\n      pop\n        /* \"#utility.yul\":3219:3290   */\n      tag_204\n        /* \"#utility.yul\":3287:3288   */\n      0x00\n        /* \"#utility.yul\":3276:3285   */\n      dup4\n        /* \"#utility.yul\":3272:3289   */\n      add\n        /* \"#utility.yul\":3263:3269   */\n      dup5\n        /* \"#utility.yul\":3219:3290   */\n      tag_169\n      jump\t// in\n    tag_204:\n        /* \"#utility.yul\":3075:3297   */\n      swap3\n      swap2\n      pop\n      pop\n      jump\t// out\n        /* \"#utility.yul\":3303:3722   */\n    tag_100:\n        /* \"#utility.yul\":3469:3473   */\n      0x00\n        /* \"#utility.yul\":3507:3509   */\n      0x20\n        /* \"#utility.yul\":3496:3505   */\n      dup3\n        /* \"#utility.yul\":3492:3510   */\n      add\n        /* \"#utility.yul\":3484:3510   */\n      swap1\n      pop\n        /* \"#utility.yul\":3556:3565   */\n      dup2\n        /* \"#utility.yul\":3550:3554   */\n      dup2\n        /* \"#utility.yul\":3546:3566   */\n      sub\n        /* \"#utility.yul\":3542:3543   */\n      0x00\n        /* \"#utility.yul\":3531:3540   */\n      dup4\n        /* \"#utility.yul\":3527:3544   */\n      add\n        /* \"#utility.yul\":3520:3567   */\n      mstore\n        /* \"#utility.yul\":3584:3715   */\n      tag_206\n        /* \"#utility.yul\":3710:3714   */\n      dup2\n        /* \"#utility.yul\":3584:3715   */\n      tag_173\n      jump\t// in\n    tag_206:\n        /* \"#utility.yul\":3576:3715   */\n      swap1\n      pop\n        /* \"#utility.yul\":3303:3722   */\n      swap2\n      swap1\n      pop\n      jump\t// out\n        /* \"#utility.yul\":3728:4147   */\n    tag_147:\n        /* \"#utility.yul\":3894:3898   */\n      0x00\n        /* \"#utility.yul\":3932:3934   */\n      0x20\n        /* \"#utility.yul\":3921:3930   */\n      dup3\n        /* \"#utility.yul\":3917:3935   */\n      add\n        /* \"#utility.yul\":3909:3935   */\n      swap1\n      pop\n        /* \"#utility.yul\":3981:3990   */\n      dup2\n        /* \"#utility.yul\":3975:3979   */\n      dup2\n        /* \"#utility.yul\":3971:3991   */\n      sub\n        /* \"#utility.yul\":3967:3968   */\n      0x00\n        /* \"#utility.yul\":3956:3965   */\n      dup4\n        /* \"#utility.yul\":3952:3969   */\n      add\n        /* \"#utility.yul\":3945:3992   */\n      mstore\n        /* \"#utility.yul\":4009:4140   */\n      tag_208\n        /* \"#utility.yul\":4135:4139   */\n      dup2\n        /* \"#utility.yul\":4009:4140   */\n      tag_179\n      jump\t// in\n    tag_208:\n        /* \"#utility.yul\":4001:4140   */\n      swap1\n      pop\n        /* \"#utility.yul\":3728:4147   */\n      swap2\n      swap1\n      pop\n      jump\t// out\n        /* \"#utility.yul\":4153:4572   */\n    tag_85:\n        /* \"#utility.yul\":4319:4323   */\n      0x00\n        /* \"#utility.yul\":4357:4359   */\n      0x20\n        /* \"#utility.yul\":4346:4355   */\n      dup3\n        /* \"#utility.yul\":4342:4360   */\n      add\n        /* \"#utility.yul\":4334:4360   */\n      swap1\n      pop\n        /* \"#utility.yul\":4406:4415   */\n      dup2\n        /* \"#utility.yul\":4400:4404   */\n      dup2\n        /* \"#utility.yul\":4396:4416   */\n      sub\n        /* \"#utility.yul\":4392:4393   */\n      0x00\n        /* \"#utility.yul\":4381:4390   */\n      dup4\n        /* \"#utility.yul\":4377:4394   */\n      add\n        /* \"#utility.yul\":4370:4417   */\n      mstore\n        /* \"#utility.yul\":4434:4565   */\n      tag_210\n        /* \"#utility.yul\":4560:4564   */\n      dup2\n        /* \"#utility.yul\":4434:4565   */\n      tag_184\n      jump\t// in\n    tag_210:\n        /* \"#utility.yul\":4426:4565   */\n      swap1\n      pop\n        /* \"#utility.yul\":4153:4572   */\n      swap2\n      swap1\n      pop\n      jump\t// out\n        /* \"#utility.yul\":4578:4997   */\n    tag_103:\n        /* \"#utility.yul\":4744:4748   */\n      0x00\n        /* \"#utility.yul\":4782:4784   */\n      0x20\n        /* \"#utility.yul\":4771:4780   */\n      dup3\n        /* \"#utility.yul\":4767:4785   */\n      add\n        /* \"#utility.yul\":4759:4785   */\n      swap1\n      pop\n        /* \"#utility.yul\":4831:4840   */\n      dup2\n        /* \"#utility.yul\":4825:4829   */\n      dup2\n        /* \"#utility.yul\":4821:4841   */\n      sub\n        /* \"#utility.yul\":4817:4818   */\n      0x00\n        /* \"#utility.yul\":4806:4815   */\n      dup4\n        /* \"#utility.yul\":4802:4819   */\n      add\n        /* \"#utility.yul\":4795:4842   */\n      mstore\n        /* \"#utility.yul\":4859:4990   */\n      tag_212\n        /* \"#utility.yul\":4985:4989   */\n      dup2\n        /* \"#utility.yul\":4859:4990   */\n      tag_189\n      jump\t// in\n    tag_212:\n        /* \"#utility.yul\":4851:4990   */\n      swap1\n      pop\n        /* \"#utility.yul\":4578:4997   */\n      swap2\n      swap1\n      pop\n      jump\t// out\n        /* \"#utility.yul\":5003:5422   */\n    tag_115:\n        /* \"#utility.yul\":5169:5173   */\n      0x00\n        /* \"#utility.yul\":5207:5209   */\n      0x20\n        /* \"#utility.yul\":5196:5205   */\n      dup3\n        /* \"#utility.yul\":5192:5210   */\n      add\n        /* \"#utility.yul\":5184:5210   */\n      swap1\n      pop\n        /* \"#utility.yul\":5256:5265   */\n      dup2\n        /* \"#utility.yul\":5250:5254   */\n      dup2\n        /* \"#utility.yul\":5246:5266   */\n      sub\n        /* \"#utility.yul\":5242:5243   */\n      0x00\n        /* \"#utility.yul\":5231:5240   */\n      dup4\n        /* \"#utility.yul\":5227:5244   */\n      add\n        /* \"#utility.yul\":5220:5267   */\n      mstore\n        /* \"#utility.yul\":5284:5415   */\n      tag_214\n        /* \"#utility.yul\":5410:5414   */\n      dup2\n        /* \"#utility.yul\":5284:5415   */\n      tag_194\n      jump\t// in\n    tag_214:\n        /* \"#utility.yul\":5276:5415   */\n      swap1\n      pop\n        /* \"#utility.yul\":5003:5422   */\n      swap2\n      swap1\n      pop\n      jump\t// out\n        /* \"#utility.yul\":5428:5650   */\n    tag_33:\n        /* \"#utility.yul\":5521:5525   */\n      0x00\n        /* \"#utility.yul\":5559:5561   */\n      0x20\n        /* \"#utility.yul\":5548:5557   */\n      dup3\n        /* \"#utility.yul\":5544:5562   */\n      add\n        /* \"#utility.yul\":5536:5562   */\n      swap1\n      pop\n        /* \"#utility.yul\":5572:5643   */\n      tag_216\n        /* \"#utility.yul\":5640:5641   */\n      0x00\n        /* \"#utility.yul\":5629:5638   */\n      dup4\n        /* \"#utility.yul\":5625:5642   */\n      add\n        /* \"#utility.yul\":5616:5622   */\n      dup5\n        /* \"#utility.yul\":5572:5643   */\n      tag_199\n      jump\t// in\n    tag_216:\n        /* \"#utility.yul\":5428:5650   */\n      swap3\n      swap2\n      pop\n      pop\n      jump\t// out\n        /* \"#utility.yul\":5737:5906   */\n    tag_176:\n        /* \"#utility.yul\":5821:5832   */\n      0x00\n        /* \"#utility.yul\":5855:5861   */\n      dup3\n        /* \"#utility.yul\":5850:5853   */\n      dup3\n        /* \"#utility.yul\":5843:5862   */\n      mstore\n        /* \"#utility.yul\":5895:5899   */\n      0x20\n        /* \"#utility.yul\":5890:5893   */\n      dup3\n        /* \"#utility.yul\":5886:5900   */\n      add\n        /* \"#utility.yul\":5871:5900   */\n      swap1\n      pop\n        /* \"#utility.yul\":5737:5906   */\n      swap3\n      swap2\n      pop\n      pop\n      jump\t// out\n        /* \"#utility.yul\":5912:6217   */\n    tag_97:\n        /* \"#utility.yul\":5952:5955   */\n      0x00\n        /* \"#utility.yul\":5971:5991   */\n      tag_221\n        /* \"#utility.yul\":5989:5990   */\n      dup3\n        /* \"#utility.yul\":5971:5991   */\n      tag_202\n      jump\t// in\n    tag_221:\n        /* \"#utility.yul\":5966:5991   */\n      swap2\n      pop\n        /* \"#utility.yul\":6005:6025   */\n      tag_222\n        /* \"#utility.yul\":6023:6024   */\n      dup4\n        /* \"#utility.yul\":6005:6025   */\n      tag_202\n      jump\t// in\n    tag_222:\n        /* \"#utility.yul\":6000:6025   */\n      swap3\n      pop\n        /* \"#utility.yul\":6159:6160   */\n      dup3\n        /* \"#utility.yul\":6091:6157   */\n      0xffffffffffffffffffffffffffffffffffffffffffffffffffffffffffffffff\n        /* \"#utility.yul\":6087:6161   */\n      sub\n        /* \"#utility.yul\":6084:6085   */\n      dup3\n        /* \"#utility.yul\":6081:6162   */\n      gt\n        /* \"#utility.yul\":6078:6185   */\n      iszero\n      tag_223\n      jumpi\n        /* \"#utility.yul\":6165:6183   */\n      tag_224\n      tag_225\n      jump\t// in\n    tag_224:\n        /* \"#utility.yul\":6078:6185   */\n    tag_223:\n        /* \"#utility.yul\":6209:6210   */\n      dup3\n        /* \"#utility.yul\":6206:6207   */\n      dup3\n        /* \"#utility.yul\":6202:6211   */\n      add\n        /* \"#utility.yul\":6195:6211   */\n      swap1\n      pop\n        /* \"#utility.yul\":5912:6217   */\n      swap3\n      swap2\n      pop\n      pop\n      jump\t// out\n        /* \"#utility.yul\":6223:6319   */\n    tag_172:\n        /* \"#utility.yul\":6260:6267   */\n      0x00\n        /* \"#utility.yul\":6289:6313   */\n      tag_227\n        /* \"#utility.yul\":6307:6312   */\n      dup3\n        /* \"#utility.yul\":6289:6313   */\n      tag_228\n      jump\t// in\n    tag_227:\n        /* \"#utility.yul\":6278:6313   */\n      swap1\n      pop\n        /* \"#utility.yul\":6223:6319   */\n      swap2\n      swap1\n      pop\n      jump\t// out\n        /* \"#utility.yul\":6325:6451   */\n    tag_228:\n        /* \"#utility.yul\":6362:6369   */\n      0x00\n        /* \"#utility.yul\":6402:6444   */\n      0xffffffffffffffffffffffffffffffffffffffff\n        /* \"#utility.yul\":6395:6400   */\n      dup3\n        /* \"#utility.yul\":6391:6445   */\n      and\n        /* \"#utility.yul\":6380:6445   */\n      swap1\n      pop\n        /* \"#utility.yul\":6325:6451   */\n      swap2\n      swap1\n      pop\n      jump\t// out\n        /* \"#utility.yul\":6457:6534   */\n    tag_202:\n        /* \"#utility.yul\":6494:6501   */\n      0x00\n        /* \"#utility.yul\":6523:6528   */\n      dup2\n        /* \"#utility.yul\":6512:6528   */\n      swap1\n      pop\n        /* \"#utility.yul\":6457:6534   */\n      swap2\n      swap1\n      pop\n      jump\t// out\n        /* \"#utility.yul\":6540:6720   */\n    tag_225:\n        /* \"#utility.yul\":6588:6665   */\n      0x4e487b7100000000000000000000000000000000000000000000000000000000\n        /* \"#utility.yul\":6585:6586   */\n      0x00\n        /* \"#utility.yul\":6578:6666   */\n      mstore\n        /* \"#utility.yul\":6685:6689   */\n      0x11\n        /* \"#utility.yul\":6682:6683   */\n      0x04\n        /* \"#utility.yul\":6675:6690   */\n      mstore\n        /* \"#utility.yul\":6709:6713   */\n      0x24\n        /* \"#utility.yul\":6706:6707   */\n      0x00\n        /* \"#utility.yul\":6699:6714   */\n      revert\n        /* \"#utility.yul\":6849:6966   */\n    tag_163:\n        /* \"#utility.yul\":6958:6959   */\n      0x00\n        /* \"#utility.yul\":6955:6956   */\n      dup1\n        /* \"#utility.yul\":6948:6960   */\n      revert\n        /* \"#utility.yul\":6972:7139   */\n    tag_178:\n        /* \"#utility.yul\":7112:7131   */\n      0x6d73672e76616c756520696e76616c6964000000000000000000000000000000\n        /* \"#utility.yul\":7108:7109   */\n      0x00\n        /* \"#utility.yul\":7100:7106   */\n      dup3\n        /* \"#utility.yul\":7096:7110   */\n      add\n        /* \"#utility.yul\":7089:7132   */\n      mstore\n        /* \"#utility.yul\":6972:7139   */\n      pop\n      jump\t// out\n        /* \"#utility.yul\":7145:7370   */\n    tag_183:\n        /* \"#utility.yul\":7285:7319   */\n      0x4f776e61626c653a206e6577206f776e657220697320746865207a65726f2061\n        /* \"#utility.yul\":7281:7282   */\n      0x00\n        /* \"#utility.yul\":7273:7279   */\n      dup3\n        /* \"#utility.yul\":7269:7283   */\n      add\n        /* \"#utility.yul\":7262:7320   */\n      mstore\n        /* \"#utility.yul\":7354:7362   */\n      0x6464726573730000000000000000000000000000000000000000000000000000\n        /* \"#utility.yul\":7349:7351   */\n      0x20\n        /* \"#utility.yul\":7341:7347   */\n      dup3\n        /* \"#utility.yul\":7337:7352   */\n      add\n        /* \"#utility.yul\":7330:7363   */\n      mstore\n        /* \"#utility.yul\":7145:7370   */\n      pop\n      jump\t// out\n        /* \"#utility.yul\":7376:7558   */\n    tag_188:\n        /* \"#utility.yul\":7516:7550   */\n      0x4f776e61626c653a2063616c6c6572206973206e6f7420746865206f776e6572\n        /* \"#utility.yul\":7512:7513   */\n      0x00\n        /* \"#utility.yul\":7504:7510   */\n      dup3\n        /* \"#utility.yul\":7500:7514   */\n      add\n        /* \"#utility.yul\":7493:7551   */\n      mstore\n        /* \"#utility.yul\":7376:7558   */\n      pop\n      jump\t// out\n        /* \"#utility.yul\":7564:7728   */\n    tag_193:\n        /* \"#utility.yul\":7704:7720   */\n      0x616c7265616479206f70656e6564000000000000000000000000000000000000\n        /* \"#utility.yul\":7700:7701   */\n      0x00\n        /* \"#utility.yul\":7692:7698   */\n      dup3\n        /* \"#utility.yul\":7688:7702   */\n      add\n        /* \"#utility.yul\":7681:7721   */\n      mstore\n        /* \"#utility.yul\":7564:7728   */\n      pop\n      jump\t// out\n        /* \"#utility.yul\":7734:7901   */\n    tag_198:\n        /* \"#utility.yul\":7874:7893   */\n      0x6e6f2065786368616e6765206578697374000000000000000000000000000000\n        /* \"#utility.yul\":7870:7871   */\n      0x00\n        /* \"#utility.yul\":7862:7868   */\n      dup3\n        /* \"#utility.yul\":7858:7872   */\n      add\n        /* \"#utility.yul\":7851:7894   */\n      mstore\n        /* \"#utility.yul\":7734:7901   */\n      pop\n      jump\t// out\n        /* \"#utility.yul\":7907:8029   */\n    tag_155:\n        /* \"#utility.yul\":7980:8004   */\n      tag_241\n        /* \"#utility.yul\":7998:8003   */\n      dup2\n        /* \"#utility.yul\":7980:8004   */\n      tag_172\n      jump\t// in\n    tag_241:\n        /* \"#utility.yul\":7973:7978   */\n      dup2\n        /* \"#utility.yul\":7970:8005   */\n      eq\n        /* \"#utility.yul\":7960:8023   */\n      tag_242\n      jumpi\n        /* \"#utility.yul\":8019:8020   */\n      0x00\n        /* \"#utility.yul\":8016:8017   */\n      dup1\n        /* \"#utility.yul\":8009:8021   */\n      revert\n        /* \"#utility.yul\":7960:8023   */\n    tag_242:\n        /* \"#utility.yul\":7907:8029   */\n      pop\n      jump\t// out\n        /* \"#utility.yul\":8035:8157   */\n    tag_159:\n        /* \"#utility.yul\":8108:8132   */\n      tag_244\n        /* \"#utility.yul\":8126:8131   */\n      dup2\n        /* \"#utility.yul\":8108:8132   */\n      tag_202\n      jump\t// in\n    tag_244:\n        /* \"#utility.yul\":8101:8106   */\n      dup2\n        /* \"#utility.yul\":8098:8133   */\n      eq\n        /* \"#utility.yul\":8088:8151   */\n      tag_245\n      jumpi\n        /* \"#utility.yul\":8147:8148   */\n      0x00\n        /* \"#utility.yul\":8144:8145   */\n      dup1\n        /* \"#utility.yul\":8137:8149   */\n      revert\n        /* \"#utility.yul\":8088:8151   */\n    tag_245:\n        /* \"#utility.yul\":8035:8157   */\n      pop\n      jump\t// out\n\n    auxdata: 0xa2646970667358221220d37e1661f122d2d4c8853fbd87433afbf7dc88e3a10d771e2c73b278095fd85364736f6c63430008070033\n}\n",
				"bytecode": {
					"linkReferences": {},
					"object": "6080604052680ad78ebc5ac620000060015568056bc75e2d631000006002557310cec672c6bb2f6782beed65987e020902b7bd15600360006101000a81548173ffffffffffffffffffffffffffffffffffffffff021916908373ffffffffffffffffffffffffffffffffffffffff16021790555073ebe809c70406fc07e70bc2c590bc7dd9ba9272ac600460006101000a81548173ffffffffffffffffffffffffffffffffffffffff021916908373ffffffffffffffffffffffffffffffffffffffff1602179055503480156100d457600080fd5b506100f16100e66100f660201b60201c565b6100fe60201b60201c565b6101c2565b600033905090565b60008060009054906101000a900473ffffffffffffffffffffffffffffffffffffffff169050816000806101000a81548173ffffffffffffffffffffffffffffffffffffffff021916908373ffffffffffffffffffffffffffffffffffffffff1602179055508173ffffffffffffffffffffffffffffffffffffffff168173ffffffffffffffffffffffffffffffffffffffff167f8be0079c531659141344cd1fd0a4f28419497f9722a3daafe3b4186f6b6457e060405160405180910390a35050565b611188806101d16000396000f3fe6080604052600436106100c65760003560e01c80638310f06d1161007f578063aeb0bc7911610059578063aeb0bc791461021e578063e0c350b514610247578063f2c8609e14610270578063f2fde38b14610299576100cd565b80638310f06d146101df5780638b68e1fa146101e95780638da5cb5b146101f3576100cd565b8063366a8508146100cf5780634aefdccd146100fa5780634b16509014610137578063715018a61461017457806375a3aae71461018b5780637ad3c93a146101b6576100cd565b366100cd57005b005b3480156100db57600080fd5b506100e46102c2565b6040516100f19190610e84565b60405180910390f35b34801561010657600080fd5b50610121600480360381019061011c9190610d5d565b6102e8565b60405161012e9190610f3f565b60405180910390f35b34801561014357600080fd5b5061015e60048036038101906101599190610d5d565b610300565b60405161016b9190610f3f565b60405180910390f35b34801561018057600080fd5b506101896103ac565b005b34801561019757600080fd5b506101a0610434565b6040516101ad9190610e84565b60405180910390f35b3480156101c257600080fd5b506101dd60048036038101906101d89190610d5d565b61045a565b005b6101e761051a565b005b6101f1610766565b005b3480156101ff57600080fd5b5061020861097a565b6040516102159190610e84565b60405180910390f35b34801561022a57600080fd5b5061024560048036038101906102409190610d8a565b6109a3565b005b34801561025357600080fd5b5061026e60048036038101906102699190610d5d565b610a29565b005b34801561027c57600080fd5b5061029760048036038101906102929190610d8a565b610ae9565b005b3480156102a557600080fd5b506102c060048036038101906102bb9190610d5d565b610b6f565b005b600460009054906101000a900473ffffffffffffffffffffffffffffffffffffffff1681565b60056020528060005260406000206000915090505481565b600080600560008473ffffffffffffffffffffffffffffffffffffffff1673ffffffffffffffffffffffffffffffffffffffff16815260200190815260200160002054141561035257600090506103a7565b42600560008473ffffffffffffffffffffffffffffffffffffffff1673ffffffffffffffffffffffffffffffffffffffff1681526020019081526020016000205410156103a257600190506103a7565b600290505b919050565b6103b4610c67565b73ffffffffffffffffffffffffffffffffffffffff166103d261097a565b73ffffffffffffffffffffffffffffffffffffffff1614610428576040517f08c379a000000000000000000000000000000000000000000000000000000000815260040161041f90610edf565b60405180910390fd5b6104326000610c6f565b565b600360009054906101000a900473ffffffffffffffffffffffffffffffffffffffff1681565b610462610c67565b73ffffffffffffffffffffffffffffffffffffffff1661048061097a565b73ffffffffffffffffffffffffffffffffffffffff16146104d6576040517f08c379a00000000000000000000000000000000000000000000000000000000081526004016104cd90610edf565b60405180910390fd5b80600360006101000a81548173ffffffffffffffffffffffffffffffffffffffff021916908373ffffffffffffffffffffffffffffffffffffffff16021790555050565b60025460015461052a9190610f6b565b341461056b576040517f08c379a000000000000000000000000000000000000000000000000000000000815260040161056290610e9f565b60405180910390fd5b6000600560003373ffffffffffffffffffffffffffffffffffffffff1673ffffffffffffffffffffffffffffffffffffffff16815260200190815260200160002054146105ed576040517f08c379a00000000000000000000000000000000000000000000000000000000081526004016105e490610eff565b60405180910390fd5b600460009054906101000a900473ffffffffffffffffffffffffffffffffffffffff1673ffffffffffffffffffffffffffffffffffffffff166108fc6002549081150290604051600060405180830381858888f19350505050158015610657573d6000803e3d6000fd5b50600360009054906101000a900473ffffffffffffffffffffffffffffffffffffffff1673ffffffffffffffffffffffffffffffffffffffff166108fc6001549081150290604051600060405180830381858888f193505050501580156106c2573d6000803e3d6000fd5b506301e13380426106d39190610f6b565b600560003373ffffffffffffffffffffffffffffffffffffffff1673ffffffffffffffffffffffffffffffffffffffff168152602001908152602001600020819055503373ffffffffffffffffffffffffffffffffffffffff167f728aa0ba54574e206497a83a73cea62ca17f538ca83666c089018a2ce41700f43460405161075c9190610f3f565b60405180910390a2565b60015434146107aa576040517f08c379a00000000000000000000000000000000000000000000000000000000081526004016107a190610e9f565b60405180910390fd5b6000600560003373ffffffffffffffffffffffffffffffffffffffff1673ffffffffffffffffffffffffffffffffffffffff16815260200190815260200160002054141561082d576040517f08c379a000000000000000000000000000000000000000000000000000000000815260040161082490610f1f565b60405180910390fd5b600360009054906101000a900473ffffffffffffffffffffffffffffffffffffffff1673ffffffffffffffffffffffffffffffffffffffff166108fc6001549081150290604051600060405180830381858888f19350505050158015610897573d6000803e3d6000fd5b506301e13380600560003373ffffffffffffffffffffffffffffffffffffffff1673ffffffffffffffffffffffffffffffffffffffff168152602001908152602001600020546108e79190610f6b565b600560003373ffffffffffffffffffffffffffffffffffffffff1673ffffffffffffffffffffffffffffffffffffffff168152602001908152602001600020819055503373ffffffffffffffffffffffffffffffffffffffff167fe777ae9d65766408c351d743ed88284c7719883019e08000af32400646abcff8346040516109709190610f3f565b60405180910390a2565b60008060009054906101000a900473ffffffffffffffffffffffffffffffffffffffff16905090565b6109ab610c67565b73ffffffffffffffffffffffffffffffffffffffff166109c961097a565b73ffffffffffffffffffffffffffffffffffffffff1614610a1f576040517f08c379a0000000000000000000000000000000000000000000000000000000008152600401610a1690610edf565b60405180910390fd5b8060028190555050565b610a31610c67565b73ffffffffffffffffffffffffffffffffffffffff16610a4f61097a565b73ffffffffffffffffffffffffffffffffffffffff1614610aa5576040517f08c379a0000000000000000000000000000000000000000000000000000000008152600401610a9c90610edf565b60405180910390fd5b80600460006101000a81548173ffffffffffffffffffffffffffffffffffffffff021916908373ffffffffffffffffffffffffffffffffffffffff16021790555050565b610af1610c67565b73ffffffffffffffffffffffffffffffffffffffff16610b0f61097a565b73ffffffffffffffffffffffffffffffffffffffff1614610b65576040517f08c379a0000000000000000000000000000000000000000000000000000000008152600401610b5c90610edf565b60405180910390fd5b8060018190555050565b610b77610c67565b73ffffffffffffffffffffffffffffffffffffffff16610b9561097a565b73ffffffffffffffffffffffffffffffffffffffff1614610beb576040517f08c379a0000000000000000000000000000000000000000000000000000000008152600401610be290610edf565b60405180910390fd5b600073ffffffffffffffffffffffffffffffffffffffff168173ffffffffffffffffffffffffffffffffffffffff161415610c5b576040517f08c379a0000000000000000000000000000000000000000000000000000000008152600401610c5290610ebf565b60405180910390fd5b610c6481610c6f565b50565b600033905090565b60008060009054906101000a900473ffffffffffffffffffffffffffffffffffffffff169050816000806101000a81548173ffffffffffffffffffffffffffffffffffffffff021916908373ffffffffffffffffffffffffffffffffffffffff1602179055508173ffffffffffffffffffffffffffffffffffffffff168173ffffffffffffffffffffffffffffffffffffffff167f8be0079c531659141344cd1fd0a4f28419497f9722a3daafe3b4186f6b6457e060405160405180910390a35050565b600081359050610d4281611124565b92915050565b600081359050610d578161113b565b92915050565b600060208284031215610d7357610d7261102c565b5b6000610d8184828501610d33565b91505092915050565b600060208284031215610da057610d9f61102c565b5b6000610dae84828501610d48565b91505092915050565b610dc081610fc1565b82525050565b6000610dd3601183610f5a565b9150610dde82611031565b602082019050919050565b6000610df6602683610f5a565b9150610e018261105a565b604082019050919050565b6000610e19602083610f5a565b9150610e24826110a9565b602082019050919050565b6000610e3c600e83610f5a565b9150610e47826110d2565b602082019050919050565b6000610e5f601183610f5a565b9150610e6a826110fb565b602082019050919050565b610e7e81610ff3565b82525050565b6000602082019050610e996000830184610db7565b92915050565b60006020820190508181036000830152610eb881610dc6565b9050919050565b60006020820190508181036000830152610ed881610de9565b9050919050565b60006020820190508181036000830152610ef881610e0c565b9050919050565b60006020820190508181036000830152610f1881610e2f565b9050919050565b60006020820190508181036000830152610f3881610e52565b9050919050565b6000602082019050610f546000830184610e75565b92915050565b600082825260208201905092915050565b6000610f7682610ff3565b9150610f8183610ff3565b9250827fffffffffffffffffffffffffffffffffffffffffffffffffffffffffffffffff03821115610fb657610fb5610ffd565b5b828201905092915050565b6000610fcc82610fd3565b9050919050565b600073ffffffffffffffffffffffffffffffffffffffff82169050919050565b6000819050919050565b7f4e487b7100000000000000000000000000000000000000000000000000000000600052601160045260246000fd5b600080fd5b7f6d73672e76616c756520696e76616c6964000000000000000000000000000000600082015250565b7f4f776e61626c653a206e6577206f776e657220697320746865207a65726f206160008201527f6464726573730000000000000000000000000000000000000000000000000000602082015250565b7f4f776e61626c653a2063616c6c6572206973206e6f7420746865206f776e6572600082015250565b7f616c7265616479206f70656e6564000000000000000000000000000000000000600082015250565b7f6e6f2065786368616e6765206578697374000000000000000000000000000000600082015250565b61112d81610fc1565b811461113857600080fd5b50565b61114481610ff3565b811461114f57600080fd5b5056fea2646970667358221220d37e1661f122d2d4c8853fbd87433afbf7dc88e3a10d771e2c73b278095fd85364736f6c63430008070033",
					"opcodes": "PUSH1 0x80 PUSH1 0x40 MSTORE PUSH9 0xAD78EBC5AC6200000 PUSH1 0x1 SSTORE PUSH9 0x56BC75E2D63100000 PUSH1 0x2 SSTORE PUSH20 0x10CEC672C6BB2F6782BEED65987E020902B7BD15 PUSH1 0x3 PUSH1 0x0 PUSH2 0x100 EXP DUP2 SLOAD DUP2 PUSH20 0xFFFFFFFFFFFFFFFFFFFFFFFFFFFFFFFFFFFFFFFF MUL NOT AND SWAP1 DUP4 PUSH20 0xFFFFFFFFFFFFFFFFFFFFFFFFFFFFFFFFFFFFFFFF AND MUL OR SWAP1 SSTORE POP PUSH20 0xEBE809C70406FC07E70BC2C590BC7DD9BA9272AC PUSH1 0x4 PUSH1 0x0 PUSH2 0x100 EXP DUP2 SLOAD DUP2 PUSH20 0xFFFFFFFFFFFFFFFFFFFFFFFFFFFFFFFFFFFFFFFF MUL NOT AND SWAP1 DUP4 PUSH20 0xFFFFFFFFFFFFFFFFFFFFFFFFFFFFFFFFFFFFFFFF AND MUL OR SWAP1 SSTORE POP CALLVALUE DUP1 ISZERO PUSH2 0xD4 JUMPI PUSH1 0x0 DUP1 REVERT JUMPDEST POP PUSH2 0xF1 PUSH2 0xE6 PUSH2 0xF6 PUSH1 0x20 SHL PUSH1 0x20 SHR JUMP JUMPDEST PUSH2 0xFE PUSH1 0x20 SHL PUSH1 0x20 SHR JUMP JUMPDEST PUSH2 0x1C2 JUMP JUMPDEST PUSH1 0x0 CALLER SWAP1 POP SWAP1 JUMP JUMPDEST PUSH1 0x0 DUP1 PUSH1 0x0 SWAP1 SLOAD SWAP1 PUSH2 0x100 EXP SWAP1 DIV PUSH20 0xFFFFFFFFFFFFFFFFFFFFFFFFFFFFFFFFFFFFFFFF AND SWAP1 POP DUP2 PUSH1 0x0 DUP1 PUSH2 0x100 EXP DUP2 SLOAD DUP2 PUSH20 0xFFFFFFFFFFFFFFFFFFFFFFFFFFFFFFFFFFFFFFFF MUL NOT AND SWAP1 DUP4 PUSH20 0xFFFFFFFFFFFFFFFFFFFFFFFFFFFFFFFFFFFFFFFF AND MUL OR SWAP1 SSTORE POP DUP2 PUSH20 0xFFFFFFFFFFFFFFFFFFFFFFFFFFFFFFFFFFFFFFFF AND DUP2 PUSH20 0xFFFFFFFFFFFFFFFFFFFFFFFFFFFFFFFFFFFFFFFF AND PUSH32 0x8BE0079C531659141344CD1FD0A4F28419497F9722A3DAAFE3B4186F6B6457E0 PUSH1 0x40 MLOAD PUSH1 0x40 MLOAD DUP1 SWAP2 SUB SWAP1 LOG3 POP POP JUMP JUMPDEST PUSH2 0x1188 DUP1 PUSH2 0x1D1 PUSH1 0x0 CODECOPY PUSH1 0x0 RETURN INVALID PUSH1 0x80 PUSH1 0x40 MSTORE PUSH1 0x4 CALLDATASIZE LT PUSH2 0xC6 JUMPI PUSH1 0x0 CALLDATALOAD PUSH1 0xE0 SHR DUP1 PUSH4 0x8310F06D GT PUSH2 0x7F JUMPI DUP1 PUSH4 0xAEB0BC79 GT PUSH2 0x59 JUMPI DUP1 PUSH4 0xAEB0BC79 EQ PUSH2 0x21E JUMPI DUP1 PUSH4 0xE0C350B5 EQ PUSH2 0x247 JUMPI DUP1 PUSH4 0xF2C8609E EQ PUSH2 0x270 JUMPI DUP1 PUSH4 0xF2FDE38B EQ PUSH2 0x299 JUMPI PUSH2 0xCD JUMP JUMPDEST DUP1 PUSH4 0x8310F06D EQ PUSH2 0x1DF JUMPI DUP1 PUSH4 0x8B68E1FA EQ PUSH2 0x1E9 JUMPI DUP1 PUSH4 0x8DA5CB5B EQ PUSH2 0x1F3 JUMPI PUSH2 0xCD JUMP JUMPDEST DUP1 PUSH4 0x366A8508 EQ PUSH2 0xCF JUMPI DUP1 PUSH4 0x4AEFDCCD EQ PUSH2 0xFA JUMPI DUP1 PUSH4 0x4B165090 EQ PUSH2 0x137 JUMPI DUP1 PUSH4 0x715018A6 EQ PUSH2 0x174 JUMPI DUP1 PUSH4 0x75A3AAE7 EQ PUSH2 0x18B JUMPI DUP1 PUSH4 0x7AD3C93A EQ PUSH2 0x1B6 JUMPI PUSH2 0xCD JUMP JUMPDEST CALLDATASIZE PUSH2 0xCD JUMPI STOP JUMPDEST STOP JUMPDEST CALLVALUE DUP1 ISZERO PUSH2 0xDB JUMPI PUSH1 0x0 DUP1 REVERT JUMPDEST POP PUSH2 0xE4 PUSH2 0x2C2 JUMP JUMPDEST PUSH1 0x40 MLOAD PUSH2 0xF1 SWAP2 SWAP1 PUSH2 0xE84 JUMP JUMPDEST PUSH1 0x40 MLOAD DUP1 SWAP2 SUB SWAP1 RETURN JUMPDEST CALLVALUE DUP1 ISZERO PUSH2 0x106 JUMPI PUSH1 0x0 DUP1 REVERT JUMPDEST POP PUSH2 0x121 PUSH1 0x4 DUP1 CALLDATASIZE SUB DUP2 ADD SWAP1 PUSH2 0x11C SWAP2 SWAP1 PUSH2 0xD5D JUMP JUMPDEST PUSH2 0x2E8 JUMP JUMPDEST PUSH1 0x40 MLOAD PUSH2 0x12E SWAP2 SWAP1 PUSH2 0xF3F JUMP JUMPDEST PUSH1 0x40 MLOAD DUP1 SWAP2 SUB SWAP1 RETURN JUMPDEST CALLVALUE DUP1 ISZERO PUSH2 0x143 JUMPI PUSH1 0x0 DUP1 REVERT JUMPDEST POP PUSH2 0x15E PUSH1 0x4 DUP1 CALLDATASIZE SUB DUP2 ADD SWAP1 PUSH2 0x159 SWAP2 SWAP1 PUSH2 0xD5D JUMP JUMPDEST PUSH2 0x300 JUMP JUMPDEST PUSH1 0x40 MLOAD PUSH2 0x16B SWAP2 SWAP1 PUSH2 0xF3F JUMP JUMPDEST PUSH1 0x40 MLOAD DUP1 SWAP2 SUB SWAP1 RETURN JUMPDEST CALLVALUE DUP1 ISZERO PUSH2 0x180 JUMPI PUSH1 0x0 DUP1 REVERT JUMPDEST POP PUSH2 0x189 PUSH2 0x3AC JUMP JUMPDEST STOP JUMPDEST CALLVALUE DUP1 ISZERO PUSH2 0x197 JUMPI PUSH1 0x0 DUP1 REVERT JUMPDEST POP PUSH2 0x1A0 PUSH2 0x434 JUMP JUMPDEST PUSH1 0x40 MLOAD PUSH2 0x1AD SWAP2 SWAP1 PUSH2 0xE84 JUMP JUMPDEST PUSH1 0x40 MLOAD DUP1 SWAP2 SUB SWAP1 RETURN JUMPDEST CALLVALUE DUP1 ISZERO PUSH2 0x1C2 JUMPI PUSH1 0x0 DUP1 REVERT JUMPDEST POP PUSH2 0x1DD PUSH1 0x4 DUP1 CALLDATASIZE SUB DUP2 ADD SWAP1 PUSH2 0x1D8 SWAP2 SWAP1 PUSH2 0xD5D JUMP JUMPDEST PUSH2 0x45A JUMP JUMPDEST STOP JUMPDEST PUSH2 0x1E7 PUSH2 0x51A JUMP JUMPDEST STOP JUMPDEST PUSH2 0x1F1 PUSH2 0x766 JUMP JUMPDEST STOP JUMPDEST CALLVALUE DUP1 ISZERO PUSH2 0x1FF JUMPI PUSH1 0x0 DUP1 REVERT JUMPDEST POP PUSH2 0x208 PUSH2 0x97A JUMP JUMPDEST PUSH1 0x40 MLOAD PUSH2 0x215 SWAP2 SWAP1 PUSH2 0xE84 JUMP JUMPDEST PUSH1 0x40 MLOAD DUP1 SWAP2 SUB SWAP1 RETURN JUMPDEST CALLVALUE DUP1 ISZERO PUSH2 0x22A JUMPI PUSH1 0x0 DUP1 REVERT JUMPDEST POP PUSH2 0x245 PUSH1 0x4 DUP1 CALLDATASIZE SUB DUP2 ADD SWAP1 PUSH2 0x240 SWAP2 SWAP1 PUSH2 0xD8A JUMP JUMPDEST PUSH2 0x9A3 JUMP JUMPDEST STOP JUMPDEST CALLVALUE DUP1 ISZERO PUSH2 0x253 JUMPI PUSH1 0x0 DUP1 REVERT JUMPDEST POP PUSH2 0x26E PUSH1 0x4 DUP1 CALLDATASIZE SUB DUP2 ADD SWAP1 PUSH2 0x269 SWAP2 SWAP1 PUSH2 0xD5D JUMP JUMPDEST PUSH2 0xA29 JUMP JUMPDEST STOP JUMPDEST CALLVALUE DUP1 ISZERO PUSH2 0x27C JUMPI PUSH1 0x0 DUP1 REVERT JUMPDEST POP PUSH2 0x297 PUSH1 0x4 DUP1 CALLDATASIZE SUB DUP2 ADD SWAP1 PUSH2 0x292 SWAP2 SWAP1 PUSH2 0xD8A JUMP JUMPDEST PUSH2 0xAE9 JUMP JUMPDEST STOP JUMPDEST CALLVALUE DUP1 ISZERO PUSH2 0x2A5 JUMPI PUSH1 0x0 DUP1 REVERT JUMPDEST POP PUSH2 0x2C0 PUSH1 0x4 DUP1 CALLDATASIZE SUB DUP2 ADD SWAP1 PUSH2 0x2BB SWAP2 SWAP1 PUSH2 0xD5D JUMP JUMPDEST PUSH2 0xB6F JUMP JUMPDEST STOP JUMPDEST PUSH1 0x4 PUSH1 0x0 SWAP1 SLOAD SWAP1 PUSH2 0x100 EXP SWAP1 DIV PUSH20 0xFFFFFFFFFFFFFFFFFFFFFFFFFFFFFFFFFFFFFFFF AND DUP2 JUMP JUMPDEST PUSH1 0x5 PUSH1 0x20 MSTORE DUP1 PUSH1 0x0 MSTORE PUSH1 0x40 PUSH1 0x0 KECCAK256 PUSH1 0x0 SWAP2 POP SWAP1 POP SLOAD DUP2 JUMP JUMPDEST PUSH1 0x0 DUP1 PUSH1 0x5 PUSH1 0x0 DUP5 PUSH20 0xFFFFFFFFFFFFFFFFFFFFFFFFFFFFFFFFFFFFFFFF AND PUSH20 0xFFFFFFFFFFFFFFFFFFFFFFFFFFFFFFFFFFFFFFFF AND DUP2 MSTORE PUSH1 0x20 ADD SWAP1 DUP2 MSTORE PUSH1 0x20 ADD PUSH1 0x0 KECCAK256 SLOAD EQ ISZERO PUSH2 0x352 JUMPI PUSH1 0x0 SWAP1 POP PUSH2 0x3A7 JUMP JUMPDEST TIMESTAMP PUSH1 0x5 PUSH1 0x0 DUP5 PUSH20 0xFFFFFFFFFFFFFFFFFFFFFFFFFFFFFFFFFFFFFFFF AND PUSH20 0xFFFFFFFFFFFFFFFFFFFFFFFFFFFFFFFFFFFFFFFF AND DUP2 MSTORE PUSH1 0x20 ADD SWAP1 DUP2 MSTORE PUSH1 0x20 ADD PUSH1 0x0 KECCAK256 SLOAD LT ISZERO PUSH2 0x3A2 JUMPI PUSH1 0x1 SWAP1 POP PUSH2 0x3A7 JUMP JUMPDEST PUSH1 0x2 SWAP1 POP JUMPDEST SWAP2 SWAP1 POP JUMP JUMPDEST PUSH2 0x3B4 PUSH2 0xC67 JUMP JUMPDEST PUSH20 0xFFFFFFFFFFFFFFFFFFFFFFFFFFFFFFFFFFFFFFFF AND PUSH2 0x3D2 PUSH2 0x97A JUMP JUMPDEST PUSH20 0xFFFFFFFFFFFFFFFFFFFFFFFFFFFFFFFFFFFFFFFF AND EQ PUSH2 0x428 JUMPI PUSH1 0x40 MLOAD PUSH32 0x8C379A000000000000000000000000000000000000000000000000000000000 DUP2 MSTORE PUSH1 0x4 ADD PUSH2 0x41F SWAP1 PUSH2 0xEDF JUMP JUMPDEST PUSH1 0x40 MLOAD DUP1 SWAP2 SUB SWAP1 REVERT JUMPDEST PUSH2 0x432 PUSH1 0x0 PUSH2 0xC6F JUMP JUMPDEST JUMP JUMPDEST PUSH1 0x3 PUSH1 0x0 SWAP1 SLOAD SWAP1 PUSH2 0x100 EXP SWAP1 DIV PUSH20 0xFFFFFFFFFFFFFFFFFFFFFFFFFFFFFFFFFFFFFFFF AND DUP2 JUMP JUMPDEST PUSH2 0x462 PUSH2 0xC67 JUMP JUMPDEST PUSH20 0xFFFFFFFFFFFFFFFFFFFFFFFFFFFFFFFFFFFFFFFF AND PUSH2 0x480 PUSH2 0x97A JUMP JUMPDEST PUSH20 0xFFFFFFFFFFFFFFFFFFFFFFFFFFFFFFFFFFFFFFFF AND EQ PUSH2 0x4D6 JUMPI PUSH1 0x40 MLOAD PUSH32 0x8C379A000000000000000000000000000000000000000000000000000000000 DUP2 MSTORE PUSH1 0x4 ADD PUSH2 0x4CD SWAP1 PUSH2 0xEDF JUMP JUMPDEST PUSH1 0x40 MLOAD DUP1 SWAP2 SUB SWAP1 REVERT JUMPDEST DUP1 PUSH1 0x3 PUSH1 0x0 PUSH2 0x100 EXP DUP2 SLOAD DUP2 PUSH20 0xFFFFFFFFFFFFFFFFFFFFFFFFFFFFFFFFFFFFFFFF MUL NOT AND SWAP1 DUP4 PUSH20 0xFFFFFFFFFFFFFFFFFFFFFFFFFFFFFFFFFFFFFFFF AND MUL OR SWAP1 SSTORE POP POP JUMP JUMPDEST PUSH1 0x2 SLOAD PUSH1 0x1 SLOAD PUSH2 0x52A SWAP2 SWAP1 PUSH2 0xF6B JUMP JUMPDEST CALLVALUE EQ PUSH2 0x56B JUMPI PUSH1 0x40 MLOAD PUSH32 0x8C379A000000000000000000000000000000000000000000000000000000000 DUP2 MSTORE PUSH1 0x4 ADD PUSH2 0x562 SWAP1 PUSH2 0xE9F JUMP JUMPDEST PUSH1 0x40 MLOAD DUP1 SWAP2 SUB SWAP1 REVERT JUMPDEST PUSH1 0x0 PUSH1 0x5 PUSH1 0x0 CALLER PUSH20 0xFFFFFFFFFFFFFFFFFFFFFFFFFFFFFFFFFFFFFFFF AND PUSH20 0xFFFFFFFFFFFFFFFFFFFFFFFFFFFFFFFFFFFFFFFF AND DUP2 MSTORE PUSH1 0x20 ADD SWAP1 DUP2 MSTORE PUSH1 0x20 ADD PUSH1 0x0 KECCAK256 SLOAD EQ PUSH2 0x5ED JUMPI PUSH1 0x40 MLOAD PUSH32 0x8C379A000000000000000000000000000000000000000000000000000000000 DUP2 MSTORE PUSH1 0x4 ADD PUSH2 0x5E4 SWAP1 PUSH2 0xEFF JUMP JUMPDEST PUSH1 0x40 MLOAD DUP1 SWAP2 SUB SWAP1 REVERT JUMPDEST PUSH1 0x4 PUSH1 0x0 SWAP1 SLOAD SWAP1 PUSH2 0x100 EXP SWAP1 DIV PUSH20 0xFFFFFFFFFFFFFFFFFFFFFFFFFFFFFFFFFFFFFFFF AND PUSH20 0xFFFFFFFFFFFFFFFFFFFFFFFFFFFFFFFFFFFFFFFF AND PUSH2 0x8FC PUSH1 0x2 SLOAD SWAP1 DUP2 ISZERO MUL SWAP1 PUSH1 0x40 MLOAD PUSH1 0x0 PUSH1 0x40 MLOAD DUP1 DUP4 SUB DUP2 DUP6 DUP9 DUP9 CALL SWAP4 POP POP POP POP ISZERO DUP1 ISZERO PUSH2 0x657 JUMPI RETURNDATASIZE PUSH1 0x0 DUP1 RETURNDATACOPY RETURNDATASIZE PUSH1 0x0 REVERT JUMPDEST POP PUSH1 0x3 PUSH1 0x0 SWAP1 SLOAD SWAP1 PUSH2 0x100 EXP SWAP1 DIV PUSH20 0xFFFFFFFFFFFFFFFFFFFFFFFFFFFFFFFFFFFFFFFF AND PUSH20 0xFFFFFFFFFFFFFFFFFFFFFFFFFFFFFFFFFFFFFFFF AND PUSH2 0x8FC PUSH1 0x1 SLOAD SWAP1 DUP2 ISZERO MUL SWAP1 PUSH1 0x40 MLOAD PUSH1 0x0 PUSH1 0x40 MLOAD DUP1 DUP4 SUB DUP2 DUP6 DUP9 DUP9 CALL SWAP4 POP POP POP POP ISZERO DUP1 ISZERO PUSH2 0x6C2 JUMPI RETURNDATASIZE PUSH1 0x0 DUP1 RETURNDATACOPY RETURNDATASIZE PUSH1 0x0 REVERT JUMPDEST POP PUSH4 0x1E13380 TIMESTAMP PUSH2 0x6D3 SWAP2 SWAP1 PUSH2 0xF6B JUMP JUMPDEST PUSH1 0x5 PUSH1 0x0 CALLER PUSH20 0xFFFFFFFFFFFFFFFFFFFFFFFFFFFFFFFFFFFFFFFF AND PUSH20 0xFFFFFFFFFFFFFFFFFFFFFFFFFFFFFFFFFFFFFFFF AND DUP2 MSTORE PUSH1 0x20 ADD SWAP1 DUP2 MSTORE PUSH1 0x20 ADD PUSH1 0x0 KECCAK256 DUP2 SWAP1 SSTORE POP CALLER PUSH20 0xFFFFFFFFFFFFFFFFFFFFFFFFFFFFFFFFFFFFFFFF AND PUSH32 0x728AA0BA54574E206497A83A73CEA62CA17F538CA83666C089018A2CE41700F4 CALLVALUE PUSH1 0x40 MLOAD PUSH2 0x75C SWAP2 SWAP1 PUSH2 0xF3F JUMP JUMPDEST PUSH1 0x40 MLOAD DUP1 SWAP2 SUB SWAP1 LOG2 JUMP JUMPDEST PUSH1 0x1 SLOAD CALLVALUE EQ PUSH2 0x7AA JUMPI PUSH1 0x40 MLOAD PUSH32 0x8C379A000000000000000000000000000000000000000000000000000000000 DUP2 MSTORE PUSH1 0x4 ADD PUSH2 0x7A1 SWAP1 PUSH2 0xE9F JUMP JUMPDEST PUSH1 0x40 MLOAD DUP1 SWAP2 SUB SWAP1 REVERT JUMPDEST PUSH1 0x0 PUSH1 0x5 PUSH1 0x0 CALLER PUSH20 0xFFFFFFFFFFFFFFFFFFFFFFFFFFFFFFFFFFFFFFFF AND PUSH20 0xFFFFFFFFFFFFFFFFFFFFFFFFFFFFFFFFFFFFFFFF AND DUP2 MSTORE PUSH1 0x20 ADD SWAP1 DUP2 MSTORE PUSH1 0x20 ADD PUSH1 0x0 KECCAK256 SLOAD EQ ISZERO PUSH2 0x82D JUMPI PUSH1 0x40 MLOAD PUSH32 0x8C379A000000000000000000000000000000000000000000000000000000000 DUP2 MSTORE PUSH1 0x4 ADD PUSH2 0x824 SWAP1 PUSH2 0xF1F JUMP JUMPDEST PUSH1 0x40 MLOAD DUP1 SWAP2 SUB SWAP1 REVERT JUMPDEST PUSH1 0x3 PUSH1 0x0 SWAP1 SLOAD SWAP1 PUSH2 0x100 EXP SWAP1 DIV PUSH20 0xFFFFFFFFFFFFFFFFFFFFFFFFFFFFFFFFFFFFFFFF AND PUSH20 0xFFFFFFFFFFFFFFFFFFFFFFFFFFFFFFFFFFFFFFFF AND PUSH2 0x8FC PUSH1 0x1 SLOAD SWAP1 DUP2 ISZERO MUL SWAP1 PUSH1 0x40 MLOAD PUSH1 0x0 PUSH1 0x40 MLOAD DUP1 DUP4 SUB DUP2 DUP6 DUP9 DUP9 CALL SWAP4 POP POP POP POP ISZERO DUP1 ISZERO PUSH2 0x897 JUMPI RETURNDATASIZE PUSH1 0x0 DUP1 RETURNDATACOPY RETURNDATASIZE PUSH1 0x0 REVERT JUMPDEST POP PUSH4 0x1E13380 PUSH1 0x5 PUSH1 0x0 CALLER PUSH20 0xFFFFFFFFFFFFFFFFFFFFFFFFFFFFFFFFFFFFFFFF AND PUSH20 0xFFFFFFFFFFFFFFFFFFFFFFFFFFFFFFFFFFFFFFFF AND DUP2 MSTORE PUSH1 0x20 ADD SWAP1 DUP2 MSTORE PUSH1 0x20 ADD PUSH1 0x0 KECCAK256 SLOAD PUSH2 0x8E7 SWAP2 SWAP1 PUSH2 0xF6B JUMP JUMPDEST PUSH1 0x5 PUSH1 0x0 CALLER PUSH20 0xFFFFFFFFFFFFFFFFFFFFFFFFFFFFFFFFFFFFFFFF AND PUSH20 0xFFFFFFFFFFFFFFFFFFFFFFFFFFFFFFFFFFFFFFFF AND DUP2 MSTORE PUSH1 0x20 ADD SWAP1 DUP2 MSTORE PUSH1 0x20 ADD PUSH1 0x0 KECCAK256 DUP2 SWAP1 SSTORE POP CALLER PUSH20 0xFFFFFFFFFFFFFFFFFFFFFFFFFFFFFFFFFFFFFFFF AND PUSH32 0xE777AE9D65766408C351D743ED88284C7719883019E08000AF32400646ABCFF8 CALLVALUE PUSH1 0x40 MLOAD PUSH2 0x970 SWAP2 SWAP1 PUSH2 0xF3F JUMP JUMPDEST PUSH1 0x40 MLOAD DUP1 SWAP2 SUB SWAP1 LOG2 JUMP JUMPDEST PUSH1 0x0 DUP1 PUSH1 0x0 SWAP1 SLOAD SWAP1 PUSH2 0x100 EXP SWAP1 DIV PUSH20 0xFFFFFFFFFFFFFFFFFFFFFFFFFFFFFFFFFFFFFFFF AND SWAP1 POP SWAP1 JUMP JUMPDEST PUSH2 0x9AB PUSH2 0xC67 JUMP JUMPDEST PUSH20 0xFFFFFFFFFFFFFFFFFFFFFFFFFFFFFFFFFFFFFFFF AND PUSH2 0x9C9 PUSH2 0x97A JUMP JUMPDEST PUSH20 0xFFFFFFFFFFFFFFFFFFFFFFFFFFFFFFFFFFFFFFFF AND EQ PUSH2 0xA1F JUMPI PUSH1 0x40 MLOAD PUSH32 0x8C379A000000000000000000000000000000000000000000000000000000000 DUP2 MSTORE PUSH1 0x4 ADD PUSH2 0xA16 SWAP1 PUSH2 0xEDF JUMP JUMPDEST PUSH1 0x40 MLOAD DUP1 SWAP2 SUB SWAP1 REVERT JUMPDEST DUP1 PUSH1 0x2 DUP2 SWAP1 SSTORE POP POP JUMP JUMPDEST PUSH2 0xA31 PUSH2 0xC67 JUMP JUMPDEST PUSH20 0xFFFFFFFFFFFFFFFFFFFFFFFFFFFFFFFFFFFFFFFF AND PUSH2 0xA4F PUSH2 0x97A JUMP JUMPDEST PUSH20 0xFFFFFFFFFFFFFFFFFFFFFFFFFFFFFFFFFFFFFFFF AND EQ PUSH2 0xAA5 JUMPI PUSH1 0x40 MLOAD PUSH32 0x8C379A000000000000000000000000000000000000000000000000000000000 DUP2 MSTORE PUSH1 0x4 ADD PUSH2 0xA9C SWAP1 PUSH2 0xEDF JUMP JUMPDEST PUSH1 0x40 MLOAD DUP1 SWAP2 SUB SWAP1 REVERT JUMPDEST DUP1 PUSH1 0x4 PUSH1 0x0 PUSH2 0x100 EXP DUP2 SLOAD DUP2 PUSH20 0xFFFFFFFFFFFFFFFFFFFFFFFFFFFFFFFFFFFFFFFF MUL NOT AND SWAP1 DUP4 PUSH20 0xFFFFFFFFFFFFFFFFFFFFFFFFFFFFFFFFFFFFFFFF AND MUL OR SWAP1 SSTORE POP POP JUMP JUMPDEST PUSH2 0xAF1 PUSH2 0xC67 JUMP JUMPDEST PUSH20 0xFFFFFFFFFFFFFFFFFFFFFFFFFFFFFFFFFFFFFFFF AND PUSH2 0xB0F PUSH2 0x97A JUMP JUMPDEST PUSH20 0xFFFFFFFFFFFFFFFFFFFFFFFFFFFFFFFFFFFFFFFF AND EQ PUSH2 0xB65 JUMPI PUSH1 0x40 MLOAD PUSH32 0x8C379A000000000000000000000000000000000000000000000000000000000 DUP2 MSTORE PUSH1 0x4 ADD PUSH2 0xB5C SWAP1 PUSH2 0xEDF JUMP JUMPDEST PUSH1 0x40 MLOAD DUP1 SWAP2 SUB SWAP1 REVERT JUMPDEST DUP1 PUSH1 0x1 DUP2 SWAP1 SSTORE POP POP JUMP JUMPDEST PUSH2 0xB77 PUSH2 0xC67 JUMP JUMPDEST PUSH20 0xFFFFFFFFFFFFFFFFFFFFFFFFFFFFFFFFFFFFFFFF AND PUSH2 0xB95 PUSH2 0x97A JUMP JUMPDEST PUSH20 0xFFFFFFFFFFFFFFFFFFFFFFFFFFFFFFFFFFFFFFFF AND EQ PUSH2 0xBEB JUMPI PUSH1 0x40 MLOAD PUSH32 0x8C379A000000000000000000000000000000000000000000000000000000000 DUP2 MSTORE PUSH1 0x4 ADD PUSH2 0xBE2 SWAP1 PUSH2 0xEDF JUMP JUMPDEST PUSH1 0x40 MLOAD DUP1 SWAP2 SUB SWAP1 REVERT JUMPDEST PUSH1 0x0 PUSH20 0xFFFFFFFFFFFFFFFFFFFFFFFFFFFFFFFFFFFFFFFF AND DUP2 PUSH20 0xFFFFFFFFFFFFFFFFFFFFFFFFFFFFFFFFFFFFFFFF AND EQ ISZERO PUSH2 0xC5B JUMPI PUSH1 0x40 MLOAD PUSH32 0x8C379A000000000000000000000000000000000000000000000000000000000 DUP2 MSTORE PUSH1 0x4 ADD PUSH2 0xC52 SWAP1 PUSH2 0xEBF JUMP JUMPDEST PUSH1 0x40 MLOAD DUP1 SWAP2 SUB SWAP1 REVERT JUMPDEST PUSH2 0xC64 DUP2 PUSH2 0xC6F JUMP JUMPDEST POP JUMP JUMPDEST PUSH1 0x0 CALLER SWAP1 POP SWAP1 JUMP JUMPDEST PUSH1 0x0 DUP1 PUSH1 0x0 SWAP1 SLOAD SWAP1 PUSH2 0x100 EXP SWAP1 DIV PUSH20 0xFFFFFFFFFFFFFFFFFFFFFFFFFFFFFFFFFFFFFFFF AND SWAP1 POP DUP2 PUSH1 0x0 DUP1 PUSH2 0x100 EXP DUP2 SLOAD DUP2 PUSH20 0xFFFFFFFFFFFFFFFFFFFFFFFFFFFFFFFFFFFFFFFF MUL NOT AND SWAP1 DUP4 PUSH20 0xFFFFFFFFFFFFFFFFFFFFFFFFFFFFFFFFFFFFFFFF AND MUL OR SWAP1 SSTORE POP DUP2 PUSH20 0xFFFFFFFFFFFFFFFFFFFFFFFFFFFFFFFFFFFFFFFF AND DUP2 PUSH20 0xFFFFFFFFFFFFFFFFFFFFFFFFFFFFFFFFFFFFFFFF AND PUSH32 0x8BE0079C531659141344CD1FD0A4F28419497F9722A3DAAFE3B4186F6B6457E0 PUSH1 0x40 MLOAD PUSH1 0x40 MLOAD DUP1 SWAP2 SUB SWAP1 LOG3 POP POP JUMP JUMPDEST PUSH1 0x0 DUP2 CALLDATALOAD SWAP1 POP PUSH2 0xD42 DUP2 PUSH2 0x1124 JUMP JUMPDEST SWAP3 SWAP2 POP POP JUMP JUMPDEST PUSH1 0x0 DUP2 CALLDATALOAD SWAP1 POP PUSH2 0xD57 DUP2 PUSH2 0x113B JUMP JUMPDEST SWAP3 SWAP2 POP POP JUMP JUMPDEST PUSH1 0x0 PUSH1 0x20 DUP3 DUP5 SUB SLT ISZERO PUSH2 0xD73 JUMPI PUSH2 0xD72 PUSH2 0x102C JUMP JUMPDEST JUMPDEST PUSH1 0x0 PUSH2 0xD81 DUP5 DUP3 DUP6 ADD PUSH2 0xD33 JUMP JUMPDEST SWAP2 POP POP SWAP3 SWAP2 POP POP JUMP JUMPDEST PUSH1 0x0 PUSH1 0x20 DUP3 DUP5 SUB SLT ISZERO PUSH2 0xDA0 JUMPI PUSH2 0xD9F PUSH2 0x102C JUMP JUMPDEST JUMPDEST PUSH1 0x0 PUSH2 0xDAE DUP5 DUP3 DUP6 ADD PUSH2 0xD48 JUMP JUMPDEST SWAP2 POP POP SWAP3 SWAP2 POP POP JUMP JUMPDEST PUSH2 0xDC0 DUP2 PUSH2 0xFC1 JUMP JUMPDEST DUP3 MSTORE POP POP JUMP JUMPDEST PUSH1 0x0 PUSH2 0xDD3 PUSH1 0x11 DUP4 PUSH2 0xF5A JUMP JUMPDEST SWAP2 POP PUSH2 0xDDE DUP3 PUSH2 0x1031 JUMP JUMPDEST PUSH1 0x20 DUP3 ADD SWAP1 POP SWAP2 SWAP1 POP JUMP JUMPDEST PUSH1 0x0 PUSH2 0xDF6 PUSH1 0x26 DUP4 PUSH2 0xF5A JUMP JUMPDEST SWAP2 POP PUSH2 0xE01 DUP3 PUSH2 0x105A JUMP JUMPDEST PUSH1 0x40 DUP3 ADD SWAP1 POP SWAP2 SWAP1 POP JUMP JUMPDEST PUSH1 0x0 PUSH2 0xE19 PUSH1 0x20 DUP4 PUSH2 0xF5A JUMP JUMPDEST SWAP2 POP PUSH2 0xE24 DUP3 PUSH2 0x10A9 JUMP JUMPDEST PUSH1 0x20 DUP3 ADD SWAP1 POP SWAP2 SWAP1 POP JUMP JUMPDEST PUSH1 0x0 PUSH2 0xE3C PUSH1 0xE DUP4 PUSH2 0xF5A JUMP JUMPDEST SWAP2 POP PUSH2 0xE47 DUP3 PUSH2 0x10D2 JUMP JUMPDEST PUSH1 0x20 DUP3 ADD SWAP1 POP SWAP2 SWAP1 POP JUMP JUMPDEST PUSH1 0x0 PUSH2 0xE5F PUSH1 0x11 DUP4 PUSH2 0xF5A JUMP JUMPDEST SWAP2 POP PUSH2 0xE6A DUP3 PUSH2 0x10FB JUMP JUMPDEST PUSH1 0x20 DUP3 ADD SWAP1 POP SWAP2 SWAP1 POP JUMP JUMPDEST PUSH2 0xE7E DUP2 PUSH2 0xFF3 JUMP JUMPDEST DUP3 MSTORE POP POP JUMP JUMPDEST PUSH1 0x0 PUSH1 0x20 DUP3 ADD SWAP1 POP PUSH2 0xE99 PUSH1 0x0 DUP4 ADD DUP5 PUSH2 0xDB7 JUMP JUMPDEST SWAP3 SWAP2 POP POP JUMP JUMPDEST PUSH1 0x0 PUSH1 0x20 DUP3 ADD SWAP1 POP DUP2 DUP2 SUB PUSH1 0x0 DUP4 ADD MSTORE PUSH2 0xEB8 DUP2 PUSH2 0xDC6 JUMP JUMPDEST SWAP1 POP SWAP2 SWAP1 POP JUMP JUMPDEST PUSH1 0x0 PUSH1 0x20 DUP3 ADD SWAP1 POP DUP2 DUP2 SUB PUSH1 0x0 DUP4 ADD MSTORE PUSH2 0xED8 DUP2 PUSH2 0xDE9 JUMP JUMPDEST SWAP1 POP SWAP2 SWAP1 POP JUMP JUMPDEST PUSH1 0x0 PUSH1 0x20 DUP3 ADD SWAP1 POP DUP2 DUP2 SUB PUSH1 0x0 DUP4 ADD MSTORE PUSH2 0xEF8 DUP2 PUSH2 0xE0C JUMP JUMPDEST SWAP1 POP SWAP2 SWAP1 POP JUMP JUMPDEST PUSH1 0x0 PUSH1 0x20 DUP3 ADD SWAP1 POP DUP2 DUP2 SUB PUSH1 0x0 DUP4 ADD MSTORE PUSH2 0xF18 DUP2 PUSH2 0xE2F JUMP JUMPDEST SWAP1 POP SWAP2 SWAP1 POP JUMP JUMPDEST PUSH1 0x0 PUSH1 0x20 DUP3 ADD SWAP1 POP DUP2 DUP2 SUB PUSH1 0x0 DUP4 ADD MSTORE PUSH2 0xF38 DUP2 PUSH2 0xE52 JUMP JUMPDEST SWAP1 POP SWAP2 SWAP1 POP JUMP JUMPDEST PUSH1 0x0 PUSH1 0x20 DUP3 ADD SWAP1 POP PUSH2 0xF54 PUSH1 0x0 DUP4 ADD DUP5 PUSH2 0xE75 JUMP JUMPDEST SWAP3 SWAP2 POP POP JUMP JUMPDEST PUSH1 0x0 DUP3 DUP3 MSTORE PUSH1 0x20 DUP3 ADD SWAP1 POP SWAP3 SWAP2 POP POP JUMP JUMPDEST PUSH1 0x0 PUSH2 0xF76 DUP3 PUSH2 0xFF3 JUMP JUMPDEST SWAP2 POP PUSH2 0xF81 DUP4 PUSH2 0xFF3 JUMP JUMPDEST SWAP3 POP DUP3 PUSH32 0xFFFFFFFFFFFFFFFFFFFFFFFFFFFFFFFFFFFFFFFFFFFFFFFFFFFFFFFFFFFFFFFF SUB DUP3 GT ISZERO PUSH2 0xFB6 JUMPI PUSH2 0xFB5 PUSH2 0xFFD JUMP JUMPDEST JUMPDEST DUP3 DUP3 ADD SWAP1 POP SWAP3 SWAP2 POP POP JUMP JUMPDEST PUSH1 0x0 PUSH2 0xFCC DUP3 PUSH2 0xFD3 JUMP JUMPDEST SWAP1 POP SWAP2 SWAP1 POP JUMP JUMPDEST PUSH1 0x0 PUSH20 0xFFFFFFFFFFFFFFFFFFFFFFFFFFFFFFFFFFFFFFFF DUP3 AND SWAP1 POP SWAP2 SWAP1 POP JUMP JUMPDEST PUSH1 0x0 DUP2 SWAP1 POP SWAP2 SWAP1 POP JUMP JUMPDEST PUSH32 0x4E487B7100000000000000000000000000000000000000000000000000000000 PUSH1 0x0 MSTORE PUSH1 0x11 PUSH1 0x4 MSTORE PUSH1 0x24 PUSH1 0x0 REVERT JUMPDEST PUSH1 0x0 DUP1 REVERT JUMPDEST PUSH32 0x6D73672E76616C756520696E76616C6964000000000000000000000000000000 PUSH1 0x0 DUP3 ADD MSTORE POP JUMP JUMPDEST PUSH32 0x4F776E61626C653A206E6577206F776E657220697320746865207A65726F2061 PUSH1 0x0 DUP3 ADD MSTORE PUSH32 0x6464726573730000000000000000000000000000000000000000000000000000 PUSH1 0x20 DUP3 ADD MSTORE POP JUMP JUMPDEST PUSH32 0x4F776E61626C653A2063616C6C6572206973206E6F7420746865206F776E6572 PUSH1 0x0 DUP3 ADD MSTORE POP JUMP JUMPDEST PUSH32 0x616C7265616479206F70656E6564000000000000000000000000000000000000 PUSH1 0x0 DUP3 ADD MSTORE POP JUMP JUMPDEST PUSH32 0x6E6F2065786368616E6765206578697374000000000000000000000000000000 PUSH1 0x0 DUP3 ADD MSTORE POP JUMP JUMPDEST PUSH2 0x112D DUP2 PUSH2 0xFC1 JUMP JUMPDEST DUP2 EQ PUSH2 0x1138 JUMPI PUSH1 0x0 DUP1 REVERT JUMPDEST POP JUMP JUMPDEST PUSH2 0x1144 DUP2 PUSH2 0xFF3 JUMP JUMPDEST DUP2 EQ PUSH2 0x114F JUMPI PUSH1 0x0 DUP1 REVERT JUMPDEST POP JUMP INVALID LOG2 PUSH5 0x6970667358 0x22 SLT KECCAK256 0xD3 PUSH31 0x1661F122D2D4C8853FBD87433AFBF7DC88E3A10D771E2C73B278095FD85364 PUSH20 0x6F6C634300080700330000000000000000000000 "
				},
				"gasEstimates": {
					"creation": {
						"codeDepositCost": "897600",
						"executionCost": "infinite",
						"totalCost": "infinite"
					},
					"external": {
						"": "218",
						"checkAuth(address)": "5138",
						"endTime(address)": "2837",
						"otherFeeAddress()": "2515",
						"owner()": "2589",
						"payForOpenExchange()": "infinite",
						"payForRenew()": "infinite",
						"renounceOwnership()": "30441",
						"setOtherFee(uint256)": "24782",
						"setOtherFeeAddress(address)": "27006",
						"setYearFee(uint256)": "24826",
						"setYearFeeAddress(address)": "27073",
						"transferOwnership(address)": "30811",
						"yearFeeAddress()": "2603"
					}
				},
				"methodIdentifiers": {
					"checkAuth(address)": "4b165090",
					"endTime(address)": "4aefdccd",
					"otherFeeAddress()": "366a8508",
					"owner()": "8da5cb5b",
					"payForOpenExchange()": "8310f06d",
					"payForRenew()": "8b68e1fa",
					"renounceOwnership()": "715018a6",
					"setOtherFee(uint256)": "aeb0bc79",
					"setOtherFeeAddress(address)": "e0c350b5",
					"setYearFee(uint256)": "f2c8609e",
					"setYearFeeAddress(address)": "7ad3c93a",
					"transferOwnership(address)": "f2fde38b",
					"yearFeeAddress()": "75a3aae7"
				}
			},
			"userdoc": {
				"kind": "user",
				"methods": {},
				"version": 1
			}
		}
	}
}