{
	"contracts/tokens/ERBPay.sol": {
		"ERBPay": {
			"abi": [
				{
					"inputs": [],
					"stateMutability": "nonpayable",
					"type": "constructor"
				},
				{
					"anonymous": false,
					"inputs": [
						{
							"indexed": true,
							"internalType": "address",
							"name": "previousOwner",
							"type": "address"
						},
						{
							"indexed": true,
							"internalType": "address",
							"name": "newOwner",
							"type": "address"
						}
					],
					"name": "OwnershipTransferred",
					"type": "event"
				},
				{
					"anonymous": false,
					"inputs": [
						{
							"indexed": true,
							"internalType": "address",
							"name": "sender",
							"type": "address"
						},
						{
							"indexed": false,
							"internalType": "uint256",
							"name": "amount",
							"type": "uint256"
						}
					],
					"name": "PayForOpenExchange",
					"type": "event"
				},
				{
					"anonymous": false,
					"inputs": [
						{
							"indexed": true,
							"internalType": "address",
							"name": "sender",
							"type": "address"
						},
						{
							"indexed": false,
							"internalType": "uint256",
							"name": "amount",
							"type": "uint256"
						}
					],
					"name": "PayForOpenRenew",
					"type": "event"
				},
				{
					"stateMutability": "payable",
					"type": "fallback"
				},
				{
					"inputs": [
						{
							"internalType": "address",
							"name": "addr",
							"type": "address"
						}
					],
					"name": "checkAuth",
					"outputs": [
						{
							"internalType": "uint256",
							"name": "",
							"type": "uint256"
						}
					],
					"stateMutability": "view",
					"type": "function"
				},
				{
					"inputs": [
						{
							"internalType": "address",
							"name": "",
							"type": "address"
						}
					],
					"name": "endTime",
					"outputs": [
						{
							"internalType": "uint256",
							"name": "",
							"type": "uint256"
						}
					],
					"stateMutability": "view",
					"type": "function"
				},
				{
					"inputs": [],
					"name": "otherFeeAddress",
					"outputs": [
						{
							"internalType": "address",
							"name": "",
							"type": "address"
						}
					],
					"stateMutability": "view",
					"type": "function"
				},
				{
					"inputs": [],
					"name": "owner",
					"outputs": [
						{
							"internalType": "address",
							"name": "",
							"type": "address"
						}
					],
					"stateMutability": "view",
					"type": "function"
				},
				{
					"inputs": [],
					"name": "payForOpenExchange",
					"outputs": [],
					"stateMutability": "payable",
					"type": "function"
				},
				{
					"inputs": [],
					"name": "payForRenew",
					"outputs": [],
					"stateMutability": "payable",
					"type": "function"
				},
				{
					"inputs": [],
					"name": "renounceOwnership",
					"outputs": [],
					"stateMutability": "nonpayable",
					"type": "function"
				},
				{
					"inputs": [
						{
							"internalType": "uint256",
							"name": "amount",
							"type": "uint256"
						}
					],
					"name": "setOtherFee",
					"outputs": [],
					"stateMutability": "nonpayable",
					"type": "function"
				},
				{
					"inputs": [
						{
							"internalType": "address",
							"name": "_addr",
							"type": "address"
						}
					],
					"name": "setOtherFeeAddress",
					"outputs": [],
					"stateMutability": "nonpayable",
					"type": "function"
				},
				{
					"inputs": [
						{
							"internalType": "uint256",
							"name": "amount",
							"type": "uint256"
						}
					],
					"name": "setYearFee",
					"outputs": [],
					"stateMutability": "nonpayable",
					"type": "function"
				},
				{
					"inputs": [
						{
							"internalType": "address",
							"name": "_addr",
							"type": "address"
						}
					],
					"name": "setYearFeeAddress",
					"outputs": [],
					"stateMutability": "nonpayable",
					"type": "function"
				},
				{
					"inputs": [
						{
							"internalType": "address",
							"name": "newOwner",
							"type": "address"
						}
					],
					"name": "transferOwnership",
					"outputs": [],
					"stateMutability": "nonpayable",
					"type": "function"
				},
				{
					"inputs": [],
					"name": "yearFeeAddress",
					"outputs": [
						{
							"internalType": "address",
							"name": "",
							"type": "address"
						}
					],
					"stateMutability": "view",
					"type": "function"
				},
				{
					"stateMutability": "payable",
					"type": "receive"
				}
			],
			"devdoc": {
				"kind": "dev",
				"methods": {
					"owner()": {
						"details": "Returns the address of the current owner."
					},
					"renounceOwnership()": {
						"details": "Leaves the contract without owner. It will not be possible to call `onlyOwner` functions anymore. Can only be called by the current owner. NOTE: Renouncing ownership will leave the contract without an owner, thereby removing any functionality that is only available to the owner."
					},
					"transferOwnership(address)": {
						"details": "Transfers ownership of the contract to a new account (`newOwner`). Can only be called by the current owner."
					}
				},
				"version": 1
			},
			"evm": {
				"assembly": "    /* \"contracts/tokens/ERBPay.sol\":114:2077  contract ERBPay is Ownable{... */\n  mstore(0x40, 0x80)\n    /* \"contracts/tokens/ERBPay.sol\":163:171  200*1e18 */\n  0x0ad78ebc5ac6200000\n    /* \"contracts/tokens/ERBPay.sol\":147:171  uint256 yearFee=200*1e18 */\n  0x01\n  sstore\n    /* \"contracts/tokens/ERBPay.sol\":195:203  100*1e18 */\n  0x056bc75e2d63100000\n    /* \"contracts/tokens/ERBPay.sol\":178:203  uint256 otherFee=100*1e18 */\n  0x02\n  sstore\n    /* \"contracts/tokens/ERBPay.sol\":210:282  address public yearFeeAddress=0x10CEc672c6BB2f6782BEED65987E020902B7bD15 */\n  0x03\n  dup1\n  sload\n  not(sub(shl(0xa0, 0x01), 0x01))\n  swap1\n  dup2\n  and\n    /* \"contracts/tokens/ERBPay.sol\":240:282  0x10CEc672c6BB2f6782BEED65987E020902B7bD15 */\n  0x10cec672c6bb2f6782beed65987e020902b7bd15\n    /* \"contracts/tokens/ERBPay.sol\":210:282  address public yearFeeAddress=0x10CEc672c6BB2f6782BEED65987E020902B7bD15 */\n  or\n  swap1\n  swap2\n  sstore\n    /* \"contracts/tokens/ERBPay.sol\":289:362  address public otherFeeAddress=0xEbE809C70406Fc07e70Bc2c590bC7Dd9Ba9272Ac */\n  0x04\n  dup1\n  sload\n  swap1\n  swap2\n  and\n    /* \"contracts/tokens/ERBPay.sol\":320:362  0xEbE809C70406Fc07e70Bc2c590bC7Dd9Ba9272Ac */\n  0xebe809c70406fc07e70bc2c590bc7dd9ba9272ac\n    /* \"contracts/tokens/ERBPay.sol\":289:362  address public otherFeeAddress=0xEbE809C70406Fc07e70Bc2c590bC7Dd9Ba9272Ac */\n  or\n  swap1\n  sstore\n    /* \"contracts/tokens/ERBPay.sol\":554:577  constructor () {... */\n  callvalue\n  dup1\n  iszero\n  tag_1\n  jumpi\n  0x00\n  dup1\n  revert\ntag_1:\n  pop\n    /* \"@openzeppelin/contracts/access/Ownable.sol\":921:953  _transferOwnership(_msgSender()) */\n  tag_5\n    /* \"@openzeppelin/contracts/utils/Context.sol\":719:729  msg.sender */\n  caller\n    /* \"@openzeppelin/contracts/access/Ownable.sol\":921:939  _transferOwnership */\n  tag_8\n    /* \"@openzeppelin/contracts/access/Ownable.sol\":921:953  _transferOwnership(_msgSender()) */\n  jump\t// in\ntag_5:\n    /* \"contracts/tokens/ERBPay.sol\":114:2077  contract ERBPay is Ownable{... */\n  jump(tag_10)\n    /* \"@openzeppelin/contracts/access/Ownable.sol\":2270:2457  function _transferOwnership(address newOwner) internal virtual {... */\ntag_8:\n    /* \"@openzeppelin/contracts/access/Ownable.sol\":2343:2359  address oldOwner */\n  0x00\n    /* \"@openzeppelin/contracts/access/Ownable.sol\":2362:2368  _owner */\n  dup1\n  sload\n  sub(shl(0xa0, 0x01), 0x01)\n    /* \"@openzeppelin/contracts/access/Ownable.sol\":2378:2395  _owner = newOwner */\n  dup4\n  dup2\n  and\n  not(sub(shl(0xa0, 0x01), 0x01))\n  dup4\n  and\n  dup2\n  or\n  dup5\n  sstore\n    /* \"@openzeppelin/contracts/access/Ownable.sol\":2410:2450  OwnershipTransferred(oldOwner, newOwner) */\n  mload(0x40)\n    /* \"@openzeppelin/contracts/access/Ownable.sol\":2362:2368  _owner */\n  swap2\n  swap1\n  swap3\n  and\n  swap3\n  dup4\n  swap2\n    /* \"@openzeppelin/contracts/access/Ownable.sol\":2410:2450  OwnershipTransferred(oldOwner, newOwner) */\n  0x8be0079c531659141344cd1fd0a4f28419497f9722a3daafe3b4186f6b6457e0\n  swap2\n    /* \"@openzeppelin/contracts/access/Ownable.sol\":2343:2359  address oldOwner */\n  swap1\n    /* \"@openzeppelin/contracts/access/Ownable.sol\":2410:2450  OwnershipTransferred(oldOwner, newOwner) */\n  log3\n    /* \"@openzeppelin/contracts/access/Ownable.sol\":2333:2457  {... */\n  pop\n    /* \"@openzeppelin/contracts/access/Ownable.sol\":2270:2457  function _transferOwnership(address newOwner) internal virtual {... */\n  pop\n  jump\t// out\n    /* \"contracts/tokens/ERBPay.sol\":114:2077  contract ERBPay is Ownable{... */\ntag_10:\n  dataSize(sub_0)\n  dup1\n  dataOffset(sub_0)\n  0x00\n  codecopy\n  0x00\n  return\nstop\n\nsub_0: assembly {\n        /* \"contracts/tokens/ERBPay.sol\":114:2077  contract ERBPay is Ownable{... */\n      mstore(0x40, 0x80)\n      jumpi(tag_1, lt(calldatasize, 0x04))\n      shr(0xe0, calldataload(0x00))\n      dup1\n      0x8310f06d\n      gt\n      tag_16\n      jumpi\n      dup1\n      0xaeb0bc79\n      gt\n      tag_17\n      jumpi\n      dup1\n      0xaeb0bc79\n      eq\n      tag_12\n      jumpi\n      dup1\n      0xe0c350b5\n      eq\n      tag_13\n      jumpi\n      dup1\n      0xf2c8609e\n      eq\n      tag_14\n      jumpi\n      dup1\n      0xf2fde38b\n      eq\n      tag_15\n      jumpi\n      stop\n    tag_17:\n      dup1\n      0x8310f06d\n      eq\n      tag_9\n      jumpi\n      dup1\n      0x8b68e1fa\n      eq\n      tag_10\n      jumpi\n      dup1\n      0x8da5cb5b\n      eq\n      tag_11\n      jumpi\n      stop\n    tag_16:\n      dup1\n      0x366a8508\n      eq\n      tag_3\n      jumpi\n      dup1\n      0x4aefdccd\n      eq\n      tag_4\n      jumpi\n      dup1\n      0x4b165090\n      eq\n      tag_5\n      jumpi\n      dup1\n      0x715018a6\n      eq\n      tag_6\n      jumpi\n      dup1\n      0x75a3aae7\n      eq\n      tag_7\n      jumpi\n      dup1\n      0x7ad3c93a\n      eq\n      tag_8\n      jumpi\n      stop\n    tag_1:\n      jumpi(tag_2, calldatasize)\n      stop\n    tag_2:\n      stop\n        /* \"contracts/tokens/ERBPay.sol\":289:362  address public otherFeeAddress=0xEbE809C70406Fc07e70Bc2c590bC7Dd9Ba9272Ac */\n    tag_3:\n      callvalue\n      dup1\n      iszero\n      tag_22\n      jumpi\n      0x00\n      dup1\n      revert\n    tag_22:\n      pop\n      sload(0x04)\n      tag_23\n      swap1\n      sub(shl(0xa0, 0x01), 0x01)\n      and\n      dup2\n      jump\n    tag_23:\n      mload(0x40)\n      sub(shl(0xa0, 0x01), 0x01)\n        /* \"#utility.yul\":178:210   */\n      swap1\n      swap2\n      and\n        /* \"#utility.yul\":160:211   */\n      dup2\n      mstore\n        /* \"#utility.yul\":148:150   */\n      0x20\n        /* \"#utility.yul\":133:151   */\n      add\n        /* \"contracts/tokens/ERBPay.sol\":289:362  address public otherFeeAddress=0xEbE809C70406Fc07e70Bc2c590bC7Dd9Ba9272Ac */\n    tag_25:\n      mload(0x40)\n      dup1\n      swap2\n      sub\n      swap1\n      return\n        /* \"contracts/tokens/ERBPay.sol\":369:408  mapping(address=>uint256)public endTime */\n    tag_4:\n      callvalue\n      dup1\n      iszero\n      tag_27\n      jumpi\n      0x00\n      dup1\n      revert\n    tag_27:\n      pop\n      tag_28\n      tag_29\n      calldatasize\n      0x04\n      tag_30\n      jump\t// in\n    tag_29:\n      mstore(0x20, 0x05)\n      0x00\n      swap1\n      dup2\n      mstore\n      0x40\n      swap1\n      keccak256\n      sload\n      dup2\n      jump\n    tag_28:\n      mload(0x40)\n        /* \"#utility.yul\":659:684   */\n      swap1\n      dup2\n      mstore\n        /* \"#utility.yul\":647:649   */\n      0x20\n        /* \"#utility.yul\":632:650   */\n      add\n        /* \"contracts/tokens/ERBPay.sol\":369:408  mapping(address=>uint256)public endTime */\n      tag_25\n        /* \"#utility.yul\":513:690   */\n      jump\n        /* \"contracts/tokens/ERBPay.sol\":1774:1997  function checkAuth(address addr)view public returns(uint256){... */\n    tag_5:\n      callvalue\n      dup1\n      iszero\n      tag_34\n      jumpi\n      0x00\n      dup1\n      revert\n    tag_34:\n      pop\n      tag_28\n      tag_36\n      calldatasize\n      0x04\n      tag_30\n      jump\t// in\n    tag_36:\n      tag_37\n      jump\t// in\n        /* \"@openzeppelin/contracts/access/Ownable.sol\":1668:1769  function renounceOwnership() public virtual onlyOwner {... */\n    tag_6:\n      callvalue\n      dup1\n      iszero\n      tag_39\n      jumpi\n      0x00\n      dup1\n      revert\n    tag_39:\n      pop\n      tag_2\n      tag_41\n      jump\t// in\n        /* \"contracts/tokens/ERBPay.sol\":210:282  address public yearFeeAddress=0x10CEc672c6BB2f6782BEED65987E020902B7bD15 */\n    tag_7:\n      callvalue\n      dup1\n      iszero\n      tag_42\n      jumpi\n      0x00\n      dup1\n      revert\n    tag_42:\n      pop\n      sload(0x03)\n      tag_23\n      swap1\n      sub(shl(0xa0, 0x01), 0x01)\n      and\n      dup2\n      jump\n        /* \"contracts/tokens/ERBPay.sol\":777:876  function setYearFeeAddress(address _addr) external onlyOwner{... */\n    tag_8:\n      callvalue\n      dup1\n      iszero\n      tag_46\n      jumpi\n      0x00\n      dup1\n      revert\n    tag_46:\n      pop\n      tag_2\n      tag_48\n      calldatasize\n      0x04\n      tag_30\n      jump\t// in\n    tag_48:\n      tag_49\n      jump\t// in\n        /* \"contracts/tokens/ERBPay.sol\":993:1388  function payForOpenExchange()external payable{... */\n    tag_9:\n      tag_2\n      tag_51\n      jump\t// in\n        /* \"contracts/tokens/ERBPay.sol\":1396:1726  function payForRenew()external payable{... */\n    tag_10:\n      tag_2\n      tag_53\n      jump\t// in\n        /* \"@openzeppelin/contracts/access/Ownable.sol\":1036:1121  function owner() public view virtual returns (address) {... */\n    tag_11:\n      callvalue\n      dup1\n      iszero\n      tag_54\n      jumpi\n      0x00\n      dup1\n      revert\n    tag_54:\n      pop\n        /* \"@openzeppelin/contracts/access/Ownable.sol\":1082:1089  address */\n      0x00\n        /* \"@openzeppelin/contracts/access/Ownable.sol\":1108:1114  _owner */\n      sload\n      sub(shl(0xa0, 0x01), 0x01)\n      and\n        /* \"@openzeppelin/contracts/access/Ownable.sol\":1036:1121  function owner() public view virtual returns (address) {... */\n      jump(tag_23)\n        /* \"contracts/tokens/ERBPay.sol\":680:769  function setOtherFee(uint256 amount) external onlyOwner{... */\n    tag_12:\n      callvalue\n      dup1\n      iszero\n      tag_58\n      jumpi\n      0x00\n      dup1\n      revert\n    tag_58:\n      pop\n      tag_2\n      tag_60\n      calldatasize\n      0x04\n      tag_61\n      jump\t// in\n    tag_60:\n      tag_62\n      jump\t// in\n        /* \"contracts/tokens/ERBPay.sol\":884:985  function setOtherFeeAddress(address _addr) external onlyOwner{... */\n    tag_13:\n      callvalue\n      dup1\n      iszero\n      tag_63\n      jumpi\n      0x00\n      dup1\n      revert\n    tag_63:\n      pop\n      tag_2\n      tag_65\n      calldatasize\n      0x04\n      tag_30\n      jump\t// in\n    tag_65:\n      tag_66\n      jump\t// in\n        /* \"contracts/tokens/ERBPay.sol\":585:672  function setYearFee(uint256 amount) external onlyOwner{... */\n    tag_14:\n      callvalue\n      dup1\n      iszero\n      tag_67\n      jumpi\n      0x00\n      dup1\n      revert\n    tag_67:\n      pop\n      tag_2\n      tag_69\n      calldatasize\n      0x04\n      tag_61\n      jump\t// in\n    tag_69:\n      tag_70\n      jump\t// in\n        /* \"@openzeppelin/contracts/access/Ownable.sol\":1918:2116  function transferOwnership(address newOwner) public virtual onlyOwner {... */\n    tag_15:\n      callvalue\n      dup1\n      iszero\n      tag_71\n      jumpi\n      0x00\n      dup1\n      revert\n    tag_71:\n      pop\n      tag_2\n      tag_73\n      calldatasize\n      0x04\n      tag_30\n      jump\t// in\n    tag_73:\n      tag_74\n      jump\t// in\n        /* \"contracts/tokens/ERBPay.sol\":1774:1997  function checkAuth(address addr)view public returns(uint256){... */\n    tag_37:\n      sub(shl(0xa0, 0x01), 0x01)\n        /* \"contracts/tokens/ERBPay.sol\":1848:1861  endTime[addr] */\n      dup2\n      and\n        /* \"contracts/tokens/ERBPay.sol\":1826:1833  uint256 */\n      0x00\n        /* \"contracts/tokens/ERBPay.sol\":1848:1861  endTime[addr] */\n      swap1\n      dup2\n      mstore\n        /* \"contracts/tokens/ERBPay.sol\":1848:1855  endTime */\n      0x05\n        /* \"contracts/tokens/ERBPay.sol\":1848:1861  endTime[addr] */\n      0x20\n      mstore\n      0x40\n      dup2\n      keccak256\n      sload\n        /* \"contracts/tokens/ERBPay.sol\":1848:1864  endTime[addr]==0 */\n      dup2\n      sub\n        /* \"contracts/tokens/ERBPay.sol\":1845:1971  if(endTime[addr]==0){... */\n      tag_76\n      jumpi\n      pop\n        /* \"contracts/tokens/ERBPay.sol\":1886:1887  0 */\n      0x00\n      swap2\n        /* \"contracts/tokens/ERBPay.sol\":1774:1997  function checkAuth(address addr)view public returns(uint256){... */\n      swap1\n      pop\n      jump\t// out\n        /* \"contracts/tokens/ERBPay.sol\":1845:1971  if(endTime[addr]==0){... */\n    tag_76:\n      sub(shl(0xa0, 0x01), 0x01)\n        /* \"contracts/tokens/ERBPay.sol\":1907:1920  endTime[addr] */\n      dup3\n      and\n      0x00\n      swap1\n      dup2\n      mstore\n        /* \"contracts/tokens/ERBPay.sol\":1907:1914  endTime */\n      0x05\n        /* \"contracts/tokens/ERBPay.sol\":1907:1920  endTime[addr] */\n      0x20\n      mstore\n      0x40\n      swap1\n      keccak256\n      sload\n        /* \"contracts/tokens/ERBPay.sol\":1921:1936  block.timestamp */\n      timestamp\n      gt\n        /* \"contracts/tokens/ERBPay.sol\":1904:1971  if(endTime[addr]<block.timestamp){... */\n      iszero\n      tag_78\n      jumpi\n      pop\n        /* \"contracts/tokens/ERBPay.sol\":1958:1959  1 */\n      0x01\n      swap2\n        /* \"contracts/tokens/ERBPay.sol\":1774:1997  function checkAuth(address addr)view public returns(uint256){... */\n      swap1\n      pop\n      jump\t// out\n        /* \"contracts/tokens/ERBPay.sol\":1904:1971  if(endTime[addr]<block.timestamp){... */\n    tag_78:\n      pop\n        /* \"contracts/tokens/ERBPay.sol\":1988:1989  2 */\n      0x02\n      swap2\n        /* \"contracts/tokens/ERBPay.sol\":1774:1997  function checkAuth(address addr)view public returns(uint256){... */\n      swap1\n      pop\n      jump\t// out\n        /* \"@openzeppelin/contracts/access/Ownable.sol\":1668:1769  function renounceOwnership() public virtual onlyOwner {... */\n    tag_41:\n        /* \"@openzeppelin/contracts/access/Ownable.sol\":1082:1089  address */\n      0x00\n        /* \"@openzeppelin/contracts/access/Ownable.sol\":1108:1114  _owner */\n      sload\n      sub(shl(0xa0, 0x01), 0x01)\n      and\n        /* \"@openzeppelin/contracts/utils/Context.sol\":719:729  msg.sender */\n      caller\n        /* \"@openzeppelin/contracts/access/Ownable.sol\":1248:1271  owner() == _msgSender() */\n      eq\n        /* \"@openzeppelin/contracts/access/Ownable.sol\":1240:1308  require(owner() == _msgSender(), \"Ownable: caller is not the owner\") */\n      tag_83\n      jumpi\n      mload(0x40)\n      shl(0xe5, 0x461bcd)\n      dup2\n      mstore\n      0x04\n      add\n      tag_84\n      swap1\n      tag_85\n      jump\t// in\n    tag_84:\n      mload(0x40)\n      dup1\n      swap2\n      sub\n      swap1\n      revert\n    tag_83:\n        /* \"@openzeppelin/contracts/access/Ownable.sol\":1732:1762  _transferOwnership(address(0)) */\n      tag_87\n        /* \"@openzeppelin/contracts/access/Ownable.sol\":1759:1760  0 */\n      0x00\n        /* \"@openzeppelin/contracts/access/Ownable.sol\":1732:1750  _transferOwnership */\n      tag_88\n        /* \"@openzeppelin/contracts/access/Ownable.sol\":1732:1762  _transferOwnership(address(0)) */\n      jump\t// in\n    tag_87:\n        /* \"@openzeppelin/contracts/access/Ownable.sol\":1668:1769  function renounceOwnership() public virtual onlyOwner {... */\n      jump\t// out\n        /* \"contracts/tokens/ERBPay.sol\":777:876  function setYearFeeAddress(address _addr) external onlyOwner{... */\n    tag_49:\n        /* \"@openzeppelin/contracts/access/Ownable.sol\":1082:1089  address */\n      0x00\n        /* \"@openzeppelin/contracts/access/Ownable.sol\":1108:1114  _owner */\n      sload\n      sub(shl(0xa0, 0x01), 0x01)\n      and\n        /* \"@openzeppelin/contracts/utils/Context.sol\":719:729  msg.sender */\n      caller\n        /* \"@openzeppelin/contracts/access/Ownable.sol\":1248:1271  owner() == _msgSender() */\n      eq\n        /* \"@openzeppelin/contracts/access/Ownable.sol\":1240:1308  require(owner() == _msgSender(), \"Ownable: caller is not the owner\") */\n      tag_92\n      jumpi\n      mload(0x40)\n      shl(0xe5, 0x461bcd)\n      dup2\n      mstore\n      0x04\n      add\n      tag_84\n      swap1\n      tag_85\n      jump\t// in\n    tag_92:\n        /* \"contracts/tokens/ERBPay.sol\":848:862  yearFeeAddress */\n      0x03\n        /* \"contracts/tokens/ERBPay.sol\":848:868  yearFeeAddress=_addr */\n      dup1\n      sload\n      not(sub(shl(0xa0, 0x01), 0x01))\n      and\n      sub(shl(0xa0, 0x01), 0x01)\n      swap3\n      swap1\n      swap3\n      and\n      swap2\n      swap1\n      swap2\n      or\n      swap1\n      sstore\n        /* \"contracts/tokens/ERBPay.sol\":777:876  function setYearFeeAddress(address _addr) external onlyOwner{... */\n      jump\t// out\n        /* \"contracts/tokens/ERBPay.sol\":993:1388  function payForOpenExchange()external payable{... */\n    tag_51:\n        /* \"contracts/tokens/ERBPay.sol\":1077:1085  otherFee */\n      sload(0x02)\n        /* \"contracts/tokens/ERBPay.sol\":1069:1076  yearFee */\n      sload(0x01)\n        /* \"contracts/tokens/ERBPay.sol\":1069:1085  yearFee+otherFee */\n      tag_96\n      swap2\n      swap1\n      tag_97\n      jump\t// in\n    tag_96:\n        /* \"contracts/tokens/ERBPay.sol\":1056:1065  msg.value */\n      callvalue\n        /* \"contracts/tokens/ERBPay.sol\":1056:1085  msg.value == yearFee+otherFee */\n      eq\n        /* \"contracts/tokens/ERBPay.sol\":1048:1107  require(msg.value == yearFee+otherFee ,\"msg.value invalid\") */\n      tag_98\n      jumpi\n      mload(0x40)\n      shl(0xe5, 0x461bcd)\n      dup2\n      mstore\n        /* \"#utility.yul\":1673:1675   */\n      0x20\n        /* \"contracts/tokens/ERBPay.sol\":1048:1107  require(msg.value == yearFee+otherFee ,\"msg.value invalid\") */\n      0x04\n      dup3\n      add\n        /* \"#utility.yul\":1655:1676   */\n      mstore\n        /* \"#utility.yul\":1712:1714   */\n      0x11\n        /* \"#utility.yul\":1692:1710   */\n      0x24\n      dup3\n      add\n        /* \"#utility.yul\":1685:1715   */\n      mstore\n      shl(0x7a, 0x1b5cd9cb9d985b1d59481a5b9d985b1a59)\n        /* \"#utility.yul\":1731:1749   */\n      0x44\n      dup3\n      add\n        /* \"#utility.yul\":1724:1771   */\n      mstore\n        /* \"#utility.yul\":1788:1806   */\n      0x64\n      add\n        /* \"contracts/tokens/ERBPay.sol\":1048:1107  require(msg.value == yearFee+otherFee ,\"msg.value invalid\") */\n      tag_84\n        /* \"#utility.yul\":1471:1812   */\n      jump\n        /* \"contracts/tokens/ERBPay.sol\":1048:1107  require(msg.value == yearFee+otherFee ,\"msg.value invalid\") */\n    tag_98:\n        /* \"contracts/tokens/ERBPay.sol\":1133:1143  msg.sender */\n      caller\n        /* \"contracts/tokens/ERBPay.sol\":1125:1144  endTime[msg.sender] */\n      0x00\n      swap1\n      dup2\n      mstore\n        /* \"contracts/tokens/ERBPay.sol\":1125:1132  endTime */\n      0x05\n        /* \"contracts/tokens/ERBPay.sol\":1125:1144  endTime[msg.sender] */\n      0x20\n      mstore\n      0x40\n      swap1\n      keccak256\n      sload\n        /* \"contracts/tokens/ERBPay.sol\":1125:1147  endTime[msg.sender]==0 */\n      iszero\n        /* \"contracts/tokens/ERBPay.sol\":1117:1166  require(endTime[msg.sender]==0 ,\"already opened\") */\n      tag_101\n      jumpi\n      mload(0x40)\n      shl(0xe5, 0x461bcd)\n      dup2\n      mstore\n        /* \"#utility.yul\":2019:2021   */\n      0x20\n        /* \"contracts/tokens/ERBPay.sol\":1117:1166  require(endTime[msg.sender]==0 ,\"already opened\") */\n      0x04\n      dup3\n      add\n        /* \"#utility.yul\":2001:2022   */\n      mstore\n        /* \"#utility.yul\":2058:2060   */\n      0x0e\n        /* \"#utility.yul\":2038:2056   */\n      0x24\n      dup3\n      add\n        /* \"#utility.yul\":2031:2061   */\n      mstore\n      shl(0x92, 0x185b1c9958591e481bdc195b9959)\n        /* \"#utility.yul\":2077:2095   */\n      0x44\n      dup3\n      add\n        /* \"#utility.yul\":2070:2114   */\n      mstore\n        /* \"#utility.yul\":2131:2149   */\n      0x64\n      add\n        /* \"contracts/tokens/ERBPay.sol\":1117:1166  require(endTime[msg.sender]==0 ,\"already opened\") */\n      tag_84\n        /* \"#utility.yul\":1817:2155   */\n      jump\n        /* \"contracts/tokens/ERBPay.sol\":1117:1166  require(endTime[msg.sender]==0 ,\"already opened\") */\n    tag_101:\n        /* \"contracts/tokens/ERBPay.sol\":1184:1199  otherFeeAddress */\n      sload(0x04)\n        /* \"contracts/tokens/ERBPay.sol\":1210:1218  otherFee */\n      sload(0x02)\n        /* \"contracts/tokens/ERBPay.sol\":1176:1219  payable(otherFeeAddress).transfer(otherFee) */\n      mload(0x40)\n      sub(shl(0xa0, 0x01), 0x01)\n        /* \"contracts/tokens/ERBPay.sol\":1184:1199  otherFeeAddress */\n      swap1\n      swap3\n      and\n      swap2\n        /* \"contracts/tokens/ERBPay.sol\":1176:1219  payable(otherFeeAddress).transfer(otherFee) */\n      dup2\n      iszero\n      0x08fc\n      mul\n      swap2\n        /* \"contracts/tokens/ERBPay.sol\":1210:1218  otherFee */\n      swap1\n        /* \"contracts/tokens/ERBPay.sol\":1184:1199  otherFeeAddress */\n      0x00\n        /* \"contracts/tokens/ERBPay.sol\":1176:1219  payable(otherFeeAddress).transfer(otherFee) */\n      dup2\n        /* \"contracts/tokens/ERBPay.sol\":1184:1199  otherFeeAddress */\n      dup2\n        /* \"contracts/tokens/ERBPay.sol\":1176:1219  payable(otherFeeAddress).transfer(otherFee) */\n      dup2\n        /* \"contracts/tokens/ERBPay.sol\":1210:1218  otherFee */\n      dup6\n        /* \"contracts/tokens/ERBPay.sol\":1184:1199  otherFeeAddress */\n      dup9\n        /* \"contracts/tokens/ERBPay.sol\":1176:1219  payable(otherFeeAddress).transfer(otherFee) */\n      dup9\n      call\n      swap4\n      pop\n      pop\n      pop\n      pop\n      iszero\n      dup1\n      iszero\n      tag_105\n      jumpi\n      returndatasize\n      0x00\n      dup1\n      returndatacopy\n      revert(0x00, returndatasize)\n    tag_105:\n      pop\n        /* \"contracts/tokens/ERBPay.sol\":1237:1251  yearFeeAddress */\n      sload(0x03)\n      0x01\n        /* \"contracts/tokens/ERBPay.sol\":1262:1269  yearFee */\n      sload\n        /* \"contracts/tokens/ERBPay.sol\":1229:1270  payable(yearFeeAddress).transfer(yearFee) */\n      mload(0x40)\n      sub(shl(0xa0, 0x01), 0x01)\n        /* \"contracts/tokens/ERBPay.sol\":1237:1251  yearFeeAddress */\n      swap1\n      swap3\n      and\n      swap2\n        /* \"contracts/tokens/ERBPay.sol\":1229:1270  payable(yearFeeAddress).transfer(yearFee) */\n      dup2\n      iszero\n      0x08fc\n      mul\n      swap2\n        /* \"contracts/tokens/ERBPay.sol\":1262:1269  yearFee */\n      swap1\n        /* \"contracts/tokens/ERBPay.sol\":1237:1251  yearFeeAddress */\n      0x00\n        /* \"contracts/tokens/ERBPay.sol\":1229:1270  payable(yearFeeAddress).transfer(yearFee) */\n      dup2\n        /* \"contracts/tokens/ERBPay.sol\":1237:1251  yearFeeAddress */\n      dup2\n        /* \"contracts/tokens/ERBPay.sol\":1229:1270  payable(yearFeeAddress).transfer(yearFee) */\n      dup2\n        /* \"contracts/tokens/ERBPay.sol\":1262:1269  yearFee */\n      dup6\n        /* \"contracts/tokens/ERBPay.sol\":1237:1251  yearFeeAddress */\n      dup9\n        /* \"contracts/tokens/ERBPay.sol\":1229:1270  payable(yearFeeAddress).transfer(yearFee) */\n      dup9\n      call\n      swap4\n      pop\n      pop\n      pop\n      pop\n      iszero\n      dup1\n      iszero\n      tag_107\n      jumpi\n      returndatasize\n      0x00\n      dup1\n      returndatacopy\n      revert(0x00, returndatasize)\n    tag_107:\n      pop\n        /* \"contracts/tokens/ERBPay.sol\":1300:1325  block.timestamp+86400*365 */\n      tag_108\n        /* \"contracts/tokens/ERBPay.sol\":1300:1315  block.timestamp */\n      timestamp\n        /* \"contracts/tokens/ERBPay.sol\":1316:1325  86400*365 */\n      0x01e13380\n        /* \"contracts/tokens/ERBPay.sol\":1300:1325  block.timestamp+86400*365 */\n      tag_97\n      jump\t// in\n    tag_108:\n        /* \"contracts/tokens/ERBPay.sol\":1288:1298  msg.sender */\n      caller\n        /* \"contracts/tokens/ERBPay.sol\":1280:1299  endTime[msg.sender] */\n      0x00\n      dup2\n      dup2\n      mstore\n        /* \"contracts/tokens/ERBPay.sol\":1280:1287  endTime */\n      0x05\n        /* \"contracts/tokens/ERBPay.sol\":1280:1299  endTime[msg.sender] */\n      0x20\n      mstore\n      0x40\n      swap1\n      dup2\n      swap1\n      keccak256\n        /* \"contracts/tokens/ERBPay.sol\":1280:1325  endTime[msg.sender]=block.timestamp+86400*365 */\n      swap3\n      swap1\n      swap3\n      sstore\n        /* \"contracts/tokens/ERBPay.sol\":1340:1380  PayForOpenExchange(msg.sender,msg.value) */\n      swap1\n      mload\n      0x728aa0ba54574e206497a83a73cea62ca17f538ca83666c089018a2ce41700f4\n      swap1\n      tag_109\n      swap1\n        /* \"contracts/tokens/ERBPay.sol\":1370:1379  msg.value */\n      callvalue\n        /* \"#utility.yul\":659:684   */\n      dup2\n      mstore\n        /* \"#utility.yul\":647:649   */\n      0x20\n        /* \"#utility.yul\":632:650   */\n      add\n      swap1\n        /* \"#utility.yul\":513:690   */\n      jump\n        /* \"contracts/tokens/ERBPay.sol\":1340:1380  PayForOpenExchange(msg.sender,msg.value) */\n    tag_109:\n      mload(0x40)\n      dup1\n      swap2\n      sub\n      swap1\n      log2\n        /* \"contracts/tokens/ERBPay.sol\":993:1388  function payForOpenExchange()external payable{... */\n      jump\t// out\n        /* \"contracts/tokens/ERBPay.sol\":1396:1726  function payForRenew()external payable{... */\n    tag_53:\n        /* \"contracts/tokens/ERBPay.sol\":1465:1472  yearFee */\n      sload(0x01)\n        /* \"contracts/tokens/ERBPay.sol\":1452:1461  msg.value */\n      callvalue\n        /* \"contracts/tokens/ERBPay.sol\":1452:1472  msg.value == yearFee */\n      eq\n        /* \"contracts/tokens/ERBPay.sol\":1444:1493  require(msg.value == yearFee,\"msg.value invalid\") */\n      tag_111\n      jumpi\n      mload(0x40)\n      shl(0xe5, 0x461bcd)\n      dup2\n      mstore\n        /* \"#utility.yul\":1673:1675   */\n      0x20\n        /* \"contracts/tokens/ERBPay.sol\":1444:1493  require(msg.value == yearFee,\"msg.value invalid\") */\n      0x04\n      dup3\n      add\n        /* \"#utility.yul\":1655:1676   */\n      mstore\n        /* \"#utility.yul\":1712:1714   */\n      0x11\n        /* \"#utility.yul\":1692:1710   */\n      0x24\n      dup3\n      add\n        /* \"#utility.yul\":1685:1715   */\n      mstore\n      shl(0x7a, 0x1b5cd9cb9d985b1d59481a5b9d985b1a59)\n        /* \"#utility.yul\":1731:1749   */\n      0x44\n      dup3\n      add\n        /* \"#utility.yul\":1724:1771   */\n      mstore\n        /* \"#utility.yul\":1788:1806   */\n      0x64\n      add\n        /* \"contracts/tokens/ERBPay.sol\":1444:1493  require(msg.value == yearFee,\"msg.value invalid\") */\n      tag_84\n        /* \"#utility.yul\":1471:1812   */\n      jump\n        /* \"contracts/tokens/ERBPay.sol\":1444:1493  require(msg.value == yearFee,\"msg.value invalid\") */\n    tag_111:\n        /* \"contracts/tokens/ERBPay.sol\":1519:1529  msg.sender */\n      caller\n        /* \"contracts/tokens/ERBPay.sol\":1511:1530  endTime[msg.sender] */\n      0x00\n      swap1\n      dup2\n      mstore\n        /* \"contracts/tokens/ERBPay.sol\":1511:1518  endTime */\n      0x05\n        /* \"contracts/tokens/ERBPay.sol\":1511:1530  endTime[msg.sender] */\n      0x20\n      mstore\n      0x40\n      dup2\n      keccak256\n      sload\n        /* \"contracts/tokens/ERBPay.sol\":1511:1534  endTime[msg.sender] !=0 */\n      swap1\n      sub\n        /* \"contracts/tokens/ERBPay.sol\":1503:1556  require(endTime[msg.sender] !=0 ,\"no exchange exist\") */\n      tag_113\n      jumpi\n      mload(0x40)\n      shl(0xe5, 0x461bcd)\n      dup2\n      mstore\n        /* \"#utility.yul\":2362:2364   */\n      0x20\n        /* \"contracts/tokens/ERBPay.sol\":1503:1556  require(endTime[msg.sender] !=0 ,\"no exchange exist\") */\n      0x04\n      dup3\n      add\n        /* \"#utility.yul\":2344:2365   */\n      mstore\n        /* \"#utility.yul\":2401:2403   */\n      0x11\n        /* \"#utility.yul\":2381:2399   */\n      0x24\n      dup3\n      add\n        /* \"#utility.yul\":2374:2404   */\n      mstore\n      shl(0x7a, 0x1b9bc8195e18da185b99d948195e1a5cdd)\n        /* \"#utility.yul\":2420:2438   */\n      0x44\n      dup3\n      add\n        /* \"#utility.yul\":2413:2460   */\n      mstore\n        /* \"#utility.yul\":2477:2495   */\n      0x64\n      add\n        /* \"contracts/tokens/ERBPay.sol\":1503:1556  require(endTime[msg.sender] !=0 ,\"no exchange exist\") */\n      tag_84\n        /* \"#utility.yul\":2160:2501   */\n      jump\n        /* \"contracts/tokens/ERBPay.sol\":1503:1556  require(endTime[msg.sender] !=0 ,\"no exchange exist\") */\n    tag_113:\n        /* \"contracts/tokens/ERBPay.sol\":1574:1588  yearFeeAddress */\n      sload(0x03)\n      0x01\n        /* \"contracts/tokens/ERBPay.sol\":1599:1606  yearFee */\n      sload\n        /* \"contracts/tokens/ERBPay.sol\":1566:1607  payable(yearFeeAddress).transfer(yearFee) */\n      mload(0x40)\n      sub(shl(0xa0, 0x01), 0x01)\n        /* \"contracts/tokens/ERBPay.sol\":1574:1588  yearFeeAddress */\n      swap1\n      swap3\n      and\n      swap2\n        /* \"contracts/tokens/ERBPay.sol\":1566:1607  payable(yearFeeAddress).transfer(yearFee) */\n      dup2\n      iszero\n      0x08fc\n      mul\n      swap2\n        /* \"contracts/tokens/ERBPay.sol\":1599:1606  yearFee */\n      swap1\n        /* \"contracts/tokens/ERBPay.sol\":1574:1588  yearFeeAddress */\n      0x00\n        /* \"contracts/tokens/ERBPay.sol\":1566:1607  payable(yearFeeAddress).transfer(yearFee) */\n      dup2\n        /* \"contracts/tokens/ERBPay.sol\":1574:1588  yearFeeAddress */\n      dup2\n        /* \"contracts/tokens/ERBPay.sol\":1566:1607  payable(yearFeeAddress).transfer(yearFee) */\n      dup2\n        /* \"contracts/tokens/ERBPay.sol\":1599:1606  yearFee */\n      dup6\n        /* \"contracts/tokens/ERBPay.sol\":1574:1588  yearFeeAddress */\n      dup9\n        /* \"contracts/tokens/ERBPay.sol\":1566:1607  payable(yearFeeAddress).transfer(yearFee) */\n      dup9\n      call\n      swap4\n      pop\n      pop\n      pop\n      pop\n      iszero\n      dup1\n      iszero\n      tag_117\n      jumpi\n      returndatasize\n      0x00\n      dup1\n      returndatacopy\n      revert(0x00, returndatasize)\n    tag_117:\n      pop\n        /* \"contracts/tokens/ERBPay.sol\":1645:1655  msg.sender */\n      caller\n        /* \"contracts/tokens/ERBPay.sol\":1637:1656  endTime[msg.sender] */\n      0x00\n      swap1\n      dup2\n      mstore\n        /* \"contracts/tokens/ERBPay.sol\":1637:1644  endTime */\n      0x05\n        /* \"contracts/tokens/ERBPay.sol\":1637:1656  endTime[msg.sender] */\n      0x20\n      mstore\n      0x40\n      swap1\n      keccak256\n      sload\n        /* \"contracts/tokens/ERBPay.sol\":1637:1666  endTime[msg.sender]+86400*365 */\n      tag_118\n      swap1\n        /* \"contracts/tokens/ERBPay.sol\":1657:1666  86400*365 */\n      0x01e13380\n        /* \"contracts/tokens/ERBPay.sol\":1637:1666  endTime[msg.sender]+86400*365 */\n      tag_97\n      jump\t// in\n    tag_118:\n        /* \"contracts/tokens/ERBPay.sol\":1625:1635  msg.sender */\n      caller\n        /* \"contracts/tokens/ERBPay.sol\":1617:1636  endTime[msg.sender] */\n      0x00\n      dup2\n      dup2\n      mstore\n        /* \"contracts/tokens/ERBPay.sol\":1617:1624  endTime */\n      0x05\n        /* \"contracts/tokens/ERBPay.sol\":1617:1636  endTime[msg.sender] */\n      0x20\n      mstore\n      0x40\n      swap1\n      dup2\n      swap1\n      keccak256\n        /* \"contracts/tokens/ERBPay.sol\":1617:1666  endTime[msg.sender]=endTime[msg.sender]+86400*365 */\n      swap3\n      swap1\n      swap3\n      sstore\n        /* \"contracts/tokens/ERBPay.sol\":1681:1718  PayForOpenRenew(msg.sender,msg.value) */\n      swap1\n      mload\n      0xe777ae9d65766408c351d743ed88284c7719883019e08000af32400646abcff8\n      swap1\n      tag_109\n      swap1\n        /* \"contracts/tokens/ERBPay.sol\":1708:1717  msg.value */\n      callvalue\n        /* \"#utility.yul\":659:684   */\n      dup2\n      mstore\n        /* \"#utility.yul\":647:649   */\n      0x20\n        /* \"#utility.yul\":632:650   */\n      add\n      swap1\n        /* \"#utility.yul\":513:690   */\n      jump\n        /* \"contracts/tokens/ERBPay.sol\":680:769  function setOtherFee(uint256 amount) external onlyOwner{... */\n    tag_62:\n        /* \"@openzeppelin/contracts/access/Ownable.sol\":1082:1089  address */\n      0x00\n        /* \"@openzeppelin/contracts/access/Ownable.sol\":1108:1114  _owner */\n      sload\n      sub(shl(0xa0, 0x01), 0x01)\n      and\n        /* \"@openzeppelin/contracts/utils/Context.sol\":719:729  msg.sender */\n      caller\n        /* \"@openzeppelin/contracts/access/Ownable.sol\":1248:1271  owner() == _msgSender() */\n      eq\n        /* \"@openzeppelin/contracts/access/Ownable.sol\":1240:1308  require(owner() == _msgSender(), \"Ownable: caller is not the owner\") */\n      tag_124\n      jumpi\n      mload(0x40)\n      shl(0xe5, 0x461bcd)\n      dup2\n      mstore\n      0x04\n      add\n      tag_84\n      swap1\n      tag_85\n      jump\t// in\n    tag_124:\n        /* \"contracts/tokens/ERBPay.sol\":746:754  otherFee */\n      0x02\n        /* \"contracts/tokens/ERBPay.sol\":746:761  otherFee=amount */\n      sstore\n        /* \"contracts/tokens/ERBPay.sol\":680:769  function setOtherFee(uint256 amount) external onlyOwner{... */\n      jump\t// out\n        /* \"contracts/tokens/ERBPay.sol\":884:985  function setOtherFeeAddress(address _addr) external onlyOwner{... */\n    tag_66:\n        /* \"@openzeppelin/contracts/access/Ownable.sol\":1082:1089  address */\n      0x00\n        /* \"@openzeppelin/contracts/access/Ownable.sol\":1108:1114  _owner */\n      sload\n      sub(shl(0xa0, 0x01), 0x01)\n      and\n        /* \"@openzeppelin/contracts/utils/Context.sol\":719:729  msg.sender */\n      caller\n        /* \"@openzeppelin/contracts/access/Ownable.sol\":1248:1271  owner() == _msgSender() */\n      eq\n        /* \"@openzeppelin/contracts/access/Ownable.sol\":1240:1308  require(owner() == _msgSender(), \"Ownable: caller is not the owner\") */\n      tag_130\n      jumpi\n      mload(0x40)\n      shl(0xe5, 0x461bcd)\n      dup2\n      mstore\n      0x04\n      add\n      tag_84\n      swap1\n      tag_85\n      jump\t// in\n    tag_130:\n        /* \"contracts/tokens/ERBPay.sol\":956:971  otherFeeAddress */\n      0x04\n        /* \"contracts/tokens/ERBPay.sol\":956:977  otherFeeAddress=_addr */\n      dup1\n      sload\n      not(sub(shl(0xa0, 0x01), 0x01))\n      and\n      sub(shl(0xa0, 0x01), 0x01)\n      swap3\n      swap1\n      swap3\n      and\n      swap2\n      swap1\n      swap2\n      or\n      swap1\n      sstore\n        /* \"contracts/tokens/ERBPay.sol\":884:985  function setOtherFeeAddress(address _addr) external onlyOwner{... */\n      jump\t// out\n        /* \"contracts/tokens/ERBPay.sol\":585:672  function setYearFee(uint256 amount) external onlyOwner{... */\n    tag_70:\n        /* \"@openzeppelin/contracts/access/Ownable.sol\":1082:1089  address */\n      0x00\n        /* \"@openzeppelin/contracts/access/Ownable.sol\":1108:1114  _owner */\n      sload\n      sub(shl(0xa0, 0x01), 0x01)\n      and\n        /* \"@openzeppelin/contracts/utils/Context.sol\":719:729  msg.sender */\n      caller\n        /* \"@openzeppelin/contracts/access/Ownable.sol\":1248:1271  owner() == _msgSender() */\n      eq\n        /* \"@openzeppelin/contracts/access/Ownable.sol\":1240:1308  require(owner() == _msgSender(), \"Ownable: caller is not the owner\") */\n      tag_136\n      jumpi\n      mload(0x40)\n      shl(0xe5, 0x461bcd)\n      dup2\n      mstore\n      0x04\n      add\n      tag_84\n      swap1\n      tag_85\n      jump\t// in\n    tag_136:\n        /* \"contracts/tokens/ERBPay.sol\":650:657  yearFee */\n      0x01\n        /* \"contracts/tokens/ERBPay.sol\":650:664  yearFee=amount */\n      sstore\n        /* \"contracts/tokens/ERBPay.sol\":585:672  function setYearFee(uint256 amount) external onlyOwner{... */\n      jump\t// out\n        /* \"@openzeppelin/contracts/access/Ownable.sol\":1918:2116  function transferOwnership(address newOwner) public virtual onlyOwner {... */\n    tag_74:\n        /* \"@openzeppelin/contracts/access/Ownable.sol\":1082:1089  address */\n      0x00\n        /* \"@openzeppelin/contracts/access/Ownable.sol\":1108:1114  _owner */\n      sload\n      sub(shl(0xa0, 0x01), 0x01)\n      and\n        /* \"@openzeppelin/contracts/utils/Context.sol\":719:729  msg.sender */\n      caller\n        /* \"@openzeppelin/contracts/access/Ownable.sol\":1248:1271  owner() == _msgSender() */\n      eq\n        /* \"@openzeppelin/contracts/access/Ownable.sol\":1240:1308  require(owner() == _msgSender(), \"Ownable: caller is not the owner\") */\n      tag_142\n      jumpi\n      mload(0x40)\n      shl(0xe5, 0x461bcd)\n      dup2\n      mstore\n      0x04\n      add\n      tag_84\n      swap1\n      tag_85\n      jump\t// in\n    tag_142:\n      sub(shl(0xa0, 0x01), 0x01)\n        /* \"@openzeppelin/contracts/access/Ownable.sol\":2006:2028  newOwner != address(0) */\n      dup2\n      and\n        /* \"@openzeppelin/contracts/access/Ownable.sol\":1998:2071  require(newOwner != address(0), \"Ownable: new owner is the zero address\") */\n      tag_145\n      jumpi\n      mload(0x40)\n      shl(0xe5, 0x461bcd)\n      dup2\n      mstore\n        /* \"#utility.yul\":2708:2710   */\n      0x20\n        /* \"@openzeppelin/contracts/access/Ownable.sol\":1998:2071  require(newOwner != address(0), \"Ownable: new owner is the zero address\") */\n      0x04\n      dup3\n      add\n        /* \"#utility.yul\":2690:2711   */\n      mstore\n        /* \"#utility.yul\":2747:2749   */\n      0x26\n        /* \"#utility.yul\":2727:2745   */\n      0x24\n      dup3\n      add\n        /* \"#utility.yul\":2720:2750   */\n      mstore\n        /* \"#utility.yul\":2786:2820   */\n      0x4f776e61626c653a206e6577206f776e657220697320746865207a65726f2061\n        /* \"#utility.yul\":2766:2784   */\n      0x44\n      dup3\n      add\n        /* \"#utility.yul\":2759:2821   */\n      mstore\n      shl(0xd0, 0x646472657373)\n        /* \"#utility.yul\":2837:2855   */\n      0x64\n      dup3\n      add\n        /* \"#utility.yul\":2830:2866   */\n      mstore\n        /* \"#utility.yul\":2883:2902   */\n      0x84\n      add\n        /* \"@openzeppelin/contracts/access/Ownable.sol\":1998:2071  require(newOwner != address(0), \"Ownable: new owner is the zero address\") */\n      tag_84\n        /* \"#utility.yul\":2506:2908   */\n      jump\n        /* \"@openzeppelin/contracts/access/Ownable.sol\":1998:2071  require(newOwner != address(0), \"Ownable: new owner is the zero address\") */\n    tag_145:\n        /* \"@openzeppelin/contracts/access/Ownable.sol\":2081:2109  _transferOwnership(newOwner) */\n      tag_148\n        /* \"@openzeppelin/contracts/access/Ownable.sol\":2100:2108  newOwner */\n      dup2\n        /* \"@openzeppelin/contracts/access/Ownable.sol\":2081:2099  _transferOwnership */\n      tag_88\n        /* \"@openzeppelin/contracts/access/Ownable.sol\":2081:2109  _transferOwnership(newOwner) */\n      jump\t// in\n    tag_148:\n        /* \"@openzeppelin/contracts/access/Ownable.sol\":1918:2116  function transferOwnership(address newOwner) public virtual onlyOwner {... */\n      pop\n      jump\t// out\n        /* \"@openzeppelin/contracts/access/Ownable.sol\":2270:2457  function _transferOwnership(address newOwner) internal virtual {... */\n    tag_88:\n        /* \"@openzeppelin/contracts/access/Ownable.sol\":2343:2359  address oldOwner */\n      0x00\n        /* \"@openzeppelin/contracts/access/Ownable.sol\":2362:2368  _owner */\n      dup1\n      sload\n      sub(shl(0xa0, 0x01), 0x01)\n        /* \"@openzeppelin/contracts/access/Ownable.sol\":2378:2395  _owner = newOwner */\n      dup4\n      dup2\n      and\n      not(sub(shl(0xa0, 0x01), 0x01))\n      dup4\n      and\n      dup2\n      or\n      dup5\n      sstore\n        /* \"@openzeppelin/contracts/access/Ownable.sol\":2410:2450  OwnershipTransferred(oldOwner, newOwner) */\n      mload(0x40)\n        /* \"@openzeppelin/contracts/access/Ownable.sol\":2362:2368  _owner */\n      swap2\n      swap1\n      swap3\n      and\n      swap3\n      dup4\n      swap2\n        /* \"@openzeppelin/contracts/access/Ownable.sol\":2410:2450  OwnershipTransferred(oldOwner, newOwner) */\n      0x8be0079c531659141344cd1fd0a4f28419497f9722a3daafe3b4186f6b6457e0\n      swap2\n        /* \"@openzeppelin/contracts/access/Ownable.sol\":2343:2359  address oldOwner */\n      swap1\n        /* \"@openzeppelin/contracts/access/Ownable.sol\":2410:2450  OwnershipTransferred(oldOwner, newOwner) */\n      log3\n        /* \"@openzeppelin/contracts/access/Ownable.sol\":2333:2457  {... */\n      pop\n        /* \"@openzeppelin/contracts/access/Ownable.sol\":2270:2457  function _transferOwnership(address newOwner) internal virtual {... */\n      pop\n      jump\t// out\n        /* \"#utility.yul\":222:508   */\n    tag_30:\n        /* \"#utility.yul\":281:287   */\n      0x00\n        /* \"#utility.yul\":334:336   */\n      0x20\n        /* \"#utility.yul\":322:331   */\n      dup3\n        /* \"#utility.yul\":313:320   */\n      dup5\n        /* \"#utility.yul\":309:332   */\n      sub\n        /* \"#utility.yul\":305:337   */\n      slt\n        /* \"#utility.yul\":302:354   */\n      iszero\n      tag_154\n      jumpi\n        /* \"#utility.yul\":350:351   */\n      0x00\n        /* \"#utility.yul\":347:348   */\n      dup1\n        /* \"#utility.yul\":340:352   */\n      revert\n        /* \"#utility.yul\":302:354   */\n    tag_154:\n        /* \"#utility.yul\":376:399   */\n      dup2\n      calldataload\n      sub(shl(0xa0, 0x01), 0x01)\n        /* \"#utility.yul\":428:459   */\n      dup2\n      and\n        /* \"#utility.yul\":418:460   */\n      dup2\n      eq\n        /* \"#utility.yul\":408:478   */\n      tag_155\n      jumpi\n        /* \"#utility.yul\":474:475   */\n      0x00\n        /* \"#utility.yul\":471:472   */\n      dup1\n        /* \"#utility.yul\":464:476   */\n      revert\n        /* \"#utility.yul\":408:478   */\n    tag_155:\n        /* \"#utility.yul\":497:502   */\n      swap4\n        /* \"#utility.yul\":222:508   */\n      swap3\n      pop\n      pop\n      pop\n      jump\t// out\n        /* \"#utility.yul\":695:875   */\n    tag_61:\n        /* \"#utility.yul\":754:760   */\n      0x00\n        /* \"#utility.yul\":807:809   */\n      0x20\n        /* \"#utility.yul\":795:804   */\n      dup3\n        /* \"#utility.yul\":786:793   */\n      dup5\n        /* \"#utility.yul\":782:805   */\n      sub\n        /* \"#utility.yul\":778:810   */\n      slt\n        /* \"#utility.yul\":775:827   */\n      iszero\n      tag_158\n      jumpi\n        /* \"#utility.yul\":823:824   */\n      0x00\n        /* \"#utility.yul\":820:821   */\n      dup1\n        /* \"#utility.yul\":813:825   */\n      revert\n        /* \"#utility.yul\":775:827   */\n    tag_158:\n      pop\n        /* \"#utility.yul\":846:869   */\n      calldataload\n      swap2\n        /* \"#utility.yul\":695:875   */\n      swap1\n      pop\n      jump\t// out\n        /* \"#utility.yul\":880:1236   */\n    tag_85:\n        /* \"#utility.yul\":1082:1084   */\n      0x20\n        /* \"#utility.yul\":1064:1085   */\n      dup1\n      dup3\n      mstore\n        /* \"#utility.yul\":1101:1119   */\n      dup2\n      dup2\n      add\n        /* \"#utility.yul\":1094:1124   */\n      mstore\n        /* \"#utility.yul\":1160:1194   */\n      0x4f776e61626c653a2063616c6c6572206973206e6f7420746865206f776e6572\n        /* \"#utility.yul\":1155:1157   */\n      0x40\n        /* \"#utility.yul\":1140:1158   */\n      dup3\n      add\n        /* \"#utility.yul\":1133:1195   */\n      mstore\n        /* \"#utility.yul\":1227:1229   */\n      0x60\n        /* \"#utility.yul\":1212:1230   */\n      add\n      swap1\n        /* \"#utility.yul\":880:1236   */\n      jump\t// out\n        /* \"#utility.yul\":1241:1466   */\n    tag_97:\n        /* \"#utility.yul\":1281:1284   */\n      0x00\n        /* \"#utility.yul\":1312:1313   */\n      dup3\n        /* \"#utility.yul\":1308:1314   */\n      not\n        /* \"#utility.yul\":1305:1306   */\n      dup3\n        /* \"#utility.yul\":1302:1315   */\n      gt\n        /* \"#utility.yul\":1299:1435   */\n      iszero\n      tag_161\n      jumpi\n        /* \"#utility.yul\":1357:1367   */\n      0x4e487b71\n        /* \"#utility.yul\":1352:1355   */\n      0xe0\n        /* \"#utility.yul\":1348:1368   */\n      shl\n        /* \"#utility.yul\":1345:1346   */\n      0x00\n        /* \"#utility.yul\":1338:1369   */\n      mstore\n        /* \"#utility.yul\":1392:1396   */\n      0x11\n        /* \"#utility.yul\":1389:1390   */\n      0x04\n        /* \"#utility.yul\":1382:1397   */\n      mstore\n        /* \"#utility.yul\":1420:1424   */\n      0x24\n        /* \"#utility.yul\":1417:1418   */\n      0x00\n        /* \"#utility.yul\":1410:1425   */\n      revert\n        /* \"#utility.yul\":1299:1435   */\n    tag_161:\n      pop\n        /* \"#utility.yul\":1451:1460   */\n      add\n      swap1\n        /* \"#utility.yul\":1241:1466   */\n      jump\t// out\n\n    auxdata: 0xa26469706673582212203cfd2e41a728354c2c84553828b1d5dfca3086a322fa7d728441ee1f00ccc04264736f6c634300080d0033\n}\n",
				"bytecode": {
					"linkReferences": {},
					"object": "6080604052680ad78ebc5ac620000060015568056bc75e2d63100000600255600380546001600160a01b03199081167310cec672c6bb2f6782beed65987e020902b7bd15179091556004805490911673ebe809c70406fc07e70bc2c590bc7dd9ba9272ac17905534801561007257600080fd5b5061007c33610081565b6100d1565b600080546001600160a01b038381166001600160a01b0319831681178455604051919092169283917f8be0079c531659141344cd1fd0a4f28419497f9722a3daafe3b4186f6b6457e09190a35050565b610862806100e06000396000f3fe6080604052600436106100bd5760003560e01c80638310f06d11610079578063aeb0bc7911610056578063aeb0bc79146101e1578063e0c350b514610201578063f2c8609e14610221578063f2fde38b1461024157005b80638310f06d146101b35780638b68e1fa146101bb5780638da5cb5b146101c357005b8063366a8508146100c65780634aefdccd146101035780634b1650901461013e578063715018a61461015e57806375a3aae7146101735780637ad3c93a1461019357005b366100c457005b005b3480156100d257600080fd5b506004546100e6906001600160a01b031681565b6040516001600160a01b0390911681526020015b60405180910390f35b34801561010f57600080fd5b5061013061011e366004610788565b60056020526000908152604090205481565b6040519081526020016100fa565b34801561014a57600080fd5b50610130610159366004610788565b610261565b34801561016a57600080fd5b506100c46102b8565b34801561017f57600080fd5b506003546100e6906001600160a01b031681565b34801561019f57600080fd5b506100c46101ae366004610788565b6102f7565b6100c4610343565b6100c46104bb565b3480156101cf57600080fd5b506000546001600160a01b03166100e6565b3480156101ed57600080fd5b506100c46101fc3660046107b8565b6105f3565b34801561020d57600080fd5b506100c461021c366004610788565b610622565b34801561022d57600080fd5b506100c461023c3660046107b8565b61066e565b34801561024d57600080fd5b506100c461025c366004610788565b61069d565b6001600160a01b038116600090815260056020526040812054810361028857506000919050565b6001600160a01b0382166000908152600560205260409020544211156102b057506001919050565b506002919050565b6000546001600160a01b031633146102eb5760405162461bcd60e51b81526004016102e2906107d1565b60405180910390fd5b6102f56000610738565b565b6000546001600160a01b031633146103215760405162461bcd60e51b81526004016102e2906107d1565b600380546001600160a01b0319166001600160a01b0392909216919091179055565b6002546001546103539190610806565b34146103955760405162461bcd60e51b81526020600482015260116024820152701b5cd9cb9d985b1d59481a5b9d985b1a59607a1b60448201526064016102e2565b33600090815260056020526040902054156103e35760405162461bcd60e51b815260206004820152600e60248201526d185b1c9958591e481bdc195b995960921b60448201526064016102e2565b6004546002546040516001600160a01b039092169181156108fc0291906000818181858888f1935050505015801561041f573d6000803e3d6000fd5b506003546001546040516001600160a01b039092169181156108fc0291906000818181858888f1935050505015801561045c573d6000803e3d6000fd5b5061046b426301e13380610806565b33600081815260056020526040908190209290925590517f728aa0ba54574e206497a83a73cea62ca17f538ca83666c089018a2ce41700f4906104b19034815260200190565b60405180910390a2565b60015434146105005760405162461bcd60e51b81526020600482015260116024820152701b5cd9cb9d985b1d59481a5b9d985b1a59607a1b60448201526064016102e2565b3360009081526005602052604081205490036105525760405162461bcd60e51b81526020600482015260116024820152701b9bc8195e18da185b99d948195e1a5cdd607a1b60448201526064016102e2565b6003546001546040516001600160a01b039092169181156108fc0291906000818181858888f1935050505015801561058e573d6000803e3d6000fd5b50336000908152600560205260409020546105ad906301e13380610806565b33600081815260056020526040908190209290925590517fe777ae9d65766408c351d743ed88284c7719883019e08000af32400646abcff8906104b19034815260200190565b6000546001600160a01b0316331461061d5760405162461bcd60e51b81526004016102e2906107d1565b600255565b6000546001600160a01b0316331461064c5760405162461bcd60e51b81526004016102e2906107d1565b600480546001600160a01b0319166001600160a01b0392909216919091179055565b6000546001600160a01b031633146106985760405162461bcd60e51b81526004016102e2906107d1565b600155565b6000546001600160a01b031633146106c75760405162461bcd60e51b81526004016102e2906107d1565b6001600160a01b03811661072c5760405162461bcd60e51b815260206004820152602660248201527f4f776e61626c653a206e6577206f776e657220697320746865207a65726f206160448201526564647265737360d01b60648201526084016102e2565b61073581610738565b50565b600080546001600160a01b038381166001600160a01b0319831681178455604051919092169283917f8be0079c531659141344cd1fd0a4f28419497f9722a3daafe3b4186f6b6457e09190a35050565b60006020828403121561079a57600080fd5b81356001600160a01b03811681146107b157600080fd5b9392505050565b6000602082840312156107ca57600080fd5b5035919050565b6020808252818101527f4f776e61626c653a2063616c6c6572206973206e6f7420746865206f776e6572604082015260600190565b6000821982111561082757634e487b7160e01b600052601160045260246000fd5b50019056fea26469706673582212203cfd2e41a728354c2c84553828b1d5dfca3086a322fa7d728441ee1f00ccc04264736f6c634300080d0033",
					"opcodes": "PUSH1 0x80 PUSH1 0x40 MSTORE PUSH9 0xAD78EBC5AC6200000 PUSH1 0x1 SSTORE PUSH9 0x56BC75E2D63100000 PUSH1 0x2 SSTORE PUSH1 0x3 DUP1 SLOAD PUSH1 0x1 PUSH1 0x1 PUSH1 0xA0 SHL SUB NOT SWAP1 DUP2 AND PUSH20 0x10CEC672C6BB2F6782BEED65987E020902B7BD15 OR SWAP1 SWAP2 SSTORE PUSH1 0x4 DUP1 SLOAD SWAP1 SWAP2 AND PUSH20 0xEBE809C70406FC07E70BC2C590BC7DD9BA9272AC OR SWAP1 SSTORE CALLVALUE DUP1 ISZERO PUSH2 0x72 JUMPI PUSH1 0x0 DUP1 REVERT JUMPDEST POP PUSH2 0x7C CALLER PUSH2 0x81 JUMP JUMPDEST PUSH2 0xD1 JUMP JUMPDEST PUSH1 0x0 DUP1 SLOAD PUSH1 0x1 PUSH1 0x1 PUSH1 0xA0 SHL SUB DUP4 DUP2 AND PUSH1 0x1 PUSH1 0x1 PUSH1 0xA0 SHL SUB NOT DUP4 AND DUP2 OR DUP5 SSTORE PUSH1 0x40 MLOAD SWAP2 SWAP1 SWAP3 AND SWAP3 DUP4 SWAP2 PUSH32 0x8BE0079C531659141344CD1FD0A4F28419497F9722A3DAAFE3B4186F6B6457E0 SWAP2 SWAP1 LOG3 POP POP JUMP JUMPDEST PUSH2 0x862 DUP1 PUSH2 0xE0 PUSH1 0x0 CODECOPY PUSH1 0x0 RETURN INVALID PUSH1 0x80 PUSH1 0x40 MSTORE PUSH1 0x4 CALLDATASIZE LT PUSH2 0xBD JUMPI PUSH1 0x0 CALLDATALOAD PUSH1 0xE0 SHR DUP1 PUSH4 0x8310F06D GT PUSH2 0x79 JUMPI DUP1 PUSH4 0xAEB0BC79 GT PUSH2 0x56 JUMPI DUP1 PUSH4 0xAEB0BC79 EQ PUSH2 0x1E1 JUMPI DUP1 PUSH4 0xE0C350B5 EQ PUSH2 0x201 JUMPI DUP1 PUSH4 0xF2C8609E EQ PUSH2 0x221 JUMPI DUP1 PUSH4 0xF2FDE38B EQ PUSH2 0x241 JUMPI STOP JUMPDEST DUP1 PUSH4 0x8310F06D EQ PUSH2 0x1B3 JUMPI DUP1 PUSH4 0x8B68E1FA EQ PUSH2 0x1BB JUMPI DUP1 PUSH4 0x8DA5CB5B EQ PUSH2 0x1C3 JUMPI STOP JUMPDEST DUP1 PUSH4 0x366A8508 EQ PUSH2 0xC6 JUMPI DUP1 PUSH4 0x4AEFDCCD EQ PUSH2 0x103 JUMPI DUP1 PUSH4 0x4B165090 EQ PUSH2 0x13E JUMPI DUP1 PUSH4 0x715018A6 EQ PUSH2 0x15E JUMPI DUP1 PUSH4 0x75A3AAE7 EQ PUSH2 0x173 JUMPI DUP1 PUSH4 0x7AD3C93A EQ PUSH2 0x193 JUMPI STOP JUMPDEST CALLDATASIZE PUSH2 0xC4 JUMPI STOP JUMPDEST STOP JUMPDEST CALLVALUE DUP1 ISZERO PUSH2 0xD2 JUMPI PUSH1 0x0 DUP1 REVERT JUMPDEST POP PUSH1 0x4 SLOAD PUSH2 0xE6 SWAP1 PUSH1 0x1 PUSH1 0x1 PUSH1 0xA0 SHL SUB AND DUP2 JUMP JUMPDEST PUSH1 0x40 MLOAD PUSH1 0x1 PUSH1 0x1 PUSH1 0xA0 SHL SUB SWAP1 SWAP2 AND DUP2 MSTORE PUSH1 0x20 ADD JUMPDEST PUSH1 0x40 MLOAD DUP1 SWAP2 SUB SWAP1 RETURN JUMPDEST CALLVALUE DUP1 ISZERO PUSH2 0x10F JUMPI PUSH1 0x0 DUP1 REVERT JUMPDEST POP PUSH2 0x130 PUSH2 0x11E CALLDATASIZE PUSH1 0x4 PUSH2 0x788 JUMP JUMPDEST PUSH1 0x5 PUSH1 0x20 MSTORE PUSH1 0x0 SWAP1 DUP2 MSTORE PUSH1 0x40 SWAP1 KECCAK256 SLOAD DUP2 JUMP JUMPDEST PUSH1 0x40 MLOAD SWAP1 DUP2 MSTORE PUSH1 0x20 ADD PUSH2 0xFA JUMP JUMPDEST CALLVALUE DUP1 ISZERO PUSH2 0x14A JUMPI PUSH1 0x0 DUP1 REVERT JUMPDEST POP PUSH2 0x130 PUSH2 0x159 CALLDATASIZE PUSH1 0x4 PUSH2 0x788 JUMP JUMPDEST PUSH2 0x261 JUMP JUMPDEST CALLVALUE DUP1 ISZERO PUSH2 0x16A JUMPI PUSH1 0x0 DUP1 REVERT JUMPDEST POP PUSH2 0xC4 PUSH2 0x2B8 JUMP JUMPDEST CALLVALUE DUP1 ISZERO PUSH2 0x17F JUMPI PUSH1 0x0 DUP1 REVERT JUMPDEST POP PUSH1 0x3 SLOAD PUSH2 0xE6 SWAP1 PUSH1 0x1 PUSH1 0x1 PUSH1 0xA0 SHL SUB AND DUP2 JUMP JUMPDEST CALLVALUE DUP1 ISZERO PUSH2 0x19F JUMPI PUSH1 0x0 DUP1 REVERT JUMPDEST POP PUSH2 0xC4 PUSH2 0x1AE CALLDATASIZE PUSH1 0x4 PUSH2 0x788 JUMP JUMPDEST PUSH2 0x2F7 JUMP JUMPDEST PUSH2 0xC4 PUSH2 0x343 JUMP JUMPDEST PUSH2 0xC4 PUSH2 0x4BB JUMP JUMPDEST CALLVALUE DUP1 ISZERO PUSH2 0x1CF JUMPI PUSH1 0x0 DUP1 REVERT JUMPDEST POP PUSH1 0x0 SLOAD PUSH1 0x1 PUSH1 0x1 PUSH1 0xA0 SHL SUB AND PUSH2 0xE6 JUMP JUMPDEST CALLVALUE DUP1 ISZERO PUSH2 0x1ED JUMPI PUSH1 0x0 DUP1 REVERT JUMPDEST POP PUSH2 0xC4 PUSH2 0x1FC CALLDATASIZE PUSH1 0x4 PUSH2 0x7B8 JUMP JUMPDEST PUSH2 0x5F3 JUMP JUMPDEST CALLVALUE DUP1 ISZERO PUSH2 0x20D JUMPI PUSH1 0x0 DUP1 REVERT JUMPDEST POP PUSH2 0xC4 PUSH2 0x21C CALLDATASIZE PUSH1 0x4 PUSH2 0x788 JUMP JUMPDEST PUSH2 0x622 JUMP JUMPDEST CALLVALUE DUP1 ISZERO PUSH2 0x22D JUMPI PUSH1 0x0 DUP1 REVERT JUMPDEST POP PUSH2 0xC4 PUSH2 0x23C CALLDATASIZE PUSH1 0x4 PUSH2 0x7B8 JUMP JUMPDEST PUSH2 0x66E JUMP JUMPDEST CALLVALUE DUP1 ISZERO PUSH2 0x24D JUMPI PUSH1 0x0 DUP1 REVERT JUMPDEST POP PUSH2 0xC4 PUSH2 0x25C CALLDATASIZE PUSH1 0x4 PUSH2 0x788 JUMP JUMPDEST PUSH2 0x69D JUMP JUMPDEST PUSH1 0x1 PUSH1 0x1 PUSH1 0xA0 SHL SUB DUP2 AND PUSH1 0x0 SWAP1 DUP2 MSTORE PUSH1 0x5 PUSH1 0x20 MSTORE PUSH1 0x40 DUP2 KECCAK256 SLOAD DUP2 SUB PUSH2 0x288 JUMPI POP PUSH1 0x0 SWAP2 SWAP1 POP JUMP JUMPDEST PUSH1 0x1 PUSH1 0x1 PUSH1 0xA0 SHL SUB DUP3 AND PUSH1 0x0 SWAP1 DUP2 MSTORE PUSH1 0x5 PUSH1 0x20 MSTORE PUSH1 0x40 SWAP1 KECCAK256 SLOAD TIMESTAMP GT ISZERO PUSH2 0x2B0 JUMPI POP PUSH1 0x1 SWAP2 SWAP1 POP JUMP JUMPDEST POP PUSH1 0x2 SWAP2 SWAP1 POP JUMP JUMPDEST PUSH1 0x0 SLOAD PUSH1 0x1 PUSH1 0x1 PUSH1 0xA0 SHL SUB AND CALLER EQ PUSH2 0x2EB JUMPI PUSH1 0x40 MLOAD PUSH3 0x461BCD PUSH1 0xE5 SHL DUP2 MSTORE PUSH1 0x4 ADD PUSH2 0x2E2 SWAP1 PUSH2 0x7D1 JUMP JUMPDEST PUSH1 0x40 MLOAD DUP1 SWAP2 SUB SWAP1 REVERT JUMPDEST PUSH2 0x2F5 PUSH1 0x0 PUSH2 0x738 JUMP JUMPDEST JUMP JUMPDEST PUSH1 0x0 SLOAD PUSH1 0x1 PUSH1 0x1 PUSH1 0xA0 SHL SUB AND CALLER EQ PUSH2 0x321 JUMPI PUSH1 0x40 MLOAD PUSH3 0x461BCD PUSH1 0xE5 SHL DUP2 MSTORE PUSH1 0x4 ADD PUSH2 0x2E2 SWAP1 PUSH2 0x7D1 JUMP JUMPDEST PUSH1 0x3 DUP1 SLOAD PUSH1 0x1 PUSH1 0x1 PUSH1 0xA0 SHL SUB NOT AND PUSH1 0x1 PUSH1 0x1 PUSH1 0xA0 SHL SUB SWAP3 SWAP1 SWAP3 AND SWAP2 SWAP1 SWAP2 OR SWAP1 SSTORE JUMP JUMPDEST PUSH1 0x2 SLOAD PUSH1 0x1 SLOAD PUSH2 0x353 SWAP2 SWAP1 PUSH2 0x806 JUMP JUMPDEST CALLVALUE EQ PUSH2 0x395 JUMPI PUSH1 0x40 MLOAD PUSH3 0x461BCD PUSH1 0xE5 SHL DUP2 MSTORE PUSH1 0x20 PUSH1 0x4 DUP3 ADD MSTORE PUSH1 0x11 PUSH1 0x24 DUP3 ADD MSTORE PUSH17 0x1B5CD9CB9D985B1D59481A5B9D985B1A59 PUSH1 0x7A SHL PUSH1 0x44 DUP3 ADD MSTORE PUSH1 0x64 ADD PUSH2 0x2E2 JUMP JUMPDEST CALLER PUSH1 0x0 SWAP1 DUP2 MSTORE PUSH1 0x5 PUSH1 0x20 MSTORE PUSH1 0x40 SWAP1 KECCAK256 SLOAD ISZERO PUSH2 0x3E3 JUMPI PUSH1 0x40 MLOAD PUSH3 0x461BCD PUSH1 0xE5 SHL DUP2 MSTORE PUSH1 0x20 PUSH1 0x4 DUP3 ADD MSTORE PUSH1 0xE PUSH1 0x24 DUP3 ADD MSTORE PUSH14 0x185B1C9958591E481BDC195B9959 PUSH1 0x92 SHL PUSH1 0x44 DUP3 ADD MSTORE PUSH1 0x64 ADD PUSH2 0x2E2 JUMP JUMPDEST PUSH1 0x4 SLOAD PUSH1 0x2 SLOAD PUSH1 0x40 MLOAD PUSH1 0x1 PUSH1 0x1 PUSH1 0xA0 SHL SUB SWAP1 SWAP3 AND SWAP2 DUP2 ISZERO PUSH2 0x8FC MUL SWAP2 SWAP1 PUSH1 0x0 DUP2 DUP2 DUP2 DUP6 DUP9 DUP9 CALL SWAP4 POP POP POP POP ISZERO DUP1 ISZERO PUSH2 0x41F JUMPI RETURNDATASIZE PUSH1 0x0 DUP1 RETURNDATACOPY RETURNDATASIZE PUSH1 0x0 REVERT JUMPDEST POP PUSH1 0x3 SLOAD PUSH1 0x1 SLOAD PUSH1 0x40 MLOAD PUSH1 0x1 PUSH1 0x1 PUSH1 0xA0 SHL SUB SWAP1 SWAP3 AND SWAP2 DUP2 ISZERO PUSH2 0x8FC MUL SWAP2 SWAP1 PUSH1 0x0 DUP2 DUP2 DUP2 DUP6 DUP9 DUP9 CALL SWAP4 POP POP POP POP ISZERO DUP1 ISZERO PUSH2 0x45C JUMPI RETURNDATASIZE PUSH1 0x0 DUP1 RETURNDATACOPY RETURNDATASIZE PUSH1 0x0 REVERT JUMPDEST POP PUSH2 0x46B TIMESTAMP PUSH4 0x1E13380 PUSH2 0x806 JUMP JUMPDEST CALLER PUSH1 0x0 DUP2 DUP2 MSTORE PUSH1 0x5 PUSH1 0x20 MSTORE PUSH1 0x40 SWAP1 DUP2 SWAP1 KECCAK256 SWAP3 SWAP1 SWAP3 SSTORE SWAP1 MLOAD PUSH32 0x728AA0BA54574E206497A83A73CEA62CA17F538CA83666C089018A2CE41700F4 SWAP1 PUSH2 0x4B1 SWAP1 CALLVALUE DUP2 MSTORE PUSH1 0x20 ADD SWAP1 JUMP JUMPDEST PUSH1 0x40 MLOAD DUP1 SWAP2 SUB SWAP1 LOG2 JUMP JUMPDEST PUSH1 0x1 SLOAD CALLVALUE EQ PUSH2 0x500 JUMPI PUSH1 0x40 MLOAD PUSH3 0x461BCD PUSH1 0xE5 SHL DUP2 MSTORE PUSH1 0x20 PUSH1 0x4 DUP3 ADD MSTORE PUSH1 0x11 PUSH1 0x24 DUP3 ADD MSTORE PUSH17 0x1B5CD9CB9D985B1D59481A5B9D985B1A59 PUSH1 0x7A SHL PUSH1 0x44 DUP3 ADD MSTORE PUSH1 0x64 ADD PUSH2 0x2E2 JUMP JUMPDEST CALLER PUSH1 0x0 SWAP1 DUP2 MSTORE PUSH1 0x5 PUSH1 0x20 MSTORE PUSH1 0x40 DUP2 KECCAK256 SLOAD SWAP1 SUB PUSH2 0x552 JUMPI PUSH1 0x40 MLOAD PUSH3 0x461BCD PUSH1 0xE5 SHL DUP2 MSTORE PUSH1 0x20 PUSH1 0x4 DUP3 ADD MSTORE PUSH1 0x11 PUSH1 0x24 DUP3 ADD MSTORE PUSH17 0x1B9BC8195E18DA185B99D948195E1A5CDD PUSH1 0x7A SHL PUSH1 0x44 DUP3 ADD MSTORE PUSH1 0x64 ADD PUSH2 0x2E2 JUMP JUMPDEST PUSH1 0x3 SLOAD PUSH1 0x1 SLOAD PUSH1 0x40 MLOAD PUSH1 0x1 PUSH1 0x1 PUSH1 0xA0 SHL SUB SWAP1 SWAP3 AND SWAP2 DUP2 ISZERO PUSH2 0x8FC MUL SWAP2 SWAP1 PUSH1 0x0 DUP2 DUP2 DUP2 DUP6 DUP9 DUP9 CALL SWAP4 POP POP POP POP ISZERO DUP1 ISZERO PUSH2 0x58E JUMPI RETURNDATASIZE PUSH1 0x0 DUP1 RETURNDATACOPY RETURNDATASIZE PUSH1 0x0 REVERT JUMPDEST POP CALLER PUSH1 0x0 SWAP1 DUP2 MSTORE PUSH1 0x5 PUSH1 0x20 MSTORE PUSH1 0x40 SWAP1 KECCAK256 SLOAD PUSH2 0x5AD SWAP1 PUSH4 0x1E13380 PUSH2 0x806 JUMP JUMPDEST CALLER PUSH1 0x0 DUP2 DUP2 MSTORE PUSH1 0x5 PUSH1 0x20 MSTORE PUSH1 0x40 SWAP1 DUP2 SWAP1 KECCAK256 SWAP3 SWAP1 SWAP3 SSTORE SWAP1 MLOAD PUSH32 0xE777AE9D65766408C351D743ED88284C7719883019E08000AF32400646ABCFF8 SWAP1 PUSH2 0x4B1 SWAP1 CALLVALUE DUP2 MSTORE PUSH1 0x20 ADD SWAP1 JUMP JUMPDEST PUSH1 0x0 SLOAD PUSH1 0x1 PUSH1 0x1 PUSH1 0xA0 SHL SUB AND CALLER EQ PUSH2 0x61D JUMPI PUSH1 0x40 MLOAD PUSH3 0x461BCD PUSH1 0xE5 SHL DUP2 MSTORE PUSH1 0x4 ADD PUSH2 0x2E2 SWAP1 PUSH2 0x7D1 JUMP JUMPDEST PUSH1 0x2 SSTORE JUMP JUMPDEST PUSH1 0x0 SLOAD PUSH1 0x1 PUSH1 0x1 PUSH1 0xA0 SHL SUB AND CALLER EQ PUSH2 0x64C JUMPI PUSH1 0x40 MLOAD PUSH3 0x461BCD PUSH1 0xE5 SHL DUP2 MSTORE PUSH1 0x4 ADD PUSH2 0x2E2 SWAP1 PUSH2 0x7D1 JUMP JUMPDEST PUSH1 0x4 DUP1 SLOAD PUSH1 0x1 PUSH1 0x1 PUSH1 0xA0 SHL SUB NOT AND PUSH1 0x1 PUSH1 0x1 PUSH1 0xA0 SHL SUB SWAP3 SWAP1 SWAP3 AND SWAP2 SWAP1 SWAP2 OR SWAP1 SSTORE JUMP JUMPDEST PUSH1 0x0 SLOAD PUSH1 0x1 PUSH1 0x1 PUSH1 0xA0 SHL SUB AND CALLER EQ PUSH2 0x698 JUMPI PUSH1 0x40 MLOAD PUSH3 0x461BCD PUSH1 0xE5 SHL DUP2 MSTORE PUSH1 0x4 ADD PUSH2 0x2E2 SWAP1 PUSH2 0x7D1 JUMP JUMPDEST PUSH1 0x1 SSTORE JUMP JUMPDEST PUSH1 0x0 SLOAD PUSH1 0x1 PUSH1 0x1 PUSH1 0xA0 SHL SUB AND CALLER EQ PUSH2 0x6C7 JUMPI PUSH1 0x40 MLOAD PUSH3 0x461BCD PUSH1 0xE5 SHL DUP2 MSTORE PUSH1 0x4 ADD PUSH2 0x2E2 SWAP1 PUSH2 0x7D1 JUMP JUMPDEST PUSH1 0x1 PUSH1 0x1 PUSH1 0xA0 SHL SUB DUP2 AND PUSH2 0x72C JUMPI PUSH1 0x40 MLOAD PUSH3 0x461BCD PUSH1 0xE5 SHL DUP2 MSTORE PUSH1 0x20 PUSH1 0x4 DUP3 ADD MSTORE PUSH1 0x26 PUSH1 0x24 DUP3 ADD MSTORE PUSH32 0x4F776E61626C653A206E6577206F776E657220697320746865207A65726F2061 PUSH1 0x44 DUP3 ADD MSTORE PUSH6 0x646472657373 PUSH1 0xD0 SHL PUSH1 0x64 DUP3 ADD MSTORE PUSH1 0x84 ADD PUSH2 0x2E2 JUMP JUMPDEST PUSH2 0x735 DUP2 PUSH2 0x738 JUMP JUMPDEST POP JUMP JUMPDEST PUSH1 0x0 DUP1 SLOAD PUSH1 0x1 PUSH1 0x1 PUSH1 0xA0 SHL SUB DUP4 DUP2 AND PUSH1 0x1 PUSH1 0x1 PUSH1 0xA0 SHL SUB NOT DUP4 AND DUP2 OR DUP5 SSTORE PUSH1 0x40 MLOAD SWAP2 SWAP1 SWAP3 AND SWAP3 DUP4 SWAP2 PUSH32 0x8BE0079C531659141344CD1FD0A4F28419497F9722A3DAAFE3B4186F6B6457E0 SWAP2 SWAP1 LOG3 POP POP JUMP JUMPDEST PUSH1 0x0 PUSH1 0x20 DUP3 DUP5 SUB SLT ISZERO PUSH2 0x79A JUMPI PUSH1 0x0 DUP1 REVERT JUMPDEST DUP2 CALLDATALOAD PUSH1 0x1 PUSH1 0x1 PUSH1 0xA0 SHL SUB DUP2 AND DUP2 EQ PUSH2 0x7B1 JUMPI PUSH1 0x0 DUP1 REVERT JUMPDEST SWAP4 SWAP3 POP POP POP JUMP JUMPDEST PUSH1 0x0 PUSH1 0x20 DUP3 DUP5 SUB SLT ISZERO PUSH2 0x7CA JUMPI PUSH1 0x0 DUP1 REVERT JUMPDEST POP CALLDATALOAD SWAP2 SWAP1 POP JUMP JUMPDEST PUSH1 0x20 DUP1 DUP3 MSTORE DUP2 DUP2 ADD MSTORE PUSH32 0x4F776E61626C653A2063616C6C6572206973206E6F7420746865206F776E6572 PUSH1 0x40 DUP3 ADD MSTORE PUSH1 0x60 ADD SWAP1 JUMP JUMPDEST PUSH1 0x0 DUP3 NOT DUP3 GT ISZERO PUSH2 0x827 JUMPI PUSH4 0x4E487B71 PUSH1 0xE0 SHL PUSH1 0x0 MSTORE PUSH1 0x11 PUSH1 0x4 MSTORE PUSH1 0x24 PUSH1 0x0 REVERT JUMPDEST POP ADD SWAP1 JUMP INVALID LOG2 PUSH5 0x6970667358 0x22 SLT KECCAK256 EXTCODECOPY REVERT 0x2E COINBASE 0xA7 0x28 CALLDATALOAD 0x4C 0x2C DUP5 SSTORE CODESIZE 0x28 0xB1 0xD5 0xDF 0xCA ADDRESS DUP7 LOG3 0x22 STATICCALL PUSH30 0x728441EE1F00CCC04264736F6C634300080D003300000000000000000000 "
				},
				"gasEstimates": {
					"creation": {
						"codeDepositCost": "429200",
						"executionCost": "118990",
						"totalCost": "548190"
					},
					"external": {
						"": "206",
						"checkAuth(address)": "4804",
						"endTime(address)": "2507",
						"otherFeeAddress()": "2327",
						"owner()": "2387",
						"payForOpenExchange()": "infinite",
						"payForRenew()": "infinite",
						"renounceOwnership()": "28181",
						"setOtherFee(uint256)": "24486",
						"setOtherFeeAddress(address)": "26720",
						"setYearFee(uint256)": "24530",
						"setYearFeeAddress(address)": "26787",
						"transferOwnership(address)": "28362",
						"yearFeeAddress()": "2415"
					}
				},
				"methodIdentifiers": {
					"checkAuth(address)": "4b165090",
					"endTime(address)": "4aefdccd",
					"otherFeeAddress()": "366a8508",
					"owner()": "8da5cb5b",
					"payForOpenExchange()": "8310f06d",
					"payForRenew()": "8b68e1fa",
					"renounceOwnership()": "715018a6",
					"setOtherFee(uint256)": "aeb0bc79",
					"setOtherFeeAddress(address)": "e0c350b5",
					"setYearFee(uint256)": "f2c8609e",
					"setYearFeeAddress(address)": "7ad3c93a",
					"transferOwnership(address)": "f2fde38b",
					"yearFeeAddress()": "75a3aae7"
				}
			},
			"userdoc": {
				"kind": "user",
				"methods": {},
				"version": 1
			}
		}
	}
}