{
  "_format": "hh-sol-artifact-1",
  "contractName": "ERBPay",
  "sourceName": "contracts/tokens/ERBPay.sol",
  "abi": [
    {
      "inputs": [],
      "stateMutability": "nonpayable",
      "type": "constructor"
    },
    {
      "anonymous": false,
      "inputs": [
        {
          "indexed": true,
          "internalType": "address",
          "name": "previousOwner",
          "type": "address"
        },
        {
          "indexed": true,
          "internalType": "address",
          "name": "newOwner",
          "type": "address"
        }
      ],
      "name": "OwnershipTransferred",
      "type": "event"
    },
    {
      "anonymous": false,
      "inputs": [
        {
          "indexed": true,
          "internalType": "address",
          "name": "sender",
          "type": "address"
        },
        {
          "indexed": false,
          "internalType": "uint256",
          "name": "amount",
          "type": "uint256"
        }
      ],
      "name": "PayForOpenExchange",
      "type": "event"
    },
    {
      "anonymous": false,
      "inputs": [
        {
          "indexed": true,
          "internalType": "address",
          "name": "sender",
          "type": "address"
        },
        {
          "indexed": false,
          "internalType": "uint256",
          "name": "amount",
          "type": "uint256"
        }
      ],
      "name": "PayForOpenRenew",
      "type": "event"
    },
    {
      "stateMutability": "payable",
      "type": "fallback"
    },
    {
      "inputs": [
        {
          "internalType": "address",
          "name": "addr",
          "type": "address"
        }
      ],
      "name": "checkAuth",
      "outputs": [
        {
          "internalType": "uint256",
          "name": "",
          "type": "uint256"
        }
      ],
      "stateMutability": "view",
      "type": "function"
    },
    {
      "inputs": [
        {
          "internalType": "address",
          "name": "",
          "type": "address"
        }
      ],
      "name": "endTime",
      "outputs": [
        {
          "internalType": "uint256",
          "name": "",
          "type": "uint256"
        }
      ],
      "stateMutability": "view",
      "type": "function"
    },
    {
      "inputs": [],
      "name": "otherFeeAddress",
      "outputs": [
        {
          "internalType": "address",
          "name": "",
          "type": "address"
        }
      ],
      "stateMutability": "view",
      "type": "function"
    },
    {
      "inputs": [],
      "name": "owner",
      "outputs": [
        {
          "internalType": "address",
          "name": "",
          "type": "address"
        }
      ],
      "stateMutability": "view",
      "type": "function"
    },
    {
      "inputs": [],
      "name": "payForOpenExchange",
      "outputs": [],
      "stateMutability": "payable",
      "type": "function"
    },
    {
      "inputs": [],
      "name": "payForOpenRenew",
      "outputs": [],
      "stateMutability": "payable",
      "type": "function"
    },
    {
      "inputs": [],
      "name": "renounceOwnership",
      "outputs": [],
      "stateMutability": "nonpayable",
      "type": "function"
    },
    {
      "inputs": [
        {
          "internalType": "uint256",
          "name": "amount",
          "type": "uint256"
        }
      ],
      "name": "setOtherFee",
      "outputs": [],
      "stateMutability": "nonpayable",
      "type": "function"
    },
    {
      "inputs": [
        {
          "internalType": "address",
          "name": "_addr",
          "type": "address"
        }
      ],
      "name": "setOtherFeeAddress",
      "outputs": [],
      "stateMutability": "nonpayable",
      "type": "function"
    },
    {
      "inputs": [
        {
          "internalType": "uint256",
          "name": "amount",
          "type": "uint256"
        }
      ],
      "name": "setYearFee",
      "outputs": [],
      "stateMutability": "nonpayable",
      "type": "function"
    },
    {
      "inputs": [
        {
          "internalType": "address",
          "name": "_addr",
          "type": "address"
        }
      ],
      "name": "setYearFeeAddress",
      "outputs": [],
      "stateMutability": "nonpayable",
      "type": "function"
    },
    {
      "inputs": [
        {
          "internalType": "address",
          "name": "newOwner",
          "type": "address"
        }
      ],
      "name": "transferOwnership",
      "outputs": [],
      "stateMutability": "nonpayable",
      "type": "function"
    },
    {
      "inputs": [],
      "name": "yearFeeAddress",
      "outputs": [
        {
          "internalType": "address",
          "name": "",
          "type": "address"
        }
      ],
      "stateMutability": "view",
      "type": "function"
    },
    {
      "stateMutability": "payable",
      "type": "receive"
    }
  ],
  "bytecode": "0x608060405260c8600155606460025534801561001a57600080fd5b5061002433610029565b610079565b600080546001600160a01b038381166001600160a01b0319831681178455604051919092169283917f8be0079c531659141344cd1fd0a4f28419497f9722a3daafe3b4186f6b6457e09190a35050565b610859806100886000396000f3fe6080604052600436106100bd5760003560e01c80637c6039a111610079578063aeb0bc7911610056578063aeb0bc79146101e1578063e0c350b514610201578063f2c8609e14610221578063f2fde38b1461024157005b80637c6039a1146101b35780638310f06d146101bb5780638da5cb5b146101c357005b8063366a8508146100c65780634aefdccd146101035780634b1650901461013e578063715018a61461015e57806375a3aae7146101735780637ad3c93a1461019357005b366100c457005b005b3480156100d257600080fd5b506004546100e6906001600160a01b031681565b6040516001600160a01b0390911681526020015b60405180910390f35b34801561010f57600080fd5b5061013061011e366004610784565b60056020526000908152604090205481565b6040519081526020016100fa565b34801561014a57600080fd5b50610130610159366004610784565b610261565b34801561016a57600080fd5b506100c46102b6565b34801561017f57600080fd5b506003546100e6906001600160a01b031681565b34801561019f57600080fd5b506100c46101ae366004610784565b6102f5565b6100c4610341565b6100c4610481565b3480156101cf57600080fd5b506000546001600160a01b03166100e6565b3480156101ed57600080fd5b506100c46101fc3660046107b2565b6105ef565b34801561020d57600080fd5b506100c461021c366004610784565b61061e565b34801561022d57600080fd5b506100c461023c3660046107b2565b61066a565b34801561024d57600080fd5b506100c461025c366004610784565b610699565b6001600160a01b03811660009081526005602052604081205461028657506000919050565b6001600160a01b0382166000908152600560205260409020544211156102ae57506001919050565b506002919050565b6000546001600160a01b031633146102e95760405162461bcd60e51b81526004016102e0906107ca565b60405180910390fd5b6102f36000610734565b565b6000546001600160a01b0316331461031f5760405162461bcd60e51b81526004016102e0906107ca565b600380546001600160a01b0319166001600160a01b0392909216919091179055565b60015434146103865760405162461bcd60e51b81526020600482015260116024820152701b5cd9cb9d985b1d59481a5b9d985b1a59607a1b60448201526064016102e0565b336000908152600560205260409020546103d65760405162461bcd60e51b81526020600482015260116024820152701b9bc8195e18da185b99d948195e1a5cdd607a1b60448201526064016102e0565b6003546001546040516001600160a01b039092169181156108fc0291906000818181858888f19350505050158015610412573d6000803e3d6000fd5b5033600090815260056020526040902054610431906301e133806107ff565b33600081815260056020526040908190209290925590517fe777ae9d65766408c351d743ed88284c7719883019e08000af32400646abcff8906104779034815260200190565b60405180910390a2565b60025460015461049191906107ff565b34146104d35760405162461bcd60e51b81526020600482015260116024820152701b5cd9cb9d985b1d59481a5b9d985b1a59607a1b60448201526064016102e0565b33600090815260056020526040902054156105215760405162461bcd60e51b815260206004820152600e60248201526d185b1c9958591e481bdc195b995960921b60448201526064016102e0565b6004546002546040516001600160a01b039092169181156108fc0291906000818181858888f1935050505015801561055d573d6000803e3d6000fd5b506003546001546040516001600160a01b039092169181156108fc0291906000818181858888f1935050505015801561059a573d6000803e3d6000fd5b506105a9426301e133806107ff565b33600081815260056020526040908190209290925590517f728aa0ba54574e206497a83a73cea62ca17f538ca83666c089018a2ce41700f4906104779034815260200190565b6000546001600160a01b031633146106195760405162461bcd60e51b81526004016102e0906107ca565b600255565b6000546001600160a01b031633146106485760405162461bcd60e51b81526004016102e0906107ca565b600480546001600160a01b0319166001600160a01b0392909216919091179055565b6000546001600160a01b031633146106945760405162461bcd60e51b81526004016102e0906107ca565b600155565b6000546001600160a01b031633146106c35760405162461bcd60e51b81526004016102e0906107ca565b6001600160a01b0381166107285760405162461bcd60e51b815260206004820152602660248201527f4f776e61626c653a206e6577206f776e657220697320746865207a65726f206160448201526564647265737360d01b60648201526084016102e0565b61073181610734565b50565b600080546001600160a01b038381166001600160a01b0319831681178455604051919092169283917f8be0079c531659141344cd1fd0a4f28419497f9722a3daafe3b4186f6b6457e09190a35050565b600060208284031215610795578081fd5b81356001600160a01b03811681146107ab578182fd5b9392505050565b6000602082840312156107c3578081fd5b5035919050565b6020808252818101527f4f776e61626c653a2063616c6c6572206973206e6f7420746865206f776e6572604082015260600190565b6000821982111561081e57634e487b7160e01b81526011600452602481fd5b50019056fea26469706673582212208c4de297fa1b89c59782f67ffcece4a8d86c1d0707822bbe55be152fb350c49b64736f6c63430008040033",
  "linkReferences": {},
  "deployedLinkReferences": {}
}