{
  "address": "0xe7f1725E7734CE288F8367e1Bb143E90bb3F0512",
  "abi": [
    {
      "inputs": [
        {
          "internalType": "address",
          "name": "_titan",
          "type": "address"
        }
      ],
      "stateMutability": "nonpayable",
      "type": "constructor"
    },
    {
      "anonymous": false,
      "inputs": [
        {
          "indexed": true,
          "internalType": "address",
          "name": "previousOwner",
          "type": "address"
        },
        {
          "indexed": true,
          "internalType": "address",
          "name": "newOwner",
          "type": "address"
        }
      ],
      "name": "OwnershipTransferred",
      "type": "event"
    },
    {
      "inputs": [],
      "name": "belly",
      "outputs": [
        {
          "internalType": "address",
          "name": "",
          "type": "address"
        }
      ],
      "stateMutability": "view",
      "type": "function"
    },
    {
      "inputs": [
        {
          "internalType": "uint256",
          "name": "_price",
          "type": "uint256"
        }
      ],
      "name": "feeInfo",
      "outputs": [
        {
          "internalType": "address",
          "name": "_receiver",
          "type": "address"
        },
        {
          "internalType": "uint256",
          "name": "_fee",
          "type": "uint256"
        }
      ],
      "stateMutability": "view",
      "type": "function"
    },
    {
      "inputs": [],
      "name": "owner",
      "outputs": [
        {
          "internalType": "address",
          "name": "",
          "type": "address"
        }
      ],
      "stateMutability": "view",
      "type": "function"
    },
    {
      "inputs": [
        {
          "internalType": "address",
          "name": "_from",
          "type": "address"
        },
        {
          "internalType": "uint256",
          "name": "_price",
          "type": "uint256"
        }
      ],
      "name": "payBelly",
      "outputs": [
        {
          "internalType": "bool",
          "name": "",
          "type": "bool"
        }
      ],
      "stateMutability": "nonpayable",
      "type": "function"
    },
    {
      "inputs": [
        {
          "internalType": "address",
          "name": "_from",
          "type": "address"
        },
        {
          "internalType": "address",
          "name": "_to",
          "type": "address"
        },
        {
          "internalType": "uint256",
          "name": "_price",
          "type": "uint256"
        }
      ],
      "name": "payTitan",
      "outputs": [
        {
          "internalType": "bool",
          "name": "",
          "type": "bool"
        }
      ],
      "stateMutability": "nonpayable",
      "type": "function"
    },
    {
      "inputs": [],
      "name": "renounceOwnership",
      "outputs": [],
      "stateMutability": "nonpayable",
      "type": "function"
    },
    {
      "inputs": [
        {
          "internalType": "address",
          "name": "_feeReceiver",
          "type": "address"
        }
      ],
      "name": "setFeeReciver",
      "outputs": [],
      "stateMutability": "nonpayable",
      "type": "function"
    },
    {
      "inputs": [
        {
          "internalType": "address",
          "name": "_titan",
          "type": "address"
        }
      ],
      "name": "setTitan",
      "outputs": [],
      "stateMutability": "nonpayable",
      "type": "function"
    },
    {
      "inputs": [
        {
          "internalType": "uint16",
          "name": "_feeRatio",
          "type": "uint16"
        }
      ],
      "name": "set_feeRatio",
      "outputs": [],
      "stateMutability": "nonpayable",
      "type": "function"
    },
    {
      "inputs": [],
      "name": "titan",
      "outputs": [
        {
          "internalType": "address",
          "name": "",
          "type": "address"
        }
      ],
      "stateMutability": "view",
      "type": "function"
    },
    {
      "inputs": [
        {
          "internalType": "address",
          "name": "newOwner",
          "type": "address"
        }
      ],
      "name": "transferOwnership",
      "outputs": [],
      "stateMutability": "nonpayable",
      "type": "function"
    }
  ],
  "transactionHash": "0x6f7fe850452cd3722007614983791d9d8d0ad9ddcf9d007b0b6fac64743454d8",
  "args": [
    "0x5FbDB2315678afecb367f032d93F642f64180aa3"
  ],
  "solcInputHash": "339c8c468a0edfcf9115163547be8e28",
  "bytecode": "0x60806040526003805461ffff60a01b1916604b60a21b17905534801561002457600080fd5b506040516109a53803806109a5833981016040819052610043916100cf565b61004c3361007f565b60028054336001600160a01b031991821617909155600180549091166001600160a01b03929092169190911790556100fd565b600080546001600160a01b038381166001600160a01b0319831681178455604051919092169283917f8be0079c531659141344cd1fd0a4f28419497f9722a3daafe3b4186f6b6457e09190a35050565b6000602082840312156100e0578081fd5b81516001600160a01b03811681146100f6578182fd5b9392505050565b6108998061010c6000396000f3fe608060405234801561001057600080fd5b50600436106100a95760003560e01c80637cb4a08b116100715780637cb4a08b146101215780638da5cb5b14610144578063e44f5c5014610155578063e92077d814610187578063f11a55ac1461019a578063f2fde38b146101ad57600080fd5b806320dc2760146100ae57806325cb10a5146100de5780637049fc07146100f3578063715018a6146101065780637444d69c1461010e575b600080fd5b6001546100c1906001600160a01b031681565b6040516001600160a01b0390911681526020015b60405180910390f35b6100f16100ec3660046106e3565b6101c0565b005b6100f16101013660046106e3565b61024c565b6100f16102ee565b6003546100c1906001600160a01b031681565b61013461012f36600461073f565b610324565b60405190151581526020016100d5565b6000546001600160a01b03166100c1565b6101686101633660046107aa565b6103c3565b604080516001600160a01b0390931683526020830191909152016100d5565b6100f1610195366004610788565b6103d8565b6101346101a8366004610704565b610458565b6100f16101bb3660046106e3565b6105a9565b6000546001600160a01b031633146101f35760405162461bcd60e51b81526004016101ea906107c2565b60405180910390fd5b6001600160a01b0381166102495760405162461bcd60e51b815260206004820181905260248201527f506179436f72653a20726563697665722063616e206e6f74206265207a65726f60448201526064016101ea565b50565b6000546001600160a01b031633146102765760405162461bcd60e51b81526004016101ea906107c2565b6001600160a01b0381166102cc5760405162461bcd60e51b815260206004820152601e60248201527f506179436f72653a20746974616e2063616e206e6f74206265207a65726f000060448201526064016101ea565b600180546001600160a01b0319166001600160a01b0392909216919091179055565b6000546001600160a01b031633146103185760405162461bcd60e51b81526004016101ea906107c2565b610322600061063d565b565b6003546002546040516323b872dd60e01b81526001600160a01b03858116600483015291821660248201526044810184905260009291909116906323b872dd90606401602060405180830381600087803b15801561038157600080fd5b505af1158015610395573d6000803e3d6000fd5b505050506040513d601f19601f820116820180604052508101906103b99190610768565b5060019392505050565b6000806103cf8361068d565b91509150915091565b6000546001600160a01b031633146104025760405162461bcd60e51b81526004016101ea906107c2565b611f408161ffff1611156102495760405162461bcd60e51b815260206004820152601d60248201527f506179436f72653a20726174696f206d6f7265207468616e203830303000000060448201526064016101ea565b60008181806104668361068d565b9092509050801561050d5761047b8184610836565b6001546040516323b872dd60e01b81526001600160a01b038a811660048301528581166024830152604482018590529295509116906323b872dd90606401602060405180830381600087803b1580156104d357600080fd5b505af11580156104e7573d6000803e3d6000fd5b505050506040513d601f19601f8201168201806040525081019061050b9190610768565b505b6001546040516323b872dd60e01b81526001600160a01b038981166004830152888116602483015260448201869052909116906323b872dd90606401602060405180830381600087803b15801561056357600080fd5b505af1158015610577573d6000803e3d6000fd5b505050506040513d601f19601f8201168201806040525081019061059b9190610768565b506001979650505050505050565b6000546001600160a01b031633146105d35760405162461bcd60e51b81526004016101ea906107c2565b6001600160a01b0381166106385760405162461bcd60e51b815260206004820152602660248201527f4f776e61626c653a206e6577206f776e657220697320746865207a65726f206160448201526564647265737360d01b60648201526084016101ea565b610249815b600080546001600160a01b038381166001600160a01b0319831681178455604051919092169283917f8be0079c531659141344cd1fd0a4f28419497f9722a3daafe3b4186f6b6457e09190a35050565b60025460035460009182916001600160a01b0390911690612710906106bd90600160a01b900461ffff1686610817565b6103cf91906107f7565b80356001600160a01b03811681146106de57600080fd5b919050565b6000602082840312156106f4578081fd5b6106fd826106c7565b9392505050565b600080600060608486031215610718578182fd5b610721846106c7565b925061072f602085016106c7565b9150604084013590509250925092565b60008060408385031215610751578182fd5b61075a836106c7565b946020939093013593505050565b600060208284031215610779578081fd5b815180151581146106fd578182fd5b600060208284031215610799578081fd5b813561ffff811681146106fd578182fd5b6000602082840312156107bb578081fd5b5035919050565b6020808252818101527f4f776e61626c653a2063616c6c6572206973206e6f7420746865206f776e6572604082015260600190565b60008261081257634e487b7160e01b81526012600452602481fd5b500490565b60008160001904831182151516156108315761083161084d565b500290565b6000828210156108485761084861084d565b500390565b634e487b7160e01b600052601160045260246000fdfea2646970667358221220a6c5f1ba5779eaf0da0338aaecf349a6f25d75b1587716dec9acc9ec4f09944d64736f6c63430008040033",
  "devdoc": {
    "kind": "dev",
    "methods": {
      "owner()": {
        "details": "Returns the address of the current owner."
      },
      "renounceOwnership()": {
        "details": "Leaves the contract without owner. It will not be possible to call `onlyOwner` functions anymore. Can only be called by the current owner. NOTE: Renouncing ownership will leave the contract without an owner, thereby removing any functionality that is only available to the owner."
      },
      "transferOwnership(address)": {
        "details": "Transfers ownership of the contract to a new account (`newOwner`). Can only be called by the current owner."
      }
    },
    "version": 1
  },
  "userdoc": {
    "kind": "user",
    "methods": {},
    "version": 1
  },
  "storageLayout": {
    "storage": [
      {
        "astId": 7,
        "contract": "contracts/PayCore.sol:PayCore",
        "label": "_owner",
        "offset": 0,
        "slot": "0",
        "type": "t_address"
      },
      {
        "astId": 2643,
        "contract": "contracts/PayCore.sol:PayCore",
        "label": "titan",
        "offset": 0,
        "slot": "1",
        "type": "t_address"
      },
      {
        "astId": 2645,
        "contract": "contracts/PayCore.sol:PayCore",
        "label": "_feeReceiver",
        "offset": 0,
        "slot": "2",
        "type": "t_address"
      },
      {
        "astId": 2647,
        "contract": "contracts/PayCore.sol:PayCore",
        "label": "belly",
        "offset": 0,
        "slot": "3",
        "type": "t_address"
      },
      {
        "astId": 2650,
        "contract": "contracts/PayCore.sol:PayCore",
        "label": "_feeRatio",
        "offset": 20,
        "slot": "3",
        "type": "t_uint16"
      }
    ],
    "types": {
      "t_address": {
        "encoding": "inplace",
        "label": "address",
        "numberOfBytes": "20"
      },
      "t_uint16": {
        "encoding": "inplace",
        "label": "uint16",
        "numberOfBytes": "2"
      }
    }
  }
}