{
	"data": {
		"bytecode": {
			"linkReferences": {},
			"object": "6080604052604051806101a00160405280600060ff168152602001601f60ff168152602001601c60ff168152602001601f60ff168152602001601e60ff168152602001601f60ff168152602001601e60ff168152602001601f60ff168152602001601f60ff168152602001601e60ff168152602001601f60ff168152602001601e60ff168152602001601f60ff16815250600090600d6100a0929190610150565b50604051806101a00160405280600060ff168152602001601f60ff168152602001601d60ff168152602001601f60ff168152602001601e60ff168152602001601f60ff168152602001601e60ff168152602001601f60ff168152602001601f60ff168152602001601e60ff168152602001601f60ff168152602001601e60ff168152602001601f60ff16815250600190600d61013d929190610150565b5034801561014a57600080fd5b506101bf565b828054828255906000526020600020908101928215610191579160200282015b82811115610190578251829060ff16905591602001919060010190610170565b5b50905061019e91906101a2565b5090565b5b808211156101bb5760008160009055506001016101a3565b5090565b61091c806101ce6000396000f3fe608060405234801561001057600080fd5b506004361061007d5760003560e01c806392d663131161005b57806392d6631314610112578063a324ad2414610142578063de5101af14610172578063fa93f883146101a75761007d565b80633e239e1a1461008257806365c72840146100b25780638aa001fc146100e2575b600080fd5b61009c600480360381019061009791906105ec565b6101d7565b6040516100a99190610628565b60405180910390f35b6100cc60048036038101906100c791906105ec565b6101fd565b6040516100d99190610628565b60405180910390f35b6100fc60048036038101906100f791906105ec565b610222565b6040516101099190610628565b60405180910390f35b61012c600480360381019061012791906105ec565b61024a565b6040516101399190610628565b60405180910390f35b61015c600480360381019061015791906105ec565b61026d565b6040516101699190610628565b60405180910390f35b61018c600480360381019061018791906105ec565b610291565b60405161019e96959493929190610643565b60405180910390f35b6101c160048036038101906101bc91906105ec565b6105b0565b6040516101ce9190610628565b60405180910390f35b60006101e282610291565b90919293945090919293509091925090505080915050919050565b600061020882610291565b909192939450909192935090915090505080915050919050565b600061022d82610291565b909192939450909192935090919250909150905080915050919050565b600061025582610291565b90919293509091925090915090505080915050919050565b600061027882610291565b9091929394509091925090915090505080915050919050565b600080600080600080603c876102a7919061080c565b9050603c610e10886102b9919061080c565b6102c391906106fa565b91505b6307861f8087106102f65785806102dc906107c3565b9650506307861f80876102ef9190610785565b96506102c6565b856004610303919061072b565b6107b261031091906106a4565b95506301e1338087106103c2578580610328906107c3565b9650506301e133808761033b9190610785565b96506301e1338087106103c1578580610353906107c3565b9650506301e13380876103669190610785565b96506301e2850087106103c057858061037e906107c3565b9650506301e28500876103919190610785565b96506301e1338087106103bf5785806103a9906107c3565b9650506301e13380876103bc9190610785565b96505b5b5b5b6000806004886103d2919061080c565b1480156103ec575060006064886103e9919061080c565b14155b806104045750600061019088610402919061080c565b145b156104125760009050610417565b600190505b620151808861042691906106fa565b94506008610e10620151808761043c919061072b565b8a6104479190610785565b61045191906106fa565b61045b91906106a4565b935060188461046a919061080c565b93506001955060005b600c81101561059657600182141561050257600060018261049491906106a4565b815481106104a5576104a461089b565b5b906000526020600020015486106104fd5786806104c1906107c3565b97505060006001826104d391906106a4565b815481106104e4576104e361089b565b5b9060005260206000200154866104fa9190610785565b95505b610583565b6000821415610582576001808261051991906106a4565b8154811061052a5761052961089b565b5b90600052602060002001548610610581578680610546906107c3565b9750506001808261055791906106a4565b815481106105685761056761089b565b5b90600052602060002001548661057e9190610785565b95505b5b5b808061058e906107c3565b915050610473565b506001856105a491906106a4565b94505091939550919395565b60006105bb82610291565b9091929394509091929350909192509091505080915050919050565b6000813590506105e6816108cf565b92915050565b600060208284031215610602576106016108ca565b5b6000610610848285016105d7565b91505092915050565b610622816107b9565b82525050565b600060208201905061063d6000830184610619565b92915050565b600060c0820190506106586000830189610619565b6106656020830188610619565b6106726040830187610619565b61067f6060830186610619565b61068c6080830185610619565b61069960a0830184610619565b979650505050505050565b60006106af826107b9565b91506106ba836107b9565b9250827fffffffffffffffffffffffffffffffffffffffffffffffffffffffffffffffff038211156106ef576106ee61083d565b5b828201905092915050565b6000610705826107b9565b9150610710836107b9565b9250826107205761071f61086c565b5b828204905092915050565b6000610736826107b9565b9150610741836107b9565b9250817fffffffffffffffffffffffffffffffffffffffffffffffffffffffffffffffff048311821515161561077a5761077961083d565b5b828202905092915050565b6000610790826107b9565b915061079b836107b9565b9250828210156107ae576107ad61083d565b5b828203905092915050565b6000819050919050565b60006107ce826107b9565b91507fffffffffffffffffffffffffffffffffffffffffffffffffffffffffffffffff8214156108015761080061083d565b5b600182019050919050565b6000610817826107b9565b9150610822836107b9565b9250826108325761083161086c565b5b828206905092915050565b7f4e487b7100000000000000000000000000000000000000000000000000000000600052601160045260246000fd5b7f4e487b7100000000000000000000000000000000000000000000000000000000600052601260045260246000fd5b7f4e487b7100000000000000000000000000000000000000000000000000000000600052603260045260246000fd5b600080fd5b6108d8816107b9565b81146108e357600080fd5b5056fea264697066735822122070a52813f73c6d339dfcd2ed12dca6b1a774027d3c960ae25a7edd5ebd1a558c64736f6c63430008070033",
			"opcodes": "PUSH1 0x80 PUSH1 0x40 MSTORE PUSH1 0x40 MLOAD DUP1 PUSH2 0x1A0 ADD PUSH1 0x40 MSTORE DUP1 PUSH1 0x0 PUSH1 0xFF AND DUP2 MSTORE PUSH1 0x20 ADD PUSH1 0x1F PUSH1 0xFF AND DUP2 MSTORE PUSH1 0x20 ADD PUSH1 0x1C PUSH1 0xFF AND DUP2 MSTORE PUSH1 0x20 ADD PUSH1 0x1F PUSH1 0xFF AND DUP2 MSTORE PUSH1 0x20 ADD PUSH1 0x1E PUSH1 0xFF AND DUP2 MSTORE PUSH1 0x20 ADD PUSH1 0x1F PUSH1 0xFF AND DUP2 MSTORE PUSH1 0x20 ADD PUSH1 0x1E PUSH1 0xFF AND DUP2 MSTORE PUSH1 0x20 ADD PUSH1 0x1F PUSH1 0xFF AND DUP2 MSTORE PUSH1 0x20 ADD PUSH1 0x1F PUSH1 0xFF AND DUP2 MSTORE PUSH1 0x20 ADD PUSH1 0x1E PUSH1 0xFF AND DUP2 MSTORE PUSH1 0x20 ADD PUSH1 0x1F PUSH1 0xFF AND DUP2 MSTORE PUSH1 0x20 ADD PUSH1 0x1E PUSH1 0xFF AND DUP2 MSTORE PUSH1 0x20 ADD PUSH1 0x1F PUSH1 0xFF AND DUP2 MSTORE POP PUSH1 0x0 SWAP1 PUSH1 0xD PUSH2 0xA0 SWAP3 SWAP2 SWAP1 PUSH2 0x150 JUMP JUMPDEST POP PUSH1 0x40 MLOAD DUP1 PUSH2 0x1A0 ADD PUSH1 0x40 MSTORE DUP1 PUSH1 0x0 PUSH1 0xFF AND DUP2 MSTORE PUSH1 0x20 ADD PUSH1 0x1F PUSH1 0xFF AND DUP2 MSTORE PUSH1 0x20 ADD PUSH1 0x1D PUSH1 0xFF AND DUP2 MSTORE PUSH1 0x20 ADD PUSH1 0x1F PUSH1 0xFF AND DUP2 MSTORE PUSH1 0x20 ADD PUSH1 0x1E PUSH1 0xFF AND DUP2 MSTORE PUSH1 0x20 ADD PUSH1 0x1F PUSH1 0xFF AND DUP2 MSTORE PUSH1 0x20 ADD PUSH1 0x1E PUSH1 0xFF AND DUP2 MSTORE PUSH1 0x20 ADD PUSH1 0x1F PUSH1 0xFF AND DUP2 MSTORE PUSH1 0x20 ADD PUSH1 0x1F PUSH1 0xFF AND DUP2 MSTORE PUSH1 0x20 ADD PUSH1 0x1E PUSH1 0xFF AND DUP2 MSTORE PUSH1 0x20 ADD PUSH1 0x1F PUSH1 0xFF AND DUP2 MSTORE PUSH1 0x20 ADD PUSH1 0x1E PUSH1 0xFF AND DUP2 MSTORE PUSH1 0x20 ADD PUSH1 0x1F PUSH1 0xFF AND DUP2 MSTORE POP PUSH1 0x1 SWAP1 PUSH1 0xD PUSH2 0x13D SWAP3 SWAP2 SWAP1 PUSH2 0x150 JUMP JUMPDEST POP CALLVALUE DUP1 ISZERO PUSH2 0x14A JUMPI PUSH1 0x0 DUP1 REVERT JUMPDEST POP PUSH2 0x1BF JUMP JUMPDEST DUP3 DUP1 SLOAD DUP3 DUP3 SSTORE SWAP1 PUSH1 0x0 MSTORE PUSH1 0x20 PUSH1 0x0 KECCAK256 SWAP1 DUP2 ADD SWAP3 DUP3 ISZERO PUSH2 0x191 JUMPI SWAP2 PUSH1 0x20 MUL DUP3 ADD JUMPDEST DUP3 DUP2 GT ISZERO PUSH2 0x190 JUMPI DUP3 MLOAD DUP3 SWAP1 PUSH1 0xFF AND SWAP1 SSTORE SWAP2 PUSH1 0x20 ADD SWAP2 SWAP1 PUSH1 0x1 ADD SWAP1 PUSH2 0x170 JUMP JUMPDEST JUMPDEST POP SWAP1 POP PUSH2 0x19E SWAP2 SWAP1 PUSH2 0x1A2 JUMP JUMPDEST POP SWAP1 JUMP JUMPDEST JUMPDEST DUP1 DUP3 GT ISZERO PUSH2 0x1BB JUMPI PUSH1 0x0 DUP2 PUSH1 0x0 SWAP1 SSTORE POP PUSH1 0x1 ADD PUSH2 0x1A3 JUMP JUMPDEST POP SWAP1 JUMP JUMPDEST PUSH2 0x91C DUP1 PUSH2 0x1CE PUSH1 0x0 CODECOPY PUSH1 0x0 RETURN INVALID PUSH1 0x80 PUSH1 0x40 MSTORE CALLVALUE DUP1 ISZERO PUSH2 0x10 JUMPI PUSH1 0x0 DUP1 REVERT JUMPDEST POP PUSH1 0x4 CALLDATASIZE LT PUSH2 0x7D JUMPI PUSH1 0x0 CALLDATALOAD PUSH1 0xE0 SHR DUP1 PUSH4 0x92D66313 GT PUSH2 0x5B JUMPI DUP1 PUSH4 0x92D66313 EQ PUSH2 0x112 JUMPI DUP1 PUSH4 0xA324AD24 EQ PUSH2 0x142 JUMPI DUP1 PUSH4 0xDE5101AF EQ PUSH2 0x172 JUMPI DUP1 PUSH4 0xFA93F883 EQ PUSH2 0x1A7 JUMPI PUSH2 0x7D JUMP JUMPDEST DUP1 PUSH4 0x3E239E1A EQ PUSH2 0x82 JUMPI DUP1 PUSH4 0x65C72840 EQ PUSH2 0xB2 JUMPI DUP1 PUSH4 0x8AA001FC EQ PUSH2 0xE2 JUMPI JUMPDEST PUSH1 0x0 DUP1 REVERT JUMPDEST PUSH2 0x9C PUSH1 0x4 DUP1 CALLDATASIZE SUB DUP2 ADD SWAP1 PUSH2 0x97 SWAP2 SWAP1 PUSH2 0x5EC JUMP JUMPDEST PUSH2 0x1D7 JUMP JUMPDEST PUSH1 0x40 MLOAD PUSH2 0xA9 SWAP2 SWAP1 PUSH2 0x628 JUMP JUMPDEST PUSH1 0x40 MLOAD DUP1 SWAP2 SUB SWAP1 RETURN JUMPDEST PUSH2 0xCC PUSH1 0x4 DUP1 CALLDATASIZE SUB DUP2 ADD SWAP1 PUSH2 0xC7 SWAP2 SWAP1 PUSH2 0x5EC JUMP JUMPDEST PUSH2 0x1FD JUMP JUMPDEST PUSH1 0x40 MLOAD PUSH2 0xD9 SWAP2 SWAP1 PUSH2 0x628 JUMP JUMPDEST PUSH1 0x40 MLOAD DUP1 SWAP2 SUB SWAP1 RETURN JUMPDEST PUSH2 0xFC PUSH1 0x4 DUP1 CALLDATASIZE SUB DUP2 ADD SWAP1 PUSH2 0xF7 SWAP2 SWAP1 PUSH2 0x5EC JUMP JUMPDEST PUSH2 0x222 JUMP JUMPDEST PUSH1 0x40 MLOAD PUSH2 0x109 SWAP2 SWAP1 PUSH2 0x628 JUMP JUMPDEST PUSH1 0x40 MLOAD DUP1 SWAP2 SUB SWAP1 RETURN JUMPDEST PUSH2 0x12C PUSH1 0x4 DUP1 CALLDATASIZE SUB DUP2 ADD SWAP1 PUSH2 0x127 SWAP2 SWAP1 PUSH2 0x5EC JUMP JUMPDEST PUSH2 0x24A JUMP JUMPDEST PUSH1 0x40 MLOAD PUSH2 0x139 SWAP2 SWAP1 PUSH2 0x628 JUMP JUMPDEST PUSH1 0x40 MLOAD DUP1 SWAP2 SUB SWAP1 RETURN JUMPDEST PUSH2 0x15C PUSH1 0x4 DUP1 CALLDATASIZE SUB DUP2 ADD SWAP1 PUSH2 0x157 SWAP2 SWAP1 PUSH2 0x5EC JUMP JUMPDEST PUSH2 0x26D JUMP JUMPDEST PUSH1 0x40 MLOAD PUSH2 0x169 SWAP2 SWAP1 PUSH2 0x628 JUMP JUMPDEST PUSH1 0x40 MLOAD DUP1 SWAP2 SUB SWAP1 RETURN JUMPDEST PUSH2 0x18C PUSH1 0x4 DUP1 CALLDATASIZE SUB DUP2 ADD SWAP1 PUSH2 0x187 SWAP2 SWAP1 PUSH2 0x5EC JUMP JUMPDEST PUSH2 0x291 JUMP JUMPDEST PUSH1 0x40 MLOAD PUSH2 0x19E SWAP7 SWAP6 SWAP5 SWAP4 SWAP3 SWAP2 SWAP1 PUSH2 0x643 JUMP JUMPDEST PUSH1 0x40 MLOAD DUP1 SWAP2 SUB SWAP1 RETURN JUMPDEST PUSH2 0x1C1 PUSH1 0x4 DUP1 CALLDATASIZE SUB DUP2 ADD SWAP1 PUSH2 0x1BC SWAP2 SWAP1 PUSH2 0x5EC JUMP JUMPDEST PUSH2 0x5B0 JUMP JUMPDEST PUSH1 0x40 MLOAD PUSH2 0x1CE SWAP2 SWAP1 PUSH2 0x628 JUMP JUMPDEST PUSH1 0x40 MLOAD DUP1 SWAP2 SUB SWAP1 RETURN JUMPDEST PUSH1 0x0 PUSH2 0x1E2 DUP3 PUSH2 0x291 JUMP JUMPDEST SWAP1 SWAP2 SWAP3 SWAP4 SWAP5 POP SWAP1 SWAP2 SWAP3 SWAP4 POP SWAP1 SWAP2 SWAP3 POP SWAP1 POP POP DUP1 SWAP2 POP POP SWAP2 SWAP1 POP JUMP JUMPDEST PUSH1 0x0 PUSH2 0x208 DUP3 PUSH2 0x291 JUMP JUMPDEST SWAP1 SWAP2 SWAP3 SWAP4 SWAP5 POP SWAP1 SWAP2 SWAP3 SWAP4 POP SWAP1 SWAP2 POP SWAP1 POP POP DUP1 SWAP2 POP POP SWAP2 SWAP1 POP JUMP JUMPDEST PUSH1 0x0 PUSH2 0x22D DUP3 PUSH2 0x291 JUMP JUMPDEST SWAP1 SWAP2 SWAP3 SWAP4 SWAP5 POP SWAP1 SWAP2 SWAP3 SWAP4 POP SWAP1 SWAP2 SWAP3 POP SWAP1 SWAP2 POP SWAP1 POP DUP1 SWAP2 POP POP SWAP2 SWAP1 POP JUMP JUMPDEST PUSH1 0x0 PUSH2 0x255 DUP3 PUSH2 0x291 JUMP JUMPDEST SWAP1 SWAP2 SWAP3 SWAP4 POP SWAP1 SWAP2 SWAP3 POP SWAP1 SWAP2 POP SWAP1 POP POP DUP1 SWAP2 POP POP SWAP2 SWAP1 POP JUMP JUMPDEST PUSH1 0x0 PUSH2 0x278 DUP3 PUSH2 0x291 JUMP JUMPDEST SWAP1 SWAP2 SWAP3 SWAP4 SWAP5 POP SWAP1 SWAP2 SWAP3 POP SWAP1 SWAP2 POP SWAP1 POP POP DUP1 SWAP2 POP POP SWAP2 SWAP1 POP JUMP JUMPDEST PUSH1 0x0 DUP1 PUSH1 0x0 DUP1 PUSH1 0x0 DUP1 PUSH1 0x3C DUP8 PUSH2 0x2A7 SWAP2 SWAP1 PUSH2 0x80C JUMP JUMPDEST SWAP1 POP PUSH1 0x3C PUSH2 0xE10 DUP9 PUSH2 0x2B9 SWAP2 SWAP1 PUSH2 0x80C JUMP JUMPDEST PUSH2 0x2C3 SWAP2 SWAP1 PUSH2 0x6FA JUMP JUMPDEST SWAP2 POP JUMPDEST PUSH4 0x7861F80 DUP8 LT PUSH2 0x2F6 JUMPI DUP6 DUP1 PUSH2 0x2DC SWAP1 PUSH2 0x7C3 JUMP JUMPDEST SWAP7 POP POP PUSH4 0x7861F80 DUP8 PUSH2 0x2EF SWAP2 SWAP1 PUSH2 0x785 JUMP JUMPDEST SWAP7 POP PUSH2 0x2C6 JUMP JUMPDEST DUP6 PUSH1 0x4 PUSH2 0x303 SWAP2 SWAP1 PUSH2 0x72B JUMP JUMPDEST PUSH2 0x7B2 PUSH2 0x310 SWAP2 SWAP1 PUSH2 0x6A4 JUMP JUMPDEST SWAP6 POP PUSH4 0x1E13380 DUP8 LT PUSH2 0x3C2 JUMPI DUP6 DUP1 PUSH2 0x328 SWAP1 PUSH2 0x7C3 JUMP JUMPDEST SWAP7 POP POP PUSH4 0x1E13380 DUP8 PUSH2 0x33B SWAP2 SWAP1 PUSH2 0x785 JUMP JUMPDEST SWAP7 POP PUSH4 0x1E13380 DUP8 LT PUSH2 0x3C1 JUMPI DUP6 DUP1 PUSH2 0x353 SWAP1 PUSH2 0x7C3 JUMP JUMPDEST SWAP7 POP POP PUSH4 0x1E13380 DUP8 PUSH2 0x366 SWAP2 SWAP1 PUSH2 0x785 JUMP JUMPDEST SWAP7 POP PUSH4 0x1E28500 DUP8 LT PUSH2 0x3C0 JUMPI DUP6 DUP1 PUSH2 0x37E SWAP1 PUSH2 0x7C3 JUMP JUMPDEST SWAP7 POP POP PUSH4 0x1E28500 DUP8 PUSH2 0x391 SWAP2 SWAP1 PUSH2 0x785 JUMP JUMPDEST SWAP7 POP PUSH4 0x1E13380 DUP8 LT PUSH2 0x3BF JUMPI DUP6 DUP1 PUSH2 0x3A9 SWAP1 PUSH2 0x7C3 JUMP JUMPDEST SWAP7 POP POP PUSH4 0x1E13380 DUP8 PUSH2 0x3BC SWAP2 SWAP1 PUSH2 0x785 JUMP JUMPDEST SWAP7 POP JUMPDEST JUMPDEST JUMPDEST JUMPDEST PUSH1 0x0 DUP1 PUSH1 0x4 DUP9 PUSH2 0x3D2 SWAP2 SWAP1 PUSH2 0x80C JUMP JUMPDEST EQ DUP1 ISZERO PUSH2 0x3EC JUMPI POP PUSH1 0x0 PUSH1 0x64 DUP9 PUSH2 0x3E9 SWAP2 SWAP1 PUSH2 0x80C JUMP JUMPDEST EQ ISZERO JUMPDEST DUP1 PUSH2 0x404 JUMPI POP PUSH1 0x0 PUSH2 0x190 DUP9 PUSH2 0x402 SWAP2 SWAP1 PUSH2 0x80C JUMP JUMPDEST EQ JUMPDEST ISZERO PUSH2 0x412 JUMPI PUSH1 0x0 SWAP1 POP PUSH2 0x417 JUMP JUMPDEST PUSH1 0x1 SWAP1 POP JUMPDEST PUSH3 0x15180 DUP9 PUSH2 0x426 SWAP2 SWAP1 PUSH2 0x6FA JUMP JUMPDEST SWAP5 POP PUSH1 0x8 PUSH2 0xE10 PUSH3 0x15180 DUP8 PUSH2 0x43C SWAP2 SWAP1 PUSH2 0x72B JUMP JUMPDEST DUP11 PUSH2 0x447 SWAP2 SWAP1 PUSH2 0x785 JUMP JUMPDEST PUSH2 0x451 SWAP2 SWAP1 PUSH2 0x6FA JUMP JUMPDEST PUSH2 0x45B SWAP2 SWAP1 PUSH2 0x6A4 JUMP JUMPDEST SWAP4 POP PUSH1 0x18 DUP5 PUSH2 0x46A SWAP2 SWAP1 PUSH2 0x80C JUMP JUMPDEST SWAP4 POP PUSH1 0x1 SWAP6 POP PUSH1 0x0 JUMPDEST PUSH1 0xC DUP2 LT ISZERO PUSH2 0x596 JUMPI PUSH1 0x1 DUP3 EQ ISZERO PUSH2 0x502 JUMPI PUSH1 0x0 PUSH1 0x1 DUP3 PUSH2 0x494 SWAP2 SWAP1 PUSH2 0x6A4 JUMP JUMPDEST DUP2 SLOAD DUP2 LT PUSH2 0x4A5 JUMPI PUSH2 0x4A4 PUSH2 0x89B JUMP JUMPDEST JUMPDEST SWAP1 PUSH1 0x0 MSTORE PUSH1 0x20 PUSH1 0x0 KECCAK256 ADD SLOAD DUP7 LT PUSH2 0x4FD JUMPI DUP7 DUP1 PUSH2 0x4C1 SWAP1 PUSH2 0x7C3 JUMP JUMPDEST SWAP8 POP POP PUSH1 0x0 PUSH1 0x1 DUP3 PUSH2 0x4D3 SWAP2 SWAP1 PUSH2 0x6A4 JUMP JUMPDEST DUP2 SLOAD DUP2 LT PUSH2 0x4E4 JUMPI PUSH2 0x4E3 PUSH2 0x89B JUMP JUMPDEST JUMPDEST SWAP1 PUSH1 0x0 MSTORE PUSH1 0x20 PUSH1 0x0 KECCAK256 ADD SLOAD DUP7 PUSH2 0x4FA SWAP2 SWAP1 PUSH2 0x785 JUMP JUMPDEST SWAP6 POP JUMPDEST PUSH2 0x583 JUMP JUMPDEST PUSH1 0x0 DUP3 EQ ISZERO PUSH2 0x582 JUMPI PUSH1 0x1 DUP1 DUP3 PUSH2 0x519 SWAP2 SWAP1 PUSH2 0x6A4 JUMP JUMPDEST DUP2 SLOAD DUP2 LT PUSH2 0x52A JUMPI PUSH2 0x529 PUSH2 0x89B JUMP JUMPDEST JUMPDEST SWAP1 PUSH1 0x0 MSTORE PUSH1 0x20 PUSH1 0x0 KECCAK256 ADD SLOAD DUP7 LT PUSH2 0x581 JUMPI DUP7 DUP1 PUSH2 0x546 SWAP1 PUSH2 0x7C3 JUMP JUMPDEST SWAP8 POP POP PUSH1 0x1 DUP1 DUP3 PUSH2 0x557 SWAP2 SWAP1 PUSH2 0x6A4 JUMP JUMPDEST DUP2 SLOAD DUP2 LT PUSH2 0x568 JUMPI PUSH2 0x567 PUSH2 0x89B JUMP JUMPDEST JUMPDEST SWAP1 PUSH1 0x0 MSTORE PUSH1 0x20 PUSH1 0x0 KECCAK256 ADD SLOAD DUP7 PUSH2 0x57E SWAP2 SWAP1 PUSH2 0x785 JUMP JUMPDEST SWAP6 POP JUMPDEST JUMPDEST JUMPDEST DUP1 DUP1 PUSH2 0x58E SWAP1 PUSH2 0x7C3 JUMP JUMPDEST SWAP2 POP POP PUSH2 0x473 JUMP JUMPDEST POP PUSH1 0x1 DUP6 PUSH2 0x5A4 SWAP2 SWAP1 PUSH2 0x6A4 JUMP JUMPDEST SWAP5 POP POP SWAP2 SWAP4 SWAP6 POP SWAP2 SWAP4 SWAP6 JUMP JUMPDEST PUSH1 0x0 PUSH2 0x5BB DUP3 PUSH2 0x291 JUMP JUMPDEST SWAP1 SWAP2 SWAP3 SWAP4 SWAP5 POP SWAP1 SWAP2 SWAP3 SWAP4 POP SWAP1 SWAP2 SWAP3 POP SWAP1 SWAP2 POP POP DUP1 SWAP2 POP POP SWAP2 SWAP1 POP JUMP JUMPDEST PUSH1 0x0 DUP2 CALLDATALOAD SWAP1 POP PUSH2 0x5E6 DUP2 PUSH2 0x8CF JUMP JUMPDEST SWAP3 SWAP2 POP POP JUMP JUMPDEST PUSH1 0x0 PUSH1 0x20 DUP3 DUP5 SUB SLT ISZERO PUSH2 0x602 JUMPI PUSH2 0x601 PUSH2 0x8CA JUMP JUMPDEST JUMPDEST PUSH1 0x0 PUSH2 0x610 DUP5 DUP3 DUP6 ADD PUSH2 0x5D7 JUMP JUMPDEST SWAP2 POP POP SWAP3 SWAP2 POP POP JUMP JUMPDEST PUSH2 0x622 DUP2 PUSH2 0x7B9 JUMP JUMPDEST DUP3 MSTORE POP POP JUMP JUMPDEST PUSH1 0x0 PUSH1 0x20 DUP3 ADD SWAP1 POP PUSH2 0x63D PUSH1 0x0 DUP4 ADD DUP5 PUSH2 0x619 JUMP JUMPDEST SWAP3 SWAP2 POP POP JUMP JUMPDEST PUSH1 0x0 PUSH1 0xC0 DUP3 ADD SWAP1 POP PUSH2 0x658 PUSH1 0x0 DUP4 ADD DUP10 PUSH2 0x619 JUMP JUMPDEST PUSH2 0x665 PUSH1 0x20 DUP4 ADD DUP9 PUSH2 0x619 JUMP JUMPDEST PUSH2 0x672 PUSH1 0x40 DUP4 ADD DUP8 PUSH2 0x619 JUMP JUMPDEST PUSH2 0x67F PUSH1 0x60 DUP4 ADD DUP7 PUSH2 0x619 JUMP JUMPDEST PUSH2 0x68C PUSH1 0x80 DUP4 ADD DUP6 PUSH2 0x619 JUMP JUMPDEST PUSH2 0x699 PUSH1 0xA0 DUP4 ADD DUP5 PUSH2 0x619 JUMP JUMPDEST SWAP8 SWAP7 POP POP POP POP POP POP POP JUMP JUMPDEST PUSH1 0x0 PUSH2 0x6AF DUP3 PUSH2 0x7B9 JUMP JUMPDEST SWAP2 POP PUSH2 0x6BA DUP4 PUSH2 0x7B9 JUMP JUMPDEST SWAP3 POP DUP3 PUSH32 0xFFFFFFFFFFFFFFFFFFFFFFFFFFFFFFFFFFFFFFFFFFFFFFFFFFFFFFFFFFFFFFFF SUB DUP3 GT ISZERO PUSH2 0x6EF JUMPI PUSH2 0x6EE PUSH2 0x83D JUMP JUMPDEST JUMPDEST DUP3 DUP3 ADD SWAP1 POP SWAP3 SWAP2 POP POP JUMP JUMPDEST PUSH1 0x0 PUSH2 0x705 DUP3 PUSH2 0x7B9 JUMP JUMPDEST SWAP2 POP PUSH2 0x710 DUP4 PUSH2 0x7B9 JUMP JUMPDEST SWAP3 POP DUP3 PUSH2 0x720 JUMPI PUSH2 0x71F PUSH2 0x86C JUMP JUMPDEST JUMPDEST DUP3 DUP3 DIV SWAP1 POP SWAP3 SWAP2 POP POP JUMP JUMPDEST PUSH1 0x0 PUSH2 0x736 DUP3 PUSH2 0x7B9 JUMP JUMPDEST SWAP2 POP PUSH2 0x741 DUP4 PUSH2 0x7B9 JUMP JUMPDEST SWAP3 POP DUP2 PUSH32 0xFFFFFFFFFFFFFFFFFFFFFFFFFFFFFFFFFFFFFFFFFFFFFFFFFFFFFFFFFFFFFFFF DIV DUP4 GT DUP3 ISZERO ISZERO AND ISZERO PUSH2 0x77A JUMPI PUSH2 0x779 PUSH2 0x83D JUMP JUMPDEST JUMPDEST DUP3 DUP3 MUL SWAP1 POP SWAP3 SWAP2 POP POP JUMP JUMPDEST PUSH1 0x0 PUSH2 0x790 DUP3 PUSH2 0x7B9 JUMP JUMPDEST SWAP2 POP PUSH2 0x79B DUP4 PUSH2 0x7B9 JUMP JUMPDEST SWAP3 POP DUP3 DUP3 LT ISZERO PUSH2 0x7AE JUMPI PUSH2 0x7AD PUSH2 0x83D JUMP JUMPDEST JUMPDEST DUP3 DUP3 SUB SWAP1 POP SWAP3 SWAP2 POP POP JUMP JUMPDEST PUSH1 0x0 DUP2 SWAP1 POP SWAP2 SWAP1 POP JUMP JUMPDEST PUSH1 0x0 PUSH2 0x7CE DUP3 PUSH2 0x7B9 JUMP JUMPDEST SWAP2 POP PUSH32 0xFFFFFFFFFFFFFFFFFFFFFFFFFFFFFFFFFFFFFFFFFFFFFFFFFFFFFFFFFFFFFFFF DUP3 EQ ISZERO PUSH2 0x801 JUMPI PUSH2 0x800 PUSH2 0x83D JUMP JUMPDEST JUMPDEST PUSH1 0x1 DUP3 ADD SWAP1 POP SWAP2 SWAP1 POP JUMP JUMPDEST PUSH1 0x0 PUSH2 0x817 DUP3 PUSH2 0x7B9 JUMP JUMPDEST SWAP2 POP PUSH2 0x822 DUP4 PUSH2 0x7B9 JUMP JUMPDEST SWAP3 POP DUP3 PUSH2 0x832 JUMPI PUSH2 0x831 PUSH2 0x86C JUMP JUMPDEST JUMPDEST DUP3 DUP3 MOD SWAP1 POP SWAP3 SWAP2 POP POP JUMP JUMPDEST PUSH32 0x4E487B7100000000000000000000000000000000000000000000000000000000 PUSH1 0x0 MSTORE PUSH1 0x11 PUSH1 0x4 MSTORE PUSH1 0x24 PUSH1 0x0 REVERT JUMPDEST PUSH32 0x4E487B7100000000000000000000000000000000000000000000000000000000 PUSH1 0x0 MSTORE PUSH1 0x12 PUSH1 0x4 MSTORE PUSH1 0x24 PUSH1 0x0 REVERT JUMPDEST PUSH32 0x4E487B7100000000000000000000000000000000000000000000000000000000 PUSH1 0x0 MSTORE PUSH1 0x32 PUSH1 0x4 MSTORE PUSH1 0x24 PUSH1 0x0 REVERT JUMPDEST PUSH1 0x0 DUP1 REVERT JUMPDEST PUSH2 0x8D8 DUP2 PUSH2 0x7B9 JUMP JUMPDEST DUP2 EQ PUSH2 0x8E3 JUMPI PUSH1 0x0 DUP1 REVERT JUMPDEST POP JUMP INVALID LOG2 PUSH5 0x6970667358 0x22 SLT KECCAK256 PUSH17 0xA52813F73C6D339DFCD2ED12DCA6B1A774 MUL PUSH30 0x3C960AE25A7EDD5EBD1A558C64736F6C6343000807003300000000000000 "
		},
		"gasEstimates": {
			"creation": {
				"codeDepositCost": "466400",
				"executionCost": "infinite",
				"totalCost": "infinite"
			},
			"external": {
				"getDay(uint256)": "infinite",
				"getHour(uint256)": "infinite",
				"getMinute(uint256)": "infinite",
				"getMonth(uint256)": "infinite",
				"getSecond(uint256)": "infinite",
				"getYear(uint256)": "infinite",
				"timestampToDate(uint256)": "infinite"
			}
		},
		"methodIdentifiers": {
			"getDay(uint256)": "65c72840",
			"getHour(uint256)": "3e239e1a",
			"getMinute(uint256)": "fa93f883",
			"getMonth(uint256)": "a324ad24",
			"getSecond(uint256)": "8aa001fc",
			"getYear(uint256)": "92d66313",
			"timestampToDate(uint256)": "de5101af"
		}
	},
	"abi": [
		{
			"inputs": [
				{
					"internalType": "uint256",
					"name": "timestamp",
					"type": "uint256"
				}
			],
			"name": "getDay",
			"outputs": [
				{
					"internalType": "uint256",
					"name": "_day",
					"type": "uint256"
				}
			],
			"stateMutability": "view",
			"type": "function"
		},
		{
			"inputs": [
				{
					"internalType": "uint256",
					"name": "timestamp",
					"type": "uint256"
				}
			],
			"name": "getHour",
			"outputs": [
				{
					"internalType": "uint256",
					"name": "_hour",
					"type": "uint256"
				}
			],
			"stateMutability": "view",
			"type": "function"
		},
		{
			"inputs": [
				{
					"internalType": "uint256",
					"name": "timestamp",
					"type": "uint256"
				}
			],
			"name": "getMinute",
			"outputs": [
				{
					"internalType": "uint256",
					"name": "_minute",
					"type": "uint256"
				}
			],
			"stateMutability": "view",
			"type": "function"
		},
		{
			"inputs": [
				{
					"internalType": "uint256",
					"name": "timestamp",
					"type": "uint256"
				}
			],
			"name": "getMonth",
			"outputs": [
				{
					"internalType": "uint256",
					"name": "_month",
					"type": "uint256"
				}
			],
			"stateMutability": "view",
			"type": "function"
		},
		{
			"inputs": [
				{
					"internalType": "uint256",
					"name": "timestamp",
					"type": "uint256"
				}
			],
			"name": "getSecond",
			"outputs": [
				{
					"internalType": "uint256",
					"name": "_second",
					"type": "uint256"
				}
			],
			"stateMutability": "view",
			"type": "function"
		},
		{
			"inputs": [
				{
					"internalType": "uint256",
					"name": "timestamp",
					"type": "uint256"
				}
			],
			"name": "getYear",
			"outputs": [
				{
					"internalType": "uint256",
					"name": "_year",
					"type": "uint256"
				}
			],
			"stateMutability": "view",
			"type": "function"
		},
		{
			"inputs": [
				{
					"internalType": "uint256",
					"name": "timestamp",
					"type": "uint256"
				}
			],
			"name": "timestampToDate",
			"outputs": [
				{
					"internalType": "uint256",
					"name": "_year",
					"type": "uint256"
				},
				{
					"internalType": "uint256",
					"name": "_month",
					"type": "uint256"
				},
				{
					"internalType": "uint256",
					"name": "_days",
					"type": "uint256"
				},
				{
					"internalType": "uint256",
					"name": "_hours",
					"type": "uint256"
				},
				{
					"internalType": "uint256",
					"name": "_minute",
					"type": "uint256"
				},
				{
					"internalType": "uint256",
					"name": "_second",
					"type": "uint256"
				}
			],
			"stateMutability": "view",
			"type": "function"
		}
	]
}