{
	"data": {
		"bytecode": {
			"linkReferences": {},
			"object": "608060405234801561001057600080fd5b50610329806100206000396000f3fe608060405234801561001057600080fd5b506004361061002a5760003560e01c806276bf8d1461002f575b600080fd5b610049600480360381019061004491906100d2565b61005f565b604051610056919061010e565b60405180910390f35b6000806201518083610071919061017f565b90506008610e10620151808361008791906101b0565b85610092919061020a565b61009c919061017f565b6100a69190610129565b91506018826100b59190610248565b915050919050565b6000813590506100cc816102dc565b92915050565b6000602082840312156100e8576100e76102d7565b5b60006100f6848285016100bd565b91505092915050565b6101088161023e565b82525050565b600060208201905061012360008301846100ff565b92915050565b60006101348261023e565b915061013f8361023e565b9250827fffffffffffffffffffffffffffffffffffffffffffffffffffffffffffffffff0382111561017457610173610279565b5b828201905092915050565b600061018a8261023e565b91506101958361023e565b9250826101a5576101a46102a8565b5b828204905092915050565b60006101bb8261023e565b91506101c68361023e565b9250817fffffffffffffffffffffffffffffffffffffffffffffffffffffffffffffffff04831182151516156101ff576101fe610279565b5b828202905092915050565b60006102158261023e565b91506102208361023e565b92508282101561023357610232610279565b5b828203905092915050565b6000819050919050565b60006102538261023e565b915061025e8361023e565b92508261026e5761026d6102a8565b5b828206905092915050565b7f4e487b7100000000000000000000000000000000000000000000000000000000600052601160045260246000fd5b7f4e487b7100000000000000000000000000000000000000000000000000000000600052601260045260246000fd5b600080fd5b6102e58161023e565b81146102f057600080fd5b5056fea26469706673582212207121908f01dc16b4d8827b0ca607f4407135a1a29d6e271b7acb89ad5a7388e864736f6c63430008070033",
			"opcodes": "PUSH1 0x80 PUSH1 0x40 MSTORE CALLVALUE DUP1 ISZERO PUSH2 0x10 JUMPI PUSH1 0x0 DUP1 REVERT JUMPDEST POP PUSH2 0x329 DUP1 PUSH2 0x20 PUSH1 0x0 CODECOPY PUSH1 0x0 RETURN INVALID PUSH1 0x80 PUSH1 0x40 MSTORE CALLVALUE DUP1 ISZERO PUSH2 0x10 JUMPI PUSH1 0x0 DUP1 REVERT JUMPDEST POP PUSH1 0x4 CALLDATASIZE LT PUSH2 0x2A JUMPI PUSH1 0x0 CALLDATALOAD PUSH1 0xE0 SHR DUP1 PUSH3 0x76BF8D EQ PUSH2 0x2F JUMPI JUMPDEST PUSH1 0x0 DUP1 REVERT JUMPDEST PUSH2 0x49 PUSH1 0x4 DUP1 CALLDATASIZE SUB DUP2 ADD SWAP1 PUSH2 0x44 SWAP2 SWAP1 PUSH2 0xD2 JUMP JUMPDEST PUSH2 0x5F JUMP JUMPDEST PUSH1 0x40 MLOAD PUSH2 0x56 SWAP2 SWAP1 PUSH2 0x10E JUMP JUMPDEST PUSH1 0x40 MLOAD DUP1 SWAP2 SUB SWAP1 RETURN JUMPDEST PUSH1 0x0 DUP1 PUSH3 0x15180 DUP4 PUSH2 0x71 SWAP2 SWAP1 PUSH2 0x17F JUMP JUMPDEST SWAP1 POP PUSH1 0x8 PUSH2 0xE10 PUSH3 0x15180 DUP4 PUSH2 0x87 SWAP2 SWAP1 PUSH2 0x1B0 JUMP JUMPDEST DUP6 PUSH2 0x92 SWAP2 SWAP1 PUSH2 0x20A JUMP JUMPDEST PUSH2 0x9C SWAP2 SWAP1 PUSH2 0x17F JUMP JUMPDEST PUSH2 0xA6 SWAP2 SWAP1 PUSH2 0x129 JUMP JUMPDEST SWAP2 POP PUSH1 0x18 DUP3 PUSH2 0xB5 SWAP2 SWAP1 PUSH2 0x248 JUMP JUMPDEST SWAP2 POP POP SWAP2 SWAP1 POP JUMP JUMPDEST PUSH1 0x0 DUP2 CALLDATALOAD SWAP1 POP PUSH2 0xCC DUP2 PUSH2 0x2DC JUMP JUMPDEST SWAP3 SWAP2 POP POP JUMP JUMPDEST PUSH1 0x0 PUSH1 0x20 DUP3 DUP5 SUB SLT ISZERO PUSH2 0xE8 JUMPI PUSH2 0xE7 PUSH2 0x2D7 JUMP JUMPDEST JUMPDEST PUSH1 0x0 PUSH2 0xF6 DUP5 DUP3 DUP6 ADD PUSH2 0xBD JUMP JUMPDEST SWAP2 POP POP SWAP3 SWAP2 POP POP JUMP JUMPDEST PUSH2 0x108 DUP2 PUSH2 0x23E JUMP JUMPDEST DUP3 MSTORE POP POP JUMP JUMPDEST PUSH1 0x0 PUSH1 0x20 DUP3 ADD SWAP1 POP PUSH2 0x123 PUSH1 0x0 DUP4 ADD DUP5 PUSH2 0xFF JUMP JUMPDEST SWAP3 SWAP2 POP POP JUMP JUMPDEST PUSH1 0x0 PUSH2 0x134 DUP3 PUSH2 0x23E JUMP JUMPDEST SWAP2 POP PUSH2 0x13F DUP4 PUSH2 0x23E JUMP JUMPDEST SWAP3 POP DUP3 PUSH32 0xFFFFFFFFFFFFFFFFFFFFFFFFFFFFFFFFFFFFFFFFFFFFFFFFFFFFFFFFFFFFFFFF SUB DUP3 GT ISZERO PUSH2 0x174 JUMPI PUSH2 0x173 PUSH2 0x279 JUMP JUMPDEST JUMPDEST DUP3 DUP3 ADD SWAP1 POP SWAP3 SWAP2 POP POP JUMP JUMPDEST PUSH1 0x0 PUSH2 0x18A DUP3 PUSH2 0x23E JUMP JUMPDEST SWAP2 POP PUSH2 0x195 DUP4 PUSH2 0x23E JUMP JUMPDEST SWAP3 POP DUP3 PUSH2 0x1A5 JUMPI PUSH2 0x1A4 PUSH2 0x2A8 JUMP JUMPDEST JUMPDEST DUP3 DUP3 DIV SWAP1 POP SWAP3 SWAP2 POP POP JUMP JUMPDEST PUSH1 0x0 PUSH2 0x1BB DUP3 PUSH2 0x23E JUMP JUMPDEST SWAP2 POP PUSH2 0x1C6 DUP4 PUSH2 0x23E JUMP JUMPDEST SWAP3 POP DUP2 PUSH32 0xFFFFFFFFFFFFFFFFFFFFFFFFFFFFFFFFFFFFFFFFFFFFFFFFFFFFFFFFFFFFFFFF DIV DUP4 GT DUP3 ISZERO ISZERO AND ISZERO PUSH2 0x1FF JUMPI PUSH2 0x1FE PUSH2 0x279 JUMP JUMPDEST JUMPDEST DUP3 DUP3 MUL SWAP1 POP SWAP3 SWAP2 POP POP JUMP JUMPDEST PUSH1 0x0 PUSH2 0x215 DUP3 PUSH2 0x23E JUMP JUMPDEST SWAP2 POP PUSH2 0x220 DUP4 PUSH2 0x23E JUMP JUMPDEST SWAP3 POP DUP3 DUP3 LT ISZERO PUSH2 0x233 JUMPI PUSH2 0x232 PUSH2 0x279 JUMP JUMPDEST JUMPDEST DUP3 DUP3 SUB SWAP1 POP SWAP3 SWAP2 POP POP JUMP JUMPDEST PUSH1 0x0 DUP2 SWAP1 POP SWAP2 SWAP1 POP JUMP JUMPDEST PUSH1 0x0 PUSH2 0x253 DUP3 PUSH2 0x23E JUMP JUMPDEST SWAP2 POP PUSH2 0x25E DUP4 PUSH2 0x23E JUMP JUMPDEST SWAP3 POP DUP3 PUSH2 0x26E JUMPI PUSH2 0x26D PUSH2 0x2A8 JUMP JUMPDEST JUMPDEST DUP3 DUP3 MOD SWAP1 POP SWAP3 SWAP2 POP POP JUMP JUMPDEST PUSH32 0x4E487B7100000000000000000000000000000000000000000000000000000000 PUSH1 0x0 MSTORE PUSH1 0x11 PUSH1 0x4 MSTORE PUSH1 0x24 PUSH1 0x0 REVERT JUMPDEST PUSH32 0x4E487B7100000000000000000000000000000000000000000000000000000000 PUSH1 0x0 MSTORE PUSH1 0x12 PUSH1 0x4 MSTORE PUSH1 0x24 PUSH1 0x0 REVERT JUMPDEST PUSH1 0x0 DUP1 REVERT JUMPDEST PUSH2 0x2E5 DUP2 PUSH2 0x23E JUMP JUMPDEST DUP2 EQ PUSH2 0x2F0 JUMPI PUSH1 0x0 DUP1 REVERT JUMPDEST POP JUMP INVALID LOG2 PUSH5 0x6970667358 0x22 SLT KECCAK256 PUSH18 0x21908F01DC16B4D8827B0CA607F4407135A1 LOG2 SWAP14 PUSH15 0x271B7ACB89AD5A7388E864736F6C63 NUMBER STOP ADDMOD SMOD STOP CALLER "
		},
		"gasEstimates": {
			"creation": {
				"codeDepositCost": "161800",
				"executionCost": "208",
				"totalCost": "162008"
			},
			"external": {
				"timestampToHour(uint256)": "infinite"
			}
		},
		"methodIdentifiers": {
			"timestampToHour(uint256)": "0076bf8d"
		}
	},
	"abi": [
		{
			"inputs": [
				{
					"internalType": "uint256",
					"name": "timestamp",
					"type": "uint256"
				}
			],
			"name": "timestampToHour",
			"outputs": [
				{
					"internalType": "uint256",
					"name": "_hours",
					"type": "uint256"
				}
			],
			"stateMutability": "pure",
			"type": "function"
		}
	]
}